:100000000C94AE020C94DA040C94F5020C94F502F4
:100010000C94F5020C94F5020C94F5020C94F50284
:100020000C94F5020C94F5020C94C41F0C949720C8
:100030000C9485160C94F5020C94F5020C94F502C0
:100040000C94F5020C94F5020C94F5020C94F50254
:100050000C94F5020C94ED160C94F5020C94F50238
:100060000C94F5020C94F5020C94F5020C94F50234
:100070000C94F5020C94F5020C94F5020C94F50224
:100080000C94F5020C94F5020C94F5020C94F50214
:100090000C94F5020C94F5020C94F5020C94F50204
:1000A0000C94F5020C94F5020C94F50202E07A032C
:1000B000E05B002B0014001A00080015001700294F
:1000C0006104001600070009000A0087621D001B7A
:1000D000000600190005005045516452644F6891B4
:1000E000432C412A00130012000C0018001C0028A9
:1000F0004233000F000E000D000B002D00380037BA
:10010000003600100011004F0052005100500090C6
:10011000442C410000000000004D000000000000E1
:10012000004A0000004C004E0000000000000000EB
:1001300000000000004B0000000000000000000074
:100140000001002A00003000000000000000000054
:100150000000004F0052005100500000000000005D
:10016000000030000000000000000000000000005F
:10017000000100000000000000F00000000000008E
:10018000000000F200F100F3000000010000000098
:10019000000000000000000000010000000000005E
:1001A0000000000000AE00000000000000000001A0
:1001B000000000AB00A900AA00AC0000000000A8ED
:1001C00000A906AA060000000000000000000000D0
:1001D00000000000001E022F002002210222020067
:1001E000002E0289022D0289002F0200000000006B
:1001F00000000000000000005C00000000000001A2
:10020000000000010034022602250223022E0032E3
:1002100002340032003000300224028702380237F4
:1002200002360233021F02000000003202300200D8
:100230000001002B001E001F0020002100220000F2
:10024000001E001F0020002100220001000000000D
:1002500000000000000000005C010001000100013E
:1002600000010001002700260025002400230001D2
:1002700000270026002500240023000100010001C2
:100280000001003400000000000000000000000138
:10029000000100005C0100010001000100010001FB
:1002A000003A003B003C003D003E0001000100011F
:1002B0000001000100010001000100010001000136
:1002C00000010001000100010001000100010044E3
:1002D0000043004200410040003F00450001000192
:1002E0000001000100010001000100010001000106
:1002F00000010000000000000000002A2B28000080
:1003000000000000000000000000000000002900C4
:100310000000002C1E1F20212223242526343336E2
:100320002D3738271E1F202122232425263433363B
:100330002D37382F0405060708090A0B0C0D0E0F80
:10034000101112131415161718191A1B1C1D3089B9
:10035000312E872F0405060708090A0B0C0D0E0F16
:10036000101112131415161718191A1B1C1D308999
:10037000312E4C00000000000000000000000000D2
:10038000000000000000000000000000000000006D
:100390000000000001010101010101010101010052
:1003A000000000000000000000000000000000014C
:1003B000010101000101010101010101010101012E
:1003C000010101010101010101010101010100001F
:1003D000000001010000000000000000000000001B
:1003E000000000000000000000000000000001010B
:1003F0000101000403300000001C034C0065007480
:100400000073002000530070006C0069007400202D
:1004100000760032000000160357006F006F007472
:10042000007000610074006F006F00740000000431
:1004300003090409025400030100A0FA09040000A2
:1004400001030101000921110100012240000705FB
:10045000810308000A0904010001030102000921C7
:1004600011010001224D000705820308000A09045A
:1004700002000103000000092111010001223600E1
:100480000705830308000A1201100100000008EDAF
:10049000FE603001000102030105010980A1018510
:1004A000021601002603001A81002A8300751095A8
:1004B000018100C0050C0901A10185031601002678
:1004C0009C021A01002A9C02751095018100C0054A
:1004D000010902A1010901A1000509190129051558
:1004E00000250195057501810295017503810105BE
:1004F00001093009311581257F95027508810609AA
:10050000381581257F950175088106050C0A38028A
:100510001581257F950175088106C0C00501090672
:10052000A101050719E029E71500250195087501C6
:1005300081029501750881010508190129059505B4
:10054000750191029501750391010507190029FFB5
:10055000150026FF00950675088100C011241FBEF6
:10056000CFEFDAE0DEBFCDBF04B603FE27C0809137
:10057000F4019091F501A091F601B091F701873057
:10058000904BA740B04BD1F41092F4011092F501BA
:100590001092F6011092F70114BE84B7877F84BFD2
:1005A0000FB6F894A89580916000886180936000F0
:1005B000109260000FBEE0E0F8E3099511E0A0E0C2
:1005C000B1E0E2E6F5E402C005900D92AC33B1076C
:1005D000D9F721E0ACE3B1E001C01D92A43FB2071E
:1005E000E1F70E94F31C0C94AF220C9400000895D4
:1005F00008950C94F80208958091C7018360886083
:100600008093C701AAE1B1E061E070E08D91E82F2D
:10061000E295EF70F0E041A18F709B0101C0220FC5
:100620008A95EAF7922F9095942391A382A1822B29
:1006300082A381E0AE31B80749F7A4E1B1E061E0FF
:1006400070E08D91E82FE295EF70F0E041A18F709E
:100650009B0101C0220F8A95EAF7922F909594236F
:1006600091A382A1822B82A381E0AA31B80749F726
:10067000559A209AECE3F1E0A5E4B1E084E491E03E
:1006800011921D928E179F07D9F70C94FA054F927D
:100690005F927F928F929F92AF92BF92CF92DF92A2
:1006A000EF92FF920F931F93CF93DF9380910001FE
:1006B00004E010E0882311F010E000E0C8018B5B3B
:1006C0009E4F7C018AE1C82E81E0D82EE701AA2442
:1006D000A394B12C9924939488801882D6018D918B
:1006E0006D01E82FE295EF70F0E091A18F70950118
:1006F00001C0220F8A95EAF7892F822B81A382A15C
:10070000722E7094872182A3B0EABA95F1F744E182
:1007100051E090E080E0DA017D91AD01A72FA29534
:10072000AF70B0E09096BC91A8817F70250102C0A7
:10073000440C551C7A95E2F7B2016B2309F04EC0C8
:100740006A2D082E01C0660F0A94EAF76A2B6883A7
:10075000019686309105F9F681A1872181A382A1B6
:10076000282B22A38881881641F090924D010E9487
:10077000B71690934F0180934E0121968EE1C816D3
:1007800081E0D80609F0A8CF80914D018823A9F017
:1007900080914E0190914F010E94C316069768F018
:1007A000F801E45CFE4F80E0D7019D917D019193BB
:1007B0008F5F8430C9F710924D0181E0DF91CF91B6
:1007C0001F910F91FF90EF90DF90CF90BF90AF906F
:1007D0009F908F907F905F904F90089560E0B6CF8C
:1007E000CF93DF9380910001D0E0C0E0882311F027
:1007F000C4E0D0E00E943F05009789F4C45CDE4F5E
:1008000030E020E0F901EE5AFE4F408149932F5F1E
:100810003F4F24303105B1F7DF91CF91089581E04A
:1008200090E0FACFCF930E944703C82F0E94F003B5
:10083000892BD9F05D98809144018F5F80934401AA
:10084000863070F080910001F0E0E0E0882311F044
:10085000E4E0F0E0E45CFE4F108211821282138229
:100860000E94FC058C2FCF9108955D9A109244014F
:10087000F7CF0E94470380910001E4E0F0E0882375
:1008800011F0F0E0E0E0E45CFE4F90E080E02191C8
:10089000DC01AE5ABE4F2C93019684309105B9F716
:1008A0000C94FB02E82FF0E0E45CFE4F8081089599
:1008B0000895E8EDF0E08081806180838AE18A9587
:1008C000F1F700C08091D900817008950E94590409
:1008D000809300010E945904882321F00E94CD04D6
:1008E000789408950E94AE160E94D104F9CF0E9418
:1008F000FC020E943904FDCF0E9466040E94590444
:10090000811102C00E9477040895509A089550986A
:10091000589A0895589A08950E948704489BFECFDC
:1009200080E88A95F1F708950E94870498E080E0B6
:1009300029B1880F2170822B20E82A95F1F725E054
:100940002A95F1F70000915099F708950F931F939E
:10095000CF93082F0E948504C8E010E0C15020F416
:10096000CF911F910F910895C8010C2E02C095954B
:1009700087950A94E2F780FF06C00E948A0480E807
:100980008A95F1F7EBCF5898FACF0E9485045898D2
:1009900080E88A95F1F70C948A040E9485040C94EF
:1009A0008A040E948704E89AE9E6F0E080818C7F5F
:1009B000808308951F920F920FB60F921124EF9229
:1009C000FF921F932F933F934F935F936F937F9368
:1009D0008F939F93AF93BF93CF93DF93EF93FF9347
:1009E0000E94C504D0E0C0E010E0CE018E5A9E4FB8
:1009F0007C01FC0180810E94A6040E94C504F701CD
:100A00008081180F2196C430D10579F7812F0E947B
:100A1000A6040E94C504F0E8FA95F1F780E48A95EF
:100A2000F1F70E949404809351010E94C504C09183
:100A300051010E949404D82F0E94C5040E9487048B
:100A400080915001DC17C9F0816080935001FF91C3
:100A5000EF91DF91CF91BF91AF919F918F917F9156
:100A60006F915F914F913F912F911F91FF90EF9068
:100A70000F900FBE0F901F9018958E7FE6CFEF92CC
:100A8000FF921F93CF93DF93F8940E9485045898A8
:100A900025E02A95F1F700000E9487040E948A044D
:100AA00030E83A95F1F7489B09C0789481E090E0EE
:100AB000DF91CF911F91FF90EF9008950E948C04D9
:100AC000D0E0C0E010E00E949404FE01EE5AFE4F18
:100AD0007F0180830E948C04F7018081180F21968A
:100AE000C430D10581F70E949404C82F0E948C0461
:100AF000C113DBCF809151010E94A6040E948C0497
:100B0000809151010E94A6040E948C040E948504D9
:100B10000E948A04789490E080E0CACF0C94F70297
:100B2000611104C08CEA90E00E94F70590E080E03B
:100B3000089581E0089581E008950C949B05CF937A
:100B400090E0FC01ED50FD4FC4918D589C4FFC018D
:100B50008491882369F081EE0E94830B8C2F0E9480
:100B6000830B8C2F0E94640C81EECF910C94640C4B
:100B70008C2F0E94830B8C2FF8CFFF920F931F9323
:100B8000CF93DF938C01F62EF8018491882349F1ED
:100B9000E8012196813049F4FE011491812F0E94D1
:100BA000830B812F0E94640C06C0823089F4FE0101
:100BB00084910E94830B8E010F5F1F4F8F2D8150F8
:100BC00018F3EFE9FFE03197F1F700C00000F7CF2D
:100BD000833019F4FE018491E5CF0E949F05E8015E
:100BE000EACFDF91CF911F910F91FF90089560E0C0
:100BF0000C94BD050C948E050C94F90208950C9488
:100C0000FE050C94FF0508950E94920F0E940306B2
:100C10002FEF84E39CE0215080409040E1F700C03A
:100C2000000087E797E790930108809300080C94F1
:100C300013170F931F93CF93DF938C01FC01C08197
:100C4000D181CE010E94B714BE010E949407EC012D
:100C5000B8010E949D05882309F452C0B801CE0155
:100C60000E94F809882309F44BC0C531FCE5DF0771
:100C700009F439C1B0F4C130ECE5DE0709F446C02F
:100C800008F056C0C115DC45B1F181E080935B01ED
:100C900080935C01C801DF91CF911F910F910C945B
:100CA0009905C63DECE5DE0709F402C1B8F4C43D80
:100CB0008CE5D80709F4C0C0C53DDC4531F7F80123
:100CC0008281882309F4DFC010925C010E94B7166C
:100CD00090935A018093590180E2BBC0C93DFCE565
:100CE000DF07F1F0CA3DDC4581F6F80182818823F7
:100CF00039F082E01AC0F801828181110E94040655
:100D000080E0DF91CF911F910F910895F8018281CA
:100D10008823B1F38091C70181608093C701F0CF30
:100D2000F8018281882361F380E00E948C1DE8CF66
:100D3000F8018281882309F4ADCF0E94D615811174
:100D400002C00E94BC150E94E91590E09093E60154
:100D50008093E501FE01E350FC458091E50181604F
:100D6000E231F105C8F4E954F94F0C945F22C90649
:100D7000D506D906DD06E106E506E906ED06F1062B
:100D8000F506F906FD060107050709070D07110716
:100D900015078091E50182608093E5018091E5016E
:100DA0000E94ED150E94920FABCF8091E501846007
:100DB000F3CF8091E5018860EFCF8091E5018061FC
:100DC000EBCF8091E5018062E7CF8091E5018064FF
:100DD000E3CF8091E5018068DFCF8091E5018460F9
:100DE000EACF8091E5018E7FD7CF8091E5018D7F9D
:100DF000D3CF8091E5018B7FCFCF8091E501877FB5
:100E0000CBCF8091E5018F7EC7CF8091E5018F7DAB
:100E1000C3CF8091E5018F7BBFCF8091E5018F77B4
:100E2000BBCF8091E5018B7FEACF9091E501892FBF
:100E300097FB87F98058B0CFF8018281882361F051
:100E400010925B010E94B71690935801809357014E
:100E500082E00E94B80C54CF80915B0181110FC0D9
:100E600080915701909158010E94C316883C9105CA
:100E700030F486E20E94830B86E20E94640C82E0DA
:100E80000E94BF0C3DCF80915C0181110FC0809109
:100E9000590190915A010E94C316883C910530F483
:100EA00087E20E94830B87E20E94640C80E2E8CF15
:100EB000F8018281811108CF80915C018111F6CF08
:100EC0008091590190915A010E94C316883C910566
:100ED00068F780E20E94BF0C88E20E94830B88E2E0
:100EE0000E94640C0DCF0E947D15F8019281992318
:100EF00081F08A7A91E009F490E090935601811193
:100F000006C089E20E9406150E944A15F9CE85E3C3
:100F1000F9CF80915601811104C089E20E940D151C
:100F2000F3CF85E3FBCF0895972F70E026E0929FE3
:100F3000600D711D1124FB0190E3899FE00DF11DEF
:100F40001124EE0FFF1FED54FF4F859194910895EA
:100F5000FC01EE0FFF1FED50FC4F85919491089519
:100F6000CF93DF930E9494070E945409EC018115EE
:100F7000904508F043C0C11580E4D80708F00AC1C5
:100F8000C83ED10528F5C03ED10508F09EC0C83A3C
:100F9000D10580F4C53AD10508F08DC0C130D10526
:100FA00009F493C020F0C430D10508F08EC0D0E021
:100FB000C0E08BC0CD3BD10508F48BC0CE01805C76
:100FC0009109C03CD10598F30E94A807EC017DC0AF
:100FD000C11520E2D20750F4C11581E0D80708F00E
:100FE00074C0C03FD10518F3D0656FC0C11520E3B0
:100FF000D20708F0C5C0CE019F70E6CFC11585E5C8
:10100000D80760F5C11524E5D20708F0F1C0C11575
:1010100082E5D80750F4C11521E5D20708F4BDC018
:10102000DC2FCC27C16FD06A50C09C2F9695969527
:101030009E0123703327C115D34508F0CAC0C1E013
:10104000D0E002C0CC0FDD1F2A95E2F720E2929F8C
:10105000C0011124C82BD92BDC6837C0C11529E584
:10106000D20780F4C11588E5D80708F0C6C0C115BD
:1010700026E5D20708F09BCFDC2FCC27CC27DF71E9
:10108000D06223C0C1158AE5D80708F4BBC0CE01E1
:1010900090568115904208F08ACF8D2F8F710E9453
:1010A000D409DD27D06290E0982F882788279F7188
:1010B000C82BD92B0AC0C53AD10509F4B0C0C63A2D
:1010C000D10509F4AFC0C3E8D0E4CE01DF91CF91E0
:1010D0000895C83AD10509F4A8C0C93AD10509F460
:1010E000A7C0CA3AD10509F4A6C0CB3AD10509F484
:1010F000A5C0CC3AD10509F4A4C0CB3BD10509F475
:10110000A3C0CC3BD10509F4A2C0CD3AD10509F466
:10111000A1C0C03BD10509F4A0C0CE3AD10509F465
:101120009FC0CF3AD10509F49EC0C13BD10509F457
:101130009DC0C23BD10509F49CC0C33BD10509F455
:101140009BC0C43BD10509F49AC0C53BD10509F445
:1011500099C0C63BD10509F498C0C73BD10509F435
:1011600097C0C83BD10509F496C0C93BD10509F425
:1011700095C0CA3BD10509F094C0CAE2D6E4A5CF18
:10118000CE019927D3FF03C0EC01D86C9ECFEC01B0
:10119000D06C9BCFDF70D06A98CFCE01E4E09695FB
:1011A0008795EA95E1F783709C2F937021E030E0FA
:1011B00002C0220F331F9A95E2F73C68382BC69580
:1011C000C695C37080E2C89FE0011124C22BD32BC7
:1011D0007CCFC1E0D0E002C0CC0FDD1F2A95E2F742
:1011E00020E2929FC0011124C82BD92BDA686DCF61
:1011F000DC2FCC27C46FD06A68CFDC2FCC27C06F20
:10120000D06A63CFCE0134E0969587953A95E1F7A1
:101210008F70CF70C06ED0E0D06AD82B56CFC1E8A7
:10122000D0E453CFC2E8D0E450CFC2EED4E44DCFE7
:10123000C9EED4E44ACFCAEED4E447CFC5EBD4E438
:1012400044CFC6EBD4E441CFC3EBD4E43ECFC4EBF0
:10125000D4E43BCFC7EBD4E438CFCCECD4E435CFE7
:10126000CDECD4E432CFC3E8D5E42FCFCAE8D5E43F
:101270002CCFC2E9D5E429CFC4E9D5E426CFC1E219
:10128000D6E423CFC3E2D6E420CFC4E2D6E41DCF18
:10129000C5E2D6E41ACFC6E2D6E417CFC7E2D6E459
:1012A00014CFC0E0D4E411CF8238910549F1B0F4F5
:1012B0008133910509F45CC048F48932910509F441
:1012C00052C08A32910509F458C0089585339105BA
:1012D00009F444C08933910599F00895833E91053E
:1012E00031F138F4803E910591F0823E9105B1F0E4
:1012F0000895863E910511F1873E910541F10895CB
:101300002091E5012370C9F080EE90E008952091CE
:10131000E50120FF12C089E390E008952091E501E6
:1013200022FF0BC024FF2EC090E080E008952091A2
:10133000E50122FD2AC024FDF7CF08952091E501A3
:1013400023FFFBCF24FDF0CF87EE90E0089520919E
:10135000E50123FFF0CF86EE90E008952091E501AE
:1013600025FD16C008952091E50125FD14C00895BE
:101370002091E50126FD12C008952091E50126FD8A
:1013800010C0089583EE90E0089582EE90E00895F5
:1013900089E290E0089585E390E008958AE290E084
:1013A000089581E390E0C9CF9091E50192FF06C0D6
:1013B000282F2871283069F4877F846093FF06C046
:1013C000282F2871283161F4877E846194FD877EFF
:1013D0000895282F2471243089F78B7F8860EECF01
:1013E000282F2471243191F78B7E8861EFCF0895E7
:1013F0000F931F93CF938C01FB018281811106C053
:10140000C1E08C2FCF911F910F910895C0916A0177
:10141000C11125C006311C4599F70E94F70981E0EA
:1014200080936A010E94B7169093690180936801C6
:1014300010925D0110925F0110925E0110926101A5
:101440001092600110926301109262011092650186
:10145000109264011092670110926601D2CF8091C0
:101460006801909169010E94C3168C32914040F648
:1014700080915D01E82FF0E0EE0FFF1FE25AFE4F72
:10148000118300838F5F80935D01C0E0BACF90939A
:10149000700180936F010895E0916F01F0917001E8
:1014A000309721F00190F081E02D099480E00895BB
:1014B000E0916F01F0917001309721F00280F3818B
:1014C000E02D09940895E0916F01F091700130973B
:1014D00021F00480F581E02D0994089520916D019B
:1014E00030916E012817390771F090936E01809347
:1014F0006D01E0916F01F0917001309721F006804D
:10150000F781E02D0994089520916B0130916C01D1
:101510002817390771F090936C0180936B01E0916B
:101520006F01F0917001309721F00084F185E02D7A
:10153000099408950C947C0481E008950E94AE16ED
:1015400085B7806885BF85B7806885BF0E94FC022B
:101550000C942417BF92CF92DF92EF92FF920F93D9
:101560001F93CF93DF93CDB7DEB72A970FB6F894CA
:10157000DEBF0FBECDBF0E9412040E949C0A8823CA
:1015800009F471C082E7C82E81E0D82E10E000E097
:10159000B02E802F0E945204E82EF601F1906F01C8
:1015A000F81609F45AC08091C70181FD0E945804C1
:1015B00090E080E0FE242F2D30E0482FB901082E66
:1015C00002C0759567950A94E2F760FF41C08E836B
:1015D000BF8281E090E06C0102C0CC0CDD1C4A951A
:1015E000E2F72E2D30E02C213D21232B09F480E061
:1015F00088870E94B7168160782F9A8789874E81E5
:101600005F8168858A850E94540BF801EE58FE4F71
:1016100080818C2580830E94B7180E944C0A90918B
:101620007101891789F10E944C0A809371012A96F1
:101630000FB6F894DEBF0FBECDBFDF91CF911F91E3
:101640000F91FF90EF90DF90CF90BF900C94010628
:1016500001968630910509F0B0CF0F5F1F4F08301B
:10166000110509F095CF8FEF89838A831B820E9431
:10167000B7168160782F9D838C8349815A816B8155
:101680008D810E94540BC7CF2A960FB6F894DEBF07
:101690000FBECDBFDF91CF911F910F91FF90EF90C3
:1016A000DF90CF90BF900895CF93DF93CDB7DEB793
:1016B0002B970FB6F894DEBF0FBECDBF4F83588770
:1016C00069877A878B871E821D8285E0FE013796A7
:1016D000DE01119601900D928A95E1F749815A81B8
:1016E0006B817C818D819E812B960FB6F894DEBF35
:1016F0000FBECDBFDF91CF910C948A12FC01808187
:1017000091810C94F914CF93C82F882309F4DAC07F
:101710008238C1F40E944C0A81FDD4C089E30E9442
:1017200006150E944A152FEF81EE94E0215080406B
:101730009040E1F700C0000089E30E940D15CF91B1
:101740000C944A158338A1F40E944C0A80FDBAC05B
:1017500083E50E9406150E944A152FEF81EE94E062
:10176000215080409040E1F700C0000083E5E5CFC4
:101770008438A1F40E944C0A82FDA4C087E40E9430
:1017800006150E944A152FEF81EE94E0215080400B
:101790009040E1F700C0000087E4CFCF8CEF8C0FC2
:1017A000813A48F48C2F0E94C51A81118BC08C2F6E
:1017B0000E940615C4CF80E28C0F883048F4C770B1
:1017C00081E001C0880FCA95EAF70E948015B7CF63
:1017D0008BE58C0F833068F481E890E0C53A31F0F6
:1017E00083E890E0C63A11F482E890E0CF910C943F
:1017F0006E0A88E58C0F853108F05EC082EE90E0BD
:10180000C83A09F456C089EE90E0C93A09F451C0CB
:101810008AEE90E0CA3A09F44CC085EB90E0CB3AEE
:1018200009F447C086EB90E0CC3A09F442C083EB60
:1018300090E0CB3BF1F184EB90E0CC3BD1F187EB36
:1018400090E0CD3AB1F18CEC90E0C03B91F18DECA1
:1018500090E0CE3A71F183E891E0CF3A51F18AE815
:1018600091E0C13B31F182E991E0C23B11F184E9A1
:1018700091E0C33BF1F081E292E0C43BD1F083E21E
:1018800092E0C53BB1F084E292E0C63B91F085E284
:1018900092E0C73B71F086E292E0C83B51F087E2EC
:1018A00092E0C93B31F090E080E0CA3B11F48AE25B
:1018B00092E0CF910C94840AC03F20F08C2FCF91FE
:1018C0000C94C017CF910895882309F450C0823832
:1018D00071F40E944C0A81FF4AC089E30E940615F8
:1018E0000E944A1589E30E940D150C944A1583380D
:1018F00059F40E944C0A80FF3AC083E50E94061505
:101900000E944A1583E5EFCF843859F40E944C0AAF
:1019100082FF2DC087E40E9406150E944A1587E4C5
:10192000E2CF9CEF980F913AF0F290E2980F983046
:1019300050F4877091E001C0990F8A95EAF7892FDA
:101940000E948615D2CF9BE5980F933020F490E04B
:1019500080E00C946E0A98E5980F953120F490E0A1
:1019600080E00C94840A803F10F00C9428180895AD
:10197000882321F00E9480150C944A15089588232D
:1019800021F00E9486150C944A1508958F929F921B
:10199000AF92BF92DF92EF92FF920F931F93CF937C
:1019A000DF937C01D62FC72FFC01058102950F70B4
:1019B000128111110E949F150E944315D82E882371
:1019C00071F0112331F180E28D0F883010F182E047
:1019D0000E942D150E94431591E0D82ED926BC2EC9
:1019E000B2949FE0B922EB2DF0E0E750F34F0C9456
:1019F0005F220B0D0B0D5B0D5B0DA20DCA0DA90D2A
:101A0000A90D0C0EA90DA70EA70E310FA90DA90D3A
:101A10003A0FD12CE4CF0C2F0F70C07F11F002953C
:101A2000007F1123A9F0002359F080E28D0F883048
:101A300010F0D11109C0802F0E9480150E944A1514
:101A40008D2F0E94830B14C0802F0E949115F6CF1A
:101A50008D2F0E94640C002359F080E28D0F883096
:101A600010F0D11124C0802F0E9486150E944A15C3
:101A7000DD2009F406C20E94201580FD02C2F70194
:101A800012820E941A150E941B14C7010E944D0F5A
:101A90000E941A15DF91CF911F910F91FF90EF9047
:101AA000DF90BF90AF909F908F900C943C14802F4C
:101AB0000E949715DBCFFC2FFF70BF2EC07FC03276
:101AC00019F0B29480EFB822DD2369F0D13049F1EA
:101AD000112391F1002351F1F701858180FFB0CFEF
:101AE0008F70858323C0112381F0011106C00E94ED
:101AF000B9158B290E94B80CBBCF0130C1F70E94E9
:101B0000B9158B290E94B315B3CF011106C00E94ED
:101B1000B6158B2D0E94BF0CABCF013009F4A8CFB6
:101B2000F6CF112329F0063008F0A2CF8B2DE2CF9B
:101B3000053008F09DCFEDCF002359F38D2F0E9483
:101B4000640C96CF8C2F86958695837079F08130C2
:101B5000B9F098E0B91609F49BC0B91608F488CF1B
:101B600086EF8B0D823008F493C082CF8D2F9C2F8F
:101B70009370111102C090E080E00E946E0A78CF4D
:101B80008D2F9C2F9370111102C090E080E00E9475
:101B9000840A6ECF112309F1D53F99F0D63FB9F0F1
:101BA000D43F49F48091DF019091E00181609093EE
:101BB000E0018093DF018D2F0E94C0170E94AC18B6
:101BC00057CF8091DF019091E0018260F0CF80914A
:101BD000DF019091E0018460EACFD53F89F0D63FE4
:101BE000A9F0D43F49F48091DF019091E0018E7F0C
:101BF0009093E0018093DF018D2F0E942818DECFA3
:101C00008091DF019091E0018D7FF2CF8091DF0123
:101C10009091E0018B7FECCF8C2F837009F04BC04B
:101C2000111136C02D2F229526952770220F220FD5
:101C30006D2F6F70862E912CB12CA12C022E04C01A
:101C4000880C991CAA1CBB1C0A94D2F760E070E0B7
:101C5000CB01D4FF0FC06FE070E080E090E004C0E3
:101C6000660F771F881F991F2A95D2F76095709588
:101C700080959095C695C695C370C23071F0A0F45A
:101C8000682979298A299B29C13091F00E94CD13B6
:101C90000E944C0A0E940106EBCE682979298A2904
:101CA0009B290E94DF13F4CF0E94CD13C501B4011C
:101CB0000E94BB13EDCF8695112311F08C2F8170FC
:101CC000882331F32D2F229526952770220F220F7E
:101CD0006D2F6F70862E912CB12CA12C022E04C07A
:101CE000880C991CAA1CBB1C0A94D2F760E070E017
:101CF000CB01D4FF0FC06FE070E080E090E004C043
:101D0000660F771F881F991F2A95D2F760957095E7
:101D100080959095C695C695C370C23051F080F4F9
:101D2000682979298A299B29C13071F00E9492146F
:101D3000AFCF682979298A299B290E94A414A8CFAA
:101D40000E949214C501B4010E948014A1CFE0E268
:101D5000ED0FE53108F066C0F0E0EF54F14F0C9460
:101D60005F22C60EC60EC60EC60EC60EC60EC60E26
:101D7000C60EC60EC60EC60EC60EC60EC60EC60EC3
:101D8000C60ED70EE50EEC0EF30EFD0EDF708C2F97
:101D90008F71112331F00E941B148D2F0E94B80CFB
:101DA000D8CE0E943C148D2F0E94BF0CD2CE11239E
:101DB00041F0053008F0CDCE8C2F8F710E945F145A
:101DC000C8CE063008F0C5CEF7CF8C2F8F71112307
:101DD00039F00E941B14BDCE8C2F8F711123C9F3D3
:101DE0000E943C14B6CE112329F08C2F8F710E94D3
:101DF0000614AFCE0E940114ACCE112349F0CF716E
:101E00008C2F0E941B1463E08C2F0E942415A1CEFE
:101E100081E00E942D15023008F49BCE82E00E94E2
:101E20002D1597CE112349F0002321F08D2F0E940C
:101E3000830B8FCE8C2F8F71CCCF002379F0D933C9
:101E400049F4FFEF27EE83E0F15020408040E1F7B6
:101E500000C000008D2F0E94640C7BCE8C2F8F71F0
:101E6000BFCF4C2F4F706D2FC7010E9490050E946D
:101E70003313FECD4C2F4F706D2FC7010E94930777
:101E8000F7CDDF91CF911F910F91FF90EF90DF90F1
:101E9000BF90AF909F908F9008950F931F93CF9313
:101EA000DF93EC01988189812B813C81232B39F0D0
:101EB0008F3F19F481E09F3F19F080E001C081E07D
:101EC00080FD17C0CE010E941906882391F0688119
:101ED00079818A810E9403158C010E94B6140E94A8
:101EE000B813B801CE01DF91CF911F910F910C94DF
:101EF000C60CDF91CF911F910F9108950E949F15FD
:101F00000E94B0150E9414150E944A150E944B1998
:101F10000E94AC1890E080E00E946E0A90E080E0A1
:101F20000C94840A0E948E150C947E0F0E94F91462
:101F3000E92FE295EF70E250EE30E0F4F0E0ED557D
:101F4000F04F0C945F22B10FB10FBA0FBA0FBC0F54
:101F5000BA0FBA0FBA0FB10FB10FC10FBA0FBA0F44
:101F6000C10F803F19F020F4803E20F481E00895F5
:101F7000843FE1F380E00895803EC0F3813FD1F7D4
:101F8000F5CF93FB882780F90895CF93DF9300D096
:101F900000D01F92CDB7DEB70F900F900F900F902B
:101FA0000F90DF91CF910895CF93DF9300D000D0B1
:101FB00000D0CDB7DEB726960FB6F894DEBF0FBEC1
:101FC000CDBFDF91CF9108951F93CF93DF93C09141
:101FD0007A0116E080917B018C1304C0DF91CF91D0
:101FE0001F910895D0E01C9FF0011D9FF00D11245A
:101FF000E458FE4F408151816281738184819581D3
:102000000E94D40F2196C770E5CF4091AC0150914A
:10201000AD016091AE017091AF018091B0019091DE
:10202000B1010C94D40F20917A0190917B0156E07C
:10203000291302C080E0089530E0529FF001539FC1
:10204000F00D1124E458FE4F7181761306C07081A3
:10205000781303C07281741304C02F5F3F4F277041
:10206000E7CF81E008951F93CF93DF938091B10173
:10207000807FD1F48091AE018823B1F080917A0104
:10208000D0917B01B091AC01C091AD014091AF0105
:102090005091B001A1E0BF3F09F0A0E0BA01609506
:1020A000709516E0D81304C0DF91CF911F91089569
:1020B00021E04115510521F02A2FCF3F09F020E002
:1020C00090E020FD38C0189FF001199FF00D1124F9
:1020D000E458FE4F21812C132EC020812B132BC0DE
:1020E0002281211128C0238134812417350700F172
:1020F000241B350B283C3105F0F42091B1012F70E1
:1021000020612093B10126E0289FF001299FF00D66
:102110001124EF57FE4F80818F70806180838CEA9D
:1021200091E00E944D0FDF91CF911F910C94E40F2D
:10213000260F371FDFCF01968770B4CF9F92AF92E3
:10214000BF92CF92DF92EF92FF920F931F93CF93A4
:10215000DF93CDB7DEB761970FB6F894DEBF0FBE41
:10216000CDBF8C0185E0F801DE011D9601900D9236
:102170008A95E1F7D801DC901196EC9011971296B0
:10218000CC903091AC014091AD018091AF01909124
:10219000B00121E0009731F04F3F19F421E03F3FBB
:1021A00009F020E020FD9AC1F801A380B48090904E
:1021B000AE01992009F43FC1A816B906E0F1B501B6
:1021C000681B790BCB01FF24F394883C910508F040
:1021D000F12C8091B101982F907FFF2009F4E4C089
:1021E00091119DC0FC2C4E112BC03D1129C0C11076
:1021F00027C08F7080618093B1010E9405108CEA26
:1022000091E00E944D0F8091B101D80115968C93F9
:102210008F2D61960FB6F894DEBF0FBECDBFDF9154
:10222000CF911F910F91FF90EF90DF90CF90BF90D3
:10223000AF909F900895809590958A0D9B1DC3CF78
:1022400081E0A114B10431F0BFEFEB1202C081E0D4
:10225000DB1280E080FD1AC081E08C2580FF18C071
:102260004C2D6E2D8D2D0E941310882389F08CEA41
:1022700091E00E944D0F86E0ECEAF1E0DF011D9253
:102280008A95E9F70E940510F12CC2CF80E0E6CFD5
:1022900081E0AB2831F0BFEFEB1202C081E0DB122E
:1022A00080E080FD25C081E08C25E82FE170AE2E16
:1022B00080FF2CC04C2D6E2D8D2D0E941310B82E3A
:1022C000811124C0DD86EE868D859E850E94F914DD
:1022D000292F22952F70223068F0243090F49F70BF
:1022E00069F0D80115969C91907F41F4FB2C90CF1A
:1022F00080E0DBCF9F7011F08823C1F3805E8830CF
:10230000A8F3C8010E944D0FBA2CF0CFCC2009F4DD
:102310007FCF8091B10181608093B101B5CF4E1123
:1023200014C03D1112C0C11010C0F8018583C8014E
:102330000E944D0F86E0F801ACEAB1E001900D92E9
:102340008A95E1F70E94051063CFDD86EE868D85C4
:102350009E850E94960F882319F1CC2009F1809167
:10236000B101803270F02091AC013091AD0138871D
:102370002F831986BB86AA868C87CE0107960E947A
:102380004D0F86E0F801ACEAB1E001900D928A951C
:10239000E1F70E9433100E940510FF24F39438CF18
:1023A000C8010E944D0FF9CF911115C07A2DB98A3D
:1023B000A88A4D2D5E2D6C2D89890E94C50F8CEA4F
:1023C00091E00E944D0F86E0ECEAF1E0DF011D9202
:1023D0008A95E9F7B7CF4E1112C03D1110C0C11058
:1023E0000EC0F8018583C8010E944D0FECEAF1E0B0
:1023F00086E0DF011D928A95E9F7F92C09CFDD8689
:10240000EE868D859E850E94960F882349F2CC200A
:1024100039F28091B101803208F4B3CF2091AC0140
:102420003091AD013A8329831B82BD82AC828E83B9
:10243000CE010196A4CFA816B90638F1F501E81B24
:10244000F90BCF01F12C883C910508F03DC0FC2C24
:10245000CC2009F4A5CF4E1126C03D1124C0809197
:10246000B10180FD17C0982F907FA1F0D80115967B
:102470008C931597903F09F45ACF982F907F905FD7
:102480008F70892B15968C9352CF809590958A0DDD
:102490009B1DD8CF86E0F801ACEAB1E001900D9227
:1024A0008A95E1F7B5CEDD86EE868D859E850E9404
:1024B000960F811166CF8091B10181608093B10147
:1024C000C8010E944D0FA4CE7A2DB98AA88A4D2D3D
:1024D0005E2D6C2D89890E94C50F75CFCC2009F423
:1024E0005FCFDD86EE868D859E850E94960FF82E45
:1024F000882309F455CF86E0F801ACEAB1E00190F9
:102500000D928A95E1F78CEA91E00E947E0B0E9481
:10251000331018CF1F93CF93DF93CDB7DEB72C972F
:102520000FB6F894DEBF0FBECDBF4F8358876987C3
:102530007A878B879C87CE0107960E949E108823FE
:1025400009F442C09F8188852A853B85232B39F079
:102550008F3F19F481E09F3F19F080E001C081E0D6
:1025600080FD08C04F81588569857A858B859C855B
:102570000E94D40F16E080917A0190917B01891717
:1025800009F467C0819FC001112484589E4F0E94A6
:102590009E10882309F45DC0E0917A011E9FF0012E
:1025A0001124E458FE4F40815181628173818481FE
:1025B00095810E94D40F80917A0190E001968770F6
:1025C000992780937A01D7CF86E0FE013796DE0106
:1025D000119601900D928A95E1F79F8188852A8551
:1025E0003B85232B39F08F3F19F481E09F3F19F091
:1025F00080E001C081E080FDBDCF20917B0130E013
:10260000C90101968770992740917A0148171906E8
:1026100099F096E0929FD001939FB00D1124A45899
:10262000BE4FFE01319601900D929A95E1F780938D
:102630007B010E94E40F9ECF0E94920F10927B01BB
:1026400010927A0186E0ECEAF1E0DF011D928A95B2
:10265000E9F72C960FB6F894DEBF0FBECDBFDF9121
:10266000CF911F910895EF92FF920F931F93CF93F5
:10267000DF938C01892B81F0F12CEE24E394E801A7
:102680002196F8018491843770F4843008F05FC09B
:102690008130B1F08230A1F1DF91CF911F910F9184
:1026A000FF90EF900895853709F44CC008F43DC0C1
:1026B0009CE7980F903780F78F770E94640C49C091
:1026C0000E5F1F4FFE01849190E2980F983060F4E6
:1026D0008770FE2D01C0FF0F8A95EAF78F2F0E94A9
:1026E000A2150E944A1502C00E94830B8F2D8150B3
:1026F00030F2EFE9FFE03197F1F700C00000F7CFCB
:102700000E5F1F4FFE01849190E2980F983050F4B5
:102710008770FE2D01C0FF0F8A95EAF78F2F0E9468
:10272000A815DFCF0E94640CE1CF0E5F1F4FFE01A2
:10273000C491C150D8F28FE99FE00197F1F700C032
:102740000000F7CF0E5F1F4FFE01F490CFCF0E9425
:10275000830B8E01CBCF08950E94AB136093B6011B
:102760007093B7018093B8019093B9010C947E0FD8
:1027700008950C94AC130F931F930091B601109120
:10278000B7012091B8013091B901602B712B822BD8
:10279000932B1F910F910C94AC130F931F930091E7
:1027A000B6011091B7012091B8013091B9016023B1
:1027B0007123822393231F910F910C94AC130F93D9
:1027C0001F930091B6011091B7012091B80130918B
:1027D000B90160277127822793271F910F910C94CD
:1027E000AC130C94AB130C94F1130E94F31360938D
:1027F000B2017093B3018093B4019093B5010C942E
:102800007E0F60E070E0CB010C94F5130F931F93E3
:1028100041E050E060E070E08A019B0104C0000FDD
:10282000111F221F331F8A95D2F7C901B8011F91CA
:102830000F910C94F5130F931F9341E050E060E06B
:1028400070E004C0440F551F661F771F8A95D2F7AA
:102850008091B2019091B301A091B401B091B50102
:102860008A019B01082B192B2A2B3B2BC901B8018C
:102870001F910F910C94F5130F931F9341E050E0BB
:1028800060E070E004C0440F551F661F771F8A95F3
:10289000D2F7CB01BA016095709580959095009123
:1028A000B2011091B3012091B4013091B5016023C0
:1028B0007123822393231F910F910C94F5130F938F
:1028C0001F9341E050E060E070E004C0440F551FEA
:1028D000661F771F8A95D2F78091B2019091B3015C
:1028E000A091B401B091B5018A019B010827192775
:1028F0002A273B27C901B8011F910F910C94F513AA
:102900000F931F930091B2011091B3012091B40174
:102910003091B501602B712B822B932B1F910F915E
:102920000C94F5130F931F930091B2011091B30112
:102930002091B4013091B501602371238223932348
:102940001F910F910C94F5130F931F930091B201F7
:102950001091B3012091B4013091B5016027712726
:10296000822793271F910F910C94F5130895BF921E
:10297000CF92DF92EF92FF920F931F93CF93DF934B
:102980008C01C090B201D090B301E090B401F090FE
:10299000B5018091B6019091B701A091B801B091B5
:1029A000B901C82AD92AEA2AFB2ACFE1D0E0BC2EF5
:1029B000D701C6010C2E04C0B695A79597958795AB
:1029C0000A94D2F780FD0EC0219788F7B12C8B2D89
:1029D000DF91CF911F910F91FF90EF90DF90CF90FB
:1029E000BF900895B8018C2F0E94B007019761F342
:1029F000EECFCF93DF93EC010E94B714BE01DF91BD
:102A0000CF910C94B007CB010C94F914682F8091EE
:102A10000101909102010C942616682F809101010A
:102A2000909102010C94281680910101909102016D
:102A30000C942A168091BA018595859585950895FF
:102A40008091BA018770089598E0899F90011124C0
:102A5000622B6093BA010C941B149091BA0180957B
:102A600089238093BA01282F277061F4282F082E1C
:102A7000000C330B9217130629F0859585958595E3
:102A80000C943C1408959091BA01977081E009F478
:102A900080E00895E0910101F09102018091C6016A
:102AA0008083E0910101F091020180819091C50144
:102AB000892B8083E0910101F09102018081909146
:102AC000C401892B80839091BB01992381F0E0910F
:102AD0000101F09102018081892B808380910101A5
:102AE000909102010E94F21581111092BB01809118
:102AF0000101909102010C94580A8091C601089539
:102B00009091C601892B8093C6010895982F9095C6
:102B10008091C60189238093C60108951092C60151
:102B200008959091C501892B8093C5010895982F30
:102B300090958091C50189238093C50108951092D5
:102B4000C50108959091C401892B8093C401089513
:102B5000982F90958091C40189238093C401089592
:102B60001092C40108958093BB0108951092BB0197
:102B700008958091BB0108956DEE7EEF90E080E0B6
:102B80000E94992260E082E090E00E94872260E04B
:102B900083E090E00E94872260E084E090E00E9461
:102BA000872260E085E090E00C94872290E080E04E
:102BB0000E94812221E08D3E9E4F09F020E0822F6D
:102BC000089582E090E00C94792283E090E00C94E8
:102BD000792284E090E00C947922682F84E090E0E0
:102BE0000C948722FC0131969C01285F3F4F80E0C6
:102BF000919191118F5FE217F307D1F708959C012E
:102C0000FC0132969FEF80E04191461751F09F3FC3
:102C100019F4411101C0982F8F5F8630A9F79F3FAB
:102C200009F40895290F311D97FD3A95F901628342
:102C30000895FC01329608962191261303C0DF0106
:102C400011971C92E817F907B9F708950C94FF152E
:102C50000C941916FC0111821282138214821582BF
:102C6000168217820895089508950C943416809161
:102C7000EB01843049F11092C80188E190E020E432
:102C80000FB6F894A895809360000FBE2093600063
:102C900080E00E9401060E94351683B7817F846020
:102CA00083BF83B7816083BF7894889583B78E7F15
:102CB00083BF0FB6F894A8958091600088618093D7
:102CC0006000109260000FBE08950895CF930E9497
:102CD00033160E9412040E946516C0E08C2F0E94D9
:102CE0005204811105C0CF5FC830C1F7CF9108955C
:102CF00081E0FCCF08950C947A160E94920F0E94F6
:102D00004C0A0E9401060C947B161F920F920FB67C
:102D10000F9211248F939F93AF93BF938091C8011B
:102D2000811113C08091E1019091E201A091E30132
:102D3000B091E4014196A11DB11D8093E1019093F2
:102D4000E201A093E301B093E401BF91AF919F91A1
:102D50008F910F900FBE0F901F90189582E084BD49
:102D600093E095BD9AEF97BD80936E0008952FB7BD
:102D7000F8948091E1019091E201A091E301B0917A
:102D8000E4012FBF0895CF92DF92EF92FF920F934D
:102D90001F932FB7F8944091E1015091E2016091A7
:102DA000E3017091E4012FBF6A017B01EE24FF244F
:102DB0008C0130E020E0C016D106E206F30650F0A8
:102DC000481B590BCA011F910F91FF90EF90DF90A4
:102DD000CF90089541505109F3CF78941F920F92EC
:102DE0000FB60F9211248F939F93AF93BF9380914F
:102DF000E1019091E201A091E301B091E40101961B
:102E0000A11DB11D8093E1019093E201A093E30124
:102E1000B093E401BF91AF919F918F910F900FBE3E
:102E20000F901F90189587E797E79093010880937C
:102E3000000888E19AE00FB6F894A89580936000A6
:102E40000FBE90936000FFCF0E94D615811102C083
:102E50000E94BC150E94E1158093C7010E94E915EC
:102E600090E09093E6018093E5010E94E515682FBC
:102E700070E090E080E00C94B9138091CB0180FF6A
:102E800012C06091060185E0689FB001112475951C
:102E900067957595679560387105A8F56115710599
:102EA000A1F1862F089581FF09C06091060185E098
:102EB000689FB001112475956795EDCF82FF07C01B
:102EC0006091060185E0689FB0011124E4CF209154
:102ED000CC012223A9F0909105016091060185E0C3
:102EE000689FB00111242917B0F6269FA001279FE3
:102EF000500D1124692F70E0CA010E944B22CBCFE4
:102F000065E070E0CECF8FE7089581E0089580916D
:102F1000CB0180FF0CC06091040170E0759567954E
:102F2000759567956115710549F1862F089581FFA3
:102F300006C06091040170E075956795F3CF6091CC
:102F4000040182FD0BC09091CC019923A1F0609106
:102F5000030180910401961738F0682F70E0603803
:102F6000710500F38FE70895899FC001112470E077
:102F70000E944B22F4CF61E070E0D7CF81E008954A
:102F8000803F31F40E943D1781958093CF010895D1
:102F9000813F19F40E943D17F8CF823F31F40E941F
:102FA0003D1781958093CE010895833F19F40E94C7
:102FB0003D17F8CF893F29F40E9487178093D001ED
:102FC00008958A3F21F40E9487178195F7CF8B3FA0
:102FD00031F40E94871781958093D10108958C3F29
:102FE00019F40E948717F8CF843F31F48091CD0106
:102FF00081608093CD010895853F21F48091CD01BA
:103000008260F7CF863F21F48091CD018460F1CFBB
:10301000873F21F48091CD018860EBCF883F21F478
:103020008091CD018061E5CF8D3F31F48091CB015E
:1030300081608093CB0108958E3F21F48091CB0174
:103040008260F7CF8F3FB9F78091CB018460F1CFD9
:10305000803FC1F48091CF0187FD1092CF01809114
:10306000CE0181110EC08091CF0181110AC08091E3
:10307000D001811106C08091D101811102C010924E
:10308000CC010895813F29F48091CF0118162CF3CB
:10309000E6CF9091CE01823F29F497FFE0CF1092C6
:1030A000CE01DDCF833F19F41916CCF3D8CF893F79
:1030B00039F48091D001181694F61092D001CFCF38
:1030C0008A3F29F48091D00187FFC9CFF6CF8B3F8B
:1030D00039F48091D10187FFC2CF1092D101BFCFC7
:1030E0008C3F29F48091D1011816BCF3B8CF843FEE
:1030F00031F48091CD018E7F8093CD01B0CF853F9B
:1031000021F48091CD018D7FF7CF863F21F480910E
:10311000CD018B7FF1CF873F21F48091CD01877F57
:10312000EBCF883F21F48091CD018F7EE5CF8D3F9D
:1031300031F48091CB018E7F8093CB0190CF8E3F75
:1031400021F48091CB018D7FF7CF8F3F09F087CF9E
:103150008091CB018B7FF0CF8DEC91E00E94630AD0
:103160000E94B7169093CA018093C90108951F93D6
:10317000CF93DF938091C9019091CA010E94C31639
:10318000AC019091CC012091070130E0911106C073
:10319000209108018AE0289F9001112442175307CB
:1031A00080F08091CE01D091CF011091D001C091DB
:1031B000D10181110AC0D1116AC0111168C0C111B9
:1031C00066C0DF91CF911F9108959F3F19F09F5FD7
:1031D0009093CC01181624F40E943D178093CE01E1
:1031E0008091CE0187FF05C00E943D178195809395
:1031F000CE011D1624F40E943D178093CF018091CB
:10320000CF0187FF05C00E943D1781958093CF01B4
:103210003091CE013323C1F02091CF012223A1F0C0
:1032200045EB3403C0011124892F911101C081E0C5
:103230008093CE0145EB240390011124832F31119B
:1032400001C081E08093CF01111624F40E948717FA
:103250008093D0018091D00187FF05C00E9487171D
:1032600081958093D0011C1624F40E9487178093C7
:10327000D1018091D10187FF05C00E9487178195F8
:103280008093D101DF91CF911F910C94AC189F3F97
:1032900009F09DCFAECF85E0EDECF1E0DF011D92AE
:1032A0008A95E9F71092CC011092CB0108958330F2
:1032B00081F128F4813059F08230D1F008958530C1
:1032C00009F449C0B8F1863009F456C008958091D8
:1032D0000801482F460F5527551F4F3F510524F42D
:1032E000680F6093080108958FEF80930801089597
:1032F00080910701482F460F5527551F4F3F510515
:1033000024F4680F6093070108958FEF80930701FD
:10331000089580910601482F460F5527551F4F3FAE
:10332000510524F4680F6093060108958FEF809390
:103330000601089580910501482F460F5527551F16
:103340004F3F510524F4680F6093050108958FEFF6
:1033500080930501089580910401482F460F552759
:10336000551F4F3F510524F4680F609304010895E1
:103370008FEF80930401089580910301482F460F39
:103380005527551F4F3F510524F4680F60930301E3
:1033900008958FEF809303010895833011F128F48D
:1033A000813049F0823091F00895853081F120F12B
:1033B0008630C1F1089580910801681720F4861BBA
:1033C00080930801089510920801089580910701E3
:1033D000681720F4861B8093070108951092070157
:1033E000089580910601681720F4861B80930601DA
:1033F000089510920601089580910501681720F440
:10340000861B80930501089510920501089580910F
:103410000401681720F4861B80930401089510921C
:103420000401089580910301681720F4861B80939E
:10343000030108951092030108950F931F9341E033
:1034400050E060E070E08A019B0104C0000F111F92
:10345000221F331F8A95D2F7C901B8010E94B91300
:103460001F910F910C94920F8732A8F58E3108F0BE
:103470007BC08E3009F46DC058F4873009F45AC00F
:103480008B3009F44BC0863009F44AC080E00895BF
:10349000863109F443C068F48031C1F79091C701C7
:1034A000892F877F93FF88608093C70183FD0FC0BA
:1034B00035C0893199F18B3149F79091C701892F36
:1034C0008D7F91FF82608093C70181FF27C080912B
:1034D000C70181603BC0883309F150F4893221F083
:1034E000853311F0873291F680E00E941D1A16C0D4
:1034F0008334D1F320F48A3348F28953F6CF8834E9
:1035000029F60E94920F2FEF83ED90E32150804027
:103510009040E1F700C000000E94131781E0089579
:103520008091C701817F8E7F8093C70181E0809366
:10353000D30108959091C701892F8E7F90FF8160FC
:103540008093C70180FDEACF897F877F8093C70181
:10355000E5CF9091C701892F8B7F92FF8460809384
:10356000C70182FDB4CFDACF8D51BFCF80E008957F
:103570000C94B61A8E518A3030F4E82FF0E0EE5DEC
:10358000FE4F8081089580E00895CF93C82F8091E9
:10359000D3018130C9F030F08230D9F11092D301DB
:1035A00080E010C0E0910101F0910201808182323F
:1035B000B9F78C2F0E94B61A81111BC08C2F0E9464
:1035C000341A8170CF910895E0910101F0910201C8
:1035D0008081823271F38C2F0E94B81A811110C041
:1035E000C43181F048F4CB3059F0C03171F080E043
:1035F000E8CF81E090E0E5CFC93221F0C833B9F7D8
:1036000081E0DFCF1092D301F2CF82E08093D3012B
:10361000F7CFC93219F188F4C43101F120F4C73071
:1036200081F181E0CFCF82EE8C0F8630D0F78C2FE6
:103630000E94BA1A8093D201F4CFCE3401F140F443
:103640006AE0CB3471F78091D2010E945719E9CF1B
:10365000C13579F061E0C235B1F3E3CF8091D20199
:10366000882319F01092D201DCCF81E08093D3013E
:10367000A9CF61E08091D2010E94CD19D2CF6AE03A
:10368000F9CF8EE18093080182E3809307018AE0FD
:103690008093060184E18093050188E08093040112
:1036A00088E280930301BDCF8091DC0108950F93E0
:1036B0001F93CF93DF9300D01F92CDB7DEB78C015D
:1036C0000E949C1D823011F0843019F583E08983BB
:1036D0001B830A838093E9008FEF9091E80081506B
:1036E00095FD06C095ED9A95F1F700008111F5CF93
:1036F0008091E80085FF0DC050E040E063E070E09D
:10370000CE0101960E94B91D8091E8008E778093CA
:10371000E8000F900F900F90DF91CF911F910F91C4
:103720000895CF93DF9300D01F92CDB7DEB72091DD
:10373000EB01243031F522E02983805891099B83E5
:103740008A8383E08093E9008FEF9091E8008150B5
:1037500095FD06C095ED9A95F1F700008111F5CF22
:103760008091E80085FF0DC050E040E063E070E02C
:10377000CE0101960E94B91D8091E8008E7780935A
:10378000E8000F900F900F90DF91CF910895CF93A5
:10379000DF93EC010E949C1D823011F08430F9F41B
:1037A00082E08093E9008FEF9091E800815095FDD1
:1037B00006C095ED9A95F1F700008111F5CF809143
:1037C000E80085FF0CC050E040E065E070E0CE010D
:1037D0000E94B91D8091E8008E778093E800DF9108
:1037E000CF910895CF93DF93EC010E949C1D82300E
:1037F00011F0843039F581E08093E9008FEF9091EA
:10380000E800815095FD06C095ED9A95F1F700000E
:103810008111F5CF8091E80085FF14C050E040E0B1
:1038200068E070E0CE010E94B91D8091E8008E77BB
:103830008093E80088E0FE01A4EDB1E001900D92D4
:103840008A95E1F7DF91CF9108958091EA01811186
:1038500009C00E94491F0E94A61F8091E200846057
:103860008093E20008951092EA0108950895089562
:103870000C947D1642E061EC81E00E94C71E42E09C
:1038800061EC82E00E94C71E42E061EC83E00C9490
:10389000C71E8091ED01833009F452C030F48130AD
:1038A00059F1823009F48EC008958A3009F47AC043
:1038B0008B3009F460C0893009F041C08091EC017F
:1038C0008132E9F58091F0019091F101892BB9F5F0
:1038D0008091E800877F8093E8008091E80082FF74
:1038E0002AC08091F1008093DC018091E8008B7701
:1038F0008093E8000C94FB1E8091EC01813AF9F46E
:103900008091E800877F8093E8008091F00190919A
:10391000F101892B61F468E084ED91E070E00E9490
:10392000081E8091E8008B778093E800089560E09E
:1039300090E080E0F3CF8091EB018111CECF08952C
:103940008091EC01813AD9F78091F0019091F101D9
:10395000892BA9F78091E800877F8093E800809108
:10396000E80080FFFCCF809113018093F1008091EB
:10397000E8008E77BDCF8091EC01813201F7809114
:10398000F0019091F101892BD1F68091E800877FB9
:103990008093E8000E94FB1E8091EE01809313014A
:1039A0000C94920F8091EC01813249F68091E800ED
:1039B000877F8093E8000E94FB1E8091EF01809337
:1039C000DD0108958091EC01813A09F0B8CF809132
:1039D000E800877F8093E8008091E80080FFFCCFBB
:1039E0008091DD01C2CF84B7877F84BF0FB6F89482
:1039F000A8958091600088618093600010926000BB
:103A00000FBE80E880936100109261000E949A0AC4
:103A10000E94491F0E94A61F8091E200846080934B
:103A2000E20078940E942F220E949E0A89E091E091
:103A30000E94470A8091EB01853019F00E94AA0A82
:103A4000F9CF0E9437168091E901882399F30E94EB
:103A50006616882379F30E94A31DECCF0C94301DC9
:103A6000292F33272330310579F158F421303105DE
:103A7000F1F02230310519F190E080E030E020E0F3
:103A80001AC021323105C9F122323105A9F763305C
:103A9000710590F7FB01EE0FFF1FE15DFE4F2081E6
:103AA0003181645D7E4FFB01808190E004C082E142
:103AB00090E027E834E0FA0131832083089584E51B
:103AC00090E023E334E0F7CF99278130910579F036
:103AD00040F08230910571F0039771F6E3EFF3E067
:103AE00002C0EFE2F4E0849190E09F01E4CFE7E1CF
:103AF000F4E0F9CFE9EFF3E0F6CF6330710508F0B9
:103B0000BBCF660F771FFB01EB5CFE4F208131813D
:103B100089E090E0D0CF0895CF93C82F0E948B1DED
:103B2000C093DE01CF9108958091EB01843011F0B4
:103B300081E0089582E008958091DE01811102C044
:103B40000C94941D089580E189BD82E189BD09B47A
:103B500000FEFDCF8091D8008F7D8093D8008091AA
:103B6000E00082608093E0008091E00081FDFCCF66
:103B70000895AF92BF92CF92DF92FF920F931F935F
:103B8000CF93DF936C01EB018A010E941A1FF82E7C
:103B9000811123C00115110539F0F801808191814F
:103BA000C81BD90BC80ED91EB12CA12C2097A9F087
:103BB0008091E80085FD22C08091E8008E77809397
:103BC000E80001151105A1F0F80180819181A80E8E
:103BD000B91EB182A08285E0F82E8F2DDF91CF91A2
:103BE0001F910F91FF90DF90CF90BF90AF900895FD
:103BF0000E941A1F8823D1F2F82EEFCFF60181918F
:103C00006F018093F1002197FFEFAF1ABF0ACECF6B
:103C1000FC018091F2019091F30186179707A0F0C3
:103C20006115710529F49091E8009E779093E80062
:103C300090E06115710551F4911108C08091E80080
:103C400082FF35C080E00895BC01F2CF8091EB0186
:103C50008823C9F18530C9F18091E80083FD31C026
:103C60008091E80082FDEACF8091E80080FFE1CFFB
:103C70002091F3008091F200322F282F61157105F9
:103C800019F02830310558F091E02830310509F05D
:103C900090E02091E8002E772093E800CACF819130
:103CA0008093F100615071092F5F3F4FE7CF809102
:103CB000EB01882341F0853041F08091E80083FFDB
:103CC000BDCF81E0089582E0089583E00895FC016E
:103CD0008091F2019091F30186179707A0F061158A
:103CE000710529F48091E8008E778093E80090E0D8
:103CF0006115710551F4911108C08091E80082FFAF
:103D000036C080E00895BC01F2CF8091EB0188239A
:103D1000D1F18530D1F18091E80083FD32C08091EE
:103D2000E80082FDEACF8091E80080FFE1CF20919A
:103D3000F3008091F200322F282F6115710519F0E0
:103D40002830310558F091E02830310509F090E035
:103D50008091E8008E778093E800CACF84918093A9
:103D6000F1003196615071092F5F3F4FE6CF80918E
:103D7000EB01882341F0853041F08091E80083FF1A
:103D8000BCCF81E0089582E0089583E00895982FE4
:103D9000973028F08F708093E90081E00895909328
:103DA000E900242F762F50E0981731F07091EC0045
:103DB0002091ED005091F00021FD02C09F5FE8CFFF
:103DC0003091EB003E7F3093EB003091ED003D7F72
:103DD0003093ED003091EB0031603093EB00709345
:103DE000EC002093ED005093F0002091EE0027FDB1
:103DF000E5CF80E008958091EC0187FF13C08091AA
:103E0000E80082FF06C08091E8008B778093E8008D
:103E100004C08091EB018111F2CF08958091EB01F4
:103E20008823D9F38091E80080FFF8CF8091E800E3
:103E30008E77ECCF2091E4003091E50085E69091FB
:103E4000EC0090FF06C09091E80090FF06C080E073
:103E500008959091E80092FDFACF9091EB0199239B
:103E600091F0953091F09091EB0095FD10C040914C
:103E7000E4005091E5002417350709F381509A01B9
:103E8000F1F684E0089582E0089583E0089581E0EA
:103E900008950E94B71F0E94BF1FE0EEF0E08081EE
:103EA00081608083E8EDF0E080818F77808319BCAA
:103EB000A7EDB0E08C918E7F8C9380818F7E808384
:103EC0001092EA0108950F931F93CF93DF930E94FE
:103ED000B71F0E94BF1FC8EDD0E088818F7788830D
:103EE00088818068888388818F7D888319BC10923F
:103EF000EB011092E7011092E9011092E80100EE47
:103F000010E0F80180818B7F8083888181608883C5
:103F100042E060E080E00E94C71EE1EEF0E08081B8
:103F20008E7F8083E2EEF0E08081816080838081FB
:103F300088608083F80180818E7F808388818061A2
:103F40008883DF91CF911F910F910895E8EDF0E004
:103F500080818F7E8083E7EDF0E0808181608083C7
:103F600084E082BF81E08093EA010C94631FE8ED56
:103F7000F0E080818E7F80831092E200089510929D
:103F8000DA001092E10008951F920F920FB60F927F
:103F900011242F933F934F935F936F937F938F934E
:103FA0009F93AF93BF93EF93FF938091E10082FFC4
:103FB0000BC08091E20082FF07C08091E1008B7FFF
:103FC0008093E1000E942E228091DA0080FF19C0C8
:103FD0008091D80080FF15C08091DA008E7F809399
:103FE000DA008091D90080FF94C080E189BD82E130
:103FF00089BD09B400FEFDCF81E08093EB010E94F2
:10400000251C8091E10080FF19C08091E20080FFB3
:1040100015C08091E2008E7F8093E2008091E200E3
:1040200080618093E2008091D80080628093D80004
:1040300019BC85E08093EB010E94371C8091E10060
:1040400084FF29C08091E20084FF25C080E189BD02
:1040500082E189BD09B400FEFDCF8091D8008F7D3B
:104060008093D8008091E1008F7E8093E100809161
:10407000E2008F7E8093E2008091E2008160809375
:10408000E2008091E701882309F449C084E080932D
:10409000EB010E94381C8091E10083FF29C08091D0
:1040A000E20083FF25C08091E100877F8093E100DB
:1040B00082E08093EB011092E7018091E1008E7F16
:1040C0008093E1008091E2008E7F8093E2008091F6
:1040D000E20080618093E20042E060E080E00E94C4
:1040E000C71E8091F00088608093F0000E94361C0B
:1040F000FF91EF91BF91AF919F918F917F916F91C0
:104100005F914F913F912F910F900FBE0F901F9095
:10411000189519BC1092EB010E94331C72CF80914C
:10412000E30087FD02C081E0B2CF83E0B0CF1F92F1
:104130000F920FB60F9211242F933F934F935F93DB
:104140006F937F938F939F93AF93BF93CF93EF938F
:10415000FF93C091E900CF708091EC001092E900CC
:104160008091F000877F8093F00078940E94D320A4
:104170001092E9008091F00088608093F000C09375
:10418000E900FF91EF91CF91BF91AF919F918F91F6
:104190007F916F915F914F913F912F910F900FBE43
:1041A0000F901F9018951F93CF93DF93CDB7DEB775
:1041B000AA970FB6F894DEBF0FBECDBFECEEF1E0CC
:1041C0008091F100819321E0E43FF207C9F70E945A
:1041D000491C8091E80083FF44C08091EC019091DC
:1041E000ED019A3008F03DC0E92FF0E0E650FF4DB8
:1041F0000C945F2204212A2131212A213121882196
:10420000AA21312101220E22803889F0823849F515
:104210008091F0018F70873020F58093E9008091C4
:10422000EB0085FB882780F91092E90006C0809199
:10423000E8019091E901911182609091E800977FE7
:104240009093E8008093F1001092F1008091E800D3
:104250008E772DC0282F2D7F21F48823D1F0823036
:1042600059F18091E80083FF0AC08091E800877FC0
:104270008093E8008091EB0080628093EB00AA9627
:104280000FB6F894DEBF0FBECDBFDF91CF911F9167
:1042900008958091EE01813021F7933009F080E09C
:1042A0008093E9011092E9008091E800877F809374
:1042B000E8000E94FB1ED5CF8091EE018111F2CF64
:1042C0008091F0018F702FEF280F263050F68093E9
:1042D000E9002091EB0020FFE5CF933031F480918D
:1042E000EB0080628093EB00DDCF9091EB0090615A
:1042F0009093EB0021E030E001C0220F8A95EAF7AD
:104300002093EA001092EA008091EB008860EACFE7
:104310008111A7CF1091EE011F778091E300807883
:10432000812B8093E3008091E800877F8093E800F1
:104330000E94FB1E8091E80080FFFCCF8091E3008B
:1043400080688093E30083E0111101C082E08093D4
:10435000EB0187CF8058823008F083CF8091EE0147
:104360009091EF018C3D23E09207A1F583E08A83D1
:104370008AE289834FB7F894DE01139620E03EE08D
:1043800051E2E32FF0E050935700E49120FF03C087
:10439000E295EF703F5FEF708E2F90E0EA30C0F053
:1043A000C7968D939D932F5F243159F74FBF80910E
:1043B000E800877F8093E8006AE270E0CE01019612
:1043C0000E94081E8091E8008B778093E80049CF17
:1043D000C096E7CF6091F0017091F101AE014F5F9F
:1043E0005F4F0E942E1DBC01892B09F43ACF90919A
:1043F000E800977F9093E80089819A810E94671E68
:10440000E1CF803809F02DCF8091E800877F80933D
:10441000E8008091E7018093F10018CF811121CF4E
:104420009091EE01923008F01CCF8091E800877FD8
:104430008093E8009093E7010E94FB1E8091E701C2
:10444000882331F084E08093EB010E943A1C09CF6D
:104450008091E30087FDF6CF81E0F5CF0895CF93FB
:104460008091EB01882399F0C091E900CF70809191
:10447000EC0080FD0EC080E0C82B1092E900809116
:10448000E80083FD0E94D320CF70C093E900CF9154
:10449000089580E8F1CF97FB072E16F4009407D01B
:1044A00077FD09D00E94652207FC05D03EF4909567
:1044B00081959F4F0895709561957F4F0895EE0FF8
:1044C000FF1F0590F491E02D0994AA1BBB1B51E13D
:1044D00007C0AA1FBB1FA617B70710F0A61BB70B74
:1044E000881F991F5A95A9F780959095BC01CD0119
:1044F0000895F999FECF92BD81BDF89A992780B5AC
:104500000895A8E1B0E042E050E00C94A122262FEB
:10451000F999FECF92BD81BDF89A019700B40216B9
:1045200039F01FBA20BD0FB6F894FA9AF99A0FBE67
:1045300008950196272F0E9488220C948722DC017F
:10454000CB01FC01F999FECF06C0F2BDE1BDF89A9E
:10455000319600B40D9241505040B8F70895F89448
:02456000FFCF8B
:1045620001BC012808140A321E541BF21BC71B91FE
:104572001B571B01F6F73133323697C6343500002C
:10458200000001020304050607080900404D361C1D
:0C45920005CF04990445045E0477040082
:00000001FF
