:100000000C943B040C946C060C9482040C948204B3
:100010000C9482040C9482040C9482040C94820448
:100020000C9482040C9482040C9429210C94FC21DD
:100030000C94F3170C9482040C9482040C948204A4
:100040000C9482040C9482040C9482040C94820418
:100050000C9482040C945B180C9482040C9482041B
:100060000C9482040C9482040C9482040C948204F8
:100070000C9482040C9482040C9482040C948204E8
:100080000C9482040C9482040C9482040C948204D8
:100090000C9482040C9482040C9482040C948204C8
:1000A0000C9482040C9482040C9482042B0014009F
:1000B0001A00080015001700296104001600070047
:1000C00009000A00E1001D001B00060019000500E0
:1000D000E000E200D75CE300D55C2C002A001300AE
:1000E00012000C0018001C00280033000F000E0046
:1000F0000D000B002D0038003700360010001100F5
:100100004F00520051005000D65C2C002B00140010
:100110001A00090013000A00290004001500160047
:1001200017000700E1001D001B0006001900050074
:10013000D75CE000E200E300D55C2C002A0033002D
:100140001C0018000F000D00340012000C00080005
:1001500011000B00280038003700360010000E0098
:100160004F00520051005000D65C2C002B00340090
:100170003600370013001C0029000400120008009C
:1001800018000C00E100330014000D000E001B00ED
:10019000D75CE000E200E300D55C2C002A000F00F1
:1001A000150006000A0009003800160011001700AB
:1001B0000B00070028001D0019001A0010000500A0
:1001C0004F00520051005000D65C2C0000001E026F
:1001D0001F022002210222020000350231022E00FD
:1001E00031003500010000000000000000000000A8
:1001F00001000100010001000100010001002702CF
:1002000026022502240223023002330230002F008E
:100210002F0234002D023802370236022E02340239
:100220000000000000000000010001002B001E0083
:100230001F0020002100220000000000000000003C
:1002400000000000010000000000000000000000AD
:10025000005C010001000100010001004C002700CA
:1002600026002500240023000100330200000000C6
:10027000000000000100010001000000000000007B
:10028000000000000000000001000100000000006C
:10029000000000000000000000000000000000005E
:1002A000000000000000000000000000000000004E
:1002B000000000000000000000000000000000003E
:1002C000000000000000000000000000000000002E
:1006A0000000000000000000000000000100010048
:1006B000010001000100010001003A003B003C0084
:1006C0003D003E00010001000100010001000100A9
:1006D0000100010001000100010001000100010012
:1006E00001000100010001004400430042004100FC
:1006F00040003F0045000100010001000100010031
:1007000001000100010001000100010004033000AC
:1007100000001C034C0065007400730020005300AF
:1007200070006C0069007400200076003200000048
:10073000160357006F006F007400700061007400B2
:100740006F006F00740000000403090409025400E4
:10075000030100A0FA0904000001030101000921BE
:10076000110100012240000705810308000A090465
:1007700001000103010200092111010001224D00C5
:100780000705820308000A090402000103000000B3
:100790000921110100012236000705830308000A20
:1007A0001201100100000008EDFE6030010001029E
:1007B000030105010980A10185021601002603003D
:1007C0001A81002A8300751095018100C0050C096B
:1007D00001A1018503160100269C021A01002A9C32
:1007E00002751095018100C005010902A1010901EE
:1007F000A1000509190129051500250195057501B7
:1008000081029501750381010501093009311581C6
:10081000257F95027508810609381581257F950188
:1008200075088106050C0A38021581257F9501752A
:10083000088106C0C005010906A101050719E029C4
:10084000E71500250195087501810295017508815C
:100850000105081901290595057501910295017594
:100860000391010507190029FF150026FF009506D1
:1008700075088100C00011241FBECFEFDAE0DEBF93
:10088000CDBF04B603FE27C08091F4019091F5011D
:10089000A091F601B091F7018730904BA740B04B83
:1008A000D1F41092F4011092F5011092F601109219
:1008B000F70114BE84B7877F84BF0FB6F894A8955C
:1008C00080916000886180936000109260000FBE8C
:1008D000E0E0F8E3099511E0A0E0B1E0ECE2F8E433
:1008E00002C005900D92AC33B107D9F721E0ACE31B
:1008F000B1E001C01D92A43FB207E1F70E94581E6B
:100900000C9414240C940000089508950C9485040C
:100910008091C701836088608093C701AAE1B1E03C
:1009200061E070E08D91E82FE295EF70F0E041A179
:100930008F709B0101C0220F8A95EAF7922F909544
:10094000942391A382A1822B82A381E0AE31B807C8
:1009500049F7A4E1B1E061E070E08D91E82FE29504
:10096000EF70F0E041A18F709B0101C0220F8A95CA
:10097000EAF7922F9095942391A382A1822B82A3D0
:1009800081E0AA31B80749F7559A209AECE3F1E0E3
:10099000A5E4B1E084E491E011921D928E179F07C7
:1009A000D9F70C9460094F925F926F927F928F9269
:1009B0009F92AF92BF92CF92DF92EF92FF920F93EE
:1009C0001F93CF93DF938091000104E010E0882310
:1009D00011F010E000E0C8018B5B9E4F7C018AE1C2
:1009E000C82E81E0D82EE701AA24A394B12C882434
:1009F000839424E0922E78801882D6018D916D0127
:100A0000E82FE295EF70F0E091A18F70950101C0A1
:100A1000220F8A95EAF7892F822B81A382A1622E69
:100A20006094862182A3B0EABA95F1F744E151E0DF
:100A300090E080E0DA017D91AD01A72FA295AF7023
:100A4000B0E09096BC91A8817F70250102C0440C53
:100A5000551C7A95E2F7B2016B2309F052C06A2D5A
:100A6000082E01C0660F0A94EAF76A2B6883019684
:100A700086309105F9F681A1862181A382A1282BD8
:100A800022A38881781659F080924D010E94251882
:100A900090934F0180934E018BB189258BB921969C
:100AA0008EE1C81681E0D80609F0A5CF80914D01EE
:100AB0008823A9F080914E0190914F010E94311836
:100AC000069768F0F801E45CFE4F80E0D7019D9145
:100AD0007D0191938F5F8430C9F710924D0181E0C1
:100AE000DF91CF911F910F91FF90EF90DF90CF900A
:100AF000BF90AF909F908F907F906F905F904F903E
:100B0000089560E0B2CFCF93DF9380910001D0E0F1
:100B1000C0E0882311F0C4E0D0E00E94D106009725
:100B200089F4C45CDE4F30E020E0F901EE5AFE4F5C
:100B3000408149932F5F3F4F24303105B1F7DF915A
:100B4000CF91089581E090E0FACFCF930E94D30433
:100B5000C82F0E948305892BD9F05D9880914401AC
:100B60008F5F80934401863070F080910001F0E047
:100B7000E0E0882311F0E4E0F0E0E45CFE4F108256
:100B80001182128213820E9462098C2FCF910895E4
:100B90005D9A10924401F7CF0E94D3048091000126
:100BA000E4E0F0E0882311F0F0E0E0E0E45CFE4FE8
:100BB00090E080E02191DC01AE5ABE4F2C9301966B
:100BC00084309105B9F70895E82FF0E0E45CFE4F1A
:100BD000808108950895E8EDF0E080818061808350
:100BE0008AE18A95F1F700C08091D900817008955B
:100BF0000E94EB05809300010E94EB05882321F001
:100C00000E945F06789408950E941C180E94630653
:100C1000F9CF0E9488040E94CC05FDCF0E94F80500
:100C20000E94EB05811102C00E9409060895509AA6
:100C300008955098589A0895589A08950E94190650
:100C4000489BFECF80E88A95F1F708950E94190627
:100C500098E080E029B1880F2170822B20E82A9546
:100C6000F1F725E02A95F1F70000915099F70895E2
:100C70000F931F93CF93082F0E941706C8E010E030
:100C8000C15020F4CF911F910F910895C8010C2EEF
:100C900002C0959587950A94E2F780FF06C00E94EE
:100CA0001C0680E88A95F1F7EBCF5898FACF0E949E
:100CB0001706589880E88A95F1F70C941C060E9454
:100CC00017060C941C060E941906E89AE9E6F0E063
:100CD00080818C7F808308951F920F920FB60F92B0
:100CE0001124EF92FF921F932F933F934F935F93A3
:100CF0006F937F938F939F93AF93BF93CF93DF9324
:100D0000EF93FF930E945706D0E0C0E010E0CE01C1
:100D10008E5A9E4F7C01FC0180810E9438060E9401
:100D20005706F7018081180F2196C430D10579F755
:100D3000812F0E9438060E945706F0E8FA95F1F7D5
:100D400080E48A95F1F70E942606809351010E9463
:100D50005706C09151010E942606D82F0E945706BF
:100D60000E94190680915001DC17C9F081608093C0
:100D70005001FF91EF91DF91CF91BF91AF919F9182
:100D80008F917F916F915F914F913F912F911F9123
:100D9000FF90EF900F900FBE0F901F9018958E7FD1
:100DA000E6CFEF92FF921F93CF93DF93F8940E94C8
:100DB0001706589825E02A95F1F700000E941906B9
:100DC0000E941C0630E83A95F1F7489B09C07894D8
:100DD00081E090E0DF91CF911F91FF90EF90089517
:100DE0000E941E06D0E0C0E010E00E942606FE0130
:100DF000EE5AFE4F7F0180830E941E06F70180811C
:100E0000180F2196C430D10581F70E942606C82FFD
:100E10000E941E06C113DBCF809151010E9438064B
:100E20000E941E06809151010E9438060E941E06F3
:100E30000E9417060E941C06789490E080E0CACFBA
:100E40000C948404CF93DF93EC010E945C17BE01E5
:100E500090E080E0DF91CF910C942F15CF93FB01B0
:100E6000843D2CE5920751F148F4823D2CE5920730
:100E7000A1F0833D9C45C9F0C1E014C0863D2CE53E
:100E8000920771F108F1873D9C45B1F7C28180E17D
:100E9000CC2389F10E9491150FC0C28181E090E0BE
:100EA000C11108C08C2FCF910895C281CC23D1F3FA
:100EB00082E090E00E942207C0E0F4CFC28184E08B
:100EC00090E0CC2379F3F6CFC28183E0CC2359F0B4
:100ED0000E94911540E164E083E00E940F09ECCF8D
:100EE000C28184E0F3CF0E94B21540E164E083E068
:100EF0000E940F09D7CF0E94B215D4CF81E0089588
:100F00000C942E070E944E112FEF84E39CE0215099
:100F100080409040E1F700C0000087E797E790939A
:100F20000108809300080C9481180F931F93CF93AE
:100F3000DF938C01FC01C081D181CE010E942D166E
:100F4000BE010E946D09EC01B8010E948007882350
:100F500009F452C0B801CE010E94CF0B882309F4D6
:100F60004BC0C531FCE5DF0709F439C1B0F4C1302D
:100F7000ECE5DE0709F446C008F056C0C115DC45B3
:100F8000B1F181E080935B0180935C01C801DF9146
:100F9000CF911F910F910C947E07CD3CECE5DE07BD
:100FA00009F402C1B8F4CB3C8CE5D80709F4C0C001
:100FB000CC3CDC4531F7F8018281882309F4DFC09D
:100FC00010925C010E94251890935A018093590158
:100FD00080E2BBC0C03DFCE5DF07F1F0C13DDC4570
:100FE00081F6F8018281882339F082E01AC0F80185
:100FF000828181110E94820780E0DF91CF911F9151
:101000000F910895F80182818823B1F38091C7017F
:1010100081608093C701F0CFF8018281882361F35A
:1010200080E00E94F11EE8CFF8018281882309F454
:10103000ADCF0E944917811102C00E942F170E9454
:10104000611790E09093E6018093E501FE01E35083
:10105000FC458091E5018160E231F105C8F4ED5C69
:10106000F74F0C94C42345085108550859085D08EA
:101070006108650869086D087108750879087D08B8
:101080008108850889088D0891088091E5018260B2
:101090008093E5018091E5010E9465170E944E1141
:1010A000ABCF8091E5018460F3CF8091E50188604A
:1010B000EFCF8091E5018061EBCF8091E501806207
:1010C000E7CF8091E5018064E3CF8091E5018068FE
:1010D000DFCF8091E5018460EACF8091E5018E7FCA
:1010E000D7CF8091E5018D7FD3CF8091E5018B7FB4
:1010F000CFCF8091E501877FCBCF8091E5018F7EB7
:10110000C7CF8091E5018F7DC3CF8091E5018F7BB3
:10111000BFCF8091E5018F77BBCF8091E5018B7FB9
:10112000EACF9091E501892F97FB87F98058B0CFDE
:10113000F8018281882361F010925B010E942518DA
:10114000909358018093570182E00E94790E54CF0A
:1011500080915B0181110FC08091570190915801DE
:101160000E943118883C910530F486E20E944F0DB0
:1011700086E20E942A0E82E00E94800E3DCF80917E
:101180005C0181110FC08091590190915A010E9418
:101190003118883C910530F487E20E944F0D87E2B8
:1011A0000E942A0E80E2E8CFF8018281811108CFE7
:1011B00080915C018111F6CF8091590190915A0183
:1011C0000E943118883C910568F780E20E94800EE9
:1011D00088E20E944F0D88E20E942A0E0DCF0E94E5
:1011E000F316F8019281992381F08A7A91E009F44B
:1011F00090E090935601811106C089E20E947C160E
:101200000E94C016F9CE85E3F9CF80915601811175
:1012100004C089E20E948316F3CF85E3FBCF8F924F
:101220009F92AF92BF92CF92DF92EF92FF920F9375
:101230001F93C12CD12C7601C3949701860104C061
:10124000000F111F221F331F6A95D2F74601570165
:1012500004C0880C991CAA1CBB1C8A95D2F7D50126
:10126000C401802B912BA22BB32B0091B2011091C2
:10127000B3012091B4013091B501082319232A2329
:101280003B2380179107A207B30769F4842F1F91AE
:101290000F91FF90EF90DF90CF90BF90AF909F9015
:1012A0008F900C949115842F1F910F91FF90EF90C8
:1012B000DF90CF90BF90AF909F908F900C94B2151D
:1012C0000C9420070C94860408950C9464090C94E3
:1012D000650990E080E008950895972F70E026E07A
:1012E000929F600D711D1124FB0190E3899FE00D19
:1012F000F11D1124EE0FFF1FE455FF4F85919491CE
:101300000895FC01EE0FFF1FE45FF84F8591949163
:101310000895CF93DF930E946D090E94210BEC0189
:101320008115904408F094C0C11580E3D80708F0F7
:1013300005C1C03ED10508F071C0C03CD10508F020
:10134000ECC0C83AD10580F4C53AD10508F0E9C02F
:10135000C130D10509F46EC020F0C430D10508F0C9
:1013600069C0D0E0C0E066C0CD3BD105D0F7C83A37
:10137000D10509F427C1C93AD10509F426C1CA3AF1
:10138000D10509F425C1CB3AD10509F424C1CC3AE1
:10139000D10509F423C1CB3BD10509F422C1CC3BD3
:1013A000D10509F421C1CD3AD10509F420C1C03BD2
:1013B000D10509F41FC1CE3AD10509F41EC1CF3AB7
:1013C000D10509F41DC1C13BD10509F41CC1C23BC3
:1013D000D10509F41BC1C33BD10509F41AC1C43BB3
:1013E000D10509F419C1C53BD10509F418C1C63BA3
:1013F000D10509F417C1C73BD10509F416C1C83B93
:10140000D10509F415C1C93BD10509F414C1CA3B82
:10141000D10509F013C1CAE2D6E40CC0CF3FD10513
:1014200009F060F4C03FD10508F086C0C83ED10580
:1014300008F097CFCE01DF91CF910895CE019F7034
:10144000C11520E2D207B0F30E948109EC01F2CF6E
:10145000C11584E5D807A0F5C11523E5D20708F02A
:101460008EC0C11581E5D80708F5C11520E5D20762
:1014700008F46EC0CE0154E0969587955A95E1F731
:1014800083709C2F937021E030E002C0220F331F45
:101490009A95E2F73C68382BC695C695C37080E2F2
:1014A000C89FE0011124C22BD32BC4CFC11582E504
:1014B000D80708F050C0DC2FCC27C16FD06ABACF54
:1014C000C11526E5D20758F49C2F8827C115D545AC
:1014D00008F469C0EC01CC27DF71D062ABCFC11535
:1014E00088E5D80708F43DCFC11529E5D20708F4EF
:1014F0005EC0CE0190568115904208F032CF8D2FFC
:101500008F710E94A10BDD27D06290E0982F882771
:1015100088279F71C82BD92B8DCFCE01805C910974
:1015200093CFC53AD10509F447C0C63AD10509F4AD
:1015300046C0C3E8D0E47ECFD0657CCFCE019927EA
:10154000D3FF03C0EC01D86C75CFEC01D06C72CF27
:10155000DF70D06A6FCFCE018370992721E030E031
:1015600002C0220F331F8A95E2F7C695C69580E226
:10157000C89FE0011124C22BD32BDC685BCFCE01C6
:101580008370992721E030E002C0220F331F8A9533
:10159000E2F7C695C69580E2C89FE0011124C22BF0
:1015A000D32BDA6847CFEC01C46FD06A43CFDC2F6E
:1015B000CC27C06FD06A3ECFC1E8D0E43BCFC2E8B1
:1015C000D0E438CFC2EED4E435CFC9EED4E432CF84
:1015D000CAEED4E42FCFC5EBD4E42CCFC6EBD4E4D1
:1015E00029CFC3EBD4E426CFC4EBD4E423CFC7EB9D
:1015F000D4E420CFCCECD4E41DCFCDECD4E41ACF8E
:10160000C3E8D5E417CFCAE8D5E414CFC2E9D5E4DE
:1016100011CFC4E9D5E40ECFC1E2D6E40BCFC3E2CB
:10162000D6E408CFC4E2D6E405CFC5E2D6E402CFC3
:10163000C6E2D6E4FFCEC7E2D6E4FCCEC0E0D4E4F6
:10164000F9CE8238910549F1B0F48133910509F45E
:101650005CC048F48932910509F452C08A32910580
:1016600009F458C008958533910509F444C08933BD
:10167000910599F00895833E910531F138F4803E4B
:10168000910591F0823E9105B1F00895863E910555
:1016900011F1873E910541F108952091E5012370F4
:1016A000C9F080EE90E008952091E50120FF12C07E
:1016B00089E390E008952091E50122FF0BC024FF0B
:1016C0002EC090E080E008952091E50122FD2AC01F
:1016D00024FDF7CF08952091E50123FFFBCF24FDE2
:1016E000F0CF87EE90E008952091E50123FFF0CF41
:1016F00086EE90E008952091E50125FD16C008953D
:101700002091E50125FD14C008952091E50126FDF5
:1017100012C008952091E50126FD10C0089583EEC2
:1017200090E0089582EE90E0089589E290E00895B7
:1017300085E390E008958AE290E0089581E390E0E7
:10174000C9CFCF93C82F0E946117282F30E0309364
:10175000E6012093E50182FF06C09C2F9871983026
:1017600079F4C77FC46083FF06C09C2F98719831BD
:1017700071F4C77EC46184FDC77E8C2FCF9108951C
:101780009C2F9471943079F7CB7FC860ECCF9C2F5D
:101790009471943181F7CB7EC861EDCF08950F939A
:1017A0001F93CF938C01FB018281811106C0C1E0A0
:1017B0008C2FCF911F910F910895C0916A01C11193
:1017C00025C006311C4599F70E94CE0B81E080931D
:1017D0006A010E9425189093690180936801109214
:1017E0005D0110925F0110925E01109261011092F2
:1017F00060011092630110926201109265011092D3
:1018000064011092670110926601D2CF8091680145
:10181000909169010E943118883C910540F68091B1
:101820005D01E82FF0E0EE0FFF1FE25AFE4F11833B
:1018300000838F5F80935D01C0E0BACF9093700109
:1018400080936F010895E0916F01F09170013097DE
:1018500021F00190F081E02D099480E00895E0915D
:101860006F01F0917001309721F00280F381E02D3B
:1018700009940895E0916F01F0917001309721F083
:101880000480F581E02D0994089520916D01309137
:101890006E012817390771F090936E0180936D01E6
:1018A000E0916F01F0917001309721F00680F7818F
:1018B000E02D0994089520916B0130916C01281757
:1018C000390771F090936C0180936B01E0916F0187
:1018D000F0917001309721F00084F185E02D09949A
:1018E00008950C940E0681E008950E941C180E9431
:1018F00088040C949218BF92CF92DF92EF92FF92DD
:101900000F931F93CF93DF93CDB7DEB72A970FB610
:10191000F894DEBF0FBECDBF0E94A5050E94730CD8
:10192000882309F471C082E7C82E81E0D82E10E028
:1019300000E0B02E802F0E94E405E82EF601F19021
:101940006F01F81609F45AC08091C70181FD0E9409
:10195000EA0590E080E0FE242F2D30E0482FB90109
:10196000082E02C0759567950A94E2F760FF41C0A2
:101970008E83BF8281E090E06C0102C0CC0CDD1C44
:101980004A95E2F72E2D30E02C213D21232B09F43E
:1019900080E088870E9425188160782F9A87898740
:1019A0004E815F8168858A850E94250DF801EE5879
:1019B000FE4F80818C2580830E94251A0E94230C73
:1019C00090917101891789F10E94230C8093710114
:1019D0002A960FB6F894DEBF0FBECDBFDF91CF9130
:1019E0001F910F91FF90EF90DF90CF90BF900C94DC
:1019F000670901968630910509F0B0CF0F5F1F4F40
:101A00000830110509F095CF8FEF89838A831B82F7
:101A10000E9425188160782F9D838C8349815A818B
:101A20006B818D810E94250DC7CF2A960FB6F89441
:101A3000DEBF0FBECDBFDF91CF911F910F91FF9001
:101A4000EF90DF90CF90BF900895CF93DF93CDB705
:101A5000DEB72B970FB6F894DEBF0FBECDBF4F8316
:101A6000588769877A878B871E821D8285E0FE01F1
:101A70003796DE01119601900D928A95E1F7498122
:101A80005A816B817C818D819E812B960FB6F89453
:101A9000DEBF0FBECDBFDF91CF910C940014CF936A
:101AA000C82F882309F4D4C08238C1F40E94230CC3
:101AB00081FDCEC089E30E947C160E94C0162FEFE4
:101AC00081EE94E0215080409040E1F700C000009A
:101AD00089E30E948316CF910C94C0168338A1F439
:101AE0000E94230C80FDB4C083E50E947C160E94F6
:101AF000C0162FEF81EE94E0215080409040E1F736
:101B000000C0000083E5E5CF8438A1F40E94230CD7
:101B100082FD9EC087E40E947C160E94C0162FEFB3
:101B200081EE94E0215080409040E1F700C0000039
:101B300087E4CFCF8CEF8C0F813A48F48C2F0E9432
:101B40002A1C811185C08C2F0E947C16C4CF80E294
:101B50008C0F883048F4C77081E001C0880FCA95A7
:101B6000EAF70E94F616B7CF8BE58C0F833068F446
:101B700081E890E0C53A31F083E890E0C63A11F48C
:101B800082E890E0CF910C94450C88E58C0F85316C
:101B900008F05EC082EE90E0C83A09F456C089EEC3
:101BA00090E0C93A09F451C08AEE90E0CA3A09F4CB
:101BB0004CC085EB90E0CB3A09F447C086EB90E04F
:101BC000CC3A09F442C083EB90E0CB3BF1F184EBDB
:101BD00090E0CC3BD1F187EB90E0CD3AB1F18CECC9
:101BE00090E0C03B91F18DEC90E0CE3A71F183E84A
:101BF00091E0CF3A51F18AE891E0C13B31F182E9BD
:101C000091E0C23B11F184E991E0C33BF1F081E244
:101C100092E0C43BD1F083E292E0C53BB1F084E2B4
:101C200092E0C63B91F085E292E0C73B71F086E21C
:101C300092E0C83B51F087E292E0C93B31F090E07E
:101C400080E0CA3B11F48AE292E0CF910C945B0CE5
:101C5000CF910895882309F44BC0823871F40E9413
:101C6000230C81FF45C089E30E947C160E94C016A8
:101C700089E30E9483160C94C016833859F40E949D
:101C8000230C80FF35C083E50E947C160E94C0169D
:101C900083E5EFCF843859F40E94230C82FF28C0DB
:101CA00087E40E947C160E94C01687E4E2CF9CEF76
:101CB000980F913AF0F290E2980F983050F48770B4
:101CC00091E001C0990F8A95EAF7892F0E94FC16CE
:101CD000D2CF9BE5980F933020F490E080E00C94F5
:101CE000450C885A853120F490E080E00C945B0C20
:101CF0000895882321F00E94F6160C94C0160895CA
:101D0000882321F00E94FC160C94C01608958F922F
:101D10009F92AF92BF92DF92EF92FF920F931F9329
:101D2000CF93DF937C01D62FC72FFC01058102954D
:101D30000F70128111110E9415170E94B916D82E2A
:101D4000882371F0112331F180E28D0F883010F17A
:101D500082E00E94A3160E94B91691E0D82ED926DF
:101D6000BC2EB2949FE0B922EB2DF0E0E654F14F87
:101D70000C94C423CC0ECC0E1C0F1C0F5E0F860FD0
:101D8000650F650FC80F650F63106310ED10650FC9
:101D9000650FF610D12CE4CF0C2F0F70C07F11F01F
:101DA0000295007F1123A9F0002359F080E28D0FE6
:101DB000883010F0D11109C0802F0E94F6160E94C1
:101DC000C0168D2F0E944F0D14C0802F0E94071740
:101DD000F6CF8D2F0E942A0E002359F080E28D0F3E
:101DE000883010F0D11124C0802F0E94FC160E9470
:101DF000C016DD2009F401C20E94961680FDFDC1C7
:101E0000F70112820E9490160E949115C7010E944C
:101E100009110E949016DF91CF911F910F91FF90B1
:101E2000EF90DF90BF90AF909F908F900C94B21581
:101E3000802F0E940D17DBCFFC2FFF70BF2EC07FBD
:101E4000C03219F0B29480EFB822DD2369F0D130AE
:101E500029F1112369F1002359F0F701858180FFF1
:101E6000B0CF8F70858304C0112361F0011104C0CD
:101E70008B2D0E94790EBDCF8B2D0130D1F70E94A2
:101E80002917B7CF011106C00E942C178B2D0E9475
:101E9000800EAFCF013009F4ACCFF6CF112321F083
:101EA000063008F0A6CFE4CF053008F0A2CFEECF81
:101EB000002361F38D2F0E942A0E9BCF8C2F8695D5
:101EC0008695837079F08130B9F098E0B91609F4FD
:101ED0009BC0B91608F48DCF86EF8B0D823008F4C5
:101EE00093C087CF8D2F9C2F9370111102C090E06B
:101EF00080E00E94450C7DCF8D2F9C2F9370111197
:101F000002C090E080E00E945B0C73CF112309F1C6
:101F1000D53F99F0D63FB9F0D43F49F48091DF0125
:101F20009091E00181609093E0018093DF018D2F1B
:101F30000E942E190E941A1A5CCF8091DF019091A5
:101F4000E0018260F0CF8091DF019091E001846038
:101F5000EACFD53F89F0D63FA9F0D43F49F480912C
:101F6000DF019091E0018E7F9093E0018093DF018B
:101F70008D2F0E949619DECF8091DF019091E001B4
:101F80008D7FF2CF8091DF019091E0018B7FECCFCC
:101F90008C2F837009F04BC0111136C02D2F229564
:101FA00026952770220F220F6D2F6F70862E912C91
:101FB000B12CA12C022E04C0880C991CAA1CBB1C9D
:101FC0000A94D2F760E070E0CB01D4FF0FC06FE05D
:101FD00070E080E090E004C0660F771F881F991FB3
:101FE0002A95D2F76095709580959095C695C6957F
:101FF000C370C23071F0A0F4682979298A299B291D
:10200000C13091F00E9443150E94230C0E94670981
:10201000F0CE682979298A299B290E945515F4CF89
:102020000E944315C501B4010E943115EDCF86957C
:10203000112311F08C2F8170882331F32D2F2295DD
:1020400026952770220F220F6D2F6F70862E912CF0
:10205000B12CA12C022E04C0880C991CAA1CBB1CFC
:102060000A94D2F760E070E0CB01D4FF0FC06FE0BC
:1020700070E080E090E004C0660F771F881F991F12
:102080002A95D2F76095709580959095C695C695DE
:10209000C370C23051F080F4682979298A299B29BC
:1020A000C13071F00E940816AFCF682979298A29BA
:1020B0009B290E941A16A8CF0E940816C501B401D8
:1020C0000E94F615A1CFE0E2ED0FE53108F066C001
:1020D000F0E0E359FF4E0C94C4238210821082106A
:1020E0008210821082108210821082108210821060
:1020F000821082108210821082109310A110A810FA
:10210000AF10B910DF708C2F8F71112331F00E9446
:1021100091158D2F0E94790ED8CE0E94B2158D2F69
:102120000E94800ED2CE112341F0053008F0CDCEB2
:102130008C2F8F710E94D515C8CE063008F0C5CE01
:10214000F7CF8C2F8F71112339F00E949115BDCEDE
:102150008C2F8F711123C9F30E94B215B6CE1123B3
:1021600029F08C2F8F710E947C15AFCE0E947715BD
:10217000ACCE112349F0CF718C2F0E94911563E0F2
:102180008C2F0E949A16A1CE81E00E94A3160230E5
:1021900008F49BCE82E00E94A31697CE112349F04B
:1021A000002321F08D2F0E944F0D8FCE8C2F8F7129
:1021B000CCCF002379F0D93349F4FFEF27EE83E049
:1021C000F15020408040E1F700C000008D2F0E94B8
:1021D0002A0E7BCE8C2F8F71BFCF4C2F4F706D2F5F
:1021E000C7010E9469090E94A91403CE4C2F4F70A9
:1021F0006D2FC7010E946C09FCCDDF91CF911F911B
:102200000F91FF90EF90DF90BF90AF909F908F90D5
:1022100008950F931F93CF93DF93EC0198818981E9
:102220002B813C81232B39F08F3F19F481E09F3FB4
:1022300019F080E001C081E080FD17C0CE010E944E
:102240009507882391F0688179818A810E947916A7
:102250008C010E942C160E942E15B801CE01DF9130
:10226000CF911F910F910C94870EDF91CF911F9109
:102270000F9108950E9415170E9426170E948A1632
:102280000E94C0160E94B01A0E941A1A90E080E0C4
:102290000E94450C90E080E00C945B0C0E940417B7
:1022A0000C943A110E946F16E92FE295EF70E250FC
:1022B000EE30E0F4F0E0E15AFE4E0C94C4236D11D0
:1022C0006D117611761178117611761176116D11E6
:1022D0006D117D11761176117D11803F19F020F47A
:1022E000803E20F481E00895843FE1F380E008958A
:1022F000803EC0F3813FD1F7F5CF93FB882780F96B
:102300000895CF93DF9300D000D01F92CDB7DEB7F2
:102310000F900F900F900F900F90DF91CF91089535
:10232000CF93DF9300D000D000D0CDB7DEB7269694
:102330000FB6F894DEBF0FBECDBFDF91CF910895E9
:102340001F93CF93DF93C0917A0116E080917B01B8
:102350008C1304C0DF91CF911F910895D0E01C9F92
:10236000F0011D9FF00D1124E458FE4F4081518172
:1023700062817381848195810E9490112196C7703A
:10238000E5CF4091AC015091AD016091AE017091EB
:10239000AF018091B0019091B1010C9490111F9305
:1023A000CF93DF938091B101807FD1F48091AE0112
:1023B0008823B1F080917A01D0917B01B091AC017A
:1023C000C091AD014091AF015091B001A1E0BF3F7C
:1023D00009F0A0E0BA016095709516E0D81304C02A
:1023E000DF91CF911F91089521E04115510521F012
:1023F0002A2FCF3F09F020E090E020FD38C0189F41
:10240000F001199FF00D1124E458FE4F21812C1387
:102410002EC020812B132BC02281211128C02381A3
:1024200034812417350700F1241B350B283C310576
:10243000F0F42091B1012F7020612093B10126E0CA
:10244000289FF001299FF00D1124EF57FE4F808146
:102450008F70806180838CEA91E00E940911DF9186
:10246000CF911F910C94A011260F371FDFCF01963B
:102470008770B4CFAF92BF92CF92DF92EF92FF926C
:102480000F931F93CF93DF93CDB7DEB761970FB64E
:10249000F894DEBF0FBECDBF8C0185E0F801DE01F0
:1024A0001D9601900D928A95E1F7D8014C911196F5
:1024B0005C9111971296EC903091AC016091AD0156
:1024C0008091AF019091B00121E0009731F06F3F12
:1024D00019F421E03F3F09F020E0B22FB170BB2E8C
:1024E00020FD80C1F801C380D480A090AE01AA2055
:1024F00009F427C1C816D906D0F1D601A81BB90B1B
:10250000CD01FF24F394883C910508F0F12C8091D3
:10251000B101982F907FFF2009F4CAC0911187C0A4
:10252000FE2C651329C0341327C0E11025C08F701D
:1025300080618093B1010E94C1118CEA91E00E94F8
:1025400009118091B101F80185838F2D61960FB635
:10255000F894DEBF0FBECDBFDF91CF911F910F91D9
:10256000FF90EF90DF90CF90BF90AF90089580954F
:1025700090958C0D9D1DC5CF81E0CD2831F05F3F3A
:1025800019F481E04F3F09F080E080FD24C081E034
:102590008E25F82FF170DF2E80FF3FC080917A01E9
:1025A00020917B0136E0821318C04D875E878D85B0
:1025B0009E850E946F16292F22952F70223008F1D8
:1025C000243030F59F7009F1D80115969C91907FC9
:1025D000E1F4FB2CBACF80E0DCCF90E0389FF00133
:1025E000399FF00D1124E458FE4F6181561306C047
:1025F0006081461303C062816E110FC0019687701F
:10260000D2CF9F7011F0882321F3805E883008F3C9
:10261000C8010E940911BD2CDCCFEE2009F495CF32
:102620008091B10181608093B101F12C8ECF65134F
:1026300012C0341310C0E1100EC0F8018583C80128
:102640000E94091186E0F801ACEAB1E001900D9218
:102650008A95E1F741C04D875E878D859E850E94F2
:102660005211882309F4C8C0EE2009F4C5C0809136
:10267000B101803270F02091AC013091AD0138870A
:102680002F831986DB86CA868C87CE0107960E9427
:10269000091186E0F801ACEAB1E001900D928A954B
:1026A000E1F70E94CF110E94C111FF24F3944DCF96
:1026B000911115C07C2DD98AC88A6E2D89890E94F6
:1026C00081118CEA91E00E94091186E0ECEAF1E0C8
:1026D000DF011D928A95E9F70E94C11136CF65137B
:1026E00012C0341310C0E1100EC0F8018583C80178
:1026F0000E940911ECEAF1E086E0DF011D928A9563
:10270000E9F7FA2C22CF4D875E878D859E850E9442
:102710005211882309F470C0EE2009F46DC0809135
:10272000B101803208F4B5CF2091AC013091AD01F8
:102730003A8329831B82DD82CC828E83CE0101966F
:10274000A6CFC816D90638F1F601E81BF90BCF0160
:10275000F12C883C910508F03DC0FE2CEE2009F4D8
:102760004BC0651326C0341324C08091B10180FD95
:1027700017C0982F907FA1F0D80115968C931597CC
:10278000903F09F45CCF982F907F905F8F70892BDA
:1027900015968C9354CF809590958C0D9D1DD8CF18
:1027A00086E0F801ACEAB1E001900D928A95E1F77C
:1027B000CCCE4D875E878D859E850E9452118111FA
:1027C00068CF8091B10181608093B101C8010E94FE
:1027D0000911BBCE7C2DD98AC88A6E2D89890E94A9
:1027E000811173CFEE2041F04D875E878D859E85E8
:1027F0000E94521181114DCFC8010E94091155CF7D
:102800001F93CF93DF93CDB7DEB72C970FB6F89415
:10281000DEBF0FBECDBF4F83588769877A878B870E
:102820009C87CE0107960E943A12882309F442C081
:102830009F8188852A853B85232B39F08F3F19F4AA
:1028400081E09F3F19F080E001C081E080FD08C079
:102850004F81588569857A858B859C850E9490116A
:1028600016E080917A0190917B01891709F467C085
:10287000819FC001112484589E4F0E943A128823E0
:1028800009F45DC0E0917A011E9FF0011124E45823
:10289000FE4F4081518162817381848195810E94C4
:1028A000901180917A0190E001968770992780932A
:1028B0007A01D7CF86E0FE013796DE0111960190AE
:1028C0000D928A95E1F79F8188852A853B85232B88
:1028D00039F08F3F19F481E09F3F19F080E001C08B
:1028E00081E080FDBDCF20917B0130E0C9010196E0
:1028F0008770992740917A014817190699F096E058
:10290000929FD001939FB00D1124A458BE4FFE0199
:10291000319601900D929A95E1F780937B010E9488
:10292000A0119ECF0E944E1110927B0110927A014D
:1029300086E0ECEAF1E0DF011D928A95E9F72C963A
:102940000FB6F894DEBF0FBECDBFDF91CF911F91C0
:102950000895EF92FF920F931F93CF93DF938C0113
:10296000892B81F0F12CEE24E394E8012196F80103
:102970008491843770F4843008F05FC08130B1F006
:102980008230A1F1DF91CF911F910F91FF90EF90D5
:102990000895853709F44CC008F43DC09CE7980FB2
:1029A000903780F78F770E942A0E49C00E5F1F4F25
:1029B000FE01849190E2980F983060F48770FE2DAC
:1029C00001C0FF0F8A95EAF78F2F0E9418170E9407
:1029D000C01602C00E944F0D8F2D815030F2EFE9DA
:1029E000FFE03197F1F700C00000F7CF0E5F1F4FF7
:1029F000FE01849190E2980F983050F48770FE2D7C
:102A000001C0FF0F8A95EAF78F2F0E941E17DFCFB4
:102A10000E942A0EE1CF0E5F1F4FFE01C491C150EC
:102A2000D8F28FE99FE00197F1F700C00000F7CFDF
:102A30000E5F1F4FFE01F490CFCF0E944F0D8E010D
:102A4000CBCF08950E9421156093B6017093B70112
:102A50008093B8019093B9010C943A1108950C94A5
:102A600022150F931F930091B6011091B701209189
:102A7000B8013091B901602B712B822B932B1F91E0
:102A80000F910C9422150F931F930091B601109192
:102A9000B7012091B8013091B901602371238223DD
:102AA00093231F910F910C9422150F931F93009164
:102AB000B6011091B7012091B8013091B90160279A
:102AC0007127822793271F910F910C9422150C9444
:102AD00021150C9467150E9469156093B2017093DB
:102AE000B3018093B4019093B5010C943A1160E066
:102AF00070E0CB010C946B150F931F9341E050E0F5
:102B000060E070E08A019B0104C0000F111F221FCA
:102B1000331F8A95D2F7C901B8011F910F910C9408
:102B20006B150F931F9341E050E060E070E004C02C
:102B3000440F551F661F771F8A95D2F78091B20107
:102B40009091B301A091B401B091B5018A019B01AC
:102B5000082B192B2A2B3B2BC901B8011F910F9170
:102B60000C946B150F931F9341E050E060E070E010
:102B700004C0440F551F661F771F8A95D2F7CB01FB
:102B8000BA0160957095809590950091B201109171
:102B9000B3012091B4013091B501602371238223E8
:102BA00093231F910F910C946B150F931F9341E08A
:102BB00050E060E070E004C0440F551F661F771FAF
:102BC0008A95D2F78091B2019091B301A091B4019E
:102BD000B091B5018A019B01082719272A273B27B5
:102BE000C901B8011F910F910C946B150F931F939E
:102BF0000091B2011091B3012091B4013091B5015F
:102C0000602B712B822B932B1F910F910C946B15C2
:102C10000F931F930091B2011091B3012091B40161
:102C20003091B50160237123822393231F910F916B
:102C30000C946B150F931F930091B2011091B30187
:102C40002091B4013091B501602771278227932725
:102C50001F910F910C946B150895BF92CF92DF9244
:102C6000EF92FF920F931F93CF93DF938C01C0904D
:102C7000B201D090B301E090B401F090B501809121
:102C8000B6019091B701A091B801B091B901C82ADD
:102C9000D92AEA2AFB2ACFE1D0E0BC2ED701C6010F
:102CA0000C2E04C0B695A795979587950A94D2F7F0
:102CB00080FD0EC0219788F7B12C8B2DDF91CF912D
:102CC0001F910F91FF90EF90DF90CF90BF900895EC
:102CD000B8018C2F0E948909019761F3EECFCF9341
:102CE000DF93EC010E942D16BE01DF91CF910C9471
:102CF0008909CB010C946F16682F80910101909186
:102D000002010C949E17682F80910101909102019D
:102D10000C94A01780910101909102010C94A217CC
:102D20008091BA0185958595859508958091BA0120
:102D30008770089598E0899F90011124622B609319
:102D4000BA010C9491159091BA01809589238093D2
:102D5000BA01282F277061F4282F082E000C330B9E
:102D60009217130629F08595859585950C94B215D3
:102D700008959091BA01977081E009F480E0089578
:102D8000E0910101F09102018091C6018083E09100
:102D90000101F091020180819091C501892B80830E
:102DA000E0910101F091020180819091C401892B91
:102DB00080839091BB01992381F0E0910101F09112
:102DC00002018081892B8083809101019091020111
:102DD0000E946A1781111092BB01809101019091AC
:102DE00002010C942F0C8091C60108959091C601A8
:102DF000892B8093C6010895982F90958091C601E4
:102E000089238093C60108951092C6010895909178
:102E1000C501892B8093C5010895982F90958091C5
:102E2000C50189238093C50108951092C5010895B5
:102E30009091C401892B8093C4010895982F909597
:102E40008091C40189238093C40108951092C40124
:102E500008958093BB0108951092BB0108956DEE13
:102E60007EEF90E080E00E94FE2360E082E090E050
:102E70000E94EC2360E083E090E00E94EC2360E09D
:102E800084E090E00E94EC2360E085E090E00C9408
:102E9000EC2390E080E00E94E62321E08D3E9E4FEF
:102EA00009F020E0822F089582E090E00C94DE2368
:102EB00083E090E00C94DE23682F83E090E00C9494
:102EC000EC2384E090E00C94DE23682F84E090E013
:102ED0000C94EC23FC0131969C01285F3F4F80E06D
:102EE000919191118F5FE217F307D1F708959C013B
:102EF000FC0132969FEF80E04191461751F09F3FD1
:102F000019F4411101C0982F8F5F8630A9F79F3FB8
:102F100009F40895290F311D97FD3A95F90162834F
:102F20000895FC01329608962191261303C0DF0113
:102F300011971C92E817F907B9F708950C947717C1
:102F40000C949117FC011182128213821482158253
:102F50001682178208958091EB01843039F1109226
:102F6000C80188E190E020E40FB6F894A89580931A
:102F700060000FBE2093600080E00E94670983B765
:102F8000817F846083BF83B7816083BF7894889595
:102F900083B78E7F83BF0FB6F894A89580916000A9
:102FA000886180936000109260000FBE08950895BC
:102FB0000895CF930E94D7170E94A5050E94D817A5
:102FC000C0E08C2F0E94E405811105C0CF5FC8309E
:102FD000C1F7CF91089581E0FCCF0E944E110E946D
:102FE000230C0C9467091F920F920FB60F921124B5
:102FF0008F939F93AF93BF938091C801811113C0AA
:103000008091E1019091E201A091E301B091E4018E
:103010004196A11DB11D8093E1019093E201A0931F
:10302000E301B093E401BF91AF919F918F910F9015
:103030000FBE0F901F90189582E084BD93E095BD60
:103040009AEF97BD80936E0008952FB7F894809102
:10305000E1019091E201A091E301B091E4012FBF61
:103060000895CF92DF92EF92FF920F931F932FB7A5
:10307000F8944091E1015091E2016091E301709177
:10308000E4012FBF6A017B01EE24FF248C0130E0B4
:1030900020E0C016D106E206F30650F0481B590B9B
:1030A000CA011F910F91FF90EF90DF90CF9008958C
:1030B00041505109F3CF78941F920F920FB60F929F
:1030C00011248F939F93AF93BF938091E1019091CF
:1030D000E201A091E301B091E4010196A11DB11DAF
:1030E0008093E1019093E201A093E301B093E401A6
:1030F000BF91AF919F918F910F900FBE0F901F9036
:10310000189587E797E7909301088093000888E176
:103110009AE00FB6F894A895809360000FBE909344
:103120006000FFCF0E944917811102C00E942F1733
:103130000E9454178093C7010E94611790E09093FA
:10314000E6018093E5010E945817682F70E090E037
:1031500080E00C942F158091CB0180FF12C060910C
:10316000060185E0689FB0011124759567957595F6
:10317000679560387105A8F561157105A1F1862F75
:10318000089581FF09C06091060185E0689FB00144
:10319000112475956795EDCF82FF07C060910601F8
:1031A00085E0689FB0011124E4CF2091CC01222357
:1031B000A9F0909105016091060185E0689FB0013A
:1031C00011242917B0F6269FA001279F500D112426
:1031D000692F70E0CA010E94B023CBCF65E070E098
:1031E000CECF8FE7089581E008958091CB0180FFD5
:1031F0000CC06091040170E07595679575956795B1
:103200006115710549F1862F089581FF06C060910F
:10321000040170E075956795F3CF6091040182FD1C
:103220000BC09091CC019923A1F060910301809192
:103230000401961738F0682F70E06038710500F3CC
:103240008FE70895899FC001112470E00E94B02388
:10325000F4CF61E070E0D7CF81E00895803F31F492
:103260000E94AB1881958093CF010895813F19F496
:103270000E94AB18F8CF823F31F40E94AB188195C1
:103280008093CE010895833F19F40E94AB18F8CFC4
:10329000893F29F40E94F5188093D00108958A3F50
:1032A00021F40E94F5188195F7CF8B3F31F40E94ED
:1032B000F51881958093D10108958C3F19F40E94EF
:1032C000F518F8CF843F31F48091CD01816080936F
:1032D000CD010895853F21F48091CD018260F7CF23
:1032E000863F21F48091CD018460F1CF873F21F4A6
:1032F0008091CD018860EBCF883F21F48091CD0192
:103300008061E5CF8D3F31F48091CB018160809366
:10331000CB0108958E3F21F48091CB018260F7CFDD
:103320008F3FB9F78091CB018460F1CF803FC1F42A
:103330008091CF0187FD1092CF018091CE01811144
:103340000EC08091CF0181110AC08091D0018111FE
:1033500006C08091D101811102C01092CC01089564
:10336000813F29F48091CF0118162CF3E6CF90917C
:10337000CE01823F29F497FFE0CF1092CE01DDCF3E
:10338000833F19F41916CCF3D8CF893F39F48091D3
:10339000D001181694F61092D001CFCF8A3F29F4AD
:1033A0008091D00187FFC9CFF6CF8B3F39F4809150
:1033B000D10187FFC2CF1092D101BFCF8C3F29F43A
:1033C0008091D1011816BCF3B8CF843F31F48091BD
:1033D000CD018E7F8093CD01B0CF853F21F48091C8
:1033E000CD018D7FF7CF863F21F48091CD018B7F7A
:1033F000F1CF873F21F48091CD01877FEBCF883FCC
:1034000021F48091CD018F7EE5CF8D3F31F4809105
:10341000CB018E7F8093CB0190CF8E3F21F48091A2
:10342000CB018D7FF7CF8F3F09F087CF8091CB0104
:103430008B7FF0CF8DEC91E00E943A0C0E94251812
:103440009093CA018093C90108951F93CF93DF938E
:103450008091C9019091CA010E943118AC019091EC
:10346000CC012091070130E0911106C020910801A4
:103470008AE0289F900111244217530780F0809121
:10348000CE011091CF01D091D001C091D101811115
:103490000AC0111161C0D1115FC0C1115DC0DF91BF
:1034A000CF911F9108959F3F19F09F5F9093CC019A
:1034B000181624F40E94AB188093CE018091CE019F
:1034C00087FF05C00E94AB1881958093CE0111162D
:1034D00024F40E94AB188093CF018091CF0187FF25
:1034E00005C00E94AB1881958093CF014091CE0119
:1034F000442379F03091CF01332359F025EB420377
:10350000A00111245093CE01320390011124309375
:10351000CF011D1624F40E94F5188093D0018091EC
:10352000D00187FF05C00E94F51881958093D001D6
:103530001C1624F40E94F5188093D1018091D101CA
:1035400087FF05C00E94F51881958093D101DF9116
:10355000CF911F910C941A1A9F3F09F0A6CFB7CFB5
:1035600085E0EDECF1E0DF011D928A95E9F710921C
:10357000CC011092CB010895833081F128F4813081
:1035800059F08230D1F00895853009F449C0B8F17E
:10359000863009F456C0089580910801482F460FDF
:1035A0005527551F4F3F510524F4680F60930801BC
:1035B00008958FEF80930801089580910701482FA7
:1035C000460F5527551F4F3F510524F4680F609350
:1035D000070108958FEF80930701089580910601F8
:1035E000482F460F5527551F4F3F510524F4680FAC
:1035F0006093060108958FEF8093060108958091EE
:103600000501482F460F5527551F4F3F510524F4FC
:10361000680F6093050108958FEF80930501089569
:1036200080910401482F460F5527551F4F3F5105E4
:1036300024F4680F6093040108958FEF80930401D0
:10364000089580910301482F460F5527551F4F3F7E
:10365000510524F4680F6093030108958FEF809360
:1036600003010895833011F128F4813049F082304C
:1036700091F00895853081F120F18630C1F10895EF
:1036800080910801681720F4861B80930801089533
:1036900010920801089580910701681720F4861B95
:1036A0008093070108951092070108958091060103
:1036B000681720F4861B8093060108951092060176
:1036C000089580910501681720F4861B80930501F9
:1036D000089510920501089580910401681720F45F
:1036E000861B80930401089510920401089580912F
:1036F0000301681720F4861B80930301089510923C
:10370000030108950F931F9341E050E060E070E0E3
:103710008A019B0104C0000F111F221F331F8A95CD
:10372000D2F7C901B8010E942F151F910F910C9477
:103730004E118732A8F58E3108F07BC08E3009F427
:103740006DC058F4873009F45AC08B3009F44BC06F
:10375000863009F44AC080E00895863109F443C0F8
:1037600068F48031C1F79091C701892F877F93FF5B
:1037700088608093C70183FD0FC035C0893199F1FE
:103780008B3149F79091C701892F8D7F91FF82601E
:103790008093C70181FF27C08091C70181603BC032
:1037A000883309F150F4893221F0853311F08732E2
:1037B00091F680E00E94821B16C08334D1F320F47E
:1037C0008A3348F28953F6CF883429F60E944E1185
:1037D0002FEF83ED90E3215080409040E1F700C04F
:1037E00000000E94811881E008958091C701817FC7
:1037F0008E7F8093C70181E08093D30108959091DB
:10380000C701892F8E7F90FF81608093C70180FD63
:10381000EACF897F877F8093C701E5CF9091C70169
:10382000892F8B7F92FF84608093C70182FDB4CF84
:10383000DACF8D51BFCF80E008950C941B1C8E51C0
:103840008A3030F4E82FF0E0EE5DFE4F808108957D
:1038500080E00895CF93C82F8091D3018130C9F0C3
:1038600030F08230D9F11092D30180E010C0E091A5
:103870000101F091020180818232B9F78C2F0E9400
:103880001B1C81111BC08C2F0E94991B8170CF9132
:103890000895E0910101F09102018081823271F37B
:1038A0008C2F0E941D1C811110C0C43181F048F47E
:1038B000CB3059F0C03171F080E0E8CF81E090E08A
:1038C000E5CFC93221F0C833B9F781E0DFCF1092DC
:1038D000D301F2CF82E08093D301F7CFC93219F13F
:1038E00088F4C43101F120F4C73081F181E0CFCFF9
:1038F00082EE8C0F8630D0F78C2F0E941F1C809395
:10390000D201F4CFCE3401F140F46AE0CB3471F748
:103910008091D2010E94BC1AE9CFC13579F061E0F3
:10392000C235B1F3E3CF8091D201882319F0109210
:10393000D201DCCF81E08093D301A9CF61E08091F7
:10394000D2010E94321BD2CF6AE0F9CF8EE1809380
:10395000080182E3809307018AE08093060184E1F5
:103960008093050188E08093040188E2809303013D
:10397000BDCF8091DC0108950F931F93CF93DF9308
:1039800000D01F92CDB7DEB78C010E94011F82309C
:1039900011F0843019F583E089831B830A838093B7
:1039A000E9008FEF9091E800815095FD06C095EDFC
:1039B0009A95F1F700008111F5CF8091E80085FF1D
:1039C0000DC050E040E063E070E0CE0101960E943F
:1039D0001E1F8091E8008E778093E8000F900F9073
:1039E0000F90DF91CF911F910F910895CF93DF93A7
:1039F00000D01F92CDB7DEB72091EB01243031F516
:103A000022E02983805891099B838A8383E08093F5
:103A1000E9008FEF9091E800815095FD06C095ED8B
:103A20009A95F1F700008111F5CF8091E80085FFAC
:103A30000DC050E040E063E070E0CE0101960E94CE
:103A40001E1F8091E8008E778093E8000F900F9002
:103A50000F90DF91CF910895CF93DF93EC010E94F7
:103A6000011F823011F08430F9F482E08093E90084
:103A70008FEF9091E800815095FD06C095ED9A95E5
:103A8000F1F700008111F5CF8091E80085FF0CC0AF
:103A900050E040E065E070E0CE010E941E1F809182
:103AA000E8008E778093E800DF91CF910895CF935F
:103AB000DF93EC010E94011F823011F0843039F550
:103AC00081E08093E9008FEF9091E800815095FDAF
:103AD00006C095ED9A95F1F700008111F5CF809120
:103AE000E80085FF14C050E040E068E070E0CE01DF
:103AF0000E941E1F8091E8008E778093E80088E086
:103B0000FE01A4EDB1E001900D928A95E1F7DF91FD
:103B1000CF9108958091EA01811109C00E94AE20E1
:103B20000E940B218091E20084608093E20008955E
:103B30001092EA010895089508950C94ED1742E05B
:103B400061EC81E00E942C2042E061EC82E00E9466
:103B50002C2042E061EC83E00C942C208091ED015C
:103B6000833009F452C030F4813059F1823009F4C5
:103B70008EC008958A3009F47AC08B3009F460C091
:103B8000893009F041C08091EC018132E9F58091E2
:103B9000F0019091F101892BB9F58091E800877FC0
:103BA0008093E8008091E80082FF2AC08091F100B4
:103BB0008093DC018091E8008B778093E8000C947F
:103BC00060208091EC01813AF9F48091E800877FD0
:103BD0008093E8008091F0019091F101892B61F4CC
:103BE00068E084ED91E070E00E946D1F8091E80034
:103BF0008B778093E800089560E090E080E0F3CF59
:103C00008091EB018111CECF08958091EC01813A32
:103C1000D9F78091F0019091F101892BA9F780915A
:103C2000E800877F8093E8008091E80080FFFCCF68
:103C3000809113018093F1008091E8008E77BDCFD1
:103C40008091EC01813201F78091F0019091F101B6
:103C5000892BD1F68091E800877F8093E8000E944D
:103C600060208091EE01809313010C944E1180919D
:103C7000EC01813249F68091E800877F8093E8006B
:103C80000E9460208091EF018093DD010895809172
:103C9000EC01813A09F0B8CF8091E800877F8093EA
:103CA000E8008091E80080FFFCCF8091DD01C2CF69
:103CB00084B7877F84BF0FB6F894A8958091600081
:103CC000886180936000109260000FBE80E880934E
:103CD0006100109261000E94710C0E94AE200E944F
:103CE0000B218091E20084608093E20078940E942E
:103CF00094230E94750C89E091E00E941E0C809133
:103D0000EB01853019F00E947B0CF9CF0E94AB17B4
:103D10008091E901882399F30E94D917882379F3C8
:103D20000E94081FECCF0C94951E292F33272330B7
:103D3000310579F158F421303105F1F022303105A7
:103D400019F190E080E030E020E01AC02132310526
:103D5000C9F122323105A9F76330710590F7FB01F3
:103D6000EE0FFF1FE15DFE4F20813181645D7E4FCC
:103D7000FB01808190E004C082E190E020EA37E01E
:103D8000FA0131832083089584E590E02CE437E044
:103D9000F7CF99278130910579F040F08230910575
:103DA00071F0039771F6ECE0F7E002C0E8E4F7E0A9
:103DB000849190E09F01E4CFE0E3F7E0F9CFE2E106
:103DC000F7E0F6CF6330710508F0BBCF660F771FC1
:103DD000FB01EB5CFE4F2081318189E090E0D0CF88
:103DE0000895CF93C82F0E94F01EC093DE01CF919B
:103DF00008958091EB01843011F081E0089582E014
:103E000008958091DE01811102C00C94F91E08957D
:103E100080E189BD82E189BD09B400FEFDCF8091BA
:103E2000D8008F7D8093D8008091E00082608093DD
:103E3000E0008091E00081FDFCCF0895AF92BF9239
:103E4000CF92DF92FF920F931F93CF93DF936C017A
:103E5000EB018A010E947F20F82E811123C00115F9
:103E6000110539F0F80180819181C81BD90BC80E6A
:103E7000D91EB12CA12C2097A9F08091E80085FDD6
:103E800022C08091E8008E778093E800011511052B
:103E9000A1F0F80180819181A80EB91EB182A082A3
:103EA00085E0F82E8F2DDF91CF911F910F91FF901C
:103EB000DF90CF90BF90AF9008950E947F2088231D
:103EC000D1F2F82EEFCFF60181916F018093F100CE
:103ED0002197FFEFAF1ABF0ACECFFC018091F2010C
:103EE0009091F30186179707A0F06115710529F4E9
:103EF0009091E8009E779093E80090E0611571053D
:103F000051F4911108C08091E80082FF35C080E033
:103F10000895BC01F2CF8091EB018823C9F185306F
:103F2000C9F18091E80083FD31C08091E80082FDF5
:103F3000EACF8091E80080FFE1CF2091F3008091EB
:103F4000F200322F282F6115710519F02830310544
:103F500058F091E02830310509F090E02091E80018
:103F60002E772093E800CACF81918093F1006150B1
:103F700071092F5F3F4FE7CF8091EB01882341F01C
:103F8000853041F08091E80083FFBDCF81E0089546
:103F900082E0089583E00895FC018091F201909100
:103FA000F30186179707A0F06115710529F4809138
:103FB000E8008E778093E80090E06115710551F478
:103FC000911108C08091E80082FF36C080E008951A
:103FD000BC01F2CF8091EB018823D1F18530D1F182
:103FE0008091E80083FD32C08091E80082FDEACF35
:103FF0008091E80080FFE1CF2091F3008091F200F2
:10400000322F282F6115710519F02830310558F02D
:1040100091E02830310509F090E08091E8008E773A
:104020008093E800CACF84918093F100319661506B
:1040300071092F5F3F4FE6CF8091EB01882341F05C
:10404000853041F08091E80083FFBCCF81E0089586
:1040500082E0089583E00895982F973028F08F70BC
:104060008093E90081E008959093E900242F762F52
:1040700050E0981731F07091EC002091ED005091D4
:10408000F00021FD02C09F5FE8CF3091EB003E7F42
:104090003093EB003091ED003D7F3093ED00309197
:1040A000EB0031603093EB007093EC002093ED0057
:1040B0005093F0002091EE0027FDE5CF80E00895B9
:1040C0008091EC0187FF13C08091E80082FF06C059
:1040D0008091E8008B778093E80004C08091EB0129
:1040E0008111F2CF08958091EB018823D9F380915B
:1040F000E80080FFF8CF8091E8008E77ECCF209128
:10410000E4003091E50085E69091EC0090FF06C058
:104110009091E80090FF06C080E008959091E8003B
:1041200092FDFACF9091EB01992391F0953091F0A7
:104130009091EB0095FD10C04091E4005091E50096
:104140002417350709F381509A01F1F684E00895A8
:1041500082E0089583E0089581E008950E941C2183
:104160000E942421E0EEF0E0808181608083E8ED10
:10417000F0E080818F77808319BCA7EDB0E08C914F
:104180008E7F8C9380818F7E80831092EA010895C8
:104190000F931F93CF93DF930E941C210E94242131
:1041A000C8EDD0E088818F77888388818068888394
:1041B00088818F7D888319BC1092EB011092E701F2
:1041C0001092E9011092E80100EE10E0F801808100
:1041D0008B7F808388818160888342E060E080E01B
:1041E0000E942C20E1EEF0E080818E7F8083E2EE61
:1041F000F0E0808181608083808188608083F80125
:1042000080818E7F8083888180618883DF91CF91D8
:104210001F910F910895E8EDF0E080818F7E8083FB
:10422000E7EDF0E080818160808384E082BF81E0FF
:104230008093EA010C94C820E8EDF0E080818E7F45
:1042400080831092E20008951092DA001092E1004B
:1042500008951F920F920FB60F9211242F933F9340
:104260004F935F936F937F938F939F93AF93BF937E
:10427000EF93FF938091E10082FF0BC08091E200F9
:1042800082FF07C08091E1008B7F8093E1000E9454
:1042900093238091DA0080FF19C08091D80080FFBD
:1042A00015C08091DA008E7F8093DA008091D9006A
:1042B00080FF94C080E189BD82E189BD09B400FE20
:1042C000FDCF81E08093EB010E948A1D8091E10087
:1042D00080FF19C08091E20080FF15C08091E2004C
:1042E0008E7F8093E2008091E20080618093E20003
:1042F0008091D80080628093D80019BC85E08093BB
:10430000EB010E949C1D8091E10084FF29C08091F7
:10431000E20084FF25C080E189BD82E189BD09B446
:1043200000FEFDCF8091D8008F7D8093D8008091D2
:10433000E1008F7E8093E1008091E2008F7E809388
:10434000E2008091E20081608093E2008091E701C9
:10435000882309F449C084E08093EB010E949D1DED
:104360008091E10083FF29C08091E20083FF25C096
:104370008091E100877F8093E10082E08093EB01F0
:104380001092E7018091E1008E7F8093E10080919F
:10439000E2008E7F8093E2008091E2008061809352
:1043A000E20042E060E080E00E942C208091F0007A
:1043B00088608093F0000E949B1DFF91EF91BF9158
:1043C000AF919F918F917F916F915F914F913F91AD
:1043D0002F910F900FBE0F901F90189519BC10923F
:1043E000EB010E94981D72CF8091E30087FD02C00F
:1043F00081E0B2CF83E0B0CF1F920F920FB60F9241
:1044000011242F933F934F935F936F937F938F93D9
:104410009F93AF93BF93CF93EF93FF93C091E90026
:10442000CF708091EC001092E9008091F000877FBE
:104430008093F00078940E9438221092E9008091D5
:10444000F00088608093F000C093E900FF91EF9145
:10445000CF91BF91AF919F918F917F916F915F911C
:104460004F913F912F910F900FBE0F901F90189575
:104470001F93CF93DF93CDB7DEB7AA970FB6F8940B
:10448000DEBF0FBECDBFECEEF1E08091F100819375
:1044900021E0E43FF207C9F70E94AE1D8091E800D9
:1044A00083FF44C08091EC019091ED019A3008F0B7
:1044B0003DC0E92FF0E0E15AFD4D0C94C423692280
:1044C0008F2296228F229622ED220F239622662398
:1044D0007323803889F0823849F58091F0018F701C
:1044E000873020F58093E9008091EB0085FB8827D9
:1044F00080F91092E90006C08091E8019091E901ED
:10450000911182609091E800977F9093E8008093EA
:10451000F1001092F1008091E8008E772DC0282FD5
:104520002D7F21F48823D1F0823059F18091E80069
:1045300083FF0AC08091E800877F8093E800809124
:10454000EB0080628093EB00AA960FB6F894DEBF72
:104550000FBECDBFDF91CF911F9108958091EE01E5
:10456000813021F7933009F080E08093E9011092C7
:10457000E9008091E800877F8093E8000E94602036
:10458000D5CF8091EE018111F2CF8091F0018F7033
:104590002FEF280F263050F68093E9002091EB0092
:1045A00020FFE5CF933031F48091EB00806280935F
:1045B000EB00DDCF9091EB0090619093EB0021E058
:1045C00030E001C0220F8A95EAF72093EA001092AA
:1045D000EA008091EB008860EACF8111A7CF1091AB
:1045E000EE011F778091E3008078812B8093E300B8
:1045F0008091E800877F8093E8000E94602080918E
:10460000E80080FFFCCF8091E30080688093E300A6
:1046100083E0111101C082E08093EB0187CF8058C5
:10462000823008F083CF8091EE019091EF018C3DB4
:1046300023E09207A1F583E08A838AE289834FB75A
:10464000F894DE01139620E03EE051E2E32FF0E023
:1046500050935700E49120FF03C0E295EF703F5F55
:10466000EF708E2F90E0EA30C0F0C7968D939D9347
:104670002F5F243159F74FBF8091E800877F8093E7
:10468000E8006AE270E0CE0101960E946D1F809101
:10469000E8008B778093E80049CFC096E7CF609120
:1046A000F0017091F101AE014F5F5F4F0E94931EC8
:1046B000BC01892B09F43ACF9091E800977F909341
:1046C000E80089819A810E94CC1FE1CF803809F0EF
:1046D0002DCF8091E800877F8093E8008091E701EB
:1046E0008093F10018CF811121CF9091EE0192308B
:1046F00008F01CCF8091E800877F8093E8009093BA
:10470000E7010E9460208091E701882331F084E076
:104710008093EB010E949F1D09CF8091E30087FDEC
:10472000F6CF81E0F5CF0895CF938091EB018823F8
:1047300099F0C091E900CF708091EC0080FD0EC02F
:1047400080E0C82B1092E9008091E80083FD0E9470
:104750003822CF70C093E900CF91089580E8F1CF5F
:1047600097FB072E16F4009407D077FD09D00E941E
:10477000CA2307FC05D03EF4909581959F4F08957C
:10478000709561957F4F0895EE0FFF1F0590F4918E
:10479000E02D0994AA1BBB1B51E107C0AA1FBB1F38
:1047A000A617B70710F0A61BB70B881F991F5A95BD
:1047B000A9F780959095BC01CD010895F999FECF98
:1047C00092BD81BDF89A992780B50895A8E1B0E01F
:1047D00042E050E00C940624262FF999FECF92BDBA
:1047E00081BDF89A019700B4021639F01FBA20BDB6
:1047F0000FB6F894FA9AF99A0FBE08950196272FEA
:104800000E94ED230C94EC23DC01CB01FC01F9990F
:10481000FECF06C0F2BDE1BDF89A319600B40D920C
:0C48200041505040B8F70895F894FFCFC5
:10482C0001BC012808140A321EB91C571D2C1DF698
:10483C001CBC1C01F6F73133323697C634350000F8
:10484C00000001020304050607080900404D363537
:0C485C0008E807B2075E07770790070026
:00000001FF
