:100000000C94BE040C94EF060C9405050C940505A5
:100010000C9405050C9405050C9405050C94050538
:100020000C9405050C9405050C945D210C9430226C
:100030000C9427180C9405050C9405050C940505E3
:100040000C9405050C9405050C9405050C94050508
:100050000C9405050C948F180C9405050C9405055B
:100060000C9405050C9405050C9405050C940505E8
:100070000C9405050C9405050C9405050C940505D8
:100080000C9405050C9405050C9405050C940505C8
:100090000C9405050C9405050C9405050C940505B8
:1000A0000C9405050C9405050C94050502E07A03F3
:1000B000E05B002B0014001A00080015001700294F
:1000C0006104001600070009000A00E1001D001B82
:1000D000000600190005005040516452414F6891DC
:1000E000432C002A00130012000C0018001C0028EA
:1000F0004233000F000E000D000B002D00380037BA
:10010000003600100011004F0052005100500090C6
:10011000442C410000000000004D000000000000E1
:10012000004A0000004C004E0000000000000000EB
:1001300000000000004B0000000000010000000073
:100140000000002A00000000000000000000000085
:100150000000004F0052005100500000000000005D
:10016000000030000000000000000000000000005F
:10017000000100000000000000F00000000000008E
:10018000000000F200F100F3000000000000000099
:10019000000000000000000000000000000000005F
:1001A0000000000000AE00000000000000000001A0
:1001B000000000AB00A900AA00AC0000000000A8ED
:1001C00000A906AA060000000000000000000000D0
:1001D00000000000001E021F022002210222020075
:1001E00000350231022E0031003500000000000011
:1001F00000000000000000005C00000000000001A2
:1002000000000001002502270226022402230230FA
:1002100002330230002F002F0234002D0238023743
:100220000236022E0234020000000000000000002E
:100230000001002B001E001F0020002100220000F2
:10024000001E001F0020002100220001000000000D
:1002500000000000000000005C010001000100013E
:1002600000010001002700260025002400230001D2
:1002700000270026002500240023000100010001C2
:100280000001003302000000000000000000000137
:10029000000100000000000000000000000000005D
:1002A000000000000000000000000000000000004E
:1002B000000000000000000000000000000000003E
:1002C000000000000000000000000000000000002E
:1002D000000000000000000000000000000000001E
:1006B000000000005C0100010001000100010001D8
:1006C000003A003B003C003D003E000100010001FB
:1006D0000001000100010010000100010001000103
:1006E00000010001000100010001000100010044BF
:1006F0000043004200410040003F0045000100016E
:1007000000010001000100010001000100010001E1
:1007100000010000000000000000002A2B2800005B
:1007200000000000000000000000000000002900A0
:100730000000002C1E3420212224342627252E36AA
:100740002D3738271E1F2021222324252633333618
:100750002E37381F0405060708090A0B0C0D0E0F6B
:10076000101112131415161718191A1B1C1D2F31EE
:1007700030232D350405060708090A0B0C0D0E0F52
:10078000101112131415161718191A1B1C1D2F31CE
:1007900030354C00000000000000000000000000A8
:1007A0000000000000000000000000000000000049
:1007B000000000000101010101010001010101002F
:1007C0000000000000000000000000000001000127
:1007D000000101010101010101010101010101010A
:1007E00001010101010101010101010101010000FB
:1007F00000010100000000000000000000000000F7
:1008000000000000000000000000000000000101E6
:100810000101000403300000001C034C006500745B
:100820000073002000530070006C00690074002009
:1008300000760032000000160357006F006F00744E
:10084000007000610074006F006F0074000000040D
:1008500003090409025400030100A0FA090400007E
:1008600001030101000921110100012240000705D7
:10087000810308000A0904010001030102000921A3
:1008800011010001224D000705820308000A090436
:1008900002000103000000092111010001223600BD
:1008A0000705830308000A1201100100000008ED8B
:1008B000FE603001000102030105010980A10185EC
:1008C000021601002603001A81002A830075109584
:1008D000018100C0050C0901A10185031601002654
:1008E0009C021A01002A9C02751095018100C00526
:1008F000010902A1010901A1000509190129051534
:100900000025019505750181029501750381010599
:1009100001093009311581257F9502750881060985
:10092000381581257F950175088106050C0A380266
:100930001581257F950175088106C0C0050109064E
:10094000A101050719E029E71500250195087501A2
:100950008102950175088101050819012905950590
:10096000750191029501750391010507190029FF91
:10097000150026FF00950675088100C011241FBED2
:10098000CFEFDAE0DEBFCDBF04B603FE27C0809113
:10099000F4019091F501A091F601B091F701873033
:1009A000904BA740B04BD1F41092F4011092F50196
:1009B0001092F6011092F70114BE84B7877F84BFAE
:1009C0000FB6F894A89580916000886180936000CC
:1009D000109260000FBEE0E0F8E3099511E0A0E09E
:1009E000B1E0E4E9F8E402C005900D92AC33B10740
:1009F000D9F721E0ACE3B1E001C01D92A43FB207FA
:100A0000E1F70E948C1E0C9448240C940000089579
:100A100008950C9408058091C701836088608093D5
:100A2000C701AAE1B1E061E070E08D91E82FE295A5
:100A3000EF70F0E041A18F709B0101C0220F8A95F9
:100A4000EAF7922F9095942391A382A1822B82A3FF
:100A500081E0AE31B80749F7A4E1B1E061E070E0B0
:100A60008D91E82FE295EF70F0E041A18F709B012E
:100A700001C0220F8A95EAF7922F9095942391A3B3
:100A800082A1822B82A381E0AA31B80749F7559A47
:100A9000209AECE3F1E0A5E4B1E084E491E0119266
:100AA0001D928E179F07D9F70C949C094F925F9265
:100AB0006F927F928F929F92AF92BF92CF92DF926E
:100AC000EF92FF920F931F93CF93DF9380910001DA
:100AD00004E010E0882311F010E000E0C8018B5B17
:100AE0009E4F7C018AE1C82E81E0D82EE701AA241E
:100AF000A394B12C8824839424E0922E78801882C9
:100B0000D6018D916D01E82FE295EF70F0E091A193
:100B10008F70950101C0220F8A95EAF7892F822BE9
:100B200081A382A1622E6094862182A3B0EABA9545
:100B3000F1F744E151E090E080E0DA017D91AD0110
:100B4000A72FA295AF70B0E09096BC91A8817F705E
:100B5000250102C0440C551C7A95E2F7B2016B23C3
:100B600009F052C06A2D082E01C0660F0A94EAF7F8
:100B70006A2B6883019686309105F9F681A186215A
:100B800081A382A1282B22A38881781659F0809214
:100B90004D010E94591890934F0180934E018BB1E3
:100BA00089258BB921968EE1C81681E0D80609F017
:100BB000A5CF80914D018823A9F080914E0190919D
:100BC0004F010E946518069768F0F801E45CFE4F3B
:100BD00080E0D7019D917D0191938F5F8430C9F7AB
:100BE00010924D0181E0DF91CF911F910F91FF9005
:100BF000EF90DF90CF90BF90AF909F908F907F90BD
:100C00006F905F904F90089560E0B2CFCF93DF93E5
:100C100080910001D0E0C0E0882311F0C4E0D0E072
:100C20000E945407009789F4C45CDE4F30E020E056
:100C3000F901EE5AFE4F408149932F5F3F4F243018
:100C40003105B1F7DF91CF91089581E090E0FACFBF
:100C5000CF930E945605C82F0E940606892BD9F013
:100C60005D98809144018F5F80934401863070F0DD
:100C700080910001F0E0E0E0882311F0E4E0F0E092
:100C8000E45CFE4F10821182128213820E949E0940
:100C90008C2FCF9108955D9A10924401F7CF0E9456
:100CA000560580910001E4E0F0E0882311F0F0E0C7
:100CB000E0E0E45CFE4F90E080E02191DC01AE5A80
:100CC000BE4F2C93019684309105B9F70895E82F13
:100CD000F0E0E45CFE4F808108950895E8EDF0E0D7
:100CE0008081806180838AE18A95F1F700C08091DC
:100CF000D900817008950E946E06809300010E94C1
:100D00006E06882321F00E94E206789408950E94DE
:100D100050180E94E606F9CF0E940B050E944F066C
:100D2000FDCF0E947B060E946E06811102C00E94C8
:100D30008C060895509A08955098589A0895589A94
:100D400008950E949C06489BFECF80E88A95F1F7A3
:100D500008950E949C0698E080E029B1880F2170D8
:100D6000822B20E82A95F1F725E02A95F1F700007B
:100D7000915099F708950F931F93CF93082F0E94D6
:100D80009A06C8E010E0C15020F4CF911F910F9156
:100D90000895C8010C2E02C0959587950A94E2F734
:100DA00080FF06C00E949F0680E88A95F1F7EBCF8E
:100DB0005898FACF0E949A06589880E88A95F1F7D9
:100DC0000C949F060E949A060C949F060E949C0613
:100DD000E89AE9E6F0E080818C7F808308951F9295
:100DE0000F920FB60F921124EF92FF921F932F9341
:100DF0003F934F935F936F937F938F939F93AF93A3
:100E0000BF93CF93DF93EF93FF930E94DA06D0E076
:100E1000C0E010E0CE018E5A9E4F7C01FC01808123
:100E20000E94BB060E94DA06F7018081180F219606
:100E3000C430D10579F7812F0E94BB060E94DA06E3
:100E4000F0E8FA95F1F780E48A95F1F70E94A90697
:100E5000809351010E94DA06C09151010E94A906B7
:100E6000D82F0E94DA060E949C0680915001DC1760
:100E7000C9F0816080935001FF91EF91DF91CF9194
:100E8000BF91AF919F918F917F916F915F914F91A2
:100E90003F912F911F91FF90EF900F900FBE0F90F9
:100EA0001F9018958E7FE6CFEF92FF921F93CF93FE
:100EB000DF93F8940E949A06589825E02A95F1F756
:100EC00000000E949C060E949F0630E83A95F1F7C8
:100ED000489B09C0789481E090E0DF91CF911F9109
:100EE000FF90EF9008950E94A106D0E0C0E010E0CE
:100EF0000E94A906FE01EE5AFE4F7F0180830E94E8
:100F0000A106F7018081180F2196C430D10581F721
:100F10000E94A906C82F0E94A106C113DBCF8091B1
:100F200051010E94BB060E94A106809151010E94BE
:100F3000BB060E94A1060E949A060E949F06789412
:100F400090E080E0CACF0C940705611104C08CEAE0
:100F500090E00E94990990E080E0089581E0089572
:100F600081E008950C94B0070E9487112FEF84E36D
:100F70009CE0215080409040E1F700C0000087E7EE
:100F800097E790930108809300080C94B5180F938D
:100F90001F93CF93DF938C01FC01C081D181CE01DF
:100FA0000E946616BE010E94A609EC01B8010E94CB
:100FB000B207882309F452C0B801CE010E94080C80
:100FC000882309F44BC0C531FCE5DF0709F439C1BA
:100FD000B0F4C130ECE5DE0709F446C008F056C0B5
:100FE000C115DC45B1F181E080935B0180935C0128
:100FF000C801DF91CF911F910F910C94AE07CD3CAA
:10100000ECE5DE0709F402C1B8F4CB3C8CE5D80767
:1010100009F4C0C0CC3CDC4531F7F801828188235B
:1010200009F4DFC010925C010E94591890935A0194
:101030008093590180E2BBC0C03DFCE5DF07F1F0C1
:10104000C13DDC4581F6F8018281882339F082E0D8
:101050001AC0F801828181110E94B40780E0DF91FB
:10106000CF911F910F910895F80182818823B1F3E8
:101070008091C70181608093C701F0CFF801828120
:10108000882361F380E00E94251FE8CFF801828168
:10109000882309F4ADCF0E948217811102C00E94FB
:1010A00068170E94951790E09093E6018093E50100
:1010B000FE01E350FC458091E5018160E231F105DC
:1010C000C8F4EB59F74F0C94F82377088308870886
:1010D0008B088F08930897089B089F08A308A70808
:1010E000AB08AF08B308B708BB08BF08C3088091B6
:1010F000E50182608093E5018091E5010E949917E6
:101100000E948711ABCF8091E5018460F3CF80917D
:10111000E5018860EFCF8091E5018061EBCF8091A0
:10112000E5018062E7CF8091E5018064E3CF8091A3
:10113000E5018068DFCF8091E5018460EACF80918E
:10114000E5018E7FD7CF8091E5018D7FD3CF809150
:10115000E5018B7FCFCF8091E501877FCBCF809159
:10116000E5018F7EC7CF8091E5018F7DC3CF809150
:10117000E5018F7BBFCF8091E5018F77BBCF809159
:10118000E5018B7FEACF9091E501892F97FB87F9E5
:101190008058B0CFF8018281882361F010925B0102
:1011A0000E945918909358018093570182E00E9441
:1011B000B20E54CF80915B0181110FC08091570115
:1011C000909158010E946518883C910530F486E2A0
:1011D0000E94880D86E20E94630E82E00E94B90E92
:1011E0003DCF80915C0181110FC080915901909198
:1011F0005A010E946518883C910530F487E20E94EC
:10120000880D87E20E94630E80E2E8CFF8018281B8
:10121000811108CF80915C018111F6CF8091590135
:1012200090915A010E946518883C910568F780E208
:101230000E94B90E88E20E94880D88E20E94630E27
:101240000DCF0E942C17F8019281992381F08A7AA0
:1012500091E009F490E090935601811106C089E273
:101260000E94B5160E94F916F9CE85E3F9CF809158
:101270005601811104C089E20E94BC16F3CF85E3B8
:10128000FBCFCF9390E0FC01ED5EF84FC4918D56FB
:10129000984FFC018491882369F081EE0E94880DAB
:1012A0008C2F0E94880D8C2F0E94630E81EECF91AF
:1012B0000C94630E8C2F0E94880D8C2FF8CFFF9218
:1012C0000F931F93CF93DF938C01F62EF801849137
:1012D000882349F1E8012196813049F4FE011491F7
:1012E000812F0E94880D812F0E94630E06C08230DC
:1012F00089F4FE0184910E94880D8E010F5F1F4FBB
:101300008F2D815018F3EFE9FFE03197F1F700C01E
:101310000000F7CF833019F4FE018491E5CF0E94DD
:101320004109E801EACFDF91CF911F910F91FF9022
:10133000089560E00C945F090C94A3070C940905D0
:1013400008950C94A0090C94A1090895972F70E0BA
:1013500026E0929F600D711D1124FB0190E3899F8F
:10136000E00DF11D1124EE0FFF1FED54FF4F85918D
:1013700094910895FC01EE0FFF1FED5EF74F8591EC
:1013800094910895CF93DF930E94A6090E945A0B6F
:10139000EC018115904408F094C0C11580E3D80792
:1013A00008F005C1C03ED10508F071C0C03CD105B0
:1013B00008F0ECC0C83AD10580F4C53AD10508F070
:1013C000E9C0C130D10509F46EC020F0C430D105A8
:1013D00008F069C0D0E0C0E066C0CD3BD105D0F7D1
:1013E000C83AD10509F427C1C93AD10509F426C183
:1013F000CA3AD10509F425C1CB3AD10509F424C173
:10140000CC3AD10509F423C1CB3BD10509F422C163
:10141000CC3BD10509F421C1CD3AD10509F420C155
:10142000C03BD10509F41FC1CE3AD10509F41EC154
:10143000CF3AD10509F41DC1C13BD10509F41CC146
:10144000C23BD10509F41BC1C33BD10509F41AC144
:10145000C43BD10509F419C1C53BD10509F418C134
:10146000C63BD10509F417C1C73BD10509F416C124
:10147000C83BD10509F415C1C93BD10509F414C114
:10148000CA3BD10509F013C1CAE2D6E40CC0CF3F74
:10149000D10509F060F4C03FD10508F086C0C83E10
:1014A000D10508F097CFCE01DF91CF910895CE01FD
:1014B0009F70C11520E2D207B0F30E94BA09EC0177
:1014C000F2CFC11584E5D807A0F5C11523E5D207F1
:1014D00008F08EC0C11581E5D80708F5C11520E5D3
:1014E000D20708F46EC0CE0154E0969587955A95C0
:1014F000E1F783709C2F937021E030E002C0220F4F
:10150000331F9A95E2F73C68382BC695C695C37091
:1015100080E2C89FE0011124C22BD32BC4CFC11598
:1015200082E5D80708F050C0DC2FCC27C16FD06A05
:10153000BACFC11526E5D20758F49C2F8827C115CC
:10154000D54508F469C0EC01CC27DF71D062ABCF80
:10155000C11588E5D80708F43DCFC11529E5D207A4
:1015600008F45EC0CE0190568115904208F032CF4B
:101570008D2F8F710E94DA0BDD27D06290E0982FBB
:10158000882788279F71C82BD92B8DCFCE01805CEF
:10159000910993CFC53AD10509F447C0C63AD105A0
:1015A00009F446C0C3E8D0E47ECFD0657CCFCE013D
:1015B0009927D3FF03C0EC01D86C75CFEC01D06C38
:1015C00072CFDF70D06A6FCFCE018370992721E090
:1015D00030E002C0220F331F8A95E2F7C695C69508
:1015E00080E2C89FE0011124C22BD32BDC685BCFC3
:1015F000CE018370992721E030E002C0220F331F13
:101600008A95E2F7C695C69580E2C89FE00111244D
:10161000C22BD32BDA6847CFEC01C46FD06A43CF1B
:10162000DC2FCC27C06FD06A3ECFC1E8D0E43BCFDF
:10163000C2E8D0E438CFC2EED4E435CFC9EED4E46A
:1016400032CFCAEED4E42FCFC5EBD4E42CCFC6EB17
:10165000D4E429CFC3EBD4E426CFC4EBD4E423CF26
:10166000C7EBD4E420CFCCECD4E41DCFCDECD4E454
:101670001ACFC3E8D5E417CFCAE8D5E414CFC2E93E
:10168000D5E411CFC4E9D5E40ECFC1E2D6E40BCF47
:10169000C3E2D6E408CFC4E2D6E405CFC5E2D6E47F
:1016A00002CFC6E2D6E4FFCEC7E2D6E4FCCEC0E06D
:1016B000D4E4F9CE8238910549F1B0F48133910533
:1016C00009F45CC048F48932910509F452C08A32A9
:1016D000910509F458C008958533910509F444C073
:1016E0008933910599F00895833E910531F138F4DD
:1016F000803E910591F0823E9105B1F00895863EBD
:10170000910511F1873E910541F108952091E50180
:101710002370C9F080EE90E008952091E50120FF4C
:1017200012C089E390E008952091E50122FF0BC0EB
:1017300024FF2EC090E080E008952091E50122FD75
:101740002AC024FDF7CF08952091E50123FFFBCFA8
:1017500024FDF0CF87EE90E008952091E50123FF6E
:10176000F0CF86EE90E008952091E50125FD16C0AA
:1017700008952091E50125FD14C008952091E5010B
:1017800026FD12C008952091E50126FD10C00895A0
:1017900083EE90E0089582EE90E0089589E290E073
:1017A000089585E390E008958AE290E0089581E34A
:1017B00090E0C9CFCF93C82F0E949517282F30E013
:1017C0003093E6012093E50182FF06C09C2F9871BB
:1017D000983079F4C77FC46083FF06C09C2F98714E
:1017E000983171F4C77EC46184FDC77E8C2FCF9180
:1017F00008959C2F9471943079F7CB7FC860ECCF1B
:101800009C2F9471943181F7CB7EC861EDCF089500
:101810000F931F93CF938C01FB018281811106C02E
:10182000C1E08C2FCF911F910F910895C0916A0153
:10183000C11125C006311C4599F70E94070C81E0B3
:1018400080936A010E9459189093690180936801FE
:1018500010925D0110925F0110925E011092610181
:101860001092600110926301109262011092650162
:10187000109264011092670110926601D2CF80919C
:101880006801909169010E946518883C910540F6B5
:1018900080915D01E82FF0E0EE0FFF1FE25AFE4F4E
:1018A000118300838F5F80935D01C0E0BACF909376
:1018B000700180936F010895E0916F01F0917001C4
:1018C000309721F00190F081E02D099480E0089597
:1018D000E0916F01F0917001309721F00280F38167
:1018E000E02D09940895E0916F01F0917001309717
:1018F00021F00480F581E02D0994089520916D0177
:1019000030916E012817390771F090936E01809322
:101910006D01E0916F01F0917001309721F0068028
:10192000F781E02D0994089520916B0130916C01AD
:101930002817390771F090936C0180936B01E09147
:101940006F01F0917001309721F00084F185E02D56
:10195000099408950C94910681E008950E9450180E
:101960000E940B050C94C618BF92CF92DF92EF92A3
:10197000FF920F931F93CF93DF93CDB7DEB72A97D4
:101980000FB6F894DEBF0FBECDBF0E9428060E949E
:10199000AC0C882309F471C082E7C82E81E0D82EF0
:1019A00010E000E0B02E802F0E946706E82EF601BE
:1019B000F1906F01F81609F45AC08091C70181FDBA
:1019C0000E946D0690E080E0FE242F2D30E0482F2D
:1019D000B901082E02C0759567950A94E2F760FF79
:1019E00041C08E83BF8281E090E06C0102C0CC0CCC
:1019F000DD1C4A95E2F72E2D30E02C213D21232BD2
:101A000009F480E088870E9459188160782F9A87AE
:101A100089874E815F8168858A850E945E0DF80105
:101A2000EE58FE4F80818C2580830E94591A0E94B7
:101A30005C0C90917101891789F10E945C0C809374
:101A400071012A960FB6F894DEBF0FBECDBFDF91AD
:101A5000CF911F910F91FF90EF90DF90CF90BF90AB
:101A60000C94A30901968630910509F0B0CF0F5F61
:101A70001F4F0830110509F095CF8FEF89838A83B6
:101A80001B820E9459188160782F9D838C83498125
:101A90005A816B818D810E945E0DC7CF2A960FB649
:101AA000F894DEBF0FBECDBFDF91CF911F910F9194
:101AB000FF90EF90DF90CF90BF900895CF93DF938A
:101AC000CDB7DEB72B970FB6F894DEBF0FBECDBFF4
:101AD0004F83588769877A878B871E821D8285E0AE
:101AE000FE013796DE01119601900D928A95E1F77D
:101AF00049815A816B817C818D819E812B960FB6A5
:101B0000F894DEBF0FBECDBFDF91CF910C94391496
:101B1000CF93C82F882309F4D4C08238C1F40E941F
:101B20005C0C81FDCEC089E30E94B5160E94F916B7
:101B30002FEF81EE94E0215080409040E1F700C00B
:101B4000000089E30E94BC16CF910C94F9168338EB
:101B5000A1F40E945C0C80FDB4C083E50E94B51620
:101B60000E94F9162FEF81EE94E0215080409040C2
:101B7000E1F700C0000083E5E5CF8438A1F40E94BE
:101B80005C0C82FD9EC087E40E94B5160E94F91687
:101B90002FEF81EE94E0215080409040E1F700C0AB
:101BA000000087E4CFCF8CEF8C0F813A48F48C2F64
:101BB0000E945E1C811185C08C2F0E94B516C4CF77
:101BC00080E28C0F883048F4C77081E001C0880F34
:101BD000CA95EAF70E942F17B7CF8BE58C0F833099
:101BE00068F481E890E0C53A31F083E890E0C63AC5
:101BF00011F482E890E0CF910C947E0C88E58C0F74
:101C0000853108F05EC082EE90E0C83A09F456C013
:101C100089EE90E0C93A09F451C08AEE90E0CA3AE0
:101C200009F44CC085EB90E0CB3A09F447C086EB51
:101C300090E0CC3A09F442C083EB90E0CB3BF1F169
:101C400084EB90E0CC3BD1F187EB90E0CD3AB1F161
:101C50008CEC90E0C03B91F18DEC90E0CE3A71F1CC
:101C600083E891E0CF3A51F18AE891E0C13B31F14C
:101C700082E991E0C23B11F184E991E0C33BF1F0CC
:101C800081E292E0C43BD1F083E292E0C53BB1F047
:101C900084E292E0C63B91F085E292E0C73B71F0AE
:101CA00086E292E0C83B51F087E292E0C93B31F016
:101CB00090E080E0CA3B11F48AE292E0CF910C946C
:101CC000940CCF910895882309F44BC0823871F4A5
:101CD0000E945C0C81FF45C089E30E94B5160E94FA
:101CE000F91689E30E94BC160C94F916833859F44E
:101CF0000E945C0C80FF35C083E50E94B5160E94EF
:101D0000F91683E5EFCF843859F40E945C0C82FF0A
:101D100028C087E40E94B5160E94F91687E4E2CF36
:101D20009CEF980F913AF0F290E2980F983050F4AF
:101D3000877091E001C0990F8A95EAF7892F0E9478
:101D40003517D2CF9BE5980F933020F490E080E0D8
:101D50000C947E0C885A853120F490E080E00C943D
:101D6000940C0895882321F00E942F170C94F916E3
:101D70000895882321F00E9435170C94F9160895D0
:101D80008F929F92AF92BF92DF92EF92FF920F934A
:101D90001F93CF93DF937C01D62FC72FFC010581C2
:101DA00002950F70128111110E944E170E94F216B7
:101DB000D82E882371F0112331F180E28D0F883005
:101DC00010F182E00E94DC160E94F21691E0D82EFB
:101DD000D926BC2EB2949FE0B922EB2DF0E0ED5055
:101DE000F14F0C94F823050F050F550F550F970F62
:101DF000BF0F9E0F9E0F01109E0F9C109C1026116E
:101E00009E0F9E0F2F11D12CE4CF0C2F0F70C07F8F
:101E100011F00295007F1123A9F0002359F080E210
:101E20008D0F883010F0D11109C0802F0E942F171C
:101E30000E94F9168D2F0E94880D14C0802F0E94D9
:101E40004017F6CF8D2F0E94630E002359F080E2D9
:101E50008D0F883010F0D11124C0802F0E943517CB
:101E60000E94F916DD2009F401C20E94CF1680FD00
:101E7000FDC1F70112820E94C9160E94CA15C7014E
:101E80000E9442110E94C916DF91CF911F910F91BC
:101E9000FF90EF90DF90BF90AF909F908F900C9449
:101EA000EB15802F0E944617DBCFFC2FFF70BF2E53
:101EB000C07FC03219F0B29480EFB822DD2369F000
:101EC000D13029F1112369F1002359F0F7018581FF
:101ED00080FFB0CF8F70858304C0112361F00111A2
:101EE00004C08B2D0E94B20EBDCF8B2D0130D1F7D7
:101EF0000E946217B7CF011106C00E9465178B2D93
:101F00000E94B90EAFCF013009F4ACCFF6CF112348
:101F100021F0063008F0A6CFE4CF053008F0A2CFBC
:101F2000EECF002361F38D2F0E94630E9BCF8C2F89
:101F300086958695837079F08130B9F098E0B9166E
:101F400009F49BC0B91608F48DCF86EF8B0D823053
:101F500008F493C087CF8D2F9C2F9370111102C06E
:101F600090E080E00E947E0C7DCF8D2F9C2F93709F
:101F7000111102C090E080E00E94940C73CF1123F5
:101F800009F1D53F99F0D63FB9F0D43F49F480919B
:101F9000DF019091E00181609093E0018093DF0187
:101FA0008D2F0E9462190E944E1A5CCF8091DF0132
:101FB0009091E0018260F0CF8091DF019091E0018B
:101FC0008460EACFD53F89F0D63FA9F0D43F49F4E9
:101FD0008091DF019091E0018E7F9093E0018093EA
:101FE000DF018D2F0E94CA19DECF8091DF01909111
:101FF000E0018D7FF2CF8091DF019091E0018B7F36
:10200000ECCF8C2F837009F04BC0111136C02D2FEF
:10201000229526952770220F220F6D2F6F70862E26
:10202000912CB12CA12C022E04C0880C991CAA1C46
:10203000BB1C0A94D2F760E070E0CB01D4FF0FC064
:102040006FE070E080E090E004C0660F771F881FAB
:10205000991F2A95D2F76095709580959095C695B1
:10206000C695C370C23071F0A0F4682979298A2915
:102070009B29C13091F00E947C150E945C0C0E944B
:10208000A309F0CE682979298A299B290E948E15F7
:10209000F4CF0E947C15C501B4010E946A15EDCFF2
:1020A0008695112311F08C2F8170882331F32D2F09
:1020B000229526952770220F220F6D2F6F70862E86
:1020C000912CB12CA12C022E04C0880C991CAA1CA6
:1020D000BB1C0A94D2F760E070E0CB01D4FF0FC0C4
:1020E0006FE070E080E090E004C0660F771F881F0B
:1020F000991F2A95D2F76095709580959095C69511
:10210000C695C370C23051F080F4682979298A29B4
:102110009B29C13071F00E944116AFCF68297929FF
:102120008A299B290E945316A8CF0E944116C501F7
:10213000B4010E942F16A1CFE0E2ED0FE53108F0C7
:1021400066C0F0E0EA55FF4E0C94F823BB10BB10BC
:10215000BB10BB10BB10BB10BB10BB10BB10BB1027
:10216000BB10BB10BB10BB10BB10BB10CC10DA10E7
:10217000E110E810F210DF708C2F8F71112331F015
:102180000E94CA158D2F0E94B20ED8CE0E94EB1568
:102190008D2F0E94B90ED2CE112341F0053008F0E8
:1021A000CDCE8C2F8F710E940E16C8CE063008F04F
:1021B000C5CEF7CF8C2F8F71112339F00E94CA152D
:1021C000BDCE8C2F8F711123C9F30E94EB15B6CEB3
:1021D000112329F08C2F8F710E94B515AFCE0E946C
:1021E000B015ACCE112349F0CF718C2F0E94CA15C7
:1021F00063E08C2F0E94D316A1CE81E00E94DC16F2
:10220000023008F49BCE82E00E94DC1697CE1123A8
:1022100049F0002321F08D2F0E94880D8FCE8C2F46
:102220008F71CCCF002379F0D93349F4FFEF27EE3B
:1022300083E0F15020408040E1F700C000008D2F86
:102240000E94630E7BCE8C2F8F71BFCF4C2F4F70AF
:102250006D2FC7010E94A5070E94E21403CE4C2FE8
:102260004F706D2FC7010E94A509FCCDDF91CF9162
:102270001F910F91FF90EF90DF90BF90AF909F90D4
:102280008F9008950F931F93CF93DF93EC01988164
:1022900089812B813C81232B39F08F3F19F481E018
:1022A0009F3F19F080E001C081E080FD17C0CE01A2
:1022B0000E94C707882391F0688179818A810E94F2
:1022C000B2168C010E9465160E946715B801CE01F6
:1022D000DF91CF911F910F910C94C00EDF91CF91A0
:1022E0001F910F9108950E944E170E945F170E9440
:1022F000C3160E94F9160E94E41A0E944E1A90E03A
:1023000080E00E947E0C90E080E00C94940C0E948F
:102310003D170C9473110E94A816E92FE295EF70F7
:10232000E250EE30E0F4F0E0E856FE4E0C94F82374
:10233000A611A611AF11AF11B111AF11AF11AF11AD
:10234000A611A611B611AF11AF11B611803F19F049
:1023500020F4803E20F481E00895843FE1F380E0A2
:102360000895803EC0F3813FD1F7F5CF93FB8827D6
:1023700080F90895CF93DF9300D000D01F92CDB79E
:10238000DEB70F900F900F900F900F90DF91CF91CD
:102390000895CF93DF9300D000D000D0CDB7DEB743
:1023A00026960FB6F894DEBF0FBECDBFDF91CF915A
:1023B00008951F93CF93DF93C0917A0116E0809127
:1023C0007B018C1304C0DF91CF911F910895D0E061
:1023D0001C9FF0011D9FF00D1124E458FE4F408119
:1023E000518162817381848195810E94C9112196F6
:1023F000C770E5CF4091AC015091AD016091AE0145
:102400007091AF018091B0019091B1010C94C9110C
:102410001F93CF93DF938091B101807FD1F480919E
:10242000AE018823B1F080917A01D0917B01B09107
:10243000AC01C091AD014091AF015091B001A1E05C
:10244000BF3F09F0A0E0BA016095709516E0D8137F
:1024500004C0DF91CF911F91089521E041155105EE
:1024600021F02A2FCF3F09F020E090E020FD38C076
:10247000189FF001199FF00D1124E458FE4F21819F
:102480002C132EC020812B132BC02281211128C098
:10249000238134812417350700F1241B350B283C98
:1024A0003105F0F42091B1012F7020612093B1012A
:1024B00026E0289FF001299FF00D1124EF57FE4FD1
:1024C00080818F70806180838CEA91E00E9442114C
:1024D000DF91CF911F910C94D911260F371FDFCFB9
:1024E00001968770B4CFAF92BF92CF92DF92EF92F6
:1024F000FF920F931F93CF93DF93CDB7DEB7619712
:102500000FB6F894DEBF0FBECDBF8C0185E0F80199
:10251000DE011D9601900D928A95E1F7D8014C914C
:1025200011965C9111971296EC903091AC016091EC
:10253000AD018091AF019091B00121E0009731F0A1
:102540006F3F19F421E03F3F09F020E0B22FB17056
:10255000BB2E20FD80C1F801C380D480A090AE01C5
:10256000AA2009F427C1C816D906D0F1D601A81BA4
:10257000B90BCD01FF24F394883C910508F0F12CB0
:102580008091B101982F907FFF2009F4CAC091116A
:1025900087C0FE2C651329C0341327C0E11025C065
:1025A0008F7080618093B1010E94FA118CEA91E0F2
:1025B0000E9442118091B101F80185838F2D6196AF
:1025C0000FB6F894DEBF0FBECDBFDF91CF911F9144
:1025D0000F91FF90EF90DF90CF90BF90AF90089554
:1025E000809590958C0D9D1DC5CF81E0CD2831F053
:1025F0005F3F19F481E04F3F09F080E080FD24C087
:1026000081E08E25F82FF170DF2E80FF3FC0809192
:102610007A0120917B0136E0821318C04D875E87D6
:102620008D859E850E94A816292F22952F70223015
:1026300008F1243030F59F7009F1D80115969C916E
:10264000907FE1F4FB2CBACF80E0DCCF90E0389FA4
:10265000F001399FF00D1124E458FE4F61815613AB
:1026600006C06081461303C062816E110FC00196DF
:102670008770D2CF9F7011F0882321F3805E88305D
:1026800008F3C8010E944211BD2CDCCFEE2009F4F2
:1026900095CF8091B10181608093B101F12C8ECFF3
:1026A000651312C0341310C0E1100EC0F801858309
:1026B000C8010E94421186E0F801ACEAB1E0019045
:1026C0000D928A95E1F741C04D875E878D859E8585
:1026D0000E948B11882309F4C8C0EE2009F4C5C0FC
:1026E0008091B101803270F02091AC013091AD0148
:1026F00038872F831986DB86CA868C87CE0107969A
:102700000E94421186E0F801ACEAB1E001900D921E
:102710008A95E1F70E9408120E94FA11FF24F394AF
:102720004DCF911115C07C2DD98AC88A6E2D89890B
:102730000E94BA118CEA91E00E94421186E0ECEA14
:10274000F1E0DF011D928A95E9F70E94FA1136CF78
:10275000651312C0341310C0E1100EC0F801858358
:10276000C8010E944211ECEAF1E086E0DF011D920F
:102770008A95E9F7FA2C22CF4D875E878D859E8555
:102780000E948B11882309F470C0EE2009F46DC0FB
:102790008091B101803208F4B5CF2091AC01309125
:1027A000AD013A8329831B82DD82CC828E83CE01E8
:1027B0000196A6CFC816D90638F1F601E81BF90B29
:1027C000CF01F12C883C910508F03DC0FE2CEE2095
:1027D00009F44BC0651326C0341324C08091B101A5
:1027E00080FD17C0982F907FA1F0D80115968C938B
:1027F0001597903F09F45CCF982F907F905F8F7072
:10280000892B15968C9354CF809590958C0D9D1D9A
:10281000D8CF86E0F801ACEAB1E001900D928A953C
:10282000E1F7CCCE4D875E878D859E850E948B110A
:10283000811168CF8091B10181608093B101C8019D
:102840000E944211BBCE7C2DD98AC88A6E2D8989FF
:102850000E94BA1173CFEE2041F04D875E878D85BF
:102860009E850E948B1181114DCFC8010E9442119B
:1028700055CF1F93CF93DF93CDB7DEB72C970FB60D
:10288000F894DEBF0FBECDBF4F83588769877A8724
:102890008B879C87CE0107960E947312882309F4C8
:1028A00042C09F8188852A853B85232B39F08F3F45
:1028B00019F481E09F3F19F080E001C081E080FDC4
:1028C00008C04F81588569857A858B859C850E94D3
:1028D000C91116E080917A0190917B01891709F462
:1028E00067C0819FC001112484589E4F0E947312BB
:1028F000882309F45DC0E0917A011E9FF001112444
:10290000E458FE4F408151816281738184819581B9
:102910000E94C91180917A0190E0019687709927F1
:1029200080937A01D7CF86E0FE013796DE011196BB
:1029300001900D928A95E1F79F8188852A853B85D4
:10294000232B39F08F3F19F481E09F3F19F080E08D
:1029500001C081E080FDBDCF20917B0130E0C90145
:1029600001968770992740917A014817190699F0C6
:1029700096E0929FD001939FB00D1124A458BE4FB2
:10298000FE01319601900D929A95E1F780937B01BB
:102990000E94D9119ECF0E94871110927B01109244
:1029A0007A0186E0ECEAF1E0DF011D928A95E9F711
:1029B0002C960FB6F894DEBF0FBECDBFDF91CF913E
:1029C0001F910895EF92FF920F931F93CF93DF9380
:1029D0008C01892B81F0F12CEE24E394E8012196FF
:1029E000F8018491843770F4843008F05FC081303E
:1029F000B1F08230A1F1DF91CF911F910F91FF9043
:102A0000EF900895853709F44CC008F43DC09CE769
:102A1000980F903780F78F770E94630E49C00E5F42
:102A20001F4FFE01849190E2980F983060F48770F8
:102A3000FE2D01C0FF0F8A95EAF78F2F0E945117D4
:102A40000E94F91602C00E94880D8F2D815030F22D
:102A5000EFE9FFE03197F1F700C00000F7CF0E5F1C
:102A60001F4FFE01849190E2980F983050F48770C8
:102A7000FE2D01C0FF0F8A95EAF78F2F0E9457178E
:102A8000DFCF0E94630EE1CF0E5F1F4FFE01C491A6
:102A9000C150D8F28FE99FE00197F1F700C0000024
:102AA000F7CF0E5F1F4FFE01F490CFCF0E94880D2D
:102AB0008E01CBCF08950E945A156093B601709392
:102AC000B7018093B8019093B9010C9473110895E4
:102AD0000C945B150F931F930091B6011091B701F1
:102AE0002091B8013091B901602B712B822B932B6F
:102AF0001F910F910C945B150F931F930091B601DA
:102B00001091B7012091B8013091B9016023712370
:102B1000822393231F910F910C945B150F931F93A6
:102B20000091B6011091B7012091B8013091B9011F
:102B300060277127822793271F910F910C945B15B3
:102B40000C945A150C94A0150E94A2156093B20122
:102B50007093B3018093B4019093B5010C947311F9
:102B600060E070E0CB010C94A4150F931F9341E03B
:102B700050E060E070E08A019B0104C0000F111F6B
:102B8000221F331F8A95D2F7C901B8011F910F91F7
:102B90000C94A4150F931F9341E050E060E070E0A7
:102BA00004C0440F551F661F771F8A95D2F7809186
:102BB000B2019091B301A091B401B091B5018A0125
:102BC0009B01082B192B2A2B3B2BC901B8011F9104
:102BD0000F910C94A4150F931F9341E050E060E017
:102BE00070E004C0440F551F661F771F8A95D2F707
:102BF000CB01BA0160957095809590950091B201D6
:102C00001091B3012091B4013091B501602371237B
:102C1000822393231F910F910C94A4150F931F935C
:102C200041E050E060E070E004C0440F551F661FB3
:102C3000771F8A95D2F78091B2019091B301A0914C
:102C4000B401B091B5018A019B01082719272A27F1
:102C50003B27C901B8011F910F910C94A4150F9344
:102C60001F930091B2011091B3012091B4013091F2
:102C7000B501602B712B822B932B1F910F910C941C
:102C8000A4150F931F930091B2011091B3012091ED
:102C9000B4013091B50160237123822393231F91E6
:102CA0000F910C94A4150F931F930091B2011091F2
:102CB000B3012091B4013091B501602771278227BB
:102CC00093271F910F910C94A4150895BF92CF9252
:102CD000DF92EF92FF920F931F93CF93DF938C01BC
:102CE000C090B201D090B301E090B401F090B50172
:102CF0008091B6019091B701A091B801B091B9014E
:102D0000C82AD92AEA2AFB2ACFE1D0E0BC2ED70173
:102D1000C6010C2E04C0B695A795979587950A9481
:102D2000D2F780FD0EC0219788F7B12C8B2DDF9153
:102D3000CF911F910F91FF90EF90DF90CF90BF90B8
:102D40000895B8018C2F0E94C209019761F3EECF5C
:102D5000CF93DF93EC010E946616BE01DF91CF9105
:102D60000C94C209CB010C94A816682F8091010124
:102D7000909102010C94D217682F809101019091DB
:102D800002010C94D41780910101909102010C94DE
:102D9000D6178091BA01859585958595089580917E
:102DA000BA018770089598E0899F90011124622BE1
:102DB0006093BA010C94CA159091BA018095892349
:102DC0008093BA01282F277061F4282F082E000C59
:102DD000330B9217130629F08595859585950C94EC
:102DE000EB1508959091BA01977081E009F480E0A5
:102DF0000895E0910101F09102018091C601808364
:102E0000E0910101F091020180819091C501892B2F
:102E10008083E0910101F091020180819091C401D1
:102E2000892B80839091BB01992381F0E09101016E
:102E3000F09102018081892B808380910101909122
:102E400002010E949E1781111092BB018091010125
:102E5000909102010C94680C8091C60108959091A4
:102E6000C601892B8093C6010895982F9095809173
:102E7000C60189238093C60108951092C601089562
:102E80009091C501892B8093C5010895982F909545
:102E90008091C50189238093C50108951092C501D1
:102EA00008959091C401892B8093C4010895982FAF
:102EB00090958091C40189238093C4010895109254
:102EC000C40108958093BB0108951092BB01089539
:102ED0006DEE7EEF90E080E00E94322460E082E0C0
:102EE00090E00E94202460E083E090E00E94202493
:102EF00060E084E090E00E94202460E085E090E0C3
:102F00000C94202490E080E00E941A2421E08D3E61
:102F10009E4F09F020E0822F089582E090E00C940B
:102F2000122483E090E00C94122484E090E00C944E
:102F30001224682F84E090E00C942024FC01319648
:102F40009C01285F3F4F80E0919191118F5FE217C4
:102F5000F307D1F708959C01FC0132969FEF80E0C2
:102F60004191461751F09F3F19F4411101C0982F2C
:102F70008F5F8630A9F79F3F09F40895290F311D0F
:102F800097FD3A95F90162830895FC0132960896FF
:102F90002191261303C0DF0111971C92E817F9074E
:102FA000B9F708950C94AB170C94C517FC01118266
:102FB00012821382148215821682178208958091DC
:102FC000EB01843039F11092C80188E190E020E4EF
:102FD0000FB6F894A895809360000FBE2093600010
:102FE00080E00E94A30983B7817F846083BF83B799
:102FF000816083BF7894889583B78E7F83BF0FB637
:10300000F894A89580916000886180936000109288
:1030100060000FBE089508950895CF930E940B1885
:103020000E9428060E940C18C0E08C2F0E946706A0
:10303000811105C0CF5FC830C1F7CF91089581E0FD
:10304000FCCF0E9487110E945C0C0C94A3091F9274
:103050000F920FB60F9211248F939F93AF93BF934C
:103060008091C801811113C08091E1019091E2012A
:10307000A091E301B091E4014196A11DB11D80939F
:10308000E1019093E201A093E301B093E401BF91C9
:10309000AF919F918F910F900FBE0F901F90189539
:1030A00082E084BD93E095BD9AEF97BD80936E005A
:1030B00008952FB7F8948091E1019091E201A091D9
:1030C000E301B091E4012FBF0895CF92DF92EF9218
:1030D000FF920F931F932FB7F8944091E101509105
:1030E000E2016091E3017091E4012FBF6A017B016D
:1030F000EE24FF248C0130E020E0C016D106E20669
:10310000F30650F0481B590BCA011F910F91FF9015
:10311000EF90DF90CF90089541505109F3CF78940C
:103120001F920F920FB60F9211248F939F93AF931C
:10313000BF938091E1019091E201A091E301B091F0
:10314000E4010196A11DB11D8093E1019093E2017C
:10315000A093E301B093E401BF91AF919F918F9150
:103160000F900FBE0F901F90189587E797E79093E9
:1031700001088093000888E19AE00FB6F894A895BA
:10318000809360000FBE90936000FFCF0E94821773
:10319000811102C00E9468170E948D178093C70199
:1031A0000E94951790E09093E6018093E5010E94BC
:1031B0009117682F70E090E080E00C946815809182
:1031C000CB0180FF12C06091060185E0689FB001CD
:1031D0001124759567957595679560387105A8F503
:1031E00061157105A1F1862F089581FF09C06091D5
:1031F000060185E0689FB001112475956795EDCFB4
:1032000082FF07C06091060185E0689FB00111242C
:10321000E4CF2091CC012223A9F090910501609187
:10322000060185E0689FB00111242917B0F6269F9A
:10323000A001279F500D1124692F70E0CA010E9440
:10324000E423CBCF65E070E0CECF8FE7089581E037
:1032500008958091CB0180FF0CC06091040170E063
:1032600075956795759567956115710549F1862F77
:10327000089581FF06C06091040170E0759567951F
:10328000F3CF6091040182FD0BC09091CC01992392
:10329000A1F06091030180910401961738F0682F26
:1032A00070E06038710500F38FE70895899FC001D1
:1032B000112470E00E94E423F4CF61E070E0D7CFE6
:1032C00081E00895803F31F40E94DF18819580935A
:1032D000CF010895813F19F40E94DF18F8CF823F93
:1032E00031F40E94DF1881958093CE010895833FC9
:1032F00019F40E94DF18F8CF893F29F40E94291998
:103300008093D00108958A3F21F40E942919819564
:10331000F7CF8B3F31F40E94291981958093D10119
:1033200008958C3F19F40E942919F8CF843F31F495
:103330008091CD0181608093CD010895853F21F476
:103340008091CD018260F7CF863F21F48091CD013D
:103350008460F1CF873F21F48091CD018860EBCF6D
:10336000883F21F48091CD018061E5CF8D3F31F41C
:103370008091CB0181608093CB0108958E3F21F431
:103380008091CB018260F7CF8F3FB9F78091CB015D
:103390008460F1CF803FC1F48091CF0187FD10920E
:1033A000CF018091CE0181110EC08091CF0181119A
:1033B0000AC08091D001811106C08091D101811194
:1033C00002C01092CC010895813F29F48091CF0171
:1033D00018162CF3E6CF9091CE01823F29F497FF87
:1033E000E0CF1092CE01DDCF833F19F41916CCF354
:1033F000D8CF893F39F48091D001181694F61092F5
:10340000D001CFCF8A3F29F48091D00187FFC9CF67
:10341000F6CF8B3F39F48091D10187FFC2CF109254
:10342000D101BFCF8C3F29F48091D1011816BCF394
:10343000B8CF843F31F48091CD018E7F8093CD0150
:10344000B0CF853F21F48091CD018D7FF7CF863FAE
:1034500021F48091CD018B7FF1CF873F21F48091C2
:10346000CD01877FEBCF883F21F48091CD018F7E06
:10347000E5CF8D3F31F48091CB018E7F8093CB01DE
:1034800090CF8E3F21F48091CB018D7FF7CF8F3F7E
:1034900009F087CF8091CB018B7FF0CF8DEC91E04D
:1034A0000E94730C0E9459189093CA018093C9011D
:1034B00008951F93CF93DF938091C9019091CA0122
:1034C0000E946518AC019091CC012091070130E079
:1034D000911106C0209108018AE0289F90011124D3
:1034E0004217530780F08091CE011091CF01D09107
:1034F000D001C091D10181110AC0111161C0D11157
:103500005FC0C1115DC0DF91CF911F9108959F3FB2
:1035100019F09F5F9093CC01181624F40E94DF18D5
:103520008093CE018091CE0187FF05C00E94DF18F5
:1035300081958093CE01111624F40E94DF188093A8
:10354000CF018091CF0187FF05C00E94DF188195D0
:103550008093CF014091CE01442379F03091CF0187
:10356000332359F025EB4203A00111245093CE01DF
:103570003203900111243093CF011D1624F40E94D0
:1035800029198093D0018091D00187FF05C00E9446
:10359000291981958093D0011C1624F40E942919C1
:1035A0008093D1018091D10187FF05C00E94291924
:1035B00081958093D101DF91CF911F910C944E1A88
:1035C0009F3F09F0A6CFB7CF85E0EDECF1E0DF013A
:1035D0001D928A95E9F71092CC011092CB010895C3
:1035E000833081F128F4813059F08230D1F0089590
:1035F000853009F449C0B8F1863009F456C0089501
:1036000080910801482F460F5527551F4F3F510500
:1036100024F4680F6093080108958FEF80930801E8
:10362000089580910701482F460F5527551F4F3F9A
:10363000510524F4680F6093070108958FEF80937C
:103640000701089580910601482F460F5527551F01
:103650004F3F510524F4680F6093060108958FEFE2
:1036600080930601089580910501482F460F552744
:10367000551F4F3F510524F4680F609305010895CD
:103680008FEF80930501089580910401482F460F24
:103690005527551F4F3F510524F4680F60930401CF
:1036A00008958FEF80930401089580910301482FBE
:1036B000460F5527551F4F3F510524F4680F60935F
:1036C000030108958FEF809303010895833011F172
:1036D00028F4813049F0823091F00895853081F1ED
:1036E00020F18630C1F1089580910801681720F417
:1036F000861B809308010895109208010895809117
:103700000701681720F4861B809307010895109223
:103710000701089580910601681720F4861B8093A5
:103720000601089510920601089580910501681719
:1037300020F4861B809305010895109205010895D9
:1037400080910401681720F4861B8093040108957A
:1037500010920401089580910301681720F4861BDC
:103760008093030108951092030108950F931F930E
:1037700041E050E060E070E08A019B0104C0000F6E
:10378000111F221F331F8A95D2F7C901B8010E9469
:1037900068151F910F910C9487118732A8F58E310F
:1037A00008F07BC08E3009F46DC058F4873009F4FE
:1037B0005AC08B3009F44BC0863009F44AC080E00F
:1037C0000895863109F443C068F48031C1F79091BF
:1037D000C701892F877F93FF88608093C70183FD8E
:1037E0000FC035C0893199F18B3149F79091C701EC
:1037F000892F8D7F91FF82608093C70181FF27C051
:103800008091C70181603BC0883309F150F489324F
:1038100021F0853311F0873291F680E00E94B61BCB
:1038200016C08334D1F320F48A3348F28953F6CF9B
:10383000883429F60E9487112FEF83ED90E3215001
:1038400080409040E1F700C000000E94B51881E080
:1038500008958091C701817F8E7F8093C70181E0A9
:103860008093D30108959091C701892F8E7F90FF97
:1038700081608093C70180FDEACF897F877F809335
:10388000C701E5CF9091C701892F8B7F92FF84609C
:103890008093C70182FDB4CFDACF8D51BFCF80E0D6
:1038A00008950C944F1C8E518A3030F4E82FF0E0CC
:1038B000EE5DFE4F8081089580E00895CF93C82F7C
:1038C0008091D3018130C9F030F08230D9F110926B
:1038D000D30180E010C0E0910101F09102018081EC
:1038E0008232B9F78C2F0E944F1C81111BC08C2F84
:1038F0000E94CD1B8170CF910895E0910101F0915C
:1039000002018081823271F38C2F0E94511C81113F
:1039100010C0C43181F048F4CB3059F0C03171F09F
:1039200080E0E8CF81E090E0E5CFC93221F0C833F4
:10393000B9F781E0DFCF1092D301F2CF82E080931C
:10394000D301F7CFC93219F188F4C43101F120F461
:10395000C73081F181E0CFCF82EE8C0F8630D0F777
:103960008C2F0E94531C8093D201F4CFCE3401F1EE
:1039700040F46AE0CB3471F78091D2010E94F01AD2
:10398000E9CFC13579F061E0C235B1F3E3CF809181
:10399000D201882319F01092D201DCCF81E080930C
:1039A000D301A9CF61E08091D2010E94661BD2CFE2
:1039B0006AE0F9CF8EE18093080182E380930701EA
:1039C0008AE08093060184E18093050188E080937A
:1039D000040188E280930301BDCF8091DC0108954A
:1039E0000F931F93CF93DF9300D01F92CDB7DEB715
:1039F0008C010E94351F823011F0843019F583E06C
:103A000089831B830A838093E9008FEF9091E800FC
:103A1000815095FD06C095ED9A95F1F70000811152
:103A2000F5CF8091E80085FF0DC050E040E063E0F5
:103A300070E0CE0101960E94521F8091E8008E77BF
:103A40008093E8000F900F900F90DF91CF911F911E
:103A50000F910895CF93DF9300D01F92CDB7DEB7BB
:103A60002091EB01243031F522E02983805891091F
:103A70009B838A8383E08093E9008FEF9091E80035
:103A8000815095FD06C095ED9A95F1F700008111E2
:103A9000F5CF8091E80085FF0DC050E040E063E085
:103AA00070E0CE0101960E94521F8091E8008E774F
:103AB0008093E8000F900F900F90DF91CF910895C1
:103AC000CF93DF93EC010E94351F823011F08430D8
:103AD000F9F482E08093E9008FEF9091E800815043
:103AE00095FD06C095ED9A95F1F700008111F5CF8F
:103AF0008091E80085FF0CC050E040E065E070E098
:103B0000CE010E94521F8091E8008E778093E800DA
:103B1000DF91CF910895CF93DF93EC010E94351F81
:103B2000823011F0843039F581E08093E9008FEF25
:103B30009091E800815095FD06C095ED9A95F1F7BA
:103B400000008111F5CF8091E80085FF14C050E09E
:103B500040E068E070E0CE010E94521F8091E800D2
:103B60008E778093E80088E0FE01A4EDB1E001903B
:103B70000D928A95E1F7DF91CF9108958091EA0146
:103B8000811109C00E94E2200E943F218091E20041
:103B900084608093E20008951092EA0108950895E8
:103BA00008950C94211842E061EC81E00E946020AD
:103BB00042E061EC82E00E94602042E061EC83E040
:103BC0000C9460208091ED01833009F452C030F4F0
:103BD000813059F1823009F48EC008958A3009F499
:103BE0007AC08B3009F460C0893009F041C08091FF
:103BF000EC018132E9F58091F0019091F101892B7E
:103C0000B9F58091E800877F8093E8008091E80013
:103C100082FF2AC08091F1008093DC018091E8004E
:103C20008B778093E8000C9494208091EC01813A8A
:103C3000F9F48091E800877F8093E8008091F0019B
:103C40009091F101892B61F468E084ED91E070E0DE
:103C50000E94A11F8091E8008B778093E80008956F
:103C600060E090E080E0F3CF8091EB018111CECF56
:103C700008958091EC01813AD9F78091F0019091FB
:103C8000F101892BA9F78091E800877F8093E800F4
:103C90008091E80080FFFCCF809113018093F100B8
:103CA0008091E8008E77BDCF8091EC01813201F7E1
:103CB0008091F0019091F101892BD1F68091E8007B
:103CC000877F8093E8000E9494208091EE0180938A
:103CD00013010C9487118091EC01813249F6809197
:103CE000E800877F8093E8000E9494208091EF0194
:103CF0008093DD0108958091EC01813A09F0B8CFFD
:103D00008091E800877F8093E8008091E80080FF41
:103D1000FCCF8091DD01C2CF84B7877F84BF0FB60F
:103D2000F894A8958091600088618093600010925B
:103D300060000FBE80E880936100109261000E94D5
:103D4000AA0C0E94E2200E943F218091E200846040
:103D50008093E20078940E94C8230E94AE0C89E010
:103D600091E00E94570C8091EB01853019F00E9480
:103D7000B40CF9CF0E94DF178091E901882399F3F1
:103D80000E940D18882379F30E943C1FECCF0C94FD
:103D9000C91E292F33272330310579F158F42130FA
:103DA0003105F1F02230310519F190E080E030E08A
:103DB00020E01AC021323105C9F122323105A9F7BC
:103DC0006330710590F7FB01EE0FFF1FE15DFE4FC1
:103DD00020813181645D7E4FFB01808190E004C0D1
:103DE00082E190E027EA38E0FA01318320830895E8
:103DF00084E590E023E538E0F7CF992781309105FD
:103E000079F040F08230910571F0039771F6E3E1AB
:103E1000F8E002C0EFE4F8E0849190E09F01E4CF85
:103E2000E7E3F8E0F9CFE9E1F8E0F6CF63307105B8
:103E300008F0BBCF660F771FFB01EB5CFE4F2081C4
:103E4000318189E090E0D0CF0895CF93C82F0E94B0
:103E5000241FC093DE01CF9108958091EB0184303F
:103E600011F081E0089582E008958091DE018111D2
:103E700002C00C942D1F089580E189BD82E189BDA7
:103E800009B400FEFDCF8091D8008F7D8093D800CB
:103E90008091E00082608093E0008091E00081FDED
:103EA000FCCF0895AF92BF92CF92DF92FF920F9313
:103EB0001F93CF93DF936C01EB018A010E94B32023
:103EC000F82E811123C00115110539F0F801808108
:103ED0009181C81BD90BC80ED91EB12CA12C2097DB
:103EE000A9F08091E80085FD22C08091E8008E77DE
:103EF0008093E80001151105A1F0F80180819181FE
:103F0000A80EB91EB182A08285E0F82E8F2DDF9118
:103F1000CF911F910F91FF90DF90CF90BF90AF9006
:103F200008950E94B3208823D1F2F82EEFCFF60136
:103F300081916F018093F1002197FFEFAF1ABF0AC3
:103F4000CECFFC018091F2019091F3018617970783
:103F5000A0F06115710529F49091E8009E77909387
:103F6000E80090E06115710551F4911108C080914D
:103F7000E80082FF35C080E00895BC01F2CF809157
:103F8000EB018823C9F18530C9F18091E80083FDF8
:103F900031C08091E80082FDEACF8091E80080FF87
:103FA000E1CF2091F3008091F200322F282F61158C
:103FB000710519F02830310558F091E028303105AD
:103FC00009F090E02091E8002E772093E800CACF16
:103FD00081918093F100615071092F5F3F4FE7CFCE
:103FE0008091EB01882341F0853041F08091E80019
:103FF00083FFBDCF81E0089582E0089583E00895B6
:10400000FC018091F2019091F30186179707A0F0CF
:104010006115710529F48091E8008E778093E8009E
:1040200090E06115710551F4911108C08091E8008C
:1040300082FF36C080E00895BC01F2CF8091EB0191
:104040008823D1F18530D1F18091E80083FD32C021
:104050008091E80082FDEACF8091E80080FFE1CF07
:104060002091F3008091F200322F282F6115710505
:1040700019F02830310558F091E02830310509F069
:1040800090E08091E8008E778093E800CACF849119
:104090008093F1003196615071092F5F3F4FE6CF59
:1040A0008091EB01882341F0853041F08091E80058
:1040B00083FFBCCF81E0089582E0089583E00895F6
:1040C000982F973028F08F708093E90081E0089551
:1040D0009093E900242F762F50E0981731F07091DB
:1040E000EC002091ED005091F00021FD02C09F5F97
:1040F000E8CF3091EB003E7F3093EB003091ED0044
:104100003D7F3093ED003091EB0031603093EB0058
:104110007093EC002093ED005093F0002091EE009E
:1041200027FDE5CF80E008958091EC0187FF13C063
:104130008091E80082FF06C08091E8008B77809331
:10414000E80004C08091EB018111F2CF08958091C5
:10415000EB018823D9F38091E80080FFF8CF8091AC
:10416000E8008E77ECCF2091E4003091E50085E601
:104170009091EC0090FF06C09091E80090FF06C07F
:1041800080E008959091E80092FDFACF9091EB01C4
:10419000992391F0953091F09091EB0095FD10C02E
:1041A0004091E4005091E5002417350709F3815050
:1041B0009A01F1F684E0089582E0089583E008957D
:1041C00081E008950E9450210E945821E0EEF0E025
:1041D000808181608083E8EDF0E080818F7780834B
:1041E00019BCA7EDB0E08C918E7F8C9380818F7E7F
:1041F00080831092EA0108950F931F93CF93DF936A
:104200000E9450210E945821C8EDD0E088818F770C
:10421000888388818068888388818F7D888319BCA2
:104220001092EB011092E7011092E9011092E8015F
:1042300000EE10E0F80180818B7F808388818160AF
:10424000888342E060E080E00E946020E1EEF0E0E0
:1042500080818E7F8083E2EEF0E0808181608083C8
:10426000808188608083F80180818E7F808388814F
:1042700080618883DF91CF911F910F910895E8EDC0
:10428000F0E080818F7E8083E7EDF0E080818160C7
:10429000808384E082BF81E08093EA010C94FC205B
:1042A000E8EDF0E080818E7F80831092E200089537
:1042B0001092DA001092E10008951F920F920FB64B
:1042C0000F9211242F933F934F935F936F937F939C
:1042D0008F939F93AF93BF93EF93FF938091E100F0
:1042E00082FF0BC08091E20082FF07C08091E10055
:1042F0008B7F8093E1000E94C7238091DA0080FFCA
:1043000019C08091D80080FF15C08091DA008E7F9F
:104310008093DA008091D90080FF94C080E189BD4C
:1043200082E189BD09B400FEFDCF81E08093EB01FD
:104330000E94BE1D8091E10080FF19C08091E200C3
:1043400080FF15C08091E2008E7F8093E200809113
:10435000E20080618093E2008091D80080628093C7
:10436000D80019BC85E08093EB010E94D01D80919C
:10437000E10084FF29C08091E20084FF25C080E134
:1043800089BD82E189BD09B400FEFDCF8091D800CE
:104390008F7D8093D8008091E1008F7E8093E10033
:1043A0008091E2008F7E8093E2008091E200816044
:1043B0008093E2008091E701882309F449C084E0FA
:1043C0008093EB010E94D11D8091E10083FF29C001
:1043D0008091E20083FF25C08091E100877F809378
:1043E000E10082E08093EB011092E7018091E1000F
:1043F0008E7F8093E1008091E2008E7F8093E200C7
:104400008091E20080618093E20042E060E080E021
:104410000E9460208091F00088608093F0000E94EC
:10442000CF1DFF91EF91BF91AF919F918F917F91A0
:104430006F915F914F913F912F910F900FBE0F9011
:104440001F90189519BC1092EB010E94CC1D72CFE1
:104450008091E30087FD02C081E0B2CF83E0B0CF5E
:104460001F920F920FB60F9211242F933F934F93E9
:104470005F936F937F938F939F93AF93BF93CF93EC
:10448000EF93FF93C091E900CF708091EC00109200
:10449000E9008091F000877F8093F00078940E947B
:1044A0006C221092E9008091F00088608093F00007
:1044B000C093E900FF91EF91CF91BF91AF919F9190
:1044C0008F917F916F915F914F913F912F910F90BD
:1044D0000FBE0F901F9018951F93CF93DF93CDB70A
:1044E000DEB7AA970FB6F894DEBF0FBECDBFECEED5
:1044F000F1E08091F100819321E0E43FF207C9F7F8
:104500000E94E21D8091E80083FF44C08091EC018D
:104510009091ED019A3008F03DC0E92FF0E0ED56A2
:10452000FD4D0C94F8239D22C322CA22C322CA2225
:1045300021234323CA229A23A723803889F0823873
:1045400049F58091F0018F70873020F58093E90064
:104550008091EB0085FB882780F91092E90006C066
:104560008091E8019091E901911182609091E800B9
:10457000977F9093E8008093F1001092F100809172
:10458000E8008E772DC0282F2D7F21F48823D1F0CD
:10459000823059F18091E80083FF0AC08091E800E1
:1045A000877F8093E8008091EB0080628093EB002E
:1045B000AA960FB6F894DEBF0FBECDBFDF91CF91A4
:1045C0001F9108958091EE01813021F7933009F019
:1045D00080E08093E9011092E9008091E800877FF4
:1045E0008093E8000E949420D5CF8091EE01811144
:1045F000F2CF8091F0018F702FEF280F263050F608
:104600008093E9002091EB0020FFE5CF933031F457
:104610008091EB0080628093EB00DDCF9091EB0006
:1046200090619093EB0021E030E001C0220F8A9569
:10463000EAF72093EA001092EA008091EB0088608C
:10464000EACF8111A7CF1091EE011F778091E3008F
:104650008078812B8093E3008091E800877F8093AE
:10466000E8000E9494208091E80080FFFCCF8091B8
:10467000E30080688093E30083E0111101C082E0D1
:104680008093EB0187CF8058823008F083CF8091F0
:10469000EE019091EF018C3D23E09207A1F583E0BC
:1046A0008A838AE289834FB7F894DE01139620E06B
:1046B0003EE051E2E32FF0E050935700E49120FFF9
:1046C00003C0E295EF703F5FEF708E2F90E0EA300D
:1046D000C0F0C7968D939D932F5F243159F74FBF3C
:1046E0008091E800877F8093E8006AE270E0CE0165
:1046F00001960E94A11F8091E8008B778093E800CB
:1047000049CFC096E7CF6091F0017091F101AE0101
:104710004F5F5F4F0E94C71EBC01892B09F43ACF3F
:104720009091E800977F9093E80089819A810E9498
:104730000020E1CF803809F02DCF8091E800877FFD
:104740008093E8008091E7018093F10018CF8111F8
:1047500021CF9091EE01923008F01CCF8091E800BB
:10476000877F8093E8009093E7010E9494208091D6
:10477000E701882331F084E08093EB010E94D31D90
:1047800009CF8091E30087FDF6CF81E0F5CF089552
:10479000CF938091EB01882399F0C091E900CF700D
:1047A0008091EC0080FD0EC080E0C82B1092E900E3
:1047B0008091E80083FD0E946C22CF70C093E900D5
:1047C000CF91089580E8F1CF97FB072E16F400945F
:1047D00007D077FD09D00E94FE2307FC05D03EF4E8
:1047E000909581959F4F0895709561957F4F08959D
:1047F000EE0FFF1F0590F491E02D0994AA1BBB1B3F
:1048000051E107C0AA1FBB1FA617B70710F0A61BD0
:10481000B70B881F991F5A95A9F780959095BC01F1
:10482000CD010895F999FECF92BD81BDF89A9927DF
:1048300080B50895A8E1B0E042E050E00C943A243D
:10484000262FF999FECF92BD81BDF89A019700B449
:10485000021639F01FBA20BD0FB6F894FA9AF99AE9
:104860000FBE08950196272F0E9421240C94202426
:10487000DC01CB01FC01F999FECF06C0F2BDE1BD20
:10488000F89A319600B40D9241505040B8F708950F
:04489000F894FFCFCA
:1048940001BC012808140A321EED1C8B1D601D2A60
:1048A4001DF01C01F6F73133323697C6343500005B
:1048B400000001020304050607080900404D363CC8
:0C48C40009EF08B90865087E0897080095
:00000001FF
