:100000000C94BA040C9401050C9401050C940105A0
:100010000C9401050C9401050C9401050C94010548
:100020000C9401050C9401050C94CA2B0C949D2C86
:100030000C944D220C9401050C9401050C940105BF
:100040000C9401050C9401050C9401050C94010518
:100050000C9401050C94B5220C9401050C94010537
:100060000C9401050C9401050C9401050C940105F8
:100070000C9401050C9401050C9401050C940105E8
:100080000C9401050C9401050C9401050C940105D8
:100090000C9401050C9401050C9401050C940105C8
:1000A0000C9401050C9401050C94010502E07A03FF
:1000B000E05B000000F0A100002B002961E10005D9
:1000C0005100000000140004001D00E200110000B7
:1000D000001A0016001B0001513100000008000743
:1000E000000600E3002C0000001500090019009133
:1000F000434A00000017000A0005000000500000FD
:100100000000000000000000004F00008000000020
:100110000000000000500000001C000B0011000057
:10012000004F00000018000D001000904452000025
:10013000000C000E00360050002C41000012000F91
:1001400000370051002E0000001300330038005229
:1001500000510000002A0028422D624F00000001DB
:1001600000010001000100010000003A0001004A06
:10017000000100010001003B00010001000100013D
:100180000001003C004D004C000100010001003D59
:100190000001004E000100010001003E00010001CD
:1001A000004B000000010001000100000001000000
:1001B0000001000100010000004B00000001003FB1
:1001C000000100500001000000010040000100514A
:1001D0000001000100010041000100520000300157
:1001E000000100420001004F000100010001004336
:1001F000000100010001000100010044002A004547
:1002000000010001000000005C010001000100018C
:1002100000000001000100010001000100010001D7
:10022000000100F2000100010001000100F000F1F6
:10023000000100F500010001000100F3000100F4DD
:1002400000010001000100010001000000010001A7
:100250000001000000010000000100010001000099
:100260000001000000010001000100AC00010000DD
:1002700000010001000100AA0001000100010001CD
:10028000000100A900AC000100010001000100AB69
:1002900000A800010001000100AE00010001000102
:1002A0000001000100010001000100010000000048
:1002B000000000000000000000000000001E0235E9
:1002C0000200000000000000001F023102000000D8
:1002D000000000000020022E0000000000010000CD
:1002E0000021023100000000000000000022023561
:1002F00000000000000000000000000000000000FE
:1003000000000000000000000000000000000000ED
:100310000023023400340200000000000024022FF9
:10032000022E0200000000000026022F003602000C
:10033000000100000027023000370200000000002A
:100340000025023002380200000000000001000118
:10035000002D02000000000000000000000000006E
:100360005C000000001E0000000000000000000013
:10037000001F00000000000000000000002000003E
:10038000000000000001000000210000000000004B
:10039000000000000022000000000000000000003B
:1003A000000000000000000000000000000000004D
:1003B000000000000000000000230000000000001A
:1003C0000000000000240000000000000000000009
:1003D00000250000000100000001000000260000D0
:1003E00000010000000000000027003302010000AF
:1003F00000000000000100010001000000000000FA
:100400000000000000000000000000000000003AB2
:1004100000000000000000000000003B00000000A1
:10042000000000000000003C000000000000000090
:100430000000003D00000000000000000000003E41
:1004400000000000000000000000000000000000AC
:10045000000000000000000000000000000000009C
:100460000000003F0000000000000000000000400D
:10047000000000000000000000000041000000003B
:10048000000000000000004200000000000000002A
:1004900000000043000000000000000000000044D5
:1004A0000045000000000063F301000000000000B0
:1004B0000000002A2B2800000000000000000000BF
:1004C00000000000000029000000002C1E34202144
:1004D0002224342627252E362D3738271E1F20218B
:1004E00022232425263333362E37381F04050607EA
:1004F00008090A0B0C0D0E0F101112131415161704
:1005000018191A1B1C1D2F3130232D350405060721
:1005100008090A0B0C0D0E0F1011121314151617E3
:1005200018191A1B1C1D2F3130354C00000000001B
:1005300000000000000000000000000000000000BB
:1005400000000000000000000000000001010101A7
:100550000101000101010100000000000000000095
:100560000000000000010001000101010101010182
:10057000010101010101010101010101010101016B
:100580000101010101010000000101000000000063
:10059000000000000000000000000000000000005B
:1005A00000000000000001010101006801F000B43A
:1005B0000078005A007F3F1F643214643214783C84
:1005C0001E1E140A050000000001010102020304BE
:1005D00005050607090A0B0C0E0F11121415171941
:1005E0001B1D1F212325282A2C2F313436393B3E51
:1005F000414346494C4F5255585A5D6164676A6D94
:10060000707376797C7F8386898C8F9295989B9E78
:10061000A2A5A7AAADB0B3B6B9BCBEC1C4C6C9CB6A
:10062000CED0D3D5D7DADCDEE0E2E4E6E8EAEBEDE3
:10063000EEF0F1F3F4F5F6F8F9FAFAFBFCFDFDFE45
:10064000FEFEFFFFFFFFFFFFFFFEFEFEFDFDFCFBCA
:10065000FAFAF9F8F6F5F4F3F1F0EEEDEBEAE8E684
:10066000E4E2E0DEDCDAD7D5D3D0CECBC9C6C4C154
:10067000BEBCB9B6B3B0ADAAA7A5A29E9B989592F1
:100680008F8C898683807C797673706D6A676461EC
:100690005D5A5855524F4C494643413E3B393634DA
:1006A000312F2C2A282523211F1D1B191715141241
:1006B000110F0E0C0B0A09070605050403020201BF
:1006C0000101000000000000000001010101010122
:1006D00001010102020202020202020203030303F9
:1006E00003030303040404040404050505050506C7
:1006F0000606060607070707080808080909090A81
:100700000A0A0A0B0B0B0C0C0C0D0D0D0E0E0F0F25
:100710000F101011111112121313141415151616AF
:100720001717181819191A1A1B1C1C1D1D1E1F1F1C
:1007300020202122222324252526272728292A2B69
:100740002B2C2D2E2F2F303132333435363637388F
:10075000393A3B3C3D3E3F4041424344464748498D
:100760004A4B4C4D4F50515253555657585A5B5C5B
:100770005E5F606263646667696A6C6D6E707173F8
:10078000747678797B7C7E8081838486888A8B8D61
:100790008F91929496989A9B9D9FA1A3A5A7A9AB90
:1007A000ADAFB1B3B5B7B9BBBDBFC1C4C6C8CACC84
:1007B000CFD1D3D6D8DADCDFE1E4E6E8EBEDF0F236
:1007C000F5F7FAFCFF16034500720067006F00445E
:1007D000006F007800200045005A00000016034515
:1007E00000720067006F0044006F00780020004531
:1007F000005A0000000403090409026D000401000E
:10080000A0FA0904000001030101000921110100FF
:10081000012240000705810308000A0904010001C4
:1008200003010200092111010001224D0007058288
:100830000308000A09040200010300000009211155
:100840000100012236000705830308000A0904039A
:1008500000010300000009211101000122390007F5
:100860000584032000011201100100000008EDFEC4
:10087000071301000102000105010906A101050796
:1008800019E029E715002501950875018102050881
:1008900019012905950575019102950175039101CD
:1008A0000507190029F71500250195F87501810242
:1008B000C005010980A10185021601002603001A66
:1008C00081002A8300751095018100C0050C090183
:1008D000A1018503160100269C021A01002A9C0230
:1008E000751095018100C005010902A1010901A14E
:1008F00000050919012905150025019505750181D6
:100900000295017503810105010930093115812521
:100910007F95027508810609381581257F95017537
:10092000088106050C0A38021581257F9501750896
:100930008106C0C005010906A101050719E029E7E4
:100940001500250195087501810295017508810141
:100950000508190129059505750191029501750391
:1009600091010507190029FF150026FF009506755E
:10097000088100C011241FBECFEFDAE0DEBFCDBF7B
:1009800004B603FE27C08091B9039091BA03A091E9
:10099000BB03B091BC038730904BA740B04BD1F460
:1009A0001092B9031092BA031092BB031092BC03C9
:1009B00014BE84B7877F84BF0FB6F894A895809142
:1009C0006000886180936000109260000FBEE0E0DC
:1009D000FFE3099511E0A0E0B1E0E2E9FDE502C026
:1009E00005900D92AC3DB107D9F723E0ACEDB1E035
:1009F00001C01D92A93BB207E1F70E94FF280C94A9
:100A0000C72E0C9400001092B9008AE08093B800C1
:100A1000089594EA9093BC009091BC0097FFFCCF9E
:100A20009091B900987F983021F0903111F081E0D9
:100A300008958093BB0084E88093BC008091BC0043
:100A400087FFFCCF8091B900887F883111F0803416
:100A500071F780E0089584E98093BC008091BC0028
:100A600084FDFCCF08958093BB0084E88093BC0094
:100A70008091BC0087FFFCCF9091B900987F81E006
:100A8000983209F480E0089584E88093BC00809156
:100A9000BC0087FFFCCF8091BB00089580B38C70B1
:100AA00080BB81B3836F81BB089580910001811168
:100AB00015C080E40E9409058093000181110CC0DB
:100AC00082E10E94330580930001811105C08FEF00
:100AD0000E943305809300010E942B0584B1807F22
:100AE00084B985B1807F85B98AB1837F8AB98BB19A
:100AF000837F8BB93E98469808950C949F070E9477
:100B00004607809300010E9455050E944E05E1E3CF
:100B1000F2E08DED91E01192DC0126E01D92215072
:100B2000E9F7069622E0EF33F207A9F70C94D90A09
:100B30000E944607809300010E9455050E944E05C1
:100B4000E1E3F2E0119282E0EF33F807D9F708957C
:100B500096E0899FF0011124E352FE4F30E020E03F
:100B600080E041E050E09191992351F0DF0111972D
:100B700091509C932F5F3F4F26303105A1F7089588
:100B8000BA01022E01C0660F0A94EAF7862BF2CF53
:100B900096E0699FB001112430E020E090E04FE042
:100BA000FC01022E02C0F595E7950A94E2F7E0FFFA
:100BB00006C0F901E60FF71FE352FE4F40832F5F97
:100BC0003F4F2630310561F70895BF92CF92DF92F3
:100BD000EF92FF920F931F93CF93DF9380910001C9
:100BE000882379F08091DC018F5F8093DC01811193
:100BF00008C00E94460780930001811102C00E9434
:100C0000F00681E3E82E82E0F82E10E000E0CC242C
:100C1000C394D12CD02F073008F06CC08091000114
:100C200081111BC080E40E9409058093000181119D
:100C300012C082E10E9433058093000181110BC034
:100C4000C601002E01C0880F0A94EAF780950E9421
:100C50003305809300010E942B0580EA8A95F1F705
:100C60008D2F0E94A805B82ED73008F063C0C09120
:100C70000001C11181C080E40E9409058093000138
:100C8000811112C083E10E9433058093000181111C
:100C90000BC081E40E94090580930001811104C00A
:100CA0000E944405C82FC0950E942B05F701819131
:100CB0007F019B2D90959823CB21C92B6D2F8C27DD
:100CC0000E94C805F7013197C0830E9455050F5F48
:100CD0001F4F0E30110509F09DCF0E94DB0A81E005
:100CE000DF91CF911F910F91FF90EF90DF90CF9008
:100CF000BF9008950A30B1F038F4083069F0093037
:100D000071F0209A2898A9CF0C3091F070F00D3036
:100D1000C1F73E9A4698A1CF219A29989ECF229A50
:100D20002A989BCF239A2B9898CF529A5B9895CF6D
:100D3000539AFCCFCFB1C095C170799B13C080E0AE
:100D4000C82B7C9B11C080E0C82B7D9B0FC080E02E
:100D5000C82B7E9B0DC080E0C82B7F9B0BC080E022
:100D6000C82BA4CF82E0ECCF84E0EECF88E0F0CFB8
:100D700080E1F2CF80E2F4CFC0E098CFE82FF0E03E
:100D8000EF5CFD4F808108950895259A2D9A08956E
:100D9000269A2E9A0895279A2F9A089556985E9823
:100DA000089525982D98089526982E9808952798A7
:100DB0002F9808950E94CE060E94D1060E94D40664
:100DC0000C94D70690E090938900809388009093CC
:100DD0008B0080938A0090938D0080938C000895FF
:100DE0000E94DA068FEF0E94E2060E94C5062FEFEE
:100DF00080E792E0215080409040E1F700C0000081
:100E00000E94C8062FEF80E792E02150804090407A
:100E1000E1F700C000000E94CB062FEF80E792E0D0
:100E2000215080409040E1F700C000000E94D106B0
:100E30002FEF80E792E0215080409040E1F700C022
:100E400000000E94D4062FEF80E792E021508040FE
:100E50009040E1F700C000000E94D7060C94DA062B
:100E600089EA8093800089E08093810024982C98FF
:100E70003F988AB18F7C8AB96E98479A8BB180630C
:100E80008BB9769A0E94F0060C949E0780E28093BC
:100E9000000180913F0281110EC00E94030581E094
:100EA00080933F022FEF83ED90E3215080409040EC
:100EB000E1F700C0000080E40E9409058093000172
:100EC00081112EC00E94330580930001811128C03A
:100ED0000E94330580930001811122C08FE30E949C
:100EE00033058093000181111BC00E942B0580E413
:100EF0000E94090580930001811112C08CE00E94BC
:100F000033058093000181110BC00E94330580934B
:100F10000001811105C08FE30E9433058093000119
:100F20000E942B05809100010895611104C08CEA94
:100F300090E00E94D60A90E080E008950895CF9353
:100F40006091010370910203809103039091040367
:100F50000E940121C82F0E94CE060E94D1060E9445
:100F6000D4060E94D706C13021F0C23029F0CF91BB
:100F70000895CF910C94C506CF910C94C80681E0DA
:100F8000089581E008950C94C1070E94A51A2FEFDF
:100F900084E39CE0215080409040E1F700C00000D5
:100FA0000C94DB22FF920F931F93CF93DF938C015E
:100FB000FC01C081D18180919002811157C0828152
:100FC000882309F44EC0CE010E94DE1FF82E682F40
:100FD000CE010E94821FBE018F2D0E94EF0AEC01FC
:100FE000B8010E94C307882309F413C1B801CE01D8
:100FF0000E94510D882309F40CC1B801CE010E9452
:10100000F00D882309F405C1CA3CFCE5DF0709F4AB
:1010100030C108F06DC0C33C9CE5D90709F40AC192
:1010200008F041C0C531FCE5DF0728F5C2308CE58A
:10103000D80708F085C1C1159CE5D90709F4E4C0BB
:10104000C130DC4509F4ECC081E080934502809317
:101050004602C801DF91CF911F910F91FF900C9430
:10106000BF07CE010E94B21FF82EB5CFCE010E945D
:10107000DE1FBE01B2CFC531DC4531F70E94C5206D
:10108000F8019281992309F42FC28A7A91E009F438
:1010900090E090934002811125C289E20E944E2087
:1010A0000E949220D1CFC63C8CE5D80709F4D0C06D
:1010B00080F4C43CECE5DE0709F4C3C0C53CDC4564
:1010C00019F6F8018281882309F4A3C00E94ED106B
:1010D000A0C0F8018281C83CFCE5DF0709F4C4C068
:1010E00008F4BDC0882309F494C00E94481191C03F
:1010F000C03DECE5DE0709F4F6C008F044C0CD3C85
:101100008CE5D80709F4C4C0F8F4CB3CECE5DE0765
:1011100009F4B6C0CC3CDC4509F096CFF8018281D9
:10112000882309F476C00E94C20F623071058105E0
:10113000910540F00E94C20F65307105810591054F
:1011400008F483C082E0A1C0CE3C8CE5D80709F446
:10115000B4C0CF3CDC4509F077CFF8018281882309
:1011600009F457C00E94C20F6F30710581059105C7
:1011700040F00E94C20F643171058105910508F4A9
:1011800064C08FE082C0C33DECE5DE0709F45CC1BA
:10119000F0F4C13D8CE5D80709F4BBC0C23DDC4585
:1011A00009F052CFF8018281882399F10E94C20F81
:1011B000693171058105910540F00E94C20F6232CC
:1011C00071058105910508F440C089E15EC0C73D05
:1011D000ECE5DE0709F4A4C0C83DFCE5DF0709F42F
:1011E000A8C0C43DDC4509F02FCFF80182818823D7
:1011F00009F45AC1109246020E947F229093440241
:101200008093430280E22DC1F801828181110E9406
:10121000C50780E0DF91CF911F910F91FF90089556
:10122000F80182818823A9F380912E038160809345
:101230002E03EFCFF8018281882359F30E94FD111C
:10124000E8CFF8018281882321F30E94F311E1CFD6
:10125000F80182818823E9F20E940511DACF882300
:10126000C1F20E942411D5CF882399F20E94361131
:10127000D0CFF8018281882361F20E946011C9CF2A
:10128000F8018281882329F281E00E947811C1CF80
:10129000F8018281882309F4BCCF0E94C20F663016
:1012A00071058105910538F00E94C20F6830710503
:1012B0008105910550F286E0E8CFF801828188230C
:1012C00009F4A7CF0E94C20F69307105810591050D
:1012D00040F00E94C20F6E3071058105910508F43F
:1012E000B4CF89E0D2CFF8018281882309F491CF6D
:1012F0000E94C20F653171058105910540F00E9481
:10130000C20F673171058105910508F49ECF85E113
:10131000BCCFF8018281882309F47BCF88E1B5CF67
:10132000F8018281882309F474CF80E00E94922919
:1013300070CFF8018281882309F46BCF82E0F6CF69
:10134000F8018281882309F484CE0E946F218111E3
:1013500002C00E944E210E94822190E09093AB0334
:101360008093AA03FE01E350FC458091AA038160AB
:10137000E231F105C8F4E154F64F0C94792ED1090D
:10138000DD09E109E509E909ED09F109F509F909BD
:10139000FD09010A050A090A0D0A110A150A190AA6
:1013A0001D0A8091AA0382608093AA038091AA03F8
:1013B0000E9486210E94A51A2CCF8091AA038460E6
:1013C000F3CF8091AA038860EFCF8091AA03806158
:1013D000EBCF8091AA038062E7CF8091AA0380645B
:1013E000E3CF8091AA038068DFCF8091AA03846055
:1013F000EACF8091AA038E7FD7CF8091AA038D7FF9
:10140000D3CF8091AA038B7FCFCF8091AA03877F10
:10141000CBCF8091AA038F7EC7CF8091AA038F7D07
:10142000C3CF8091AA038F7BBFCF8091AA038F7710
:10143000BBCF8091AA038B7FEACF9091AA03892F1B
:1014400097FB87F98058B0CFF8018281882361F03B
:10145000109245020E947F229093420280934102A3
:1014600082E00E94A617D5CE0E94C52085FF05C048
:1014700081E080934502809346028091450281116C
:101480000FC080914102909142020E948B22883CC1
:10149000910530F486E20E94971686E20E94571763
:1014A00082E00E94AD17B5CE0E94C52081FF05C025
:1014B00081E080934502809346028091460281112B
:1014C0000FC080914302909144020E948B22883C7D
:1014D000910530F487E20E94971687E20E94571721
:1014E00080E2DFCF85E3DACD80914002811104C034
:1014F00089E20E945520D4CD85E3FBCFCF9390E0C5
:10150000FC01E555FB4FC491855D9A4FFC01849128
:10151000882369F081EE0E9497168C2F0E949716FF
:101520008C2F0E94571781EECF910C9457178C2F58
:101530000E9497168C2FF8CFFF920F931F93CF9393
:10154000DF938C01F62EF8018491882349F1E8019C
:101550002196813049F4FE011491812F0E94971643
:10156000812F0E94571706C0823089F4FE018491B2
:101570000E9497168E010F5F1F4F8F2D815018F319
:10158000EFE9FFE03197F1F700C00000F7CF8330BB
:1015900019F4FE018491E5CF0E947E0AE801EACFAA
:1015A000DF91CF911F910F91FF90089560E00C940F
:1015B0009C0A0C9430070C947D05882339F090E048
:1015C0008A3010F44D9608950697089587E290E0CA
:1015D000089508950C94E90A0C94EA0A0895972F47
:1015E00070E026E0929F600D711D1124FB0194E5CF
:1015F000899FE00DF11D1124EE0FFF1FE954FF4FED
:10160000859194910895FC01EE0FFF1FED54FF4F5B
:10161000859194910895CF93DF930E94EF0A0E94E1
:10162000A30CEC018115904408F094C0C11580E32F
:10163000D80708F005C1C03ED10508F071C0C03C14
:10164000D10508F0ECC0C83AD10580F4C53AD105FF
:1016500008F0E9C0C130D10509F46EC020F0C430F3
:10166000D10508F069C0D0E0C0E066C0CD3BD1052F
:10167000D0F7C83AD10509F427C1C93AD10509F410
:1016800026C1CA3AD10509F425C1CB3AD10509F4DE
:1016900024C1CC3AD10509F423C1CB3BD10509F4CF
:1016A00022C1CC3BD10509F421C1CD3AD10509F4C1
:1016B00020C1C03BD10509F41FC1CE3AD10509F4C0
:1016C0001EC1CF3AD10509F41DC1C13BD10509F4B2
:1016D0001CC1C23BD10509F41BC1C33BD10509F4B0
:1016E0001AC1C43BD10509F419C1C53BD10509F4A0
:1016F00018C1C63BD10509F417C1C73BD10509F490
:1017000016C1C83BD10509F415C1C93BD10509F47F
:1017100014C1CA3BD10509F013C1CAE2D6E40CC01A
:10172000CF3FD10509F060F4C03FD10508F086C075
:10173000C83ED10508F097CFCE01DF91CF91089533
:10174000CE019F70C11520E2D207B0F30E94030BB7
:10175000EC01F2CFC11584E5D807A0F5C11523E54A
:10176000D20708F08EC0C11581E5D80708F5C1156C
:1017700020E5D20708F46EC0CE0154E09695879517
:101780005A95E1F783709C2F937021E030E002C0FE
:10179000220F331F9A95E2F73C68382BC695C69501
:1017A000C37080E2C89FE0011124C22BD32BC4CFA9
:1017B000C11582E5D80708F050C0DC2FCC27C16FD7
:1017C000D06ABACFC11526E5D20758F49C2F8827D6
:1017D000C115D54508F469C0EC01CC27DF71D06292
:1017E000ABCFC11588E5D80708F43DCFC11529E571
:1017F000D20708F45EC0CE0190568115904208F0E1
:1018000032CF8D2F8F710E94230DDD27D06290E0A3
:10181000982F882788279F71C82BD92B8DCFCE0171
:10182000805C910993CFC53AD10509F447C0C63A07
:10183000D10509F446C0C3E8D0E47ECFD0657CCFA3
:10184000CE019927D3FF03C0EC01D86C75CFEC0112
:10185000D06C72CFDF70D06A6FCFCE0183709927C2
:1018600021E030E002C0220F331F8A95E2F7C695CF
:10187000C69580E2C89FE0011124C22BD32BDC68FF
:101880005BCFCE018370992721E030E002C0220FA8
:10189000331F8A95E2F7C695C69580E2C89FE0019E
:1018A0001124C22BD32BDA6847CFEC01C46FD06A66
:1018B00043CFDC2FCC27C06FD06A3ECFC1E8D0E445
:1018C0003BCFC2E8D0E438CFC2EED4E435CFC9EE86
:1018D000D4E432CFCAEED4E42FCFC5EBD4E42CCF7E
:1018E000C6EBD4E429CFC3EBD4E426CFC4EBD4E4D5
:1018F00023CFC7EBD4E420CFCCECD4E41DCFCDEC88
:10190000D4E41ACFC3E8D5E417CFCAE8D5E414CF9E
:10191000C2E9D5E411CFC4E9D5E40ECFC1E2D6E4E3
:101920000BCFC3E2D6E408CFC4E2D6E405CFC5E2CC
:10193000D6E402CFC6E2D6E4FFCEC7E2D6E4FCCEC0
:10194000C0E0D4E4F9CE8238910549F1B0F4813396
:10195000910509F45CC048F48932910509F452C03C
:101960008A32910509F458C008958533910509F428
:1019700044C08933910599F00895833E910531F172
:1019800038F4803E910591F0823E9105B1F00895C2
:10199000863E910511F1873E910541F10895209110
:1019A000AA032370C9F080EE90E008952091AA0365
:1019B00020FF12C089E390E008952091AA0322FF3E
:1019C0000BC024FF2EC090E080E008952091AA0370
:1019D00022FD2AC024FDF7CF08952091AA0323FFFA
:1019E000FBCF24FDF0CF87EE90E008952091AA036D
:1019F00023FFF0CF86EE90E008952091AA0325FD05
:101A000016C008952091AA0325FD14C008952091C1
:101A1000AA0326FD12C008952091AA0326FD10C036
:101A2000089583EE90E0089582EE90E0089589E2B3
:101A300090E0089585E390E008958AE290E00895AB
:101A400081E390E0C9CFCF93C82F0E948221282F35
:101A500030E03093AB032093AA0382FF06C09C2F93
:101A60009871983079F4C77FC46083FF06C09C2FBB
:101A70009871983171F4C77EC46184FDC77E8C2F44
:101A8000CF9108959C2F9471943079F7CB7FC860E3
:101A9000ECCF9C2F9471943181F7CB7EC861EDCF50
:101AA00008950F931F93CF938C01FB0182818111C5
:101AB00006C0C1E08C2FCF911F910F910895C09166
:101AC0005402C11125C006311C4599F70E94500DE2
:101AD00081E0809354020E947F229093530280936E
:101AE000520210924702109249021092480210923C
:101AF0004B0210924A0210924D0210924C02109228
:101B00004F0210924E021092510210925002D2CF08
:101B100080915202909153020E948B22883C910541
:101B200040F680914702E82FF0E0EE0FFF1FE85BE0
:101B3000FD4F118300838F5F80934702C0E0BACFCF
:101B40008F929F92AF92BF92EF92FF920F931F934B
:101B5000CF93DF934B015C0107E010E08CE1E82EAE
:101B6000F12CD1E0D501C4010E2C04C0B695A79587
:101B7000979587950A94D2F7C82FCF7021F5D11188
:101B80000AC080E00E94DD0A0E94971680E00E9451
:101B9000DD0A0E9457170150110984E0E81AF10884
:101BA0000F3F100759F4DF91CF911F910F91FF90D4
:101BB000EF90BF90AF909F908F90089504301105E3
:101BC0008CF6D0E0CFCF8C2F0E94DD0A0E949716B2
:101BD0008C2F0E94DD0A0E945717D0E0DCCF0895B9
:101BE0008F929F92AF92BF92CF92DF92EF92FF922D
:101BF000CF93DF93EC017B010E94620ED7FF49C0B7
:101C0000F7019281992309F444C0FE01EE0FFF1FF2
:101C1000EE0FFF1FE955FB4F85909590A590B4906E
:101C200075016401F1E0EF1AF108C114D10490E1EB
:101C3000E906F10410F5882311F08530B1F50E9412
:101C4000650EC701B6012AE0969587957795679549
:101C50002A95D1F778528F4F9F4F0E94A00DE3E055
:101C6000DE22EE24FF24C701B60174528F4F9F4F2E
:101C70000E94A00D0E94E20E0CC081149104F1E1BB
:101C8000AF06B10490F0882311F08530A1F40E94D2
:101C9000EF0D81E0DF91CF91FF90EF90DF90CF903B
:101CA000BF90AF909F908F9008958114910490E120
:101CB000A906B10410F0813051F30E94650EC501F0
:101CC000B401D6CF809155020895E0910301F091BF
:101CD0000401808180935F0381FF03C081EE0E9435
:101CE000571780915F0385FF03C085EE0E94571749
:101CF00080915F0380FF03C080EE0E9457178091A0
:101D00005F0384FF03C084EE0E94571780915F0336
:101D100082FF03C082EE0E94571780915F0386FF07
:101D200003C086EE0E94571780915F0383FF03C0B4
:101D300083EE0E94571780915F0387FF03C087EEF1
:101D40000E94571780915502823049F158F4882338
:101D500079F0813089F08FE39CE90197F1F700C0B9
:101D600000000895843019F18530A9F786EE01C08E
:101D700082EE0E949716EFCF80EE0E94971681EEBA
:101D80000E94971688E10E94971688E10E945717D3
:101D900081EE0E94571780EE0E945717DCCF82EE2B
:101DA0000E94971687E50E94971687E5F5CF86EE85
:101DB0000E94971686EE0E94571788E10E94971698
:101DC00088E1EACF80915502813009F443C0E0F107
:101DD0008230D1F18530E1F180915F0381FF03C052
:101DE00081EE0E94971680915F0385FF03C085EE08
:101DF0000E94971680915F0380FF03C080EE0E94CF
:101E0000971680915F0384FF03C084EE0E949716AB
:101E100080915F0382FF03C082EE0E94971680913B
:101E20005F0386FF03C086EE0E94971680915F03D2
:101E300083FF03C083EE0E94971680915F0387FFA4
:101E40000EC087EE0C94971682EE0E945717C4CFEF
:101E500086EEFBCF8CE20E9497168CE2F6CF0895B7
:101E6000CF92DF92EF92FF920F931F93CF93DF9366
:101E7000E901662309F466C0E42EF12CEFEFF0E0EF
:101E8000E61BF109EE9D8001EF9D100DFE9D100DEA
:101E90001124212FE12FFF27EE1AFF0A5CE3C52E44
:101EA000D12CB6010E94512EFB01BC01E69EC0015F
:101EB000E79E900DF69E900D1124B6010E94512EC2
:101EC000E230F10589F168F4812F262F210F309738
:101ED00081F0242F461B319761F080E020E040E044
:101EE00008C0E430F10551F128F1842F861B3597A5
:101EF000A1F7E42FF0E0EB53F94F4491E22FF0E02B
:101F0000EB53F94F9491E82FF0E0EB53F94FE49144
:101F100049839883EA83DF91CF911F910F91FF90BE
:101F2000EF90DF90CF900895862F810FE42F412FFF
:101F30002E2FDFCFE42FE61B842FF9CF842F462FDF
:101F4000410FD7CF842F242FD4CF88E090E00C947A
:101F5000872EAB01BC0188E090E00C94A52EE0E652
:101F6000F3E083E08083109261038FEF82838383A9
:101F700060916003709161038091620390916303AB
:101F80000C94A90F6091600360FF06C066956F73A3
:101F900070E090E080E0089560E070E0CB0108958B
:101FA00080916003E8E6F3E080FF06C06FE070E038
:101FB00088E693E00C94DC1411821082128234962D
:101FC00083E0E43AF807C1F7F1CFE8E6F3E0818374
:101FD00060834283349693E0E43AF907C1F70C94A6
:101FE000D00FEF92FF920F931F93CF93DF9300D008
:101FF00000D0CDB7DEB7182FE92EF62E042F809132
:10200000600390916103A0916203B0916303809398
:10201000640390936503A0936603B0936703809174
:10202000600380FF1FC09E012F5F3F4F812F9E2DB9
:102030000E94300F8091640310FB87F98093640342
:102040001695809165038078812BE0FA87F980935B
:102050006503F0926603009367034B8169818A816F
:102060000E94E50F0F900F900F900F90DF91CF918E
:102070001F910F91FF90EF9008956F927F928F9232
:102080009F92AF92BF92CF92DF92EF92FF920F9307
:102090001F93CF93DF93EC01662E742E8091600323
:1020A00080FF8CC0982F9E77923079F5CE010E94E8
:1020B000F10F809160039C2FC0FB87F98093600330
:1020C0009695809161038078892BD0FB87F9809366
:1020D0006103609262037092630360916003709188
:1020E00061038091620390916303DF91CF911F910F
:1020F0000F91FF90EF90DF90CF90BF90AF909F90A7
:102100008F907F906F900C94A90FE82FE695EF7356
:102110009EE39E0F9F73943018F470906303C9CFB1
:102120009AE39E0F9F73993070F4881F8827881F49
:1021300090916103292F220FC22FC82B97FB99275B
:1021400090F9D92FB6CF87E28E0F8F738A3008F0BF
:10215000B0CFE951FF0B2FEFE0FF21E0EE7FE55517
:10216000FA4F859194916FE070E00E94512E260302
:102170005001279FB00C11247E0188E9E81A8EEFE8
:10218000F80A08E613E084EAC82E83E0D82E98E621
:10219000892E99249394C701B4010E94512E98016D
:1021A000472D662D0E94300FEA0CFB1C0C5F1F4F61
:1021B000C016D10681F70E94D00F7BCFDF91CF915F
:1021C0001F910F91FF90EF90DF90CF90BF90AF9055
:1021D0009F908F907F906F900895E0E6F3E02081CC
:1021E000221F2227221F30916103432F440F842F87
:1021F000822B37FB992790F90C9668E671E00E94D4
:10220000652E438162810C943D1020916003221F52
:102210002227221F30916103432F440F842F822BEA
:1022200037FB992790F98C30910540F4845A9E4FE2
:1022300040916303609162030C943D100C9768E633
:1022400071E00E94652EF4CFE0E6F3E08081881F04
:102250008827881F90916103292F220F97FB9927C8
:1022600090F943816FEF822B0C943D10E0E6F3E090
:102270008081881F8827881F90916103292F220F52
:1022800097FB992790F9438160E0822B0C943D10D5
:1022900040916303443F90F4445F80916003881F42
:1022A0008827881F90916103292F220F97FB992778
:1022B00090F960916203822B0C943D104FEFEDCFAB
:1022C000409163034C3090F04C5080916003881F24
:1022D0008827881F90916103292F220F97FB992748
:1022E00090F960916203822B0C943D1040E0EDCF99
:1022F0009091600390FF42C09178811126C0926056
:102300009093600360916003709161038091620318
:10231000909163030E94A90F80916003982F9E778C
:102320009230D9F410926B02881F8827881F9091F1
:102330006103292F220F97FB992790F9409163039E
:1023400060916203822B0C943D10833210F09464F0
:10235000D7CF8F73880F982BD3CF982F96959F73D5
:102360002EE3290F2F73273120F491E090936B0215
:10237000DBCF995D9F739A30B8F6D4CF08958091E2
:102380002E03816080932E0381E080936C020E9473
:102390006F21811104C00E944E210E94AF0F0E9444
:1023A000A50F609360037093610380936203909321
:1023B00063036E7761F40E94AF0F0E94A50F6093D4
:1023C000600370936103809362039093630381E0E1
:1023D00080936B028091600380FF04C086958F73A9
:1023E0000C94781108958091600386958F738F5FA8
:1023F000833208F081E00C94781190916003892F6A
:102400008E7F90FF81608093600360916003709184
:10241000610380916203909163030E94A90F8091F0
:10242000600380FF04C086958F730C94781110921E
:102430006B022FEF80E792E0215080409040E1F75F
:1024400000C000000C94D00FCF93C82F8091690278
:1024500090916A020E948B22EC2FF0E0EF53FA4F2A
:10246000E491E817190609F010F50E947F22909375
:102470006A0280936902E0916802F0E0EB53FA4F40
:10248000449180916003881F8827881F9091610381
:10249000292F220F97FB992790F960916203822BD5
:1024A0000E94F10F809168028F5F80936802CF9144
:1024B0000895CF93C82F80916602909167020E9481
:1024C0008B22EC2FF0E0E254FA4FE491E817190662
:1024D00009F0E8F40E947F229093670280936602DD
:1024E0004091630360916203809164029091650260
:1024F0000E94F10F8091640290916502019668E656
:1025000071E00E94512E9093650280936402CF91F6
:102510000895CF92DF92FF920F931F93CF93DF9393
:10252000F82E80916202909163020E948B22EF2D1F
:10253000E695F0E0E554FA4FE491E817190609F042
:10254000A8F50E947F22909363028093620208E6BE
:1025500013E0D0E0C0E088E6C82EDD24D39480915B
:102560006002909161028C0F9D1FB6010E94512E56
:10257000980140916303609162030E94300F689656
:102580000C5F1F4FC83681E0D80749F70E94D00F73
:102590008091600290916102F0FE10C00196BE0130
:1025A0000E94512E9093610280936002DF91CF913F
:1025B0001F910F91FF90DF90CF9008950197F2CF78
:1025C000CF92DF92EF92FF920F931F93CF93DF93FF
:1025D000C82FFF24FA9480FD02C0FF24F394809159
:1025E0005E0290915F020E948B22C695EC2FF0E074
:1025F000E854FA4FE491E817190611F008F051C0B9
:102600000E947F2290935F0280935E0208E613E0AF
:10261000D0E0C0E0F80111821082128294E0C92E4D
:10262000D12CE12C80915D028E0D87FD815F082EFB
:10263000000C990BC817D907E9F4809163038C9DAE
:10264000A0018D9D500D11245595479555954795A1
:1026500080916003881F8827881F90916103592FFC
:10266000550F97FB992790F9980160916203852B8C
:102670000E94300FEF0CF1E0CF1AD10899F62196A5
:102680000C5F1F4FCF30D10529F60E94D00F8091EB
:102690005D0291E0F91210C081110CC08EE08093B0
:1026A0005D02DF91CF911F910F91FF90EF90DF902E
:1026B000CF9008958150F3CF90E00196BE010E9423
:1026C000652EEDCF0F931F93CF93DF93C82F80918B
:1026D0005B0290915C020E948B22EC2FF0E0EB54A5
:1026E000FA4FE491E817190611F008F052C00E9461
:1026F0007F2290935C0280935B02C8E6D3E0FE01E8
:10270000118210821282349683E0E43AF807C1F70E
:1027100010E000E080915A02082E000C990B081777
:102720001907E4F180910201082E000C990B801723
:102730009107A4F180916003881F8827881F9091DA
:102740006103592F550F97FB992790F99E014091EE
:10275000630360916203852B0E94300F0F5F1F4F50
:1027600024960F301105B1F60E94D00F809101011F
:1027700090915A02980F90935A0220910201280FCB
:1027800020930201121614F49E301CF08195809360
:102790000101DF91CF911F910F9108951982188245
:1027A0001A82DCCFEF92FF920F931F93CF93DF93A8
:1027B00080915802909159020E948B22883E93404A
:1027C000C8F10E947F229093590280935802C091D1
:1027D0005602D09157022196C170DD27D09357023F
:1027E000C093560288E6E82E83E0F82E10E008E752
:1027F000812F86958C0F9D2F911D817099279701B0
:102800004091630360916203FC010E9FC0010F9F22
:10281000900D11240E94300F1F5FF4E0EF0EF11CA9
:102820001F3031F7DF91CF911F910F91FF90EF9003
:102830000C94D00FDF91CF911F910F91FF90EF90EB
:10284000089580916B02882391F190916003892F04
:1028500086958F732EE3280F2F73243018F482503F
:102860000C9424122AE3280F2F73233018F4865077
:102870000C94591227E3280F2F73263018F489502F
:102880000C94891221E3280F2F73263018F48F50EF
:102890000C94E0122BE2280F2F73233018F485518B
:1028A0000C9462139E77903311F40C94D213089514
:1028B0008823B9F05198599A5098589A95E09A956A
:1028C000F1F70000509A589895E09A95F1F70000BA
:1028D000882311F0519A599885E08A95F1F7000004
:1028E0000895519A5998E8CF8BB18C7F8BB9509845
:1028F000589A5198599A85E08A95F1F70000089501
:102900008AB18C7F8AB985E08A95F1F70000519AE7
:10291000599885E08A95F1F70000509A589885E01B
:102920008A95F1F7000008955098589A85E08A95A5
:10293000F1F700005198599A85E08A95F1F7000067
:102940000895CF93DF93D82FC8E08D2F80780E9411
:102950005814DD0FC150C9F780E00E94581485E07B
:102960008A95F1F7000085E08A95F1F7000080E094
:10297000DF91CF9108953BB1242F209523233BB1C4
:10298000432B3FB7F894FC01680F791FE617F70750
:1029900011F43FBF0895819198E04BB9000000C049
:1029A00087FF2BB9880F000000C000C000C02BB902
:1029B00000C09A9591F7EACFAF92BF92CF92DF9283
:1029C000EF92FF920F931F93CF93DF938C01EB0154
:1029D000CFB6D090BC00F8948091BC008B7F8093E0
:1029E000BC000E9474140E94801484E80E94A11408
:1029F000CC0FDD1FCC0FDD1F78015E01A00EB11ED4
:102A0000EA14FB04A9F40E949414CFBED092BC0037
:102A1000579A40E8BE01C801DF91CF911F910F91F5
:102A2000FF90EF90DF90CF90BF90AF900C94BB14CD
:102A3000F70181917F010E94A114E2CF909372026D
:102A4000809371020895E0917102F09172023097C3
:102A500021F00190F081E02D099480E00895E0914B
:102A60007102F0917202309721F00280F381E02D23
:102A700009940895E0917102F0917202309721F06B
:102A80000480F581E02D0994089520916F02309122
:102A900070022817390771F09093700280936F02CB
:102AA000E0917102F0917202309721F00680F78177
:102AB000E02D0994089520916D0230916E0228173F
:102AC000390771F090936E0280936D02E09171026C
:102AD000F0917202309721F00084F185E02D099485
:102AE000089508950C9471150E9476220E947F0526
:102AF0000E94FD220C94BF11BF92CF92DF92EF9201
:102B0000FF920F931F93CF93DF93CDB7DEB72A9732
:102B10000FB6F894DEBF0FBECDBF0E94E50584E777
:102B2000C82E82E0D82E10E000E0B02E802F0E9448
:102B3000BE06E82EF601F1906F01F81609F45AC0AE
:102B400080912E0381FD0E94C40690E080E0FE2467
:102B50002F2D30E0482FB901082E02C075956795DA
:102B60000A94E2F760FF41C08E83BF8281E090E06B
:102B70006C0102C0CC0CDD1C4A95E2F72E2D30E032
:102B80002C213D21232B09F480E088870E947F229D
:102B90008160782F9A8789874E815F8168858A85D1
:102BA0000E945916F801EC58FD4F80818C258083D6
:102BB0000E9490240E94231590917302891789F135
:102BC0000E942315809373022A960FB6F894DEBFF5
:102BD0000FBECDBFDF91CF911F910F91FF90EF906E
:102BE000DF90CF90BF900C94EC0A0196863091054F
:102BF00009F0B0CF0F5F1F4F0E30110509F095CFD0
:102C00008FEF89838A831B820E947F228160782FC5
:102C10009D838C8349815A816B818D810E945916D5
:102C2000C7CF2A960FB6F894DEBF0FBECDBFDF9197
:102C3000CF911F910F91FF90EF90DF90CF90BF90B9
:102C40000895CF93DF93DC018C91682F70E021E031
:102C500030E001C0220F8A95EAF711964C91119746
:102C600050E0EA01CE57DD4F988112968C91129771
:102C70008823C9F0809191028823C1F086E0849F67
:102C8000F001859FF00D1124E60FF71FEE0FFF1FD7
:102C9000EB5EFE4F408151814D935C93292B28833D
:102CA000DF91CF910895892F8223E6CF20952923A4
:102CB000F6CFCF93DF93CDB7DEB72B970FB6F8944F
:102CC000DEBF0FBECDBF942F4F83252F5887698756
:102CD0007A878B874A855B8581E0452B31F02F3FD2
:102CE00019F481E09F3F09F080E080FD04C0CE012F
:102CF00007960E9421161E821D8285E0FE013796EE
:102D0000DE01119601900D928A95E1F749815A8171
:102D10006B817C818D819E810E94571D2B960FB601
:102D2000F894DEBF0FBECDBFDF91CF910895CF9352
:102D3000C82F882309F4B9C0823879F40E9423157A
:102D400081FDB3C089E30E944E200E94922089E356
:102D50000E945520CF910C949220833859F40E9400
:102D6000231580FDA2C083E50E944E200E94922080
:102D700083E5EECF843859F40E94231582FD95C077
:102D800087E40E944E200E94922087E4E1CF8CEFDE
:102D90008C0F813A48F48C2F0E94A626811185C0A1
:102DA0008C2F0E944E20D6CF80E28C0F883048F4C2
:102DB000C77081E001C0880FCA95EAF70E94C82059
:102DC000C9CF8BE58C0F833068F481E890E0C53A79
:102DD00031F083E890E0C63A11F482E890E0CF91B8
:102DE0000C94451588E58C0F853108F05EC082EEA5
:102DF00090E0C83A09F456C089EE90E0C93A09F467
:102E000051C08AEE90E0CA3A09F44CC085EB90E0DC
:102E1000CB3A09F447C086EB90E0CC3A09F442C0C3
:102E200083EB90E0CB3BF1F184EB90E0CC3BD1F134
:102E300087EB90E0CD3AB1F18CEC90E0C03B91F1A2
:102E40008DEC90E0CE3A71F183E891E0CF3A51F108
:102E50008AE891E0C13B31F182E991E0C23B11F196
:102E600084E991E0C33BF1F081E292E0C43BD1F010
:102E700083E292E0C53BB1F084E292E0C63B91F080
:102E800085E292E0C73B71F086E292E0C83B51F0E8
:102E900087E292E0C93B31F090E080E0CA3B11F458
:102EA0008AE292E0CF910C945B15CF91089588232C
:102EB00009F44BC0823871F40E94231581FF45C08C
:102EC00089E30E944E200E94922089E30E945520AF
:102ED0000C949220833859F40E94231580FF35C04A
:102EE00083E50E944E200E94922083E5EFCF843834
:102EF00059F40E94231582FF28C087E40E944E20C7
:102F00000E94922087E4E2CF9CEF980F913AF0F272
:102F100090E2980F983050F4877091E001C0990FBB
:102F20008A95EAF7892F0E94CE20D2CF9BE5980F91
:102F3000933020F490E080E00C944515885A853158
:102F400020F490E080E00C945B150895882321F034
:102F50000E94C8200C9492200895882321F00E949A
:102F6000CE200C94922008958F929F92AF92BF92A0
:102F7000DF92EF92FF920F931F93CF93DF937C0129
:102F8000D62FC72FFC01058102950F7012811111F8
:102F90000E94E7200E948B20D82E882371F01123F5
:102FA00031F180E28D0F883010F182E00E947520AF
:102FB0000E948B2091E0D82ED926BC2EB2949FE09F
:102FC000B922EB2DF0E0E951F84E0C94792EF91767
:102FD000F917491849188418AC181B1A8B18EE18E1
:102FE0008B1889198919121A8B188B183B1AD12C36
:102FF000E4CF0C2F0F70C07F11F00295007F1123DA
:10300000A9F0002359F080E28D0F883010F0D11123
:1030100009C0802F0E94C8200E9492208D2F0E94FC
:10302000971614C0802F0E94D920F6CF8D2F0E94B2
:103030005717002359F080E28D0F883010F0D1111E
:1030400024C0802F0E94CE200E949220DD2009F40F
:103050002BC20E94682080FD27C2F70112820E94C5
:1030600062200E94E61EC7010E94601A0E94622030
:10307000DF91CF911F910F91FF90EF90DF90BF9064
:10308000AF909F908F900C94071F802F0E94DF209D
:10309000DBCFFC2FFF70BF2EC07FC03219F0B2947F
:1030A00080EFB822DD2339F0D130F9F0112331F16E
:1030B000002329F0B3CF112361F0011104C08B2D3F
:1030C0000E94A617C3CF8B2D0130D1F70E94FB20A1
:1030D000BDCF011106C00E94FE208B2D0E94AD17AE
:1030E000B5CF013009F4B2CFF6CF112321F0023071
:1030F00008F0ACCFE4CF0111A9CFEFCF002369F3E3
:103100008D2F0E945717A2CF8C2F8695869583709E
:1031100079F08130B9F0E8E0BE1609F49BC0BE1624
:1031200008F494CF86EF8B0D823008F493C08ECFD5
:103130008D2F9C2F9370111102C090E080E00E94AF
:10314000451584CF8D2F9C2F9370111102C090E0F4
:1031500080E00E945B157ACF112309F1D53F99F0E9
:10316000D63FB9F0D43F49F48091A4039091A503D0
:1031700081609093A5038093A4038D2F0E949923CF
:103180000E94852463CF8091A4039091A50382605F
:10319000F0CF8091A4039091A5038460EACFD53F3E
:1031A00089F0D63FA9F0D43F49F48091A4039091CF
:1031B000A5038E7F9093A5038093A4038D2F0E9477
:1031C0000124DECF8091A4039091A5038D7FF2CFDF
:1031D0008091A4039091A5038B7FECCF8C2F8370FB
:1031E00009F04BC0111136C02D2F2295269527705E
:1031F000220F220F6D2F6F70862E912CB12CA12CD7
:10320000022E04C0880C991CAA1CBB1C0A94D2F77D
:1032100060E070E0CB01D4FF0FC06FE070E080E0B1
:1032200090E004C0660F771F881F991F2A95D2F778
:103230006095709580959095C695C695C370C2307F
:1032400071F0A0F4682979298A299B29C13091F06D
:103250000E949A1E0E9423150E94EC0AF7CE68294C
:1032600079298A299B290E94AC1EF4CF0E949A1EBC
:10327000C501B4010E94881EEDCF8695112311F07F
:103280008C2F8170882331F32D2F2295269527705E
:10329000220F220F6D2F6F70862E912CB12CA12C36
:1032A000022E04C0880C991CAA1CBB1C0A94D2F7DD
:1032B00060E070E0CB01D4FF0FC06FE070E080E011
:1032C00090E004C0660F771F881F991F2A95D2F7D8
:1032D0006095709580959095C695C695C370C230DF
:1032E00051F080F4682979298A299B29C13071F02D
:1032F0000E945D1FAFCF682979298A299B290E94E6
:103300006F1FA8CF0E945D1FC501B4010E944B1F13
:10331000A1CFE0E2ED0FE53108F065C0F0E0ED5639
:10332000F64E0C94792EA819A819A819A819A8194D
:10333000A819A819A819A819A819A819A819A81985
:10334000A819A819A819B919C619CD19D419DE19BF
:10335000DF708C2F8F71112331F00E94E61E8D2FAC
:103360000E94A617D8CE0E94071F8D2F0E94AD176E
:10337000D2CE112339F00111CECE8C2F8F710E9445
:103380002A1FC9CE023008F0C6CEF7CF8C2F8F711E
:10339000112339F00E94E61EBECE8C2F8F711123AF
:1033A000C9F30E94071FB7CE112329F08C2F8F710C
:1033B0000E94D11EB0CE0E94CC1EADCE112349F08A
:1033C000CF718C2F0E94E61E63E08C2F0E946C2030
:1033D000A2CE81E00E947520023008F49CCE82E0EB
:1033E0000E94752098CE112349F0002321F08D2FE3
:1033F0000E94971690CE8C2F8F71CCCF002379F03E
:10340000D93349F42FEF87EE93E02150804090406C
:10341000E1F700C000008D2F0E9457177CCE8C2F43
:103420008F71BFCF4C2F4F706D2FC7010E94950732
:103430000E94001E0BCED23F39F160F4D03F99F0CC
:10344000D13F51F1002301F18D2F112351F10E9441
:10345000971611C0D43FD9F0A8F0D53F99F71111B4
:103460000AC081E006C0112331F08091910291E001
:103470008927809391024C2F4F706D2FC7010E94B6
:10348000EE0A49CE81E0182710939102F4CF111172
:10349000F2CF10929102EFCF0023B1F31111EBCFD5
:1034A000E4CF0E945717E7CFDF91CF911F910F9183
:1034B000FF90EF90DF90BF90AF909F908F90089516
:1034C0000F931F93CF93DF93EC01988189812B8118
:1034D0003C81232B39F08F3F19F481E09F3F19F095
:1034E00080E001C081E080FD17C0CE010E94D207BC
:1034F000882391F0688179818A810E942A208C0139
:103500000E94811F0E94851EB801CE01DF91CF91DC
:103510001F910F910C94B417DF91CF911F910F91D0
:1035200008950E94E7200E94F8200E945C200E94DB
:1035300092200E941B250E94852490E080E00E943A
:10354000451590E080E00C945B150E94D6200C9409
:10355000911A0E942020E92FE295EF70E250EE30A0
:10356000E0F4F0E0EA54F54E0C94792EC41AC41A33
:10357000CD1ACD1ACF1ACD1ACD1ACD1AC41AC41A23
:10358000D41ACD1ACD1AD41A803F19F020F4803EF7
:1035900020F481E00895843FE1F380E00895803EC7
:1035A000C0F3813FD1F7F5CF93FB882780F90895C9
:1035B000CF93DF9300D000D01F92CDB7DEB70F902E
:1035C0000F900F900F900F90DF91CF910895CF93B0
:1035D000DF9300D000D000D0CDB7DEB726960FB66F
:1035E000F894DEBF0FBECDBFDF91CF9108951F933A
:1035F000CF93DF93C091920216E0809193028C13D7
:1036000004C0DF91CF911F910895D0E01C9FF0017D
:103610001D9FF00D1124EC56FD4F408151816281B8
:103620007381848195810E94E71A2196C770E5CF46
:103630004091C4025091C5026091C6027091C702C8
:103640008091C8029091C9020C94E71A1F93CF93FE
:10365000DF938091C902807FD1F48091C6028823D4
:10366000B1F080919202D0919302B091C402C091C6
:10367000C5024091C7025091C802A1E0BF3F09F0C6
:10368000A0E0BA016095709516E0D81304C0DF91F0
:10369000CF911F91089521E04115510521F02A2F66
:1036A000CF3F09F020E090E020FD38C0189FF001E6
:1036B000199FF00D1124EC56FD4F21812C132EC0C3
:1036C00020812B132BC02281211128C0238134811A
:1036D0002417350700F1241B350B283C3105F0F485
:1036E0002091C9022F7020612093C90226E0289FF3
:1036F000F001299FF00D1124E756FD4F80818F7056
:103700008061808384EC92E00E94601ADF91CF9107
:103710001F910C94F71A260F371FDFCF0196877081
:10372000B4CFAF92BF92CF92DF92EF92FF920F93FE
:103730001F93CF93DF93CDB7DEB761970FB6F894A1
:10374000DEBF0FBECDBF8C0185E0F801DE011D9606
:1037500001900D928A95E1F7D8014C9111965C91F8
:1037600011971296EC903091C4026091C50280913D
:10377000C7029091C80221E0009731F06F3F19F421
:1037800021E03F3F09F020E0B22FB170BB2E20FDB9
:1037900080C1F801C380D480A090C602AA2009F499
:1037A00027C1C816D906D0F1D601A81BB90BCD0187
:1037B000FF24F394883C910508F0F12C8091C90214
:1037C000982F907FFF2009F4CAC0911187C0FE2C6A
:1037D000651329C0341327C0E11025C08F708061A4
:1037E0008093C9020E94181B84EC92E00E94601A28
:1037F0008091C902F80185838F2D61960FB6F894E8
:10380000DEBF0FBECDBFDF91CF911F910F91FF9013
:10381000EF90DF90CF90BF90AF90089580959095F6
:103820008C0D9D1DC5CF81E0CD2831F05F3F19F48F
:1038300081E04F3F09F080E080FD24C081E08E25CB
:10384000F82FF170DF2E80FF3FC08091920220910F
:10385000930236E0821318C04D875E878D859E8562
:103860000E942020292F22952F70223008F1243029
:1038700030F59F7009F1D80115969C91907FE1F485
:10388000FB2CBACF80E0DCCF90E0389FF001399F6D
:10389000F00D1124EC56FD4F6181561306C0608176
:1038A000461303C062816E110FC001968770D2CF9C
:1038B0009F7011F0882321F3805E883008F3C801DF
:1038C0000E94601ABD2CDCCFEE2009F495CF8091C8
:1038D000C90281608093C902F12C8ECF651312C09A
:1038E000341310C0E1100EC0F8018583C8010E9496
:1038F000601A86E0F801A4ECB2E001900D928A957E
:10390000E1F741C04D875E878D859E850E94A91A8B
:10391000882309F4C8C0EE2009F4C5C08091C9020B
:10392000803270F02091C4023091C50238872F8315
:103930001986DB86CA868C87CE0107960E94601A9C
:1039400086E0F801A4ECB2E001900D928A95E1F7CF
:103950000E94261B0E94181BFF24F3944DCF911147
:1039600015C07C2DD98AC88A6E2D89890E94D81AE3
:1039700084EC92E00E94601A86E0E4ECF2E0DF0161
:103980001D928A95E9F70E94181B36CF651312C065
:10399000341310C0E1100EC0F8018583C8010E94E5
:1039A000601AE4ECF2E086E0DF011D928A95E9F707
:1039B000FA2C22CF4D875E878D859E850E94A91A9D
:1039C000882309F470C0EE2009F46DC08091C9020B
:1039D000803208F4B5CF2091C4023091C5023A83F9
:1039E00029831B82DD82CC828E83CE010196A6CFF5
:1039F000C816D90638F1F601E81BF90BCF01F12CF6
:103A0000883C910508F03DC0FE2CEE2009F44BC027
:103A1000651326C0341324C08091C90280FD17C0ED
:103A2000982F907FA1F0D80115968C931597903F11
:103A300009F45CCF982F907F905F8F70892B15963B
:103A40008C9354CF809590958C0D9D1DD8CF86E09A
:103A5000F801A4ECB2E001900D928A95E1F7CCCE8A
:103A60004D875E878D859E850E94A91A811168CF3A
:103A70008091C90281608093C902C8010E94601AC6
:103A8000BBCE7C2DD98AC88A6E2D89890E94D81A0E
:103A900073CFEE2041F04D875E878D859E850E9415
:103AA000A91A81114DCFC8010E94601A55CF1F93EA
:103AB000CF93DF93CDB7DEB72C970FB6F894DEBF68
:103AC0000FBECDBF4F83588769877A878B879C87C6
:103AD000CE0107960E94911B882309F442C09F8162
:103AE00088852A853B85232B39F08F3F19F481E0A7
:103AF0009F3F19F080E001C081E080FD08C04F8148
:103B0000588569857A858B859C850E94E71A16E021
:103B10008091920290919302891709F467C0819F66
:103B2000C00111248C569D4F0E94911B882309F4DB
:103B30005DC0E09192021E9FF0011124EC56FD4FF2
:103B40004081518162817381848195810E94E71A4D
:103B50008091920290E0019687709927809392025B
:103B6000D7CF86E0FE013796DE01119601900D92C7
:103B70008A95E1F79F8188852A853B85232B39F03B
:103B80008F3F19F481E09F3F19F080E001C081E090
:103B900080FDBDCF2091930230E0C901019687706E
:103BA0009927409192024817190699F096E0929F42
:103BB000D001939FB00D1124AC56BD4FFE0131963C
:103BC00001900D929A95E1F7809393020E94F71A63
:103BD0009ECF0E94A51A109293021092920286E044
:103BE000E4ECF2E0DF011D928A95E9F72C960FB61E
:103BF000F894DEBF0FBECDBFDF91CF911F91089526
:103C0000EF92FF920F931F93CF93DF938C01892B39
:103C100081F0F12CEE24E394E8012196F8018491DF
:103C2000843770F4843008F05FC08130B1F08230A6
:103C3000A1F1DF91CF911F910F91FF90EF90089527
:103C4000853709F44CC008F43DC09CE7980F9037C5
:103C500080F78F770E94571749C00E5F1F4FFE01F4
:103C6000849190E2980F983060F48770FE2D01C027
:103C7000FF0F8A95EAF78F2F0E94EA200E94922078
:103C800002C00E9497168F2D815030F2EFE9FFE0BD
:103C90003197F1F700C00000F7CF0E5F1F4FFE0114
:103CA000849190E2980F983050F48770FE2D01C0F7
:103CB000FF0F8A95EAF78F2F0E94F020DFCF0E9436
:103CC0005717E1CF0E5F1F4FFE01C491C150D8F2CC
:103CD0008FE99FE00197F1F700C00000F7CF0E5F7A
:103CE0001F4FFE01F490CFCF0E9497168E01CBCFCD
:103CF00008950E94781E60930503709306038093D5
:103D00000703909308030C94911A08950C94791E5C
:103D10000F931F9300910503109106032091070351
:103D200030910803602B712B822B932B1F910F91E5
:103D30000C94791E0F931F930091050310910603B5
:103D4000209107033091080360237123822393237A
:103D50001F910F910C94791E0F931F9300910503EF
:103D60001091060320910703309108036027712703
:103D7000822793271F910F910C94791E0C94781E23
:103D80000E94BE1E6093010370930203809303039D
:103D9000909304030C94911A60E070E0CB010C94B2
:103DA000C01E0F931F9341E050E060E070E08A0175
:103DB0009B0104C0000F111F221F331F8A95D2F7E9
:103DC000C901B8011F910F910C94C01E0F931F934E
:103DD00041E050E060E070E004C0440F551F661FF2
:103DE000771F8A95D2F78091010390910203A091E9
:103DF0000303B09104038A019B01082B192B2A2B82
:103E00003B2BC901B8011F910F910C94C01E0F9359
:103E10001F9341E050E060E070E004C0440F551F84
:103E2000661F771F8A95D2F7CB01BA01609570950E
:103E30008095909500910103109102032091030356
:103E40003091040360237123822393231F910F91E8
:103E50000C94C01E0F931F9341E050E060E070E0AF
:103E600004C0440F551F661F771F8A95D2F78091B3
:103E7000010390910203A0910303B09104038A010E
:103E80009B01082719272A273B27C901B8011F9141
:103E90000F910C94C01E0F931F930091010310917A
:103EA00002032091030330910403602B712B822BBA
:103EB000932B1F910F910C94C01E0F931F93009191
:103EC0000103109102032091030330910403602346
:103ED0007123822393231F910F910C94C01E0F9383
:103EE0001F9300910103109102032091030330916D
:103EF000040360277127822793271F910F910C9449
:103F0000C01E0895292F220F920F990F890F982F05
:103F1000977071E001C0770F9A95EAF786958695BC
:103F2000869525E0829FC001112450E040E0A62F35
:103F3000B0E0FC01E40FF51FE653FD4F60819D01E9
:103F4000042E02C0369527950A94E2F72170219538
:103F500026272723262720834F5F5F4F45305105B3
:103F600041F70895292F220F290F220F820F982F32
:103F7000977086958695869545E0849F90011124DB
:103F800070E060E080E0F901E60FF71FE653FD4FB7
:103F9000408150E0092E02C0569547950A94E2F7F9
:103FA00041705527062E01C0440F0A94EAF7842B6E
:103FB0006F5F7F4F6530710531F70895BF92CF92E3
:103FC000DF92EF92FF920F931F93CF93DF938C01B9
:103FD000C0900103D0900203E0900303F09004032B
:103FE0008091050390910603A0910703B091080307
:103FF000C82AD92AEA2AFB2ACFE1D0E0BC2ED70171
:10400000C6010C2E04C0B695A795979587950A947E
:10401000D2F780FD0EC0219788F7B12C8B2DDF9150
:10402000CF911F910F91FF90EF90DF90CF90BF90B5
:104030000895B8018C2F0E940B0B019761F3EECF0E
:10404000CF93DF93EC010E94DE1FBE01DF91CF9181
:104050000C940B0B1F93CF93DF93EB019091900285
:10406000992331F0CB01DF91CF911F910C94202047
:10407000882379F0CB010E94DE1F182F682FCE0114
:104080000E94821FBE01812FDF91CF911F910C945E
:104090000B0BCB010E94B21F182FF4CF682F809119
:1040A0000301909104010C94E821682F8091030191
:1040B000909104010C94F3218091030190910401EB
:1040C0000C94FE2180910903859585958595089529
:1040D000809109038770089598E0899F90011124C9
:1040E000622B609309030C94E61E9091090380955E
:1040F000892380930903282F277061F4282F082E25
:10410000000C330B9217130629F08595859585953C
:104110000C94071F089590910903977081E009F4AA
:1041200080E00895E0910301F091040180912D0356
:104130008083E0910301F0910401808190912C0330
:10414000892B8083E0910301F0910401808190919B
:104150002B03892B808390910A03992381F0E091AE
:104160000301F09104018081892B808380910301F8
:10417000909104010E948B21811110920A03809179
:104180000301909104010C942F1580912D03089543
:1041900090912D03892B80932D030895982F90954E
:1041A00080912D03892380932D03089510922D0370
:1041B000089590912C03892B80932C030895982FB8
:1041C000909580912C03892380932C03089510925D
:1041D0002C03089590912B03892B80932B03089532
:1041E000982F909580912B03892380932B0308951A
:1041F00010922B03089580930A03089510920A03E6
:104200000895CF92DF92EF92FF926C01EE24FF248B
:1042100020E0C114D104E104F10419F0C701B60192
:1042200020E1C72ED82EE92EFF24C114D104E104C9
:10423000F10419F0285FC701B6016B017C0154E05D
:10424000F694E794D794C7945A95D1F7C114D10442
:10425000E104F10419F02C5FC701B6016B017C0188
:1042600042E0F694E794D794C7944A95D1F7C114E5
:10427000D104E104F10419F02E5FC701B60196954F
:10428000879577956795672B682B692B09F02F5FCA
:10429000822FFF90EF90DF90CF9008956DEE7EEF2C
:1042A00090E080E00E94B12E60E082E090E00E9409
:1042B000932E60E083E090E00E94932E60E084E023
:1042C00090E00E94932E60E085E090E00E94932EA3
:1042D00040E050E0BA0188E090E00C94A52E90E018
:1042E00080E00E948D2E21E08D3E9E4F09F020E05F
:1042F000822F089582E090E00C947F2E83E090E07E
:104300000C947F2E84E090E00C947F2E682F84E044
:1043100090E00C94932EFC0131969C01205E3F4F5F
:1043200080E0919191118F5FE217F307D1F7089523
:104330009C01FC0132969FEF80E04191461751F0BD
:104340009F3F19F4411101C0982F8F5F8E31A9F75B
:104350009F3F09F40895290F311D97FD3A95F90102
:1043600062830895FC01329680962191261303C042
:10437000DF0111971C92E817F907B9F70895E62FA6
:10438000E695E695E695EF3169F0E80FF92FF11D16
:10439000677021E030E001C0220F6A95EAF7818161
:1043A000822B81830895E62FE695E695E695EF3119
:1043B00071F0E80FF92FF11D677021E030E001C0C6
:1043C000220F6A95EAF72095818128232183089599
:1043D00020911401222329F02091AA0327FD0C9497
:1043E000BF210C94982120911401222329F02091BF
:1043F000AA0327FD0C94D3210C94B221FC01319621
:1044000080961192E817F907E1F708958091B003BB
:10441000843039F110922F0388E190E020E40FB648
:10442000F894A895809360000FBE2093600080E010
:104430000E94EC0A83B7817F846083BF83B7816069
:1044400083BF7894889583B78E7F83BF0FB6F89427
:10445000A895809160008861809360001092600050
:104460000FBE08950895CF930E9498050E94E50518
:104470000E943222C0E08C2F0E94BE06811105C02E
:10448000CF5FCE30C1F7CF91089581E0FCCF0E947D
:10449000A51A0E9423150C94EC0A1F920F920FB6D6
:1044A0000F9211248F939F93AF93BF9380912F030B
:1044B000811113C08091A6039091A703A091A80336
:1044C000B091A9034196A11DB11D8093A6039093BD
:1044D000A703A093A803B093A903BF91AF919F91A5
:1044E0008F910F900FBE0F901F90189582E084BDA2
:1044F00093E095BD9AEF97BD80936E0008952FB716
:10450000F8948091A6039091A703A091A803B0917D
:10451000A9032FBF0895CF92DF92EF92FF920F93DE
:104520001F932FB7F8944091A6035091A703609171
:10453000A8037091A9032FBF6A017B01EE24FF2419
:104540008C0130E020E0C016D106E206F30650F000
:10455000481B590BCA011F910F91FF90EF90DF90FC
:10456000CF90089541505109F3CF78941F920F9244
:104570000FB60F9211248F939F93AF93BF938091A7
:10458000A6039091A703A091A803B091A903019657
:10459000A11DB11D8093A6039093A703A093A80328
:1045A000B093A903BF91AF919F918F910F900FBED0
:1045B0000F901F9018950E944F2BF8942FEF87EAC9
:1045C00091E6215080409040E1F700C0000087E074
:1045D00090EBDC018093B9039093BA03A093BB03E3
:1045E000B093BC0388E19CE00FB6F894A895809343
:1045F00060000FBE90936000FFCF0E946F21811179
:1046000002C00E944E210E947A2180932E030E94B4
:10461000822190E09093AB038093AA030E947E21B5
:10462000682F70E090E080E00C94861E8091330348
:1046300080FF12C06091080185E0689FB0011124DD
:10464000759567957595679560387105A8F561153D
:104650007105A1F1862F089581FF09C060910801BD
:1046600085E0689FB001112475956795EDCF82FFB5
:1046700007C06091080185E0689FB0011124E4CF74
:10468000209134032223A9F0909107016091080141
:1046900085E0689FB00111242917B0F6269FA0017C
:1046A000279F500D1124692F70E0CA010E94652ECA
:1046B000CBCF65E070E0CECF8FE7089581E008951D
:1046C0008091330380FF0CC06091060170E0759506
:1046D0006795759567956115710549F1862F089560
:1046E00081FF06C06091060170E075956795F3CF74
:1046F0006091060182FD0BC0909134039923A1F0D3
:104700006091050180910601961738F0682F70E0DE
:104710006038710500F38FE70895899FC001112467
:1047200070E00E94652EF4CF61E070E0D7CF81E0A9
:104730000895803F31F40E941623819580933703BA
:104740000895813F19F40E941623F8CF823F31F477
:104750000E9416238195809336030895833F19F4B0
:104760000E941623F8CF893F29F40E94602380938A
:10477000380308958A3F21F40E9460238195F7CF82
:104780008B3F31F40E946023819580933903089513
:104790008C3F19F40E946023F8CF843F31F480915C
:1047A00035038160809335030895853F21F480911E
:1047B00035038260F7CF863F21F480913503846012
:1047C000F1CF873F21F4809135038860EBCF883F9C
:1047D00021F4809135038061E5CF8D3F31F48091E4
:1047E000330381608093330308958E3F21F48091D9
:1047F00033038260F7CF8F3FB9F780913303846032
:10480000F1CF803FC1F48091370387FD10923703C9
:104810008091360381110EC08091370381110AC047
:1048200080913803811106C080913903811102C043
:10483000109234030895813F29F4809137031816AC
:104840002CF3E6CF90913603823F29F497FFE0CF17
:1048500010923603DDCF833F19F41916CCF3D8CF6D
:10486000893F39F480913803181694F61092380372
:10487000CFCF8A3F29F48091380387FFC9CFF6CF85
:104880008B3F39F48091390387FFC2CF10923903EF
:10489000BFCF8C3F29F4809139031816BCF3B8CFF1
:1048A000843F31F4809135038E7F80933503B0CF00
:1048B000853F21F4809135038D7FF7CF863F21F42A
:1048C000809135038B7FF1CF873F21F480913503B1
:1048D000877FEBCF883F21F4809135038F7EE5CF32
:1048E0008D3F31F4809133038E7F8093330390CFDB
:1048F0008E3F21F4809133038D7FF7CF8F3F09F0F6
:1049000087CF809133038B7FF0CF85E393E00E94C4
:104910003A150E947F2290933103809330030895CB
:104920001F93CF93DF9380913003909131030E94C6
:104930008B22AC01909134032091090130E0911158
:1049400006C0209132038AE0289F9001112442176B
:10495000530780F08091360310913703D0913803CC
:10496000C091390381110AC0111161C0D1115FC01A
:10497000C1115DC0DF91CF911F9108959F3F19F044
:104980009F5F90933403181624F40E94162380939B
:1049900036038091360387FF05C00E941623819558
:1049A00080933603111624F40E9416238093370354
:1049B0008091370387FF05C00E941623819580935D
:1049C000370340913603442379F030913703332382
:1049D00059F025EB4203A001112450933603320312
:1049E00090011124309337031D1624F40E94602394
:1049F000809338038091380387FF05C00E946023AD
:104A00008195809338031C1624F40E9460238093C0
:104A100039038091390387FF05C00E946023819587
:104A200080933903DF91CF911F910C9485249F3F90
:104A300009F0A6CFB7CF85E0E5E3F3E0DF011D92F3
:104A40008A95E9F710923403109233030895833066
:104A500081F128F4813059F08230D1F00895853009
:104A600009F449C0B8F1863009F456C00895809120
:104A70003203482F460F5527551F4F3F510524F449
:104A8000680F6093320308958FEF80933203089587
:104A900080910901482F460F5527551F4F3F51055B
:104AA00024F4680F6093090108958FEF8093090142
:104AB000089580910801482F460F5527551F4F3FF5
:104AC000510524F4680F6093080108958FEF8093D7
:104AD0000801089580910701482F460F5527551F5B
:104AE0004F3F510524F4680F6093070108958FEF3D
:104AF00080930701089580910601482F460F55279E
:104B0000551F4F3F510524F4680F60930601089527
:104B10008FEF80930601089580910501482F460F7D
:104B20005527551F4F3F510524F4680F6093050129
:104B300008958FEF809305010895833011F128F4D3
:104B4000813049F0823091F00895853081F120F173
:104B50008630C1F1089580913203681720F4861BD6
:104B600080933203089510923203089580910901D1
:104B7000681720F4861B809309010895109209019B
:104B8000089580910801681720F4861B809308011E
:104B9000089510920801089580910701681720F484
:104BA000861B809307010895109207010895809154
:104BB0000601681720F4861B809306010895109261
:104BC0000601089580910501681720F4861B8093E3
:104BD000050108951092050108950F931F9341E078
:104BE00050E060E070E08A019B0104C0000F111FDB
:104BF000221F331F8A95D2F7C901B8010E94861E71
:104C00001F910F910C94A51A873208F043C08E3182
:104C100008F08BC0803109F47DC0C8F4873009F4F6
:104C20006AC028F4863009F45CC080E008958B30B7
:104C300009F455C08E30C9F790912E03892F8B7FD0
:104C400092FF846080932E0382FD20C048C086318D
:104C500009F445C068F4813141F70E94A51A90918A
:104C6000AA03892F97FB87F980588093AA0337C03E
:104C70008931A9F18B31C9F690912E03892F8D7F4F
:104C800091FF826080932E0381FF29C080912E03C3
:104C900081603DC0883319F150F4893221F08533A9
:104CA00011F0873211F680E00E94ED2518C08334A0
:104CB000D1F328F48A3308F4B8CF8953F5CF883478
:104CC00009F0B3CF0E94A51A2FEF83ED90E3215096
:104CD00080409040E1F700C000000E94DB2281E0AC
:104CE000089580912E03817F8E7F80932E0381E033
:104CF00080933B03089590912E03892F8E7F90FF20
:104D0000816080932E0380FDEACF897F877F809327
:104D10002E03E5CF90912E03892F877F93FF886024
:104D200080932E0383FDB2CFDACF8D51BDCF80E0CB
:104D300008950C9497268E518A3030F4E82FF0E0D5
:104D4000E354FE4F8081089580E00895CF93C82FEB
:104D500080913B038130E1F038F0823009F43FC0AC
:104D600010923B0380E012C0E0910301F091040136
:104D70008081813111F08232A9F78C2F0E94972611
:104D800081111DC08C2F0E9404268170CF9108953F
:104D9000E0910301F09104018081813171F382324D
:104DA00061F38C2F0E949926811110C0C43181F0CB
:104DB00048F4CB3059F0C03171F080E0E6CF81E0AB
:104DC00090E0E3CFC93221F0C833B9F781E0DDCFFD
:104DD00010923B03F2CF82E080933B03F7CFC932BE
:104DE00019F188F4C43101F120F4C73081F181E078
:104DF000CDCF82EE8C0F8630D0F78C2F0E949B2671
:104E000080933A03F4CFCE3401F140F46AE0CB341E
:104E100071F780913A030E942725E9CFC13579F0D7
:104E200061E0C235B1F3E3CF80913A03882319F0F2
:104E300010923A03DCCF81E080933B03A7CF61E07F
:104E400080913A030E949D25D2CF6AE0F9CF10925B
:104E5000320384E180930901C09308018CE38093BD
:104E6000070188E08093060188E280930501BFCFA7
:104E700080915C0308950F931F93CF93DF9300D02D
:104E80001F92CDB7DEB78C010E94A229823011F0AB
:104E9000843019F583E089831B830A838093E900BA
:104EA0008FEF9091E800815095FD06C095ED9A95A1
:104EB000F1F700008111F5CF8091E80085FF0DC06A
:104EC00050E040E063E070E0CE0101960E94BF290F
:104ED0008091E8008E778093E8000F900F900F90FC
:104EE000DF91CF911F910F910895CF93DF9300D061
:104EF0001F92CDB7DEB72091B003243031F522E008
:104F00002983805891099B838A8383E08093E900F9
:104F10008FEF9091E800815095FD06C095ED9A9530
:104F2000F1F700008111F5CF8091E80085FF0DC0F9
:104F300050E040E063E070E0CE0101960E94BF299E
:104F40008091E8008E778093E8000F900F900F908B
:104F5000DF91CF910895CF93DF93EC010E94A229B6
:104F6000823011F08430F9F482E08093E9008FEF11
:104F70009091E800815095FD06C095ED9A95F1F766
:104F800000008111F5CF8091E80085FF0CC050E052
:104F900040E065E070E0CE010E94BF298091E8000A
:104FA0008E778093E800DF91CF910895CF93DF93C0
:104FB000EC010E94A229823011F08430F9F4809132
:104FC00014018823F1F08091AA0387FF1AC084E0BE
:104FD0008093E9008FEF9091E800815095FD06C025
:104FE00095E19A95F1F700008111F5CF8091E800E5
:104FF00050E040E060E270E085FD1AC0DF91CF91A3
:10500000089581E08093E9008FEF9091E80081504E
:1050100095FD06C095ED9A95F1F700008111F5CF49
:105020008091E80085FFEACF50E040E068E070E062
:10503000CE010E94BF298091E8008E778093E8001E
:1050400080E2FE01ACE3B3E001900D928A95E1F7B6
:10505000D5CF8091AF03811109C00E944F2B0E94D0
:10506000AC2B8091E20084608093E200089510925E
:10507000AF030895089508950C94472242E061EC2F
:1050800081E00E94CD2A42E061EC82E00E94CD2ABC
:1050900042E061EC83E00E94CD2A42E261EC84E0D0
:1050A0000C94CD2A8091B203833009F455C030F4BA
:1050B000813071F1823009F491C008958A3009F489
:1050C0007DC08B3009F463C0893009F044C0809101
:1050D000B103813209F03FC08091B5039091B603CE
:1050E000009711F00397B9F58091E800877F8093CE
:1050F000E8008091E80082FF2AC08091F10080934F
:105100005C038091E8008B778093E8000C94012B7E
:105110008091B103813AF9F48091E800877F809310
:10512000E8008091B5039091B603892B61F460E2A9
:105130008CE393E070E00E940E2A8091E8008B7768
:105140008093E800089560E090E080E0F3CF8091E4
:10515000B0038111CECF08958091B103813AD9F780
:105160008091B5039091B603892BA9F78091E8004F
:10517000877F8093E8008091E80080FFFCCF8091DA
:1051800014018093F1008091E8008E77BDCF80916B
:10519000B103813201F78091B5039091B603892B59
:1051A000D1F68091E800877F8093E8000E94012B70
:1051B0008091B303809314010C94A51A8091B103DC
:1051C000813249F68091E800877F8093E8000E9451
:1051D000012B8091B40380935D0308958091B10306
:1051E000813A09F0B8CF8091E800877F8093E8008A
:1051F0008091E80080FFFCCF80915D03C2CF84B72F
:10520000877F84BF0FB6F894A8958091600088616D
:1052100080936000109260000FBE80E88093610070
:10522000109261000E9472150E944F2B0E94AC2BBD
:105230008091E20084608093E20078940E94352E91
:105240000E9474158AE091E00E941E158091B003BF
:10525000853029F00E947C150E942114F7CF0E940E
:1052600006228091AE03882389F30E94332288238B
:1052700069F30E94A929EACF292F3327233031056A
:1052800079F158F421303105F1F02230310519F16E
:1052900090E080E030E020E01AC02132310599F141
:1052A00022323105A9F76430710590F7FB01EE0F4A
:1052B000FF1FE553FE4F2081318169537E4FFB0173
:1052C000808190E004C082E190E026E638E0FA01B7
:1052D0003183208308958DE690E029EF37E0F7CF02
:1052E00099278130910561F028F0029789F6E5EC65
:1052F000F7E002C0E5EFF7E0849190E09F01E7CF8F
:10530000EDEDF7E0F9CF6430710508F0C1CF660F1D
:10531000771FFB01ED52FE4F2081318189E090E043
:10532000D6CF0895CF93C82F0E949129C0935E03D2
:10533000CF9108958091B003843011F081E00895F9
:1053400082E0089580915E03811102C00C949A2935
:10535000089580E189BD82E189BD09B400FEFDCFD9
:105360008091D8008F7D8093D8008091E00082608A
:105370008093E0008091E00081FDFCCF0895AF9222
:10538000BF92CF92DF92FF920F931F93CF93DF9341
:105390006C01EB018A010E94202BF82E811123C0A1
:1053A0000115110539F0F80180819181C81BD90BD5
:1053B000C80ED91EB12CA12C2097A9F08091E8002D
:1053C00085FD22C08091E8008E778093E80001156A
:1053D0001105A1F0F80180819181A80EB91EB1825A
:1053E000A08285E0F82E8F2DDF91CF911F910F9134
:1053F000FF90DF90CF90BF90AF9008950E94202B38
:105400008823D1F2F82EEFCFF60181916F018093BE
:10541000F1002197FFEFAF1ABF0ACECFFC018091B8
:10542000B7039091B80386179707A0F0611571052F
:1054300029F49091E8009E779093E80090E0611540
:10544000710551F4911108C08091E80082FF35C0C8
:1054500080E00895BC01F2CF8091B0038823C9F1A8
:105460008530C9F18091E80083FD31C08091E8006A
:1054700082FDEACF8091E80080FFE1CF2091F30028
:105480008091F200322F282F6115710519F0283014
:10549000310558F091E02830310509F090E0209175
:1054A000E8002E772093E800CACF81918093F10025
:1054B000615071092F5F3F4FE7CF8091B003882380
:1054C00041F0853041F08091E80083FFBDCF81E05D
:1054D000089582E0089583E00895FC018091B70368
:1054E0009091B80386179707A0F06115710529F40C
:1054F0008091E8008E778093E80090E06115710557
:1055000051F4911108C08091E80082FF36C080E01C
:105510000895BC01F2CF8091B0038823D1F185308A
:10552000D1F18091E80083FD32C08091E80082FDD6
:10553000EACF8091E80080FFE1CF2091F3008091D5
:10554000F200322F282F6115710519F0283031052E
:1055500058F091E02830310509F090E08091E800A2
:105560008E778093E800CACF84918093F1003196C2
:10557000615071092F5F3F4FE6CF8091B0038823C0
:1055800041F0853041F08091E80083FFBCCF81E09D
:10559000089582E0089583E00895982F973028F0C9
:1055A0008F708093E90081E008959093E900242FA3
:1055B000762F50E0981731F07091EC002091ED00BB
:1055C0005091F00021FD02C09F5FE8CF3091EB00C9
:1055D0003E7F3093EB003091ED003D7F3093ED0046
:1055E0003091EB0031603093EB007093EC0020932E
:1055F000ED005093F0002091EE0027FDE5CF80E014
:1056000008958091B10387FF13C08091E80082FF65
:1056100006C08091E8008B778093E80004C08091F9
:10562000B0038111F2CF08958091B0038823D9F39C
:105630008091E80080FFF8CF8091E8008E77ECCF72
:105640002091E4003091E50085E69091EC0090FF18
:1056500006C09091E80090FF06C080E00895909108
:10566000E80092FDFACF9091B003992391F0953024
:1056700091F09091EB0095FD10C04091E4005091A5
:10568000E5002417350709F381509A01F1F684E00B
:10569000089582E0089583E0089581E008950E94CE
:1056A000BD2B0E94C52BE0EEF0E0808181608083FD
:1056B000E8EDF0E080818F77808319BCA7EDB0E042
:1056C0008C918E7F8C9380818F7E80831092AF032C
:1056D00008950F931F93CF93DF930E94BD2B0E94D9
:1056E000C52BC8EDD0E088818F778883888180685A
:1056F000888388818F7D888319BC1092B0031092B3
:10570000AC031092AE031092AD0300EE10E0F8016E
:1057100080818B7F808388818160888342E060E024
:1057200080E00E94CD2AE1EEF0E080818E7F8083D0
:10573000E2EEF0E0808181608083808188608083F8
:10574000F80180818E7F8083888180618883DF91EA
:10575000CF911F910F910895E8EDF0E080818F7E49
:105760008083E7EDF0E080818160808384E082BF08
:1057700081E08093AF030C94692BE8EDF0E0808129
:105780008E7F80831092E20008951092DA001092CA
:10579000E10008951F920F920FB60F9211242F93DC
:1057A0003F934F935F936F937F938F939F93AF93A9
:1057B000BF93EF93FF938091E10082FF0BC0809134
:1057C000E20082FF07C08091E1008B7F8093E100BF
:1057D0000E94342E8091DA0080FF19C08091D80099
:1057E00080FF15C08091DA008E7F8093DA0080916F
:1057F000D90080FF94C080E189BD82E189BD09B4F0
:1058000000FEFDCF81E08093B0030E9429288091A3
:10581000E10080FF19C08091E20080FF15C08091F7
:10582000E2008E7F8093E2008091E20080618093AD
:10583000E2008091D80080628093D80019BC85E096
:105840008093B0030E943B288091E10084FF29C02F
:105850008091E20084FF25C080E189BD82E189BD9D
:1058600009B400FEFDCF8091D8008F7D8093D800D1
:105870008091E1008F7E8093E1008091E2008F7E35
:105880008093E2008091E20081608093E200809149
:10589000AC03882309F449C084E08093B0030E94DC
:1058A0003C288091E10083FF29C08091E20083FFC2
:1058B00025C08091E100877F8093E10082E08093A2
:1058C000B0031092AC038091E1008E7F8093E100E1
:1058D0008091E2008E7F8093E2008091E2008061FF
:1058E0008093E20042E060E080E00E94CD2A809157
:1058F000F00088608093F0000E943A28FF91EF91B9
:10590000BF91AF919F918F917F916F915F914F91D7
:105910003F912F910F900FBE0F901F90189519BCBB
:105920001092B0030E94372872CF8091E30087FD68
:1059300002C081E0B2CF83E0B0CF1F920F920FB6CA
:105940000F9211242F933F934F935F936F937F9305
:105950008F939F93AF93BF93CF93EF93FF93C09198
:10596000E900CF708091EC001092E9008091F00086
:10597000877F8093F00078940E94D92C1092E900E0
:105980008091F00088608093F000C093E900FF915F
:10599000EF91CF91BF91AF919F918F917F916F9137
:1059A0005F914F913F912F910F900FBE0F901F90DD
:1059B00018951F93CF93DF93CDB7DEB7AA970FB695
:1059C000F894DEBF0FBECDBFE1EBF3E08091F100B4
:1059D000819323E0E93BF207C9F70E9452288091A6
:1059E000E80083FF44C08091B1039091B2039A30E4
:1059F00008F03DC0E92FF0E0E050F34D0C94792E13
:105A00000A2D302D372D302D372D8E2DB02D372DE1
:105A1000072E142E803889F0823849F58091B5031D
:105A20008F70873020F58093E9008091EB0085FB33
:105A3000882780F91092E90006C08091AD0390910B
:105A4000AE03911182609091E800977F9093E800F7
:105A50008093F1001092F1008091E8008E772DC0C4
:105A6000282F2D7F21F48823D1F0823059F18091A5
:105A7000E80083FF0AC08091E800877F8093E800F8
:105A80008091EB0080628093EB00AA960FB6F894A9
:105A9000DEBF0FBECDBFDF91CF911F9108958091E2
:105AA000B303813021F7933009F080E08093AE0397
:105AB0001092E9008091E800877F8093E8000E94BF
:105AC000012BD5CF8091B3038111F2CF8091B50323
:105AD0008F702FEF280F263050F68093E900209129
