:100000000C9437040C947E040C947E040C947E04AF
:100010000C947E040C947E040C947E040C947E0458
:100020000C947E040C947E040C94F32A0C94C62B3E
:100030000C9476210C947E040C947E040C947E0423
:100040000C947E040C947E040C947E040C947E0428
:100050000C947E040C94DE210C947E040C947E049B
:100060000C947E040C947E040C947E040C947E0408
:100070000C947E040C947E040C947E040C947E04F8
:100080000C947E040C947E040C947E040C947E04E8
:100090000C947E040C947E040C947E040C947E04D8
:1000A0000C947E040C947E040C947E040000F0A159
:1000B00000002B002961E100055100000000140040
:1000C00004001D00E200110000001A0016001B00D1
:1000D000015131000000080007000600E3002C0079
:1000E000000015000900190091434A0000001700A4
:1000F0000A000500000050000000000000000000A1
:1001000000004F00008000000000000000005000D0
:1001100000001C000B00110000004F000000180040
:100120000D0010009044520000000C000E0036003C
:1001300050002C41000012000F00370051002E002B
:1001400000001300330038005200510000002A0064
:1001500028422D624F000000010001000100010053
:10016000010000003A0001004A0001000100010006
:100170003B00010001000100010001003C004D00B6
:100180004C000100010001003D0001004E00010093
:10019000010001003E00010001004B0000000100D1
:1001A0000100010000000100000001000100010049
:1001B00000004B00000001003F0001005000010062
:1001C0000000010040000100510001000100010099
:1001D0004100010052000100010001004200010045
:1001E0004F00010001000100430001000100010077
:1001F0000100010044002A00450001000100000048
:10020000005C01000100010001000000010001008C
:10021000010001000100010001000100F2000100E5
:10022000010001000100F000F1000100F5000100F3
:1002300001000100F3000100F400010001000100D1
:1002400001000100000001000100010000000100A8
:100250000000010001000100000001000000010099
:1002600001000100AC0001000000010001000100DC
:10027000AA0001000100010001000100A900AC007A
:100280000100010001000100AB00A8000100010015
:100290000100AE00010001000100010001000100A9
:1002A000010001000100000000000000000000004B
:1002B0000000000000001E023502000000000000E7
:1002C00000001F02310200000000000000002002B8
:1002D0002E0000000000010000002102310000009B
:1002E00000000000000022023500000000000000B5
:1002F00000000000000000000000000000000000FE
:10030000000000000000000000002302340034025E
:1003100000000000000024022F022E020000000056
:10032000000026022F003602000001000000270214
:1003300030003702000000000000250230023802C1
:10034000000000000000010001002D02000000007C
:100350000000000000000000005C000000001E0023
:10036000000000000000000000001F00000000006E
:10037000000000000000200000000000000001005C
:10038000000021000000000000000000000022002A
:10039000000000000000000000000000000000005D
:1003A000000000000000000000000000000000004D
:1003B00000002300000000000000000000002400F6
:1003C0000000000000000000000025000000010007
:1003D00000000100000026000000010000000000F5
:1003E00000002700010001000000000000000100E3
:1003F00001000100000000000000000000000000FB
:1004000000000000000000003A00000000000000B2
:10041000000000003B0000000000000000000000A1
:100420003C00000000000000000000003D00000053
:1004300000000000000000003E000000000000007E
:1004400000000000000000000000000000000000AC
:100450000000000000000000000000003F0000005D
:10046000000000000000000040000000000000004C
:10047000000000004100000000000000000000003B
:1004800042000000000000000000000043000000E7
:1004900000000000000000004400450000000000D3
:1004A00063F301006801F000B40078005A007F3F58
:1004B0001F643214643214783C1E1E140A050000B6
:1004C00000000101010202030405050607090A0BE9
:1004D0000C0E0F1112141517191B1D1F212325288F
:1004E0002A2C2F313436393B3E414346494C4F523A
:1004F00055585A5D6164676A6D707376797C7F8345
:1005000086898C8F9295989B9EA2A5A7AAADB0B321
:10051000B6B9BCBEC1C4C6C9CBCED0D3D5D7DADC40
:10052000DEE0E2E4E6E8EAEBEDEEF0F1F3F4F5F616
:10053000F8F9FAFAFBFCFDFDFEFEFEFFFFFFFFFFF0
:10054000FFFFFEFEFEFDFDFCFBFAFAF9F8F6F5F4FE
:10055000F3F1F0EEEDEBEAE8E6E4E2E0DEDCDAD738
:10056000D5D3D0CECBC9C6C4C1BEBCB9B6B3B0AD6D
:10057000AAA7A5A29E9B9895928F8C898683807C42
:10058000797673706D6A6764615D5A5855524F4C45
:10059000494643413E3B393634312F2C2A28252306
:1005A000211F1D1B1917151412110F0E0C0B0A0910
:1005B0000706050504030202010101000000000016
:1005C000000000010101010101010101020202021A
:1005D00002020202020303030303030303040404ED
:1005E00004040405050505050606060606070707B3
:1005F00007080808080909090A0A0A0A0B0B0B0C64
:100600000C0C0D0D0D0E0E0F0F0F101011111112FD
:100610001213131414151516161717181819191A7A
:100620001A1B1C1C1D1D1E1F1F20202122222324DB
:10063000252526272728292A2B2B2C2D2E2F2F3016
:10064000313233343536363738393A3B3C3D3E3F2C
:100650004041424344464748494A4B4C4D4F505114
:100660005253555657585A5B5C5E5F6062636466CE
:1006700067696A6C6D6E707173747678797B7C7E55
:100680008081838486888A8B8D8F91929496989AA4
:100690009B9D9FA1A3A5A7A9ABADAFB1B3B5B7B9BA
:1006A000BBBDBFC1C4C6C8CACCCFD1D3D6D8DADC93
:1006B000DFE1E4E6E8EBEDF0F2F5F7FAFCFF160314
:1006C0004500720067006F0044006F007800200052
:1006D00045005A00000016034500720067006F00D5
:1006E00044006F007800200045005A000000040319
:1006F000090409026D00040100A0FA0904000001C8
:1007000003010100092111010001224000070581B8
:100710000308000A09040100010301020009211174
:10072000010001224D000705820308000A090402A6
:100730000001030000000921110100012236000719
:1007400005830308000A09040300010300000009EF
:100750002111010001223900070584032000011244
:1007600001100100000008EDFE0713010001020066
:100770000105010906A101050719E029E715002572
:10078000019508750181020508190129059505756E
:100790000191029501750391010507190029F715CB
:1007A00000250195F875018102C005010980A101AC
:1007B00085021601002603001A81002A83007510A5
:1007C00095018100C0050C0901A1018503160100F6
:1007D000269C021A01002A9C02751095018100C016
:1007E00005010902A1010901A10005091901290555
:1007F000150025019505750181029501750381019B
:100800000501093009311581257F9502750881069A
:1008100009381581257F950175088106050C0A3870
:10082000021581257F950175088106C0C005010963
:1008300006A101050719E029E715002501950875AE
:1008400001810295017508810105081901290595A5
:10085000057501910295017503910105071900299C
:10086000FF150026FF00950675088100C0001124C1
:100870001FBECFEFDAE0DEBFCDBF04B603FE27C058
:100880008091B9039091BA03A091BB03B091BC03CE
:100890008730904BA740B04BD1F41092B90310921F
:1008A000BA031092BB031092BC0314BE84B7877FB7
:1008B00084BF0FB6F894A8958091600088618093FA
:1008C0006000109260000FBEE0E0FFE3099511E0C8
:1008D000A0E0B1E0E4EEFBE502C005900D92AC3D76
:1008E000B107D9F723E0ACEDB1E001C01D92A93BFF
:1008F000B207E1F70E9428280C94F02D0C94000018
:100900001092B9008AE08093B800089594EA909319
:10091000BC009091BC0097FFFCCF9091B900987FEC
:10092000983021F0903111F081E008958093BB0060
:1009300084E88093BC008091BC0087FFFCCF80914D
:10094000B900887F883111F0803471F780E0089514
:1009500084E98093BC008091BC0084FDFCCF0895A5
:100960008093BB0084E88093BC008091BC0087FF2B
:10097000FCCF9091B900987F81E0983209F480E033
:10098000089584E88093BC008091BC0087FFFCCF71
:100990008091BB00089580B38C7080BB81B3836F5E
:1009A00081BB089580910001811115C080E40E94EF
:1009B00086048093000181110CC082E10E94B00482
:1009C00080930001811105C08FEF0E94B0048093D5
:1009D00000010E94A80484B1807F84B985B1807F22
:1009E00085B98AB1837F8AB98BB1837F8BB93E98F1
:1009F000469808950C9423070E94C3068093000133
:100A00000E94D2040E94CB04E1E3F2E08DED91E07C
:100A10001192DC0126E01D922150E9F7069622E0B2
:100A2000EF33F207A9F70C94020A0E94C3068093E1
:100A300000010E94D2040E94CB04E1E3F2E0119293
:100A400082E0EF33F807D9F7089596E0899FF00127
:100A50001124E352FE4F30E020E080E041E050E01E
:100A60009191992351F0DF01119791509C932F5F41
:100A70003F4F26303105A1F70895BA01022E01C07B
:100A8000660F0A94EAF7862BF2CF96E0699FB001D1
:100A9000112430E020E090E04FE0FC01022E02C083
:100AA000F595E7950A94E2F7E0FF06C0F901E60F35
:100AB000F71FE352FE4F40832F5F3F4F2630310533
:100AC00061F70895BF92CF92DF92EF92FF920F935A
:100AD0001F93CF93DF9380910001882379F0809159
:100AE000DC018F5F8093DC01811108C00E94C30686
:100AF00080930001811102C00E946D0681E3E82EFF
:100B000082E0F82E10E000E0CC24C394D12CD02F4A
:100B1000073008F06CC08091000181111BC080E497
:100B20000E94860480930001811112C082E10E941C
:100B3000B0048093000181110BC0C601002E01C0DA
:100B4000880F0A94EAF780950E94B0048093000110
:100B50000E94A80480EA8A95F1F78D2F0E9425054E
:100B6000B82ED73008F063C0C0910001C11181C018
:100B700080E40E94860480930001811112C083E109
:100B80000E94B0048093000181110BC081E40E9497
:100B9000860480930001811104C00E94C104C82F03
:100BA000C0950E94A804F70181917F019B2D90952B
:100BB0009823CB21C92B6D2F8C270E944505F70167
:100BC0003197C0830E94D2040F5F1F4F0E30110572
:100BD00009F09DCF0E94040A81E0DF91CF911F911F
:100BE0000F91FF90EF90DF90CF90BF9008950A3063
:100BF000B1F038F4083069F0093071F0209A289883
:100C0000A9CF0C3091F070F00D30C1F73E9A4698A4
:100C1000A1CF219A29989ECF229A2A989BCF239AD6
:100C20002B9898CF529A5B9895CF539AFCCFCFB11F
:100C3000C095C170799B13C080E0C82B7C9B11C00C
:100C400080E0C82B7D9B0FC080E0C82B7E9B0DC031
:100C500080E0C82B7F9B0BC080E0C82BA4CF82E034
:100C6000ECCF84E0EECF88E0F0CF80E1F2CF80E2FD
:100C7000F4CFC0E098CFE82FF0E0EF5CFD4F80812B
:100C800008950895259A2D9A0895269A2E9A0895E2
:100C9000279A2F9A089556985E98089525982D982A
:100CA000089526982E98089527982F9808950E94C1
:100CB0004B060E944E060E9451060C94540690E08A
:100CC000909389008093880090938B0080938A0092
:100CD00090938D0080938C0008950E9457068FEFAB
:100CE0000E945F060E9442062FEF80E792E02150AB
:100CF00080409040E1F700C000000E9445062FEFC1
:100D000080E792E0215080409040E1F700C0000071
:100D10000E9448062FEF80E792E0215080409040EB
:100D2000E1F700C000000E944E062FEF80E792E03E
:100D3000215080409040E1F700C000000E94510621
:100D40002FEF80E792E0215080409040E1F700C013
:100D500000000E9454060C94570689EA8093800094
:100D600089E08093810024982C983F988AB18F7CE9
:100D70008AB96E98479A8BB180638BB9769A0E9434
:100D80006D060C94220780E28093000180913F025F
:100D900081110EC00E94800481E080933F022FEFFA
:100DA00083ED90E3215080409040E1F700C00000C7
:100DB00080E40E9486048093000181112EC00E946D
:100DC000B00480930001811128C00E94B004809378
:100DD0000001811122C08FE30E94B00480930001C2
:100DE00081111BC00E94A80480E40E9486048093A5
:100DF0000001811112C08CE00E94B00480930001B8
:100E000081110BC00E94B00480930001811105C0C4
:100E10008FE30E94B004809300010E94A804809197
:100E200000010895611107C0FC018281882331F01F
:100E300085EE0E94C01590E080E0089585EE0E9446
:100E40008016F9CF0895CF9360910103709102034A
:100E500080910303909104030E942A20C82F0E94CE
:100E60004B060E944E060E9451060E945406C13055
:100E700021F0C23029F0CF910895CF910C94420611
:100E8000CF910C94450681E0089581E008950C947B
:100E900045070E94CE192FEF84E39CE0215080404B
:100EA0009040E1F700C000000C940422FF920F93E1
:100EB0001F93CF93DF938C01FC01C081D18180917E
:100EC0009002811157C08281882309F44EC0CE015F
:100ED0000E94071FF82E682FCE010E94AB1EBE0194
:100EE0008F2D0E94180AEC01B8010E944707882341
:100EF00009F413C1B801CE010E947A0C882309F4C9
:100F00000CC1B801CE010E94190D882309F405C156
:100F1000CA3CFCE5DF0709F430C108F06DC0C33CF2
:100F20009CE5D90709F40AC108F041C0C531FCE5C8
:100F3000DF0728F5C2308CE5D80708F085C1C11558
:100F40009CE5D90709F4E4C0C130DC4509F4ECC0E4
:100F500081E08093450280934602C801DF91CF91E2
:100F60001F910F91FF900C944307CE010E94DB1E4E
:100F7000F82EB5CFCE010E94071FBE01B2CFC531FA
:100F8000DC4531F70E94EE1FF8019281992309F4A4
:100F90002FC28A7A91E009F490E090934002811187
:100FA00025C289E20E94771F0E94BB1FD1CFC63C99
:100FB0008CE5D80709F4D0C080F4C43CECE5DE072A
:100FC00009F4C3C0C53CDC4519F6F80182818823C9
:100FD00009F4A3C00E941610A0C0F8018281C83C89
:100FE000FCE5DF0709F4C4C008F4BDC0882309F498
:100FF00094C00E94711091C0C03DECE5DE0709F479
:10100000F6C008F044C0CD3C8CE5D80709F4C4C054
:10101000F8F4CB3CECE5DE0709F4B6C0CC3CDC458B
:1010200009F096CFF8018281882309F476C00E94E6
:10103000EB0E623071058105910540F00E94EB0EC8
:10104000653071058105910508F483C082E0A1C077
:10105000CE3C8CE5D80709F4B4C0CF3CDC4509F0A0
:1010600077CFF8018281882309F457C00E94EB0EE4
:101070006F3071058105910540F00E94EB0E6431DF
:1010800071058105910508F464C08FE082C0C33DFD
:10109000ECE5DE0709F45CC1F0F4C13D8CE5D8074E
:1010A00009F4BBC0C23DDC4509F052CFF801828192
:1010B000882399F10E94EB0E693171058105910534
:1010C00040F00E94EB0E623271058105910508F433
:1010D00040C089E15EC0C73DECE5DE0709F4A4C06D
:1010E000C83DFCE5DF0709F4A8C0C43DDC4509F0B4
:1010F0002FCFF8018281882309F45AC11092460249
:101100000E94A821909344028093430280E22DC163
:10111000F801828181110E94490780E0DF91CF911F
:101120001F910F91FF900895F80182818823A9F300
:1011300080912E03816080932E03EFCFF80182818E
:10114000882359F30E942611E8CFF8018281882371
:1011500021F30E941C11E1CFF80182818823E9F27A
:101160000E942E10DACF8823C1F20E944D10D5CFF5
:10117000882399F20E945F10D0CFF80182818823E2
:1011800061F20E948910C9CFF8018281882329F277
:1011900081E00E94A110C1CFF8018281882309F467
:1011A000BCCF0E94EB0E663071058105910538F0C9
:1011B0000E94EB0E683071058105910550F286E0C2
:1011C000E8CFF8018281882309F4A7CF0E94EB0EB3
:1011D000693071058105910540F00E94EB0E6E307B
:1011E00071058105910508F4B4CF89E0D2CFF801EB
:1011F0008281882309F491CF0E94EB0E653171053D
:101200008105910540F00E94EB0E67317105810563
:10121000910508F49ECF85E1BCCFF8018281882337
:1012200009F47BCF88E1B5CFF8018281882309F4E6
:1012300074CF80E00E94BB2870CFF80182818823A0
:1012400009F46BCF82E0F6CFF8018281882309F49C
:1012500084CE0E949820811102C00E9477200E94B3
:10126000AB2090E09093AB038093AA03FE01E35080
:10127000FC458091AA038160E231F105C8F4ED5B81
:10128000F64F0C94A22D55096109650969096D098C
:101290007109750979097D098109850989098D090E
:1012A0009109950999099D09A1098091AA03826074
:1012B0008093AA038091AA030E94AF200E94CE19B6
:1012C0002CCF8091AA038460F3CF8091AA03886019
:1012D000EFCF8091AA038061EBCF8091AA03806257
:1012E000E7CF8091AA038064E3CF8091AA0380684E
:1012F000DFCF8091AA038460EACF8091AA038E7F1A
:10130000D7CF8091AA038D7FD3CF8091AA038B7F03
:10131000CFCF8091AA03877FCBCF8091AA038F7E06
:10132000C7CF8091AA038F7DC3CF8091AA038F7B03
:10133000BFCF8091AA038F77BBCF8091AA038B7F09
:10134000EACF9091AA03892F97FB87F98058B0CFF5
:10135000F8018281882361F0109245020E94A82141
:10136000909342028093410282E00E94CF16D5CE34
:101370000E94EE1F85FF05C081E0809345028093A7
:1013800046028091450281110FC0809141029091E7
:1013900042020E94B421883C910530F486E20E940A
:1013A000C01586E20E94801682E00E94D616B5CE55
:1013B0000E94EE1F81FF05C081E08093450280936B
:1013C00046028091460281110FC0809143029091A4
:1013D00044020E94B421883C910530F487E20E94C7
:1013E000C01587E20E94801680E2DFCF85E3DACD68
:1013F00080914002811104C089E20E947E1FD4CDF9
:1014000085E3FBCF0C94AD060C94FA04882339F0E5
:1014100090E08A3010F44D9608950697089587E27B
:1014200090E0089508950C94120A0C94130A0895FC
:10143000972F70E026E0929F600D711D1124FB0133
:1014400094E5899FE00DF11D1124EE0FFF1FE0557B
:10145000FF4F859194910895FC01EE0FFF1FE45515
:10146000FF4F859194910895CF93DF930E94180ABE
:101470000E94CC0BEC018115904408F094C0C1157A
:1014800080E3D80708F005C1C03ED10508F071C05F
:10149000C03CD10508F0ECC0C83AD10580F4C53A8B
:1014A000D10508F0E9C0C130D10509F46EC020F0C3
:1014B000C430D10508F069C0D0E0C0E066C0CD3BC3
:1014C000D105D0F7C83AD10509F427C1C93AD105E9
:1014D00009F426C1CA3AD10509F425C1CB3AD10590
:1014E00009F424C1CC3AD10509F423C1CB3BD10581
:1014F00009F422C1CC3BD10509F421C1CD3AD10573
:1015000009F420C1C03BD10509F41FC1CE3AD10571
:1015100009F41EC1CF3AD10509F41DC1C13BD10563
:1015200009F41CC1C23BD10509F41BC1C33BD10561
:1015300009F41AC1C43BD10509F419C1C53BD10551
:1015400009F418C1C63BD10509F417C1C73BD10541
:1015500009F416C1C83BD10509F415C1C93BD10531
:1015600009F414C1CA3BD10509F013C1CAE2D6E49B
:101570000CC0CF3FD10509F060F4C03FD10508F0A1
:1015800086C0C83ED10508F097CFCE01DF91CF913C
:101590000895CE019F70C11520E2D207B0F30E94DA
:1015A0002C0AEC01F2CFC11584E5D807A0F5C115CE
:1015B00023E5D20708F08EC0C11581E5D80708F5EC
:1015C000C11520E5D20708F46EC0CE0154E096950F
:1015D00087955A95E1F783709C2F937021E030E056
:1015E00002C0220F331F9A95E2F73C68382BC6954C
:1015F000C695C37080E2C89FE0011124C22BD32B93
:10160000C4CFC11582E5D80708F050C0DC2FCC2725
:10161000C16FD06ABACFC11526E5D20758F49C2F06
:101620008827C115D54508F469C0EC01CC27DF71C6
:10163000D062ABCFC11588E5D80708F43DCFC115FE
:1016400029E5D20708F45EC0CE019056811590427C
:1016500008F032CF8D2F8F710E944C0CDD27D062A5
:1016600090E0982F882788279F71C82BD92B8DCF82
:10167000CE01805C910993CFC53AD10509F447C0EA
:10168000C63AD10509F446C0C3E8D0E47ECFD065A0
:101690007CCFCE019927D3FF03C0EC01D86C75CF66
:1016A000EC01D06C72CFDF70D06A6FCFCE01837047
:1016B000992721E030E002C0220F331F8A95E2F71C
:1016C000C695C69580E2C89FE0011124C22BD32B9A
:1016D000DC685BCFCE018370992721E030E002C047
:1016E000220F331F8A95E2F7C695C69580E2C89F00
:1016F000E0011124C22BD32BDA6847CFEC01C46F71
:10170000D06A43CFDC2FCC27C06FD06A3ECFC1E870
:10171000D0E43BCFC2E8D0E438CFC2EED4E435CF3A
:10172000C9EED4E432CFCAEED4E42FCFC5EBD4E473
:101730002CCFC6EBD4E429CFC3EBD4E426CFC4EB43
:10174000D4E423CFC7EBD4E420CFCCECD4E41DCF3A
:10175000CDECD4E41ACFC3E8D5E417CFCAE8D5E47A
:1017600014CFC2E9D5E411CFC4E9D5E40ECFC1E26C
:10177000D6E40BCFC3E2D6E408CFC4E2D6E405CF6B
:10178000C5E2D6E402CFC6E2D6E4FFCEC7E2D6E495
:10179000FCCEC0E0D4E4F9CE8238910549F1B0F432
:1017A0008133910509F45CC048F48932910509F44C
:1017B00052C08A32910509F458C0089585339105C5
:1017C00009F444C08933910599F00895833E910549
:1017D00031F138F4803E910591F0823E9105B1F0EF
:1017E0000895863E910511F1873E910541F10895D6
:1017F0002091AA032370C9F080EE90E00895209113
:10180000AA0320FF12C089E390E008952091AA0363
:1018100022FF0BC024FF2EC090E080E008952091AD
:10182000AA0322FD2AC024FDF7CF08952091AA0320
:1018300023FFFBCF24FDF0CF87EE90E008952091A9
:10184000AA0323FFF0CF86EE90E008952091AA032B
:1018500025FD16C008952091AA0325FD14C0089502
:101860002091AA0326FD12C008952091AA0326FD07
:1018700010C0089583EE90E0089582EE90E0089500
:1018800089E290E0089585E390E008958AE290E08F
:10189000089581E390E0C9CFCF93C82F0E94AB2079
:1018A000282F30E03093AB032093AA0382FF06C0B9
:1018B0009C2F9871983079F4C77FC46083FF06C06D
:1018C0009C2F9871983171F4C77EC46184FDC77EE6
:1018D0008C2FCF9108959C2F9471943079F7CB7F02
:1018E000C860ECCF9C2F9471943181F7CB7EC86196
:1018F000EDCF08950F931F93CF938C01FB0182814D
:10190000811106C0C1E08C2FCF911F910F910895D6
:10191000C0915402C11125C006311C4599F70E949F
:10192000790C81E0809354020E94A8219093530285
:10193000809352021092470210924902109248027C
:1019400010924B0210924A0210924D0210924C02D9
:1019500010924F0210924E021092510210925002B9
:10196000D2CF80915202909153020E94B421883CC0
:10197000910540F680914702E82FF0E0EE0FFF1F3F
:10198000E85BFD4F118300838F5F80934702C0E0C7
:10199000BACF8F929F92AF92BF92EF92FF920F9326
:1019A0001F93CF93DF934B015C0107E010E08CE1C4
:1019B000E82EF12CD1E0D501C4010E2C04C0B6955F
:1019C000A795979587950A94D2F7C82FCF7021F5E0
:1019D000D1110AC080E00E94060A0E94C01580E072
:1019E0000E94060A0E9480160150110984E0E81A3C
:1019F000F1080F3F100759F4DF91CF911F910F911C
:101A0000FF90EF90BF90AF909F908F90089504301B
:101A100011058CF6D0E0CFCF8C2F0E94060A0E94D1
:101A2000C0158C2F0E94060A0E948016D0E0DCCFE1
:101A300008958F929F92AF92BF92CF92DF92EF92D2
:101A4000FF92CF93DF93EC017B010E948B0DD7FFB8
:101A500049C0F7019281992309F444C0FE01EE0FB9
:101A6000FF1FEE0FFF1FE056FB4F85909590A5904E
:101A7000B49075016401F1E0EF1AF108C114D104CA
:101A800090E1E906F10410F5882311F08530B1F5F5
:101A90000E948E0DC701B6012AE09695879577952D
:101AA00067952A95D1F778528F4F9F4F0E94C90CA6
:101AB000E3E0DE22EE24FF24C701B60174528F4F0B
:101AC0009F4F0E94C90C0E940B0E0CC08114910400
:101AD000F1E1AF06B10490F0882311F08530A1F454
:101AE0000E94180D81E0DF91CF91FF90EF90DF9081
:101AF000CF90BF90AF909F908F90089581149104E4
:101B000090E1A906B10410F0813051F30E948E0DCE
:101B1000C501B401D6CF809155020895E09103012B
:101B2000F0910401808180935F0381FF03C081EE07
:101B30000E94801680915F0385FF03C085EE0E949E
:101B4000801680915F0380FF03C080EE0E948016A4
:101B500080915F0384FF03C084EE0E948016809111
:101B60005F0382FF03C082EE0E94801680915F03B4
:101B700086FF03C086EE0E94801680915F0383FF7C
:101B800003C083EE0E94801680915F0387FF03C02D
:101B900087EE0E94801680915502823049F158F4F8
:101BA000882379F0813089F08FE39CE90197F1F780
:101BB00000C000000895843019F18530A9F786EE41
:101BC00001C082EE0E94C015EFCF80EE0E94C015CA
:101BD00081EE0E94C01588E10E94C01588E10E9434
:101BE000801681EE0E94801680EE0E948016DCCF67
:101BF00082EE0E94C01587E50E94C01587E5F5CFEB
:101C000086EE0E94C01586EE0E94801688E10E9432
:101C1000C01588E1EACF80915502813009F443C0B4
:101C2000E0F18230D1F18530E1F180915F0381FFF5
:101C300003C081EE0E94C01580915F0385FF03C041
:101C400085EE0E94C01580915F0380FF03C080EE87
:101C50000E94C01580915F0384FF03C084EE0E9440
:101C6000C01580915F0382FF03C082EE0E94C01501
:101C700080915F0386FF03C086EE0E94C0158091AD
:101C80005F0383FF03C083EE0E94C01580915F0352
:101C900087FF0EC087EE0C94C01582EE0E9480165E
:101CA000C4CF86EEFBCF8CE20E94C0158CE2F6CF4B
:101CB0000895CF92DF92EF92FF920F931F93CF93ED
:101CC000DF93E901662309F466C0E42EF12CEFEFFF
:101CD000F0E0E61BF109EE9D8001EF9D100DFE9DE9
:101CE000100D1124212FE12FFF27EE1AFF0A5CE3CC
:101CF000C52ED12CB6010E947A2DFB01BC01E69EB7
:101D0000C001E79E900DF69E900D1124B6010E9431
:101D10007A2DE230F10589F168F4812F262F210F09
:101D2000309781F0242F461B319761F080E020E04E
:101D300040E008C0E430F10551F128F1842F861B02
:101D40003597A1F7E42FF0E0E254FA4F4491E22FE7
:101D5000F0E0E254FA4F9491E82FF0E0E254FA4FA9
:101D6000E49149839883EA83DF91CF911F910F918A
:101D7000FF90EF90DF90CF900895862F810FE42F92
:101D8000412F2E2FDFCFE42FE61B842FF9CF842F96
:101D9000462F410FD7CF842F242FD4CF88E090E057
:101DA0000C94B02DAB01BC0188E090E00C94CE2DDA
:101DB000E0E6F3E083E08083109261038FEF82839B
:101DC00083836091600370916103809162039091BD
:101DD00063030C94D20E6091600360FF06C06695A9
:101DE0006F7370E090E080E0089560E070E0CB01F8
:101DF000089580916003E8E6F3E080FF06C06FE09D
:101E000070E088E693E00C9405141182108212822F
:101E1000349683E0E43AF807C1F7F1CFE8E6F3E05F
:101E2000818360834283349693E0E43AF907C1F7F3
:101E30000C94F90EEF92FF920F931F93CF93DF93C1
:101E400000D000D0CDB7DEB7182FE92EF62E042F24
:101E50008091600390916103A0916203B09163034C
:101E60008093640390936503A0936603B093670324
:101E70008091600380FF1FC09E012F5F3F4F812F25
:101E80009E2D0E94590E8091640310FB87F9809368
:101E900064031695809165038078812BE0FA87F9B9
:101EA00080936503F0926603009367034B81698119
:101EB0008A810E940E0F0F900F900F900F90DF916C
:101EC000CF911F910F91FF90EF9008956F927F92A5
:101ED0008F929F92AF92BF92CF92DF92EF92FF923A
:101EE0000F931F93CF93DF93EC01662E742E809196
:101EF000600380FF8CC0982F9E77923079F5CE01D9
:101F00000E941A0F809160039C2FC0FB87F9809379
:101F100060039695809161038078892BD0FB87F9C7
:101F20008093610360926203709263036091600327
:101F3000709161038091620390916303DF91CF916F
:101F40001F910F91FF90EF90DF90CF90BF90AF90D7
:101F50009F908F907F906F900C94D20EE82FE69513
:101F6000EF739EE39E0F9F73943018F47090630399
:101F7000C9CF9AE39E0F9F73993070F4881F88270A
:101F8000881F90916103292F220FC22FC82B97FB26
:101F9000992790F9D92FB6CF87E28E0F8F738A30A9
:101FA00008F0B0CFE951FF0B2FEFE0FF21E0EE7F0B
:101FB000EC55FB4F859194916FE070E00E947A2D73
:101FC00026035001279FB00C11247E0188E9E81AEE
:101FD0008EEFF80A08E613E084EAC82E83E0D82ED4
:101FE00098E6892E99249394C701B4010E947A2D12
:101FF0009801472D662D0E94590EEA0CFB1C0C5FC0
:102000001F4FC016D10681F70E94F90E7BCFDF91DA
:10201000CF911F910F91FF90EF90DF90CF90BF90E5
:10202000AF909F908F907F906F900895E0E6F3E0DF
:102030002081221F2227221F30916103432F440F4A
:10204000842F822B37FB992790F90C9668E671E074
:102050000E948E2D438162810C94660F2091600353
:10206000221F2227221F30916103432F440F842F08
:10207000822B37FB992790F98C30910540F4845AD4
:102080009E4F40916303609162030C94660F0C971E
:1020900068E671E00E948E2DF4CFE0E6F3E08081E7
:1020A000881F8827881F90916103292F220F97FB93
:1020B000992790F943816FEF822B0C94660FE0E62D
:1020C000F3E08081881F8827881F90916103292F62
:1020D000220F97FB992790F9438160E0822B0C94A3
:1020E000660F40916303443F90F4445F8091600326
:1020F000881F8827881F90916103292F220F97FB43
:10210000992790F960916203822B0C94660F4FEF30
:10211000EDCF409163034C3090F04C5080916003C0
:10212000881F8827881F90916103292F220F97FB12
:10213000992790F960916203822B0C94660F40E01E
:10214000EDCF9091600390FF42C09178811126C03D
:10215000926090936003609160037091610380913D
:102160006203909163030E94D20E80916003982FC6
:102170009E779230D9F410926B02881F8827881FAF
:1021800090916103292F220F97FB992790F9409195
:10219000630360916203822B0C94660F833210F00C
:1021A0009464D7CF8F73880F982BD3CF982F9695A1
:1021B0009F732EE3290F2F73273120F491E0909322
:1021C0006B02DBCF995D9F739A30B8F6D4CF089538
:1021D00080912E03816080932E0381E080936C02B6
:1021E0000E949820811104C00E9477200E94D80E7E
:1021F0000E94CE0E6093600370936103809362032C
:10220000909363036E7761F40E94D80E0E94CE0E05
:102210006093600370936103809362039093630300
:1022200081E080936B028091600380FF04C08695FB
:102230008F730C94A11008958091600386958F731D
:102240008F5F833208F081E00C94A11090916003BD
:10225000892F8E7F90FF816080936003609160037F
:102260007091610380916203909163030E94D20E8A
:102270008091600380FF04C086958F730C94A11039
:1022800010926B022FEF80E792E021508040904047
:10229000E1F700C000000C94F90ECF93C82F809195
:1022A000690290916A020E94B421EC2FF0E0E6549A
:1022B000FB4FE491E817190609F010F50E94A821D8
:1022C00090936A0280936902E0916802F0E0E25420
:1022D000FB4F449180916003881F8827881F90914D
:1022E0006103292F220F97FB992790F960916203D0
:1022F000822B0E941A0F809168028F5F8093680280
:10230000CF910895CF93C82F809166029091670274
:102310000E94B421EC2FF0E0E954FB4FE491E81760
:10232000190609F0E8F40E94A821909367028093AF
:102330006602409163036091620380916402909110
:1023400065020E941A0F80916402909165020196C5
:1023500068E671E00E947A2D909365028093640292
:10236000CF910895CF92DF92FF920F931F93CF9357
:10237000DF93F82E80916202909163020E94B42153
:10238000EF2DE695F0E0EC54FB4FE491E8171906C9
:1023900009F0A8F50E94A82190936302809362023D
:1023A00008E613E0D0E0C0E088E6C82EDD24D39430
:1023B00080916002909161028C0F9D1FB6010E9476
:1023C0007A2D980140916303609162030E94590E37
:1023D00068960C5F1F4FC83681E0D80749F70E9406
:1023E000F90E8091600290916102F0FE10C001969A
:1023F000BE010E947A2D9093610280936002DF916A
:10240000CF911F910F91FF90DF90CF90089501978A
:10241000F2CFCF92DF92EF92FF920F931F93CF9361
:10242000DF93C82FFF24FA9480FD02C0FF24F394A9
:1024300080915E0290915F020E94B421C695EC2FBC
:10244000F0E0EF54FB4FE491E817190611F008F0A3
:1024500051C00E94A82190935F0280935E0208E61B
:1024600013E0D0E0C0E0F80111821082128294E003
:10247000C92ED12CE12C80915D028E0D87FD815FEC
:10248000082E000C990BC817D907E9F48091630353
:102490008C9DA0018D9D500D112455954795559506
:1024A000479580916003881F8827881F909161035A
:1024B000592F550F97FB992790F998016091620366
:1024C000852B0E94590EEF0CF1E0CF1AD10899F636
:1024D00021960C5F1F4FCF30D10529F60E94F90ECF
:1024E00080915D0291E0F91210C081110CC08EE064
:1024F00080935D02DF91CF911F910F91FF90EF903C
:10250000DF90CF9008958150F3CF90E00196BE0107
:102510000E948E2DEDCF0F931F93CF93DF93C82F83
:1025200080915B0290915C020E94B421EC2FF0E05C
:10253000E255FB4FE491E817190611F008F052C07C
:102540000E94A82190935C0280935B02C8E6D3E0CE
:10255000FE01118210821282349683E0E43AF80779
:10256000C1F710E000E080915A02082E000C990B90
:1025700008171907E4F180910201082E000C990B4D
:1025800080179107A4F180916003881F8827881F16
:1025900090916103592F550F97FB992790F99E0150
:1025A0004091630360916203852B0E94590E0F5F77
:1025B0001F4F24960F301105B1F60E94F90E80913D
:1025C000010190915A02980F90935A0220910201B2
:1025D000280F20930201121614F49E301CF08195EE
:1025E00080930101DF91CF911F910F91089519827E
:1025F00018821A82DCCFEF92FF920F931F93CF9332
:10260000DF9380915802909159020E94B421883E34
:102610009340C8F10E94A8219093590280935802D8
:10262000C0915602D09157022196C170DD27D093F8
:102630005702C093560288E6E82E83E0F82E10E099
:1026400008E7812F86958C0F9D2F911D817099270A
:1026500097014091630360916203FC010E9FC001EA
:102660000F9F900D11240E94590E1F5FF4E0EF0E92
:10267000F11C1F3031F7DF91CF911F910F91FF9027
:10268000EF900C94F90EDF91CF911F910F91FF9075
:10269000EF90089580916B02882391F190916003EF
:1026A000892F86958F732EE3280F2F73243018F40B
:1026B00082500C944D112AE3280F2F73233018F405
:1026C00086500C94821127E3280F2F73263018F4BC
:1026D00089500C94B21121E3280F2F73263018F47F
:1026E0008F500C9409122BE2280F2F73233018F40B
:1026F00085510C948B129E77903311F40C94FB123D
:1027000008958823B9F05198599A5098589A95E0AD
:102710009A95F1F70000509A589895E09A95F1F73C
:102720000000882311F0519A599885E08A95F1F7B5
:1027300000000895519A5998E8CF8BB18C7F8BB9DE
:102740005098589A5198599A85E08A95F1F7000067
:1027500008958AB18C7F8AB985E08A95F1F70000E7
:10276000519A599885E08A95F1F70000509A589847
:1027700085E08A95F1F7000008955098589A85E011
:102780008A95F1F700005198599A85E08A95F1F7FA
:1027900000000895CF93DF93D82FC8E08D2F807865
:1027A0000E948113DD0FC150C9F780E00E948113A0
:1027B00085E08A95F1F7000085E08A95F1F7000041
:1027C00080E0DF91CF9108953BB1242F2095232302
:1027D0003BB1432B3FB7F894FC01680F791FE61714
:1027E000F70711F43FBF0895819198E04BB90000BD
:1027F00000C087FF2BB9880F000000C000C000C0D8
:102800002BB900C09A9591F7EACFAF92BF92CF92C1
:10281000DF92EF92FF920F931F93CF93DF938C0180
:10282000EB01CFB6D090BC00F8948091BC008B7FB8
:102830008093BC000E949D130E94A91384E80E940B
:10284000CA13CC0FDD1FCC0FDD1F78015E01A00E77
:10285000B11EEA14FB04A9F40E94BD13CFBED092AE
:10286000BC00579A40E8BE01C801DF91CF911F918B
:102870000F91FF90EF90DF90CF90BF90AF900C94AE
:10288000E413F70181917F010E94CA13E2CF909374
:102890007202809371020895E0917102F0917202C8
:1028A000309721F00190F081E02D099480E00895A7
:1028B000E0917102F0917202309721F00280F38171
:1028C000E02D09940895E0917102F0917202309721
:1028D00021F00480F581E02D0994089520916F0284
:1028E000309170022817390771F09093700280932D
:1028F0006F02E0917102F0917202309721F0068030
:10290000F781E02D0994089520916D0230916E02B7
:102910002817390771F090936E0280936D02E09151
:102920007102F0917202309721F00084F185E02D60
:102930000994089508950C949A140E949F210E946E
:10294000FC040E9426220C94E810BF92CF92DF92E2
:10295000EF92FF920F931F93CF93DF93CDB7DEB724
:102960002A970FB6F894DEBF0FBECDBF0E94620556
:1029700084E7C82E82E0D82E10E000E0B02E802F31
:102980000E943B06E82EF601F1906F01F81609F45B
:102990005AC080912E0381FD0E94410690E080E0A4
:1029A000FE242F2D30E0482FB901082E02C0759566
:1029B00067950A94E2F760FF41C08E83BF8281E091
:1029C00090E06C0102C0CC0CDD1C4A95E2F72E2D84
:1029D00030E02C213D21232B09F480E088870E94E0
:1029E000A8218160782F9A8789874E815F816885C9
:1029F0008A850E948215F801EC58FD4F80818C2554
:102A000080830E94B9230E944C149091730289170D
:102A100089F10E944C14809373022A960FB6F894A1
:102A2000DEBF0FBECDBFDF91CF911F910F91FF9001
:102A3000EF90DF90CF90BF900C94150A01968630EE
:102A4000910509F0B0CF0F5F1F4F0E30110509F04F
:102A500095CF8FEF89838A831B820E94A821816092
:102A6000782F9D838C8349815A816B818D810E944F
:102A70008215C7CF2A960FB6F894DEBF0FBECDBF22
:102A8000DF91CF911F910F91FF90EF90DF90CF904A
:102A9000BF900895CF93DF93DC018C91682F70E095
:102AA00021E030E001C0220F8A95EAF711964C919F
:102AB000119750E0EA01CE57DD4F988112968C9124
:102AC00012978823C9F0809191028823C1F086E093
:102AD000849FF001859FF00D1124E60FF71FEE0F84
:102AE000FF1FEB5EFE4F408151814D935C93292B7C
:102AF0002883DF91CF910895892F8223E6CF2095F7
:102B00002923F6CFCF93DF93CDB7DEB72B970FB640
:102B1000F894DEBF0FBECDBF942F4F83252F58876B
:102B200069877A878B874A855B8581E0452B31F001
:102B30002F3F19F481E09F3F09F080E080FD04C041
:102B4000CE0107960E944A151E821D8285E0FE0175
:102B50003796DE01119601900D928A95E1F7498131
:102B60005A816B817C818D819E810E94801C2B9675
:102B70000FB6F894DEBF0FBECDBFDF91CF910895A1
:102B8000CF93C82F882309F4B9C0823879F40E9402
:102B90004C1481FDB3C089E30E94771F0E94BB1FC4
:102BA00089E30E947E1FCF910C94BB1F833859F498
:102BB0000E944C1480FDA2C083E50E94771F0E94F2
:102BC000BB1F83E5EECF843859F40E944C1482FD7C
:102BD00095C087E40E94771F0E94BB1F87E4E1CF66
:102BE0008CEF8C0F813A48F48C2F0E94CF258111F5
:102BF00085C08C2F0E94771FD6CF80E28C0F883043
:102C000048F4C77081E001C0880FCA95EAF70E94B6
:102C1000F11FC9CF8BE58C0F833068F481E890E019
:102C2000C53A31F083E890E0C63A11F482E890E0CA
:102C3000CF910C946E1488E58C0F853108F05EC03E
:102C400082EE90E0C83A09F456C089EE90E0C93AA5
:102C500009F451C08AEE90E0CA3A09F44CC085EB01
:102C600090E0CB3A09F447C086EB90E0CC3A09F407
:102C700042C083EB90E0CB3BF1F184EB90E0CC3BA6
:102C8000D1F187EB90E0CD3AB1F18CEC90E0C03B14
:102C900091F18DEC90E0CE3A71F183E891E0CF3A7A
:102CA00051F18AE891E0C13B31F182E991E0C23B08
:102CB00011F184E991E0C33BF1F081E292E0C43B81
:102CC000D1F083E292E0C53BB1F084E292E0C63BF2
:102CD00091F085E292E0C73B71F086E292E0C83B5A
:102CE00051F087E292E0C93B31F090E080E0CA3BCE
:102CF00011F48AE292E0CF910C948414CF9108955C
:102D0000882309F44BC0823871F40E944C1481FF6F
:102D100045C089E30E94771F0E94BB1F89E30E9480
:102D20007E1F0C94BB1F833859F40E944C1480FF03
:102D300035C083E50E94771F0E94BB1F83E5EFCF5C
:102D4000843859F40E944C1482FF28C087E40E9402
:102D5000771F0E94BB1F87E4E2CF9CEF980F913A48
:102D6000F0F290E2980F983050F4877091E001C033
:102D7000990F8A95EAF7892F0E94F71FD2CF9BE51A
:102D8000980F933020F490E080E00C946E14885AF1
:102D9000853120F490E080E00C9484140895882319
:102DA00021F00E94F11F0C94BB1F0895882321F08D
:102DB0000E94F71F0C94BB1F08958F929F92AF92B1
:102DC000BF92DF92EF92FF920F931F93CF93DF9307
:102DD0007C01D62FC72FFC01058102950F7012814F
:102DE00011110E9410200E94B41FD82E882371F068
:102DF000112331F180E28D0F883010F182E00E94C2
:102E00009E1F0E94B41F91E0D82ED926BC2EB294EA
:102E10009FE0B922EB2DF0E0E05FF84E0C94A22D7C
:102E20002217221772177217AD17D5174419B41746
:102E30001718B417B218B2183B19B417B41764199D
:102E4000D12CE4CF0C2F0F70C07F11F00295007FC2
:102E50001123A9F0002359F080E28D0F883010F083
:102E6000D11109C0802F0E94F11F0E94BB1F8D2F1E
:102E70000E94C01514C0802F0E940220F6CF8D2F13
:102E80000E948016002359F080E28D0F883010F0E8
:102E9000D11124C0802F0E94F71F0E94BB1FDD208C
:102EA00009F42BC20E94911F80FD27C2F7011282F4
:102EB0000E948B1F0E940F1EC7010E9489190E9449
:102EC0008B1FDF91CF911F910F91FF90EF90DF90BB
:102ED000BF90AF909F908F900C94301E802F0E94D7
:102EE0000820DBCFFC2FFF70BF2EC07FC03219F04F
:102EF000B29480EFB822DD2339F0D130F9F01123FC
:102F000031F1002329F0B3CF112361F0011104C086
:102F10008B2D0E94CF16C3CF8B2D0130D1F70E948D
:102F20002420BDCF011106C00E9427208B2D0E94B6
:102F3000D616B5CF013009F4B2CFF6CF112321F068
:102F4000023008F0ACCFE4CF0111A9CFEFCF0023BE
:102F500069F38D2F0E948016A2CF8C2F86958695BF
:102F6000837079F08130B9F0E8E0BE1609F49BC0B7
:102F7000BE1608F494CF86EF8B0D823008F493C010
:102F80008ECF8D2F9C2F9370111102C090E080E0A6
:102F90000E946E1484CF8D2F9C2F9370111102C04C
:102FA00090E080E00E9484147ACF112309F1D53F8C
:102FB00099F0D63FB9F0D43F49F48091A4039091A1
:102FC000A50381609093A5038093A4038D2F0E9495
:102FD000C2220E94AE2363CF8091A4039091A503E7
:102FE0008260F0CF8091A4039091A5038460EACF22
:102FF000D53F89F0D63FA9F0D43F49F48091A4038E
:103000009091A5038E7F9093A5038093A4038D2FA9
:103010000E942A23DECF8091A4039091A5038D7F87
:10302000F2CF8091A4039091A5038B7FECCF8C2FDE
:10303000837009F04BC0111136C02D2F22952695B3
:103040002770220F220F6D2F6F70862E912CB12CBE
:10305000A12C022E04C0880C991CAA1CBB1C0A942B
:10306000D2F760E070E0CB01D4FF0FC06FE070E0FA
:1030700080E090E004C0660F771F881F991F2A9593
:10308000D2F76095709580959095C695C695C3705A
:10309000C23071F0A0F4682979298A299B29C130AE
:1030A00091F00E94C31D0E944C140E94150AF7CE95
:1030B000682979298A299B290E94D51DF4CF0E946D
:1030C000C31DC501B4010E94B11DEDCF869511232A
:1030D00011F08C2F8170882331F32D2F22952695A6
:1030E0002770220F220F6D2F6F70862E912CB12C1E
:1030F000A12C022E04C0880C991CAA1CBB1C0A948B
:10310000D2F760E070E0CB01D4FF0FC06FE070E059
:1031100080E090E004C0660F771F881F991F2A95F2
:10312000D2F76095709580959095C695C695C370B9
:10313000C23051F080F4682979298A299B29C1304D
:1031400071F00E94861EAFCF682979298A299B29B0
:103150000E94981EA8CF0E94861EC501B4010E943D
:10316000741EA1CFE0E2ED0FE53108F065C0F0E09C
:10317000E454F74E0C94A22DD118D118D118D118BF
:10318000D118D118D118D118D118D118D118D118F7
:10319000D118D118D118D118E218EF18F618FD1867
:1031A0000719DF708C2F8F71112331F00E940F1ED1
:1031B0008D2F0E94CF16D8CE0E94301E8D2F0E94D8
:1031C000D616D2CE112339F00111CECE8C2F8F71AD
:1031D0000E94531EC9CE023008F0C6CEF7CF8C2F06
:1031E0008F71112339F00E940F1EBECE8C2F8F716C
:1031F0001123C9F30E94301EB7CE112329F08C2F62
:103200008F710E94FA1DB0CE0E94F51DADCE112324
:1032100049F0CF718C2F0E940F1E63E08C2F0E940B
:10322000951FA2CE81E00E949E1F023008F49CCE22
:1032300082E00E949E1F98CE112349F0002321F0C6
:103240008D2F0E94C01590CE8C2F8F71CCCF002374
:1032500079F0D93349F42FEF87EE93E02150804085
:103260009040E1F700C000008D2F0E9480167CCEB8
:103270008C2F8F71BFCF4C2F4F706D2FC7010E94C5
:1032800012070E94291D0BCED23F39F160F4D03FC6
:1032900099F0D13F51F1002301F18D2F112351F10C
:1032A0000E94C01511C0D43FD9F0A8F0D53F99F7BE
:1032B00011110AC081E006C0112331F08091910202
:1032C00091E08927809391024C2F4F706D2FC70199
:1032D0000E94170A49CE81E0182710939102F4CF7B
:1032E0001111F2CF10929102EFCF0023B1F311111F
:1032F000EBCFE4CF0E948016E7CFDF91CF911F91F3
:103300000F91FF90EF90DF90BF90AF909F908F90C4
:1033100008950F931F93CF93DF93EC0198818981D8
:103320002B813C81232B39F08F3F19F481E09F3FA3
:1033300019F080E001C081E080FD17C0CE010E943D
:103340005607882391F0688179818A810E94531FF2
:103350008C010E94AA1E0E94AE1DB801CE01DF9111
:10336000CF911F910F910C94DD16DF91CF911F919A
:103370000F9108950E9410200E9421200E94851F15
:103380000E94BB1F0E9444240E94AE2390E080E074
:103390000E946E1490E080E00C9484140E94FF1F41
:1033A0000C94BA190E94491FE92FE295EF70E25080
:1033B000EE30E0F4F0E0E152F64E0C94A22DED195F
:1033C000ED19F619F619F819F619F619F619ED1995
:1033D000ED19FD19F619F619FD19803F19F020F4C1
:1033E000803E20F481E00895843FE1F380E0089579
:1033F000803EC0F3813FD1F7F5CF93FB882780F95A
:103400000895CF93DF9300D000D01F92CDB7DEB7E1
:103410000F900F900F900F900F90DF91CF91089524
:10342000CF93DF9300D000D000D0CDB7DEB7269683
:103430000FB6F894DEBF0FBECDBFDF91CF910895D8
:103440001F93CF93DF93C091920216E08091930275
:103450008C1304C0DF91CF911F910895D0E01C9F81
:10346000F0011D9FF00D1124EC56FD4F408151815C
:1034700062817381848195810E94101A2196C770A0
:10348000E5CF4091C4025091C5026091C60270918F
:10349000C7028091C8029091C9020C94101A1F9320
:1034A000CF93DF938091C902807FD1F48091C602CF
:1034B0008823B1F080919202D0919302B091C4021E
:1034C000C091C5024091C7025091C802A1E0BF3F20
:1034D00009F0A0E0BA016095709516E0D81304C019
:1034E000DF91CF911F91089521E04115510521F001
:1034F0002A2FCF3F09F020E090E020FD38C0189F30
:10350000F001199FF00D1124EC56FD4F21812C1371
:103510002EC020812B132BC02281211128C0238192
:1035200034812417350700F1241B350B283C310565
:10353000F0F42091C9022F7020612093C90226E087
:10354000289FF001299FF00D1124E756FD4F80813F
:103550008F708061808384EC92E00E948919DF91F2
:10356000CF911F910C94201A260F371FDFCF0196A1
:103570008770B4CFAF92BF92CF92DF92EF92FF925B
:103580000F931F93CF93DF93CDB7DEB761970FB63D
:10359000F894DEBF0FBECDBF8C0185E0F801DE01DF
:1035A0001D9601900D928A95E1F7D8014C911196E4
:1035B0005C9111971296EC903091C4026091C50213
:1035C0008091C7029091C80221E0009731F06F3FCF
:1035D00019F421E03F3F09F020E0B22FB170BB2E7B
:1035E00020FD80C1F801C380D480A090C602AA202B
:1035F00009F427C1C816D906D0F1D601A81BB90B0A
:10360000CD01FF24F394883C910508F0F12C8091C2
:10361000C902982F907FFF2009F4CAC0911187C07A
:10362000FE2C651329C0341327C0E11025C08F700C
:1036300080618093C9020E94411A84EC92E00E944A
:1036400089198091C902F80185838F2D61960FB683
:10365000F894DEBF0FBECDBFDF91CF911F910F91C8
:10366000FF90EF90DF90CF90BF90AF90089580953E
:1036700090958C0D9D1DC5CF81E0CD2831F05F3F29
:1036800019F481E04F3F09F080E080FD24C081E023
:103690008E25F82FF170DF2E80FF3FC080919202BF
:1036A0002091930236E0821318C04D875E878D8586
:1036B0009E850E94491F292F22952F70223008F1E4
:1036C000243030F59F7009F1D80115969C91907FB8
:1036D000E1F4FB2CBACF80E0DCCF90E0389FF00122
:1036E000399FF00D1124EC56FD4F6181561306C031
:1036F0006081461303C062816E110FC0019687700E
:10370000D2CF9F7011F0882321F3805E883008F3B8
:10371000C8010E948919BD2CDCCFEE2009F495CF99
:103720008091C90281608093C902F12C8ECF65130C
:1037300012C0341310C0E1100EC0F8018583C80117
:103740000E94891986E0F801A4ECB2E001900D9284
:103750008A95E1F741C04D875E878D859E850E94E1
:10376000D219882309F4C8C0EE2009F4C5C080919D
:10377000C902803270F02091C4023091C5023887AE
:103780002F831986DB86CA868C87CE0107960E9416
:10379000891986E0F801A4ECB2E001900D928A95B7
:1037A000E1F70E944F1A0E94411AFF24F3944DCF73
:1037B000911115C07C2DD98AC88A6E2D89890E94E5
:1037C000011A84EC92E00E94891986E0E4ECF2E0B0
:1037D000DF011D928A95E9F70E94411A36CF6513E1
:1037E00012C0341310C0E1100EC0F8018583C80167
:1037F0000E948919E4ECF2E086E0DF011D928A95CF
:10380000E9F7FA2C22CF4D875E878D859E850E9431
:10381000D219882309F470C0EE2009F46DC080919C
:10382000C902803208F4B5CF2091C4023091C5029C
:103830003A8329831B82DD82CC828E83CE0101965E
:10384000A6CFC816D90638F1F601E81BF90BCF014F
:10385000F12C883C910508F03DC0FE2CEE2009F4C7
:103860004BC0651326C0341324C08091C90280FD6B
:1038700017C0982F907FA1F0D80115968C931597BB
:10388000903F09F45CCF982F907F905F8F70892BC9
:1038900015968C9354CF809590958C0D9D1DD8CF07
:1038A00086E0F801A4ECB2E001900D928A95E1F770
:1038B000CCCE4D875E878D859E850E94D219811161
:1038C00068CF8091C90281608093C902C8010E94BB
:1038D0008919BBCE7C2DD98AC88A6E2D89890E9410
:1038E000011A73CFEE2041F04D875E878D859E854E
:1038F0000E94D21981114DCFC8010E94891955CF5C
:103900001F93CF93DF93CDB7DEB72C970FB6F89404
:10391000DEBF0FBECDBF4F83588769877A878B87FD
:103920009C87CE0107960E94BA1A882309F442C0E8
:103930009F8188852A853B85232B39F08F3F19F499
:1039400081E09F3F19F080E001C081E080FD08C068
:103950004F81588569857A858B859C850E94101AD0
:1039600016E08091920290919302891709F467C042
:10397000819FC00111248C569D4F0E94BA1A882342
:1039800009F45DC0E09192021E9FF0011124EC56F3
:10399000FD4F4081518162817381848195810E94B4
:1039A000101A8091920290E0019687709927809377
:1039B0009202D7CF86E0FE013796DE011196019084
:1039C0000D928A95E1F79F8188852A853B85232B77
:1039D00039F08F3F19F481E09F3F19F080E001C07A
:1039E00081E080FDBDCF2091930230E0C9010196B6
:1039F00087709927409192024817190699F096E02E
:103A0000929FD001939FB00D1124AC56BD4FFE0183
:103A1000319601900D929A95E1F7809393020E945E
:103A2000201A9ECF0E94CE191092930210929202F9
:103A300086E0E4ECF2E0DF011D928A95E9F72C962E
:103A40000FB6F894DEBF0FBECDBFDF91CF911F91AF
:103A50000895EF92FF920F931F93CF93DF938C0102
:103A6000892B81F0F12CEE24E394E8012196F801F2
:103A70008491843770F4843008F05FC08130B1F0F5
:103A80008230A1F1DF91CF911F910F91FF90EF90C4
:103A90000895853709F44CC008F43DC09CE7980FA1
:103AA000903780F78F770E94801649C00E5F1F4FB6
:103AB000FE01849190E2980F983060F48770FE2D9B
:103AC00001C0FF0F8A95EAF78F2F0E9413200E94F2
:103AD000BB1F02C00E94C0158F2D815030F2EFE94C
:103AE000FFE03197F1F700C00000F7CF0E5F1F4FE6
:103AF000FE01849190E2980F983050F48770FE2D6B
:103B000001C0FF0F8A95EAF78F2F0E941920DFCF9F
:103B10000E948016E1CF0E5F1F4FFE01C491C1507D
:103B2000D8F28FE99FE00197F1F700C00000F7CFCE
:103B30000E5F1F4FFE01F490CFCF0E94C0158E0183
:103B4000CBCF08950E94A11D6093050370930603D7
:103B500080930703909308030C94BA1908950C946A
:103B6000A21D0F931F93009105031091060320914E
:103B7000070330910803602B712B822B932B1F912D
:103B80000F910C94A21D0F931F93009105031091A8
:103B900006032091070330910803602371238223D9
:103BA00093231F910F910C94A21D0F931F930091CB
:103BB0000503109106032091070330910803602745
:103BC0007127822793271F910F910C94A21D0C94AB
:103BD000A11D0E94E71D609301037093020380936F
:103BE0000303909304030C94BA1960E070E0CB01D6
:103BF0000C94E91D0F931F9341E050E060E070E0EA
:103C00008A019B0104C0000F111F221F331F8A95D8
:103C1000D2F7C901B8011F910F910C94E91D0F93C0
:103C20001F9341E050E060E070E004C0440F551F76
:103C3000661F771F8A95D2F7809101039091020346
:103C4000A0910303B09104038A019B01082B192B57
:103C50002A2B3B2BC901B8011F910F910C94E91D30
:103C60000F931F9341E050E060E070E004C0440F08
:103C7000551F661F771F8A95D2F7CB01BA01609551
:103C80007095809590950091010310910203209109
:103C900003033091040360237123822393231F9134
:103CA0000F910C94E91D0F931F9341E050E060E0E9
:103CB00070E004C0440F551F661F771F8A95D2F726
:103CC0008091010390910203A0910303B09104033A
:103CD0008A019B01082719272A273B27C901B80118
:103CE0001F910F910C94E91D0F931F9300910103F5
:103CF000109102032091030330910403602B712B78
:103D0000822B932B1F910F910C94E91D0F931F93FE
:103D100000910103109102032091030330910403E9
:103D200060237123822393231F910F910C94E91D2B
:103D30000F931F930091010310910203209103033D
:103D40003091040360277127822793271F910F91D9
:103D50000C94E91D0895292F220F920F990F890FB6
:103D6000982F977071E001C0770F9A95EAF78695C2
:103D70008695869525E0829FC001112450E040E0A1
:103D8000A62FB0E0FC01E40FF51FE653FD4F608164
:103D90009D01042E02C0369527950A94E2F7217002
:103DA000219526272723262720834F5F5F4F453005
:103DB000510541F70895292F220F290F220F820F55
:103DC000982F977086958695869545E0849F9001FB
:103DD000112470E060E080E0F901E60FF71FE65380
:103DE000FD4F408150E0092E02C0569547950A9438
:103DF000E2F741705527062E01C0440F0A94EAF7F6
:103E0000842B6F5F7F4F6530710531F70895BF9246
:103E1000CF92DF92EF92FF920F931F93CF93DF9396
:103E20008C01C0900103D0900203E0900303F09056
:103E300004038091050390910603A0910703B091BC
:103E40000803C82AD92AEA2AFB2ACFE1D0E0BC2EEF
:103E5000D701C6010C2E04C0B695A79597958795F6
:103E60000A94D2F780FD0EC0219788F7B12C8B2DD4
:103E7000DF91CF911F910F91FF90EF90DF90CF9046
:103E8000BF900895B8018C2F0E94340A019761F306
:103E9000EECFCF93DF93EC010E94071FBE01DF91AD
:103EA000CF910C94340A1F93CF93DF93EB01909141
:103EB0009002992331F0CB01DF91CF911F910C94A7
:103EC000491F882379F0CB010E94071F182F682F04
:103ED000CE010E94AB1EBE01812FDF91CF911F91B9
:103EE0000C94340ACB010E94DB1E182FF4CF682FEC
:103EF00080910301909104010C941121682F80910D
:103F00000301909104010C941C2180910301909174
:103F100004010C9427218091090385958595859549
:103F20000895809109038770089598E0899F900112
:103F30001124622B609309030C940F1E90910903C6
:103F40008095892380930903282F277061F4282FF7
:103F5000082E000C330B9217130629F085958595D2
:103F600085950C94301E089590910903977081E017
:103F700009F480E00895E0910301F091040180913B
:103F80002D038083E0910301F091040180819091E1
:103F90002C03892B8083E0910301F091040180813F
:103FA00090912B03892B808390910A03992381F0B0
:103FB000E0910301F09104018081892B808380913D
:103FC0000301909104010E94B420811110920A0310
:103FD00080910301909104010C94581480912D0359
:103FE000089590912D03892B80932D030895982F88
:103FF000909580912D03892380932D03089510922D
:104000002D03089590912C03892B80932C03089500
:10401000982F909580912C03892380932C030895E9
:1040200010922C03089590912B03892B80932B03DE
:104030000895982F909580912B03892380932B03CB
:10404000089510922B03089580930A030895109207
:104050000A030895CF92DF92EF92FF926C01EE2453
:10406000FF2420E0C114D104E104F10419F0C701D8
:10407000B60120E1C72ED82EE92EFF24C114D104A9
:10408000E104F10419F0285FC701B6016B017C015E
:1040900054E0F694E794D794C7945A95D1F7C11495
:1040A000D104E104F10419F02C5FC701B6016B01E2
:1040B0007C0142E0F694E794D794C7944A95D1F7EF
:1040C000C114D104E104F10419F02E5FC701B60157
:1040D0009695879577956795672B682B692B09F0DF
:1040E0002F5F822FFF90EF90DF90CF9008956DEEBD
:1040F0007EEF90E080E00E94DA2D60E082E090E0C8
:104100000E94BC2D60E083E090E00E94BC2D60E046
:1041100084E090E00E94BC2D60E085E090E00E9489
:10412000BC2D40E050E0BA0188E090E00C94CE2D28
:1041300090E080E00E94B62D21E08D3E9E4F09F078
:1041400020E0822F089582E090E00C94A82D83E077
:1041500090E00C94A82D84E090E00C94A82D682F9A
:1041600084E090E00C94BC2DFC0131969C01205E13
:104170003F4F80E0919191118F5FE217F307D1F7E4
:1041800008959C01FC0132969FEF80E04191461713
:1041900051F09F3F19F4411101C0982F8F5F8E316C
:1041A000A9F79F3F09F40895290F311D97FD3A950E
:1041B000F90162830895FC013296809621912613BD
:1041C00003C0DF0111971C92E817F907B9F70895AA
:1041D000E62FE695E695E695EF3169F0E80FF92FC1
:1041E000F11D677021E030E001C0220F6A95EAF707
:1041F0008181822B81830895E62FE695E695E695E9
:10420000EF3171F0E80FF92FF11D677021E030E018
:1042100001C0220F6A95EAF7209581812823218326
:10422000089520911401222329F02091AA0327FD4B
:104230000C94E8200C94C12020911401222329F031
:104240002091AA0327FD0C94FC200C94DB20FC0198
:10425000319680961192E817F907E1F70895809159
:10426000B003843039F110922F0388E190E020E40C
:104270000FB6F894A895809360000FBE209360005D
:1042800080E00E94150A83B7817F846083BF83B773
:10429000816083BF7894889583B78E7F83BF0FB684
:1042A000F894A895809160008861809360001092D6
:1042B00060000FBE08950895CF930E9415050E94D7
:1042C00062050E945B21C0E08C2F0E943B06811199
:1042D00005C0CF5FCE30C1F7CF91089581E0FCCF0C
:1042E0000E94CE190E944C140C94150A1F920F9232
:1042F0000FB60F9211248F939F93AF93BF9380912A
:104300002F03811113C08091A6039091A703A09160
:10431000A803B091A9034196A11DB11D8093A603E6
:104320009093A703A093A803B093A903BF91AF9163
:104330009F918F910F900FBE0F901F90189582E064
:1043400084BD93E095BD9AEF97BD80936E0008956C
:104350002FB7F8948091A6039091A703A091A8038A
:10436000B091A9032FBF0895CF92DF92EF92FF92F1
:104370000F931F932FB7F8944091A6035091A70372
:104380006091A8037091A9032FBF6A017B01EE24FD
:10439000FF248C0130E020E0C016D106E206F306CF
:1043A00050F0481B590BCA011F910F91FF90EF90DD
:1043B000DF90CF90089541505109F3CF78941F9228
:1043C0000F920FB60F9211248F939F93AF93BF93C9
:1043D0008091A6039091A703A091A803B091A9038F
:1043E0000196A11DB11D8093A6039093A703A093EE
:1043F000A803B093A903BF91AF919F918F910F90A4
:104400000FBE0F901F9018950E94782AF8942FEFF6
:1044100087EA91E6215080409040E1F700C000001B
:1044200087E090EBDC018093B9039093BA03A093EB
:10443000BB03B093BC0388E19CE00FB6F894A89549
:10444000809360000FBE90936000FFCF0E94982081
:10445000811102C00E9477200E94A32080932E0326
:104460000E94AB2090E09093AB038093AA030E943C
:10447000A720682F70E090E080E00C94AF1D809141
:10448000330380FF12C06091080185E0689FB0018E
:104490001124759567957595679560387105A8F530
:1044A00061157105A1F1862F089581FF09C0609102
:1044B000080185E0689FB001112475956795EDCFDF
:1044C00082FF07C06091080185E0689FB001112458
:1044D000E4CF209134032223A9F090910701609149
:1044E000080185E0689FB00111242917B0F6269FC6
:1044F000A001279F500D1124692F70E0CA010E946E
:104500008E2DCBCF65E070E0CECF8FE7089581E0B0
:1045100008958091330380FF0CC06091060170E024
:1045200075956795759567956115710549F1862FA4
:10453000089581FF06C06091060170E0759567954A
:10454000F3CF6091060182FD0BC090913403992353
:10455000A1F06091050180910601961738F0682F4F
:1045600070E06038710500F38FE70895899FC001FE
:10457000112470E00E948E2DF4CF61E070E0D7CF5F
:1045800081E00895803F31F40E943F22819580931D
:1045900037030895813F19F40E943F22F8CF823FEC
:1045A00031F40E943F228195809336030895833F22
:1045B00019F40E943F22F8CF893F29F40E948922F2
:1045C0008093380308958A3F21F40E9489228195BF
:1045D000F7CF8B3F31F40E94892281958093390374
:1045E00008958C3F19F40E948922F8CF843F31F45A
:1045F000809135038160809335030895853F21F4D0
:10460000809135038260F7CF863F21F48091350396
:104610008460F1CF873F21F4809135038860EBCF30
:10462000883F21F4809135038061E5CF8D3F31F4DF
:104630008091330381608093330308958E3F21F48A
:10464000809133038260F7CF8F3FB9F780913303B6
:104650008460F1CF803FC1F48091370387FD1092D1
:1046600037038091360381110EC080913703811189
:104670000AC080913803811106C0809139038111ED
:1046800002C0109234030895813F29F480913703CA
:1046900018162CF3E6CF90913603823F29F497FF4A
:1046A000E0CF10923603DDCF833F19F41916CCF317
:1046B000D8CF893F39F480913803181694F61092B8
:1046C0003803CFCF8A3F29F48091380387FFC9CFC1
:1046D000F6CF8B3F39F48091390387FFC2CF109218
:1046E0003903BFCF8C3F29F4809139031816BCF3EE
:1046F000B8CF843F31F4809135038E7F80933503AA
:10470000B0CF853F21F4809135038D7FF7CF863F71
:1047100021F4809135038B7FF1CF873F21F4809185
:104720003503877FEBCF883F21F4809135038F7E5F
:10473000E5CF8D3F31F4809133038E7F8093330337
:1047400090CF8E3F21F4809133038D7FF7CF8F3F41
:1047500009F087CF809133038B7FF0CF85E393E01F
:104760000E9463140E94A821909331038093300328
:1047700008951F93CF93DF9380913003909131037D
:104780000E94B421AC01909134032091090130E0E2
:10479000911106C0209132038AE0289F90011124D4
:1047A0004217530780F08091360310913703D09160
:1047B0003803C091390381110AC0111161C0D111B0
:1047C0005FC0C1115DC0DF91CF911F9108959F3FE0
:1047D00019F09F5F90933403181624F40E943F222F
:1047E000809336038091360387FF05C00E943F22E5
:1047F000819580933603111624F40E943F22809302
:1048000037038091370387FF05C00E943F228195BF
:104810008093370340913603442379F03091370376
:10482000332359F025EB4203A001112450933603A2
:10483000320390011124309337031D1624F40E9493
:104840008922809338038091380387FF05C00E9436
:1048500089228195809338031C1624F40E948922B2
:10486000809339038091390387FF05C00E94892214
:10487000819580933903DF91CF911F910C94AE23E2
:104880009F3F09F0A6CFB7CF85E0E5E3F3E0DF0176
:104890001D928A95E9F7109234031092330308951C
:1048A000833081F128F4813059F08230D1F00895BD
:1048B000853009F449C0B8F1863009F456C008952E
:1048C00080913203482F460F5527551F4F3F510502
:1048D00024F4680F6093320308958FEF80933203BE
:1048E000089580910901482F460F5527551F4F3FC6
:1048F000510524F4680F6093090108958FEF8093A8
:104900000901089580910801482F460F5527551F2A
:104910004F3F510524F4680F6093080108958FEF0D
:1049200080930801089580910701482F460F55276D
:10493000551F4F3F510524F4680F609307010895F8
:104940008FEF80930701089580910601482F460F4D
:104950005527551F4F3F510524F4680F60930601FA
:1049600008958FEF80930601089580910501482FE7
:10497000460F5527551F4F3F510524F4680F60938C
:10498000050108958FEF809305010895833011F19B
:1049900028F4813049F0823091F00895853081F11A
:1049A00020F18630C1F1089580913203681720F418
:1049B000861B8093320308951092320308958091EC
:1049C0000901681720F4861B80930901089510924D
:1049D0000901089580910801681720F4861B8093CF
:1049E0000801089510920801089580910701681741
:1049F00020F4861B80930701089510920701089503
:104A000080910601681720F4861B809306010895A3
:104A100010920601089580910501681720F4861B05
:104A20008093050108951092050108950F931F9337
:104A300041E050E060E070E08A019B0104C0000F9B
:104A4000111F221F331F8A95D2F7C901B8010E9496
:104A5000AF1D1F910F910C94CE19873208F043C0FF
:104A60008E3108F08BC0803109F47DC0C8F48730E6
:104A700009F46AC028F4863009F45CC080E0089527
:104A80008B3009F455C08E30C9F790912E03892FD1
:104A90008B7F92FF846080932E0382FD20C048C0EC
:104AA000863109F445C068F4813141F70E94CE197E
:104AB0009091AA03892F97FB87F980588093AA03C6
:104AC00037C08931A9F18B31C9F690912E03892F16
:104AD0008D7F91FF826080932E0381FF29C080919A
:104AE0002E0381603DC0883319F150F4893221F0E2
:104AF000853311F0873211F680E00E94162518C028
:104B00008334D1F328F48A3308F4B8CF8953F5CF2E
:104B1000883409F0B3CF0E94CE192FEF83ED90E3D4
:104B2000215080409040E1F700C000000E94042224
:104B300081E0089580912E03817F8E7F80932E03E4
:104B400081E080933B03089590912E03892F8E7FFF
:104B500090FF816080932E0380FDEACF897F877F5D
:104B600080932E03E5CF90912E03892F877F93FFAB
:104B7000886080932E0383FDB2CFDACF8D51BDCFF5
:104B800080E008950C94C0258E518A3030F4E82FCF
:104B9000F0E0E354FE4F8081089580E00895CF93C4
:104BA000C82F80913B038130E1F038F0823009F466
:104BB0003FC010923B0380E012C0E0910301F091EE
:104BC00004018081813111F08232A9F78C2F0E947B
:104BD000C02581111DC08C2F0E942D258170CF9181
:104BE0000895E0910301F09104018081813171F316
:104BF000823261F38C2F0E94C225811110C0C43112
:104C000081F048F4CB3059F0C03171F080E0E6CF4C
:104C100081E090E0E3CFC93221F0C833B9F781E0F9
:104C2000DDCF10923B03F2CF82E080933B03F7CFBE
:104C3000C93219F188F4C43101F120F4C73081F18F
:104C400081E0CDCF82EE8C0F8630D0F78C2F0E9482
:104C5000C42580933A03F4CFCE3401F140F46AE0E6
:104C6000CB3471F780913A030E945024E9CFC135CB
:104C700079F061E0C235B1F3E3CF80913A03882344
:104C800019F010923A03DCCF81E080933B03A7CF69
:104C900061E080913A030E94C624D2CF6AE0F9CF46
:104CA0001092320384E180930901C09308018CE3E0
:104CB0008093070188E08093060188E280930501D4
:104CC000BFCF80915C0308950F931F93CF93DF9321
:104CD00000D01F92CDB7DEB78C010E94CB28823066
:104CE00011F0843019F583E089831B830A83809354
:104CF000E9008FEF9091E800815095FD06C095ED99
:104D00009A95F1F700008111F5CF8091E80085FFB9
:104D10000DC050E040E063E070E0CE0101960E94DB
:104D2000E8288091E8008E778093E8000F900F903C
:104D30000F90DF91CF911F910F910895CF93DF9343
:104D400000D01F92CDB7DEB72091B003243031F5EB
:104D500022E02983805891099B838A8383E0809392
:104D6000E9008FEF9091E800815095FD06C095ED28
:104D70009A95F1F700008111F5CF8091E80085FF49
:104D80000DC050E040E063E070E0CE0101960E946B
:104D9000E8288091E8008E778093E8000F900F90CC
:104DA0000F90DF91CF910895CF93DF93EC010E9494
:104DB000CB28823011F08430F9F482E08093E9004E
:104DC0008FEF9091E800815095FD06C095ED9A9582
:104DD000F1F700008111F5CF8091E80085FF0CC04C
:104DE00050E040E065E070E0CE010E94E82880914C
:104DF000E8008E778093E800DF91CF910895CF93FC
:104E0000DF93EC010E94CB28823011F08430F9F45A
:104E1000809114018823F1F08091AA0387FF1AC0C2
:104E200084E08093E9008FEF9091E800815095FD38
:104E300006C095E19A95F1F700008111F5CF8091B8
:104E4000E80050E040E060E270E085FD1AC0DF91CC
:104E5000CF91089581E08093E9008FEF9091E80071
:104E6000815095FD06C095ED9A95F1F700008111EE
:104E7000F5CF8091E80085FFEACF50E040E068E0A0
:104E800070E0CE010E94E8288091E8008E77809340
:104E9000E80080E2FE01ACE3B3E001900D928A9558
:104EA000E1F7D5CF8091AF03811109C00E94782A24
:104EB0000E94D52A8091E20084608093E2000895E8
:104EC0001092AF030895089508950C94702142E064
:104ED00061EC81E00E94F62942E061EC82E00E94F0
:104EE000F62942E061EC83E00E94F62942E261EC9F
:104EF00084E00C94F6298091B203833009F455C004
:104F000030F4813071F1823009F491C008958A3013
:104F100009F47DC08B3009F463C0893009F044C0C6
:104F20008091B103813209F03FC08091B503909127
:104F3000B603009711F00397B9F58091E800877FD9
:104F40008093E8008091E80082FF2AC08091F10000
:104F500080935C038091E8008B778093E8000C9449
:104F60002A2A8091B103813AF9F48091E800877F81
:104F70008093E8008091B5039091B603892B61F48A
:104F800060E28CE393E070E00E9437298091E800B2
:104F90008B778093E800089560E090E080E0F3CFA5
:104FA0008091B0038111CECF08958091B103813AF1
:104FB000D9F78091B5039091B603892BA9F7809119
:104FC000E800877F8093E8008091E80080FFFCCFB5
:104FD000809114018093F1008091E8008E77BDCF1D
:104FE0008091B103813201F78091B5039091B603AE
:104FF000892BD1F68091E800877F8093E8000E949A
:105000002A2A8091B303809314010C94CE198091C5
:10501000B103813249F68091E800877F8093E800F0
:105020000E942A2A8091B40380935D0308958091A1
:10503000B103813A09F0B8CF8091E800877F80936F
:10504000E8008091E80080FFFCCF80915D03C2CF33
:1050500084B7877F84BF0FB6F894A89580916000CD
:10506000886180936000109260000FBE80E880939A
:105070006100109261000E949B140E94782A0E9495
:10508000D52A8091E20084608093E20078940E94A7
:105090005E2D0E949D148AE091E00E944714809149
:1050A000B003853029F00E94A5140E944A13F7CF5F
:1050B0000E942F218091AE03882389F30E945C21F6
:1050C000882369F30E94D228EACF292F332723307F
:1050D000310579F158F421303105F1F022303105F4
:1050E00019F190E080E030E020E01AC02132310573
:1050F00099F122323105A9F76430710590F7FB016F
:10510000EE0FFF1FE553FE4F2081318169537E4F23
:10511000FB01808190E004C082E190E02FE537E060
:10512000FA013183208308958DE690E022EF36E086
:10513000F7CF99278130910561F028F0029789F621
:10514000EEEBF6E002C0EEEEF6E0849190E09F0117
:10515000E7CFE6EDF6E0F9CF6430710508F0C1CF96
:10516000660F771FFB01ED52FE4F2081318189E0F0
:1051700090E0D6CF0895CF93C82F0E94BA28C0934D
:105180005E03CF9108958091B003843011F081E0E7
:10519000089582E0089580915E03811102C00C940D
:1051A000C328089580E189BD82E189BD09B400FE6C
:1051B000FDCF8091D8008F7D8093D8008091E00052
:1051C00082608093E0008091E00081FDFCCF089533
:1051D000AF92BF92CF92DF92FF920F931F93CF9324
:1051E000DF936C01EB018A010E94492AF82E81119C
:1051F00023C00115110539F0F80180819181C81B88
:10520000D90BC80ED91EB12CA12C2097A9F08091E2
:10521000E80085FD22C08091E8008E778093E80049
:1052200001151105A1F0F80180819181A80EB91E28
:10523000B182A08285E0F82E8F2DDF91CF911F9152
:105240000F91FF90DF90CF90BF90AF9008950E9494
:10525000492A8823D1F2F82EEFCFF60181916F0110
:105260008093F1002197FFEFAF1ABF0ACECFFC0168
:105270008091B7039091B80386179707A0F0611546
:10528000710529F49091E8009E779093E80090E0F2
:105290006115710551F4911108C08091E80082FFF9
:1052A00035C080E00895BC01F2CF8091B00388231F
:1052B000C9F18530C9F18091E80083FD31C080914A
:1052C000E80082FDEACF8091E80080FFE1CF2091E5
:1052D000F3008091F200322F282F6115710519F02B
:1052E0002830310558F091E02830310509F090E080
:1052F0002091E8002E772093E800CACF8191809317
:10530000F100615071092F5F3F4FE7CF8091B003EB
:10531000882341F0853041F08091E80083FFBDCFC4
:1053200081E0089582E0089583E00895FC01809172
:10533000B7039091B80386179707A0F06115710520
:1053400029F48091E8008E778093E80090E0611561
:10535000710551F4911108C08091E80082FF36C0B8
:1053600080E00895BC01F2CF8091B0038823D1F191
:105370008530D1F18091E80083FD32C08091E80052
:1053800082FDEACF8091E80080FFE1CF2091F30019
:105390008091F200322F282F6115710519F0283005
:1053A000310558F091E02830310509F090E0809106
:1053B000E8008E778093E800CACF84918093F10053
:1053C0003196615071092F5F3F4FE6CF8091B00356
:1053D000882341F0853041F08091E80083FFBCCF05
:1053E00081E0089582E0089583E00895982F973032
:1053F00028F08F708093E90081E008959093E90090
:10540000242F762F50E0981731F07091EC00209106
:10541000ED005091F00021FD02C09F5FE8CF309178
:10542000EB003E7F3093EB003091ED003D7F3093F9
:10543000ED003091EB0031603093EB007093EC00A5
:105440002093ED005093F0002091EE0027FDE5CF72
:1054500080E008958091B10387FF13C08091E80038
:1054600082FF06C08091E8008B778093E80004C03B
:105470008091B0038111F2CF08958091B003882309
:10548000D9F38091E80080FFF8CF8091E8008E7713
:10549000ECCF2091E4003091E50085E69091EC009E
:1054A00090FF06C09091E80090FF06C080E008954C
:1054B0009091E80092FDFACF9091B003992391F07A
:1054C000953091F09091EB0095FD10C04091E40073
:1054D0005091E5002417350709F381509A01F1F640
:1054E00084E0089582E0089583E0089581E00895BE
:1054F0000E94E62A0E94EE2AE0EEF0E080818160C0
:105500008083E8EDF0E080818F77808319BCA7ED80
:10551000B0E08C918E7F8C9380818F7E80831092FF
:10552000AF0308950F931F93CF93DF930E94E62A52
:105530000E94EE2AC8EDD0E088818F778883888129
:105540008068888388818F7D888319BC1092B0031E
:105550001092AC031092AE031092AD0300EE10E077
:10556000F80180818B7F808388818160888342E01D
:1055700060E080E00E94F629E1EEF0E080818E7F1D
:105580008083E2EEF0E080818160808380818860AA
:105590008083F80180818E7F808388818061888309
:1055A000DF91CF911F910F910895E8EDF0E0808198
:1055B0008F7E8083E7EDF0E080818160808384E0EE
:1055C00082BF81E08093AF030C94922AE8EDF0E073
:1055D00080818E7F80831092E20008951092DA001D
:1055E0001092E10008951F920F920FB60F921124AE
:1055F0002F933F934F935F936F937F938F939F93DB
:10560000AF93BF93EF93FF938091E10082FF0BC0B4
:105610008091E20082FF07C08091E1008B7F809340
:10562000E1000E945D2D8091DA0080FF19C0809119
:10563000D80080FF15C08091DA008E7F8093DA0059
:105640008091D90080FF94C080E189BD82E189BD4D
:1056500009B400FEFDCF81E08093B0030E94522781
:105660008091E10080FF19C08091E20080FF15C0A9
:105670008091E2008E7F8093E2008091E200806161
:105680008093E2008091D80080628093D80019BC9A
:1056900085E08093B0030E9464278091E10084FF3D
:1056A00029C08091E20084FF25C080E189BD82E1AC
:1056B00089BD09B400FEFDCF8091D8008F7D809315
:1056C000D8008091E1008F7E8093E1008091E2001C
:1056D0008F7E8093E2008091E20081608093E200FF
:1056E0008091AC03882309F449C084E08093B0031F
:1056F0000E9465278091E10083FF29C08091E2002C
:1057000083FF25C08091E100877F8093E10082E0E4
:105710008093B0031092AC038091E1008E7F809360
:10572000E1008091E2008E7F8093E2008091E200B0
:1057300080618093E20042E060E080E00E94F62910
:105740008091F00088608093F0000E946327FF91B1
:10575000EF91BF91AF919F918F917F916F915F91E9
:105760004F913F912F910F900FBE0F901F90189562
:1057700019BC1092B0030E94602772CF8091E300A1
:1057800087FD02C081E0B2CF83E0B0CF1F920F92BD
:105790000FB60F9211242F933F934F935F936F9304
:1057A0007F938F939F93AF93BF93CF93EF93FF9389
:1057B000C091E900CF708091EC001092E9008091D7
:1057C000F000877F8093F00078940E94022C109262
:1057D000E9008091F00088608093F000C093E900B8
:1057E000FF91EF91CF91BF91AF919F918F917F9159
:1057F0006F915F914F913F912F910F900FBE0F903E
:105800001F9018951F93CF93DF93CDB7DEB7AA975C
:105810000FB6F894DEBF0FBECDBFE1EBF3E0809191
:10582000F100819323E0E93BF207C9F70E947B274F
:105830008091E80083FF44C08091B1039091B2034E
:105840009A3008F03DC0E92FF0E0E75DF34D0C948D
:10585000A22D332C592C602C592C602CB72CD92C10
:10586000602C302D3D2D803889F0823849F58091AB
:10587000B5038F70873020F58093E9008091EB00AD
:1058800085FB882780F91092E90006C08091AD035E
:105890009091AE03911182609091E800977F909370
:1058A000E8008093F1001092F1008091E8008E777B
:1058B0002DC0282F2D7F21F48823D1F0823059F17B
:1058C0008091E80083FF0AC08091E800877F809381
:1058D000E8008091EB0080628093EB00AA960FB6FF
:1058E000F894DEBF0FBECDBFDF91CF911F91089519
:1058F0008091B303813021F7933009F080E08093E9
:10590000AE031092E9008091E800877F8093E80061
:105910000E942A2AD5CF8091B3038111F2CF8091C2
:10592000B5038F702FEF280F263050F68093E900D3
:105930002091EB0020FFE5CF933031F48091EB0014
:1059400080628093EB00DDCF9091EB0090619093AB
:10595000EB0021E030E001C0220F8A95EAF72093A6
:10596000EA001092EA008091EB008860EACF811192
:10597000A7CF1091B3031F778091E3008078812B2C
:105980008093E3008091E800877F8093E8000E9485
:105990002A2A8091E80080FFFCCF8091E300806894
:1059A0008093E30083E0111101C082E08093B00393
:1059B00087CF8058823008F083CF8091B3039091D5
:1059C000B4038C3D23E09207A1F583E08A838AE249
:1059D00089834FB7F894DE01139620E03EE051E250
:1059E000E32FF0E050935700E49120FF03C0E295CD
:1059F000EF703F5FEF708E2F90E0EA30C0F0C796F7
:105A00008D939D932F5F243159F74FBF8091E8000C
:105A1000877F8093E8006AE270E0CE0101960E94E1
:105A200037298091E8008B778093E80049CFC096B2
:105A3000E7CF6091B5037091B603AE014F5F5F4F42
:105A40000E946528BC01892B09F43ACF9091E800A7
:105A5000977F9093E80089819A810E949629E1CFEF
:105A6000803809F02DCF8091E800877F8093E8008F
:105A70008091AC038093F10018CF811121CF9091D8
:105A8000B303923008F01CCF8091E800877F8093A9
:105A9000E8009093AC030E942A2A8091AC038823EB
:105AA00031F084E08093B0030E94672709CF809192
:105AB000E30087FDF6CF81E0F5CF0895CF93809185
:105AC000B003882399F0C091E900CF708091EC0079
:105AD00080FD0EC080E0C82B1092E9008091E800A4
