:100000000C9432040C9476040C9476040C947604CC
:100010000C9476040C9476040C9476040C94760478
:100020000C9476040C9476040C94312B0C94032CD1
:100030000C948F210C9476040C9476040C94760422
:100040000C9476040C9476040C9476040C94760448
:100050000C9476040C94F7210C9476040C9476049A
:100060000C9476040C9476040C9476040C94760428
:100070000C9476040C9476040C9476040C94760418
:100080000C9476040C9476040C9476040C94760408
:100090000C9476040C9476040C9476040C947604F8
:1000A0000C9476040C9476040C947604D007D20752
:1000B000DD07D407D607D807DA07DC07DF07E10733
:1000C000E307EE07E507E707E907EB07ED07F007AA
:1000D000641764179E179E17D317F31760199C199E
:1000E00035189C19E518E51858199C199C19971989
:1000F000F218F218F218F218F218F218F218F218B0
:10010000F218F218F218F218F218F218F218F2189F
:100110000419111918191F1929192B1A2B1A3D1A0C
:100120003D1A341A3D1A3D1A3D1A2B1A2B1A391A48
:100130003D1A3D1A391A702C972C892D972C892D30
:10014000E32C062D892D5C2D6B2D0000F0A1000005
:100150002B002961E100314200000000140004007E
:100160001D00E200110000001A0016001B000041F3
:1001700031000000080007000600E3002C0000002A
:1001800015000900190091434A00000017000A00F9
:100190000500000050000000350000002E000000A7
:1001A0004F000080340000000000000050000000FC
:1001B0001C000B00110000004F00000018000D0093
:1001C00010009044520000000C000E0036002E007B
:1001D0002C41000012000F0037002F002E000000FD
:1001E0001300330038003000510000002A002800BE
:1001F0002D623142000001000100010001000100F8
:1002000000003A0001004A000100010001003B002B
:10021000010001000100010001003C004D004C0004
:100220000100010001003D0001004E00010001003D
:1002300001003E00010001004B0000000100010030
:1002400001000000010000000100010001000000A9
:100250004B00000001003F000100500001000000C1
:1002600001004000010051000100010001004100B7
:1002700001005200010001000100420001004F0096
:100280000100010001004300010001000100010024
:10029000010044002A004500010001000000005C4C
:1002A0000100010001000100000001000100010047
:1002B00001000100010001000100F2000100010045
:1002C00001000100F000F1000100F5000100010053
:1002D0000100F3000100F400010001000100010031
:1002E0000100000001000100010000000100000009
:1002F00001000100010000000100000001000100F8
:100300000100AC0001000000010001000100AA0092
:1003100001000100010001000100A900AC00010082
:10032000B60001000100AB00A800010001000100BF
:100330000100010001000100010001000100AE0008
:1003400001000100000000000000000000000000AB
:10035000000000001E023502000000000000000046
:100360001F023102000000000000000020022E00E9
:100370000000000000000000210231000000000029
:100380000000000022023500000000000000000014
:10039000000000000000000000000000000000005D
:1003A0000000000000000000230200000000000028
:1003B00000000000240234022E02000000000000B1
:1003C00026022F002F02000000000000270230004C
:1003D0003002000000000000250234002D02000061
:1003E000000000000100010001000000000000000A
:1003F000000000000000005C000000001E004A0039
:100400003A000000000000001F0000003B00000058
:100410000000000020004C003C0000000000000034
:10042000210000003D0000000000000022004D00FF
:100430003E0000000000000000000000000000007E
:1004400000000000000000000000000000000000AC
:10045000230000003F0000000000000024005100C5
:100460004000000000000000250052004100000094
:100470000000000026004F004200000000000000C5
:100480002700000043000000000000000100000001
:1004900044004500000063F301006801F000B4006F
:1004A00078005A007F3F1F643214643214783C1E77
:1004B0001E140A05000000000101010202030405E8
:1004C000050607090A0B0C0E0F1112141517191B3C
:1004D0001D1F212325282A2C2F313436393B3E413C
:1004E0004346494C4F5255585A5D6164676A6D7076
:1004F0007376797C7F8386898C8F9295989B9EA258
:10050000A5A7AAADB0B3B6B9BCBEC1C4C6C9CBCE4F
:10051000D0D3D5D7DADCDEE0E2E4E6E8EAEBEDEED4
:10052000F0F1F3F4F5F6F8F9FAFAFBFCFDFDFEFE46
:10053000FEFFFFFFFFFFFFFFFEFEFEFDFDFCFBFADF
:10054000FAF9F8F6F5F4F3F1F0EEEDEBEAE8E6E4AB
:10055000E2E0DEDCDAD7D5D3D0CECBC9C6C4C1BE8B
:10056000BCB9B6B3B0ADAAA7A5A29E9B9895928F31
:100570008C898683807C797673706D6A6764615D2F
:100580005A5855524F4C494643413E3B3936343117
:100590002F2C2A282523211F1D1B19171514121172
:1005A0000F0E0C0B0A0907060505040302020101E0
:1005B0000100000000000000000101010101010133
:1005C0000101020202020202020202030303030308
:1005D00003030304040404040405050505050606D5
:1005E00006060607070707080808080909090A0A8E
:1005F0000A0A0B0B0B0C0C0C0D0D0D0E0E0F0F0F32
:1006000010101111111212131314141515161617B8
:1006100017181819191A1A1B1C1C1D1D1E1F1F2024
:10062000202122222324252526272728292A2B2B6F
:100630002C2D2E2F2F303132333435363637383992
:100640003A3B3C3D3E3F4041424344464748494A8D
:100650004B4C4D4F50515253555657585A5B5C5E58
:100660005F606263646667696A6C6D6E70717374F3
:100670007678797B7C7E8081838486888A8B8D8F57
:1006800091929496989A9B9D9FA1A3A5A7A9ABAD83
:10069000AFB1B3B5B7B9BBBDBFC1C4C6C8CACCCF73
:1006A000D1D3D6D8DADCDFE1E4E6E8EBEDF0F2F521
:1006B000F7FAFCFF16034500720067006F00440064
:1006C0006F007800200045005A0000001603450026
:1006D000720067006F0044006F0078002000450042
:1006E0005A0000000403090409026D00040100A07F
:1006F000FA090400000103010100092111010001B0
:100700002240000705810308000A090401000103D3
:10071000010200092111010001224D000705820399
:1007200008000A0904020001030000000921110168
:1007300000012236000705830308000A09040300AC
:100740000103000000092111010001223900070501
:1007500084032000011201100100000008EDFE07D3
:100760001301000102000105010906A10105071995
:10077000E029E71500250195087501810205081992
:1007800001290595057501910295017503910105F2
:1007900007190029F71500250195F875018102C098
:1007A00005010980A10185021601002603001A81B6
:1007B000002A8300751095018100C0050C0901A174
:1007C000018503160100269C021A01002A9C02756D
:1007D0001095018100C005010902A1010901A100D4
:1007E00005091901290515002501950575018102E5
:1007F0009501750381010501093009311581257FB6
:1008000095027508810609381581257F95017508BF
:100810008106050C0A38021581257F95017508812E
:1008200006C0C005010906A101050719E029E71561
:100830000025019508750181029501750881010562
:100840000819012905950575019102950175039116
:10085000010507190029FF150026FF0095067508F8
:100860008100C00011241FBECFEFDAE0DEBFCDBF94
:1008700004B603FE24C08091B9039091BA03A091FD
:10088000BB03B091BC038730904BA740B04BB9F489
:100890001092B9031092BA031092BB031092BC03DA
:1008A00014BE84B7877F84BF88E10FB6F894809325
:1008B0006000109260000FBEE0E0FFE3099511E0D8
:1008C000A0E0B1E0EAE6FCE502C005900D92AC3D87
:1008D000B107D9F713E0ACEDB1E001C01D92A93B1F
:1008E000B107E1F70E9461280C94332E0C940000AC
:1008F0001092B9008AE08093B800089594EA90932A
:10090000BC009091BC0097FFFCCF9091B900987FFC
:10091000983021F0903111F081E008958093BB0070
:1009200084E88093BC008091BC0087FFFCCF80915D
:10093000B900887F883111F0803471F780E0089524
:1009400084E98093BC008091BC0084FDFCCF0895B5
:100950008093BB0084E88093BC008091BC0087FF3B
:10096000FCCF9091B900987F81E0983209F480E043
:10097000089584E88093BC008091BC0087FFFCCF81
:100980008091BB00089580B38C7080BB81B3836F6E
:1009900081BB089580910001811115C080E40E94FF
:1009A0007E048093000181110CC082E10E94A804A2
:1009B00080930001811105C08FEF0E94A8048093ED
:1009C00000010E94A00484B1807F84B985B1807F3A
:1009D00085B98AB1837F8AB98BB1837F8BB93E9801
:1009E000469808950C9417070E94B706809300015B
:1009F0000E94CA040E94C3042DED31E0E1E3F2E05D
:100A00004EE04E0F119280E090E0D901A80FB91F7F
:100A10001C92019686309105C1F72A5F3F4F4E1315
:100A2000F1CF0C94D6090E94B706809300010E9472
:100A3000CA040E94C304E1E3F2E08EE08E0F11923B
:100A40008E13FDCF089526E0829FC0011124FC0182
:100A5000E352FE4F20E030E080E041E050E0908142
:100A6000992319F09150908307C0BA01022E01C05A
:100A7000660F0A94EAF7862B2F5F3F4F3196263098
:100A8000310569F7089596E0699FB001112420E0CF
:100A900030E090E04FE0FC01022E02C0F595E795B2
:100AA0000A94E2F7E0FF06C0F901E60FF71FE352F0
:100AB000FE4F40832F5F3F4F2630310561F7089589
:100AC000AF92BF92CF92DF92EF92FF920F931F935C
:100AD000CF93DF9380910001882379F08091DC012E
:100AE0008F5F8093DC01811108C00E94B70680935C
:100AF0000001811102C00E94490681E3E82E82E0D4
:100B0000F82E00E010E0CC24C394D12CAA24A394A6
:100B1000C02F0730110500F58091000181113CC004
:100B200080E40E947E0480930001811112C082E162
:100B30000E94A8048093000181110BC0C601002E01
:100B400001C0880F0A94EAF780950E94A804809358
:100B500000010E94A00420C00A30A1F028F408304F
:100B600059F0093061F005C00C3089F070F00D309B
:100B700089F0209A289810C0219A29980DC0229AAD
:100B80002A980AC0239A2B9807C0529A01C0539AF8
:100B90005B9802C03E9A469880EA8A95F1F78C2FBE
:100BA0000E942305D82F0730110518F58091000108
:100BB000811144C080E40E947E0480930001882358
:100BC00011F0B12C12C083E10E94A80480930001AF
:100BD0008111F7CF81E40E947E048093000181118E
:100BE000F0CF0E94B904B82EB0940E94A0049B2DAF
:100BF00026C08FB181708A25799902C092E001C028
:100C000090E0892B7C9902C094E001C090E0982B81
:100C10007D9902C038E001C030E0932B7E9902C07C
:100C200020E101C020E0922B2FB12095221F222726
:100C3000221F2295220F207E922B01C090E0F70107
:100C400080819D23D095D823D92B6C2F8D270E948E
:100C50004305F701D1937F010E94CA040F5F1F4F24
:100C60000E30110509F054CF0E94D80981E0DF91C0
:100C7000CF911F910F91FF90EF90DF90CF90BF9099
:100C8000AF900895E82FF0E0EF5CFD4F808108956C
:100C9000089556985E9825982D9826982E9827980E
:100CA0002F988FEF90E09093890080938800909325
:100CB0008B0080938A0090938D0080938C00259AFE
:100CC0002D9A2FEF80E792E0215080409040E1F78D
:100CD00000C00000269A2E9A2FEF80E792E0215064
:100CE00080409040E1F700C00000279A2F9A2FEF34
:100CF00080E792E0215080409040E1F700C0000082
:100D000025982D982FEF80E792E021508040904069
:100D1000E1F700C0000026982E982FEF80E792E0C0
:100D2000215080409040E1F700C0000027982F98A4
:100D300056985E9825982D9826982E9827982F9843
:100D4000089589EA8093800089E080938100249847
:100D50002C983F988AB18F7C8AB96E98479A8BB14C
:100D600080638BB9769A0E9449060C94160780E23C
:100D70008093000180913F0281110EC00E9478048F
:100D800081E080933F022FEF83ED90E3215080407C
:100D90009040E1F700C0000080E40E947E04809350
:100DA000000181112EC00E94A804809300018111CE
:100DB00028C00E94A80480930001811122C08FE303
:100DC0000E94A8048093000181111BC00E94A0040E
:100DD00080E40E947E0480930001811112C08CE0A7
:100DE0000E94A8048093000181110BC00E94A804F6
:100DF00080930001811105C08FE30E94A8048093B5
:100E000000010E94A00480910001089561110BC0AF
:100E1000FC018281882321F085EE0E94C61503C063
:100E200085EE0E94BA1680E090E0089508956091E2
:100E300001037091020380910303909104030E94C7
:100E4000442056985E9825982D9826982E98279895
:100E50002F98813019F0823021F00895259A2D9A2B
:100E60000895269A2E9A089581E0089581E00895C4
:100E70000C9436070E94191A2FEF84E39CE021504E
:100E800080409040E1F700C000000C941D22FF92CA
:100E90000F931F93CF93DF938C01FC01C081D1810D
:100EA00080919002811113C08281882349F0CE0184
:100EB0000E943A1FF82E682FCE010E94DD1E04C04A
:100EC000CE010E940D1FF82EBE018F2D04C0CE0151
:100ED0000E943A1FBE010E94ED09EC01B8010E9478
:100EE0003807882309F45BC2B801CE010E94490C7F
:100EF000882309F454C2B801CE010E94E90C88236A
:100F000009F44DC2CA3CFCE5DF0741F4F8018281D7
:100F1000882309F444C20E94661041C2CB3C8CE590
:100F2000D80708F000C1C33C9CE5D90741F4F8019B
:100F30008281882309F433C20E94051130C2C43C67
:100F4000ECE5DE0708F0ACC0C531FCE5DF0708F0D2
:100F500057C0C2308CE5D80708F47BC0F801828105
:100F6000882309F46EC00E94B520811102C00E943E
:100F700094200E94C82090E09093AB038093AA0332
:100F8000FE01E350FC45E231F10530F4EA5AFF4F2F
:100F90008091AA030C94E52D8091AA03816027C05B
:100FA000826025C0846023C0806121C080621FC030
:100FB00080641DC080681BC08460886018C08E7FFC
:100FC00016C08D7F14C08B7F12C08F7E10C08F7DA6
:100FD0000EC08F7B0CC08F770AC08B7F877F07C0C6
:100FE00087FB222720F991E0922790FB87F98093D5
:100FF000AA038091AA030E94CC200E94191ACFC193
:10100000C531DC45C9F40E940B20282FF8018281EC
:1010100040910301509104018823B9F12A7A91E0AB
:1010200009F490E09093400291112DC069E2CA0149
:101030000E942D210E94D81F81E080934502809359
:101040004602C801DF91CF911F910F91FF900C9440
:101050003407C1159CE5D90741F4F8018281882342
:1010600009F49DC10E943A079AC1C130DC4521F7BD
:10107000F8018281882309F492C180912E03816056
:1010800080932E038CC165E3D2CF80914002811101
:1010900002C069E201C065E3CA010E943821CACFDB
:1010A000C63C8CE5D80741F4F8018281882309F415
:1010B00076C10E94081073C1C73C9CE5D907C0F4F3
:1010C000C43CECE5DE0741F4F8018281882309F491
:1010D00066C10E94FB1063C1C53CDC4509F0ACCF82
:1010E000F8018281882309F45AC10E94F00F57C188
:1010F000F8018281C83CFCE5DF0731F4882309F45C
:101100004EC10E9439104BC1C93CDC4530F48823E4
:1011100009F445C10E94271042C1882309F43FC148
:101120000E944B103CC1C03DECE5DE07C1F4F80164
:101130008281882309F433C10E94C60E653171058E
:101140008105910540F00E94C60E67317105810549
:10115000910508F4BECF85E10E94801020C1C13DF9
:10116000FCE5DF0708F077C0CD3C8CE5D807B1F48B
:10117000F8018281882309F412C10E94C60E6630EC
:1011800071058105910540F00E94C60E6830710519
:101190008105910508F49DCF86E0DECFCE3C9CE52D
:1011A000D90728F5CB3CECE5DE0739F4F80182815C
:1011B000882309F4F4C081E0CFCFCC3CDC4509F0B2
:1011C0003BCFF8018281882309F4E9C00E94C60E52
:1011D000623071058105910540F00E94C60E6530B0
:1011E00071058105910508F474CF82E0B5CFCE3C3E
:1011F0008CE5D807B1F4F8018281882309F4CFC0C7
:101200000E94C60E693071058105910540F00E946B
:10121000C60E6E3071058105910508F45ACF89E03C
:101220009BCFCF3CDC4509F007CFF80182818823B2
:1012300009F4B5C00E94C60E6F3071058105910595
:1012400040F00E94C60E643171058105910508F4D5
:1012500040CF8FE081CFC33DECE5DE0761F5F801BB
:101260008281882351F0109245020E94C1219093FF
:1012700042028093410282E03DC00E940B2085FF24
:1012800005C081E08093450280934602809145022B
:1012900081110FC080914102909142020E94CD21A4
:1012A000883C910530F486E20E94C61586E20E94D1
:1012B000BA1682E030C0C43DFCE5DF0778F1C73DD7
:1012C000ECE5DE0709F44DC0C83DFCE5DF0709F495
:1012D0004EC0C43DDC4509F0AFCEF80182818823C1
:1012E00061F0109246020E94C121909344028093C3
:1012F000430280E20E94191752C00E940B2081FF16
:1013000005C081E0809345028093460280914602A9
:101310008823A9F180E20E94201741C0C13D8CE5DD
:10132000D80731F4F80182818823C9F188E114CF0C
:10133000C23DDC4509F080CEF8018281882379F135
:101340000E94C60E693171058105910540F00E9429
:10135000C60E623271058105910508F4BACE89E1A5
:10136000FBCEF80182818823D1F080E005C0F8012E
:1013700082818823A1F082E00E94F42810C080912D
:101380004302909144020E94CD21883C910510F6C1
:1013900087E20E94C61587E20E94BA16BBCF80E0A2
:1013A000DF91CF911F910F91FF9008950C94A106AA
:1013B0000C94F204282F882339F090E02A3010F49E
:1013C0004D9608950697089587E290E00895089550
:1013D0000C94E7090C94E809089596E0799FF001D0
:1013E000112494E5899FE00DF11D1124E60FF11DF4
:1013F000EE0FFF1FE25BFE4F859194910895880FD9
:10140000991FFC01E65BFE4F859194910895CF935F
:10141000DF930E94ED090E949F0BEC01811520E4EF
:101420009207B0F5811540E3940708F0E1C0803ED3
:101430009105D0F4803C910508F06FC0883A910581
:1014400070F4853A910508F06BC08130910509F47C
:1014500072C108F429C1049708F06DC125C18D3B04
:10146000910508F468C020C18F3F910509F048F448
:10147000803F910508F0B6C0883E910508F45BC135
:1014800013C1811550E2950708F455C19F70ACC097
:10149000811564E59607D8F4C11583E5D80708F0EF
:1014A000E2C0C11521E5D20740F4C11540E5D407DB
:1014B00008F0A7C0DF70D06A3EC1C11552E5D5075C
:1014C00008F0BBC0DC2FCC27C16FD06A34C18115B6
:1014D00066E5960750F4C11585E5D80708F0D9C030
:1014E000DC2FCC27C46FD06A26C1811528E592076E
:1014F00008F4DAC0811549E5940708F4D0C0905685
:101500008115904208F0D0C08D2F8F710E941C0C65
:10151000DD27D0628F71D82B0EC1805C910964C029
:10152000853A910509F4C3C0863A910509F0C2C015
:10153000C2E8D0E400C1883A910509F4BEC0893AF6
:10154000910509F4BDC08A3A910509F4BCC08B3AF3
:10155000910509F4BBC08C3A910509F4BAC08B3BE4
:10156000910509F4B9C08C3B910509F4B8C08D3AD6
:10157000910509F4B7C0803B910509F4B6C08E3AD5
:10158000910509F4B5C08F3A910509F4B4C0813BC7
:10159000910509F4B3C0823B910509F4B2C0833BC5
:1015A000910509F4B1C0843B910509F4B0C0853BB5
:1015B000910509F4AFC0863B910509F4AEC0873BA5
:1015C000910509F4ADC0883B910509F4ACC0893B95
:1015D000910509F4ABC08A3B910509F4AAC0C0E0AB
:1015E000D4E4A9C0D065A7C00E94FF09EC01A3C044
:1015F0009927D3FF03C0EC01D86C9DC0EC01D06CDF
:101600009AC02C2F237081E090E002C0880F991FB0
:101610002A95E2F79C689E0144E0369527954A9505
:10162000E1F72370922BCF70C695C69560E2C69FF6
:10163000E0011124C82BD92B7EC02C2F269526958E
:1016400080E2289F90011124C370DD2781E090E0A3
:10165000AC0102C0440F551FCA95E2F7EA01C22B44
:10166000D32BDC6868C02C2F2695269580E2289F16
:1016700090011124C370DD2781E090E0AC0102C02D
:10168000440F551FCA95E2F7EA01C22BD32BDA6843
:1016900052C0CF71DD27DC2FCC27D0624CC0DC2FAD
:1016A000CC27C06FD06A47C0C0E0D0E044C0C1E8DA
:1016B000D0E441C0C3E8D0E43EC0C2EED4E43BC0B5
:1016C000C9EED4E438C0CAEED4E435C0C5EBD4E4E6
:1016D00032C0C6EBD4E42FC0C3EBD4E42CC0C4EBBF
:1016E000D4E429C0C7EBD4E426C0CCECD4E423C0B6
:1016F000CDECD4E420C0C3E8D5E41DC0CAE8D5E4ED
:101700001AC0C2E9D5E417C0C4E9D5E414C0C1E2E7
:10171000D6E411C0C3E2D6E40EC0C4E2D6E40BC0E6
:10172000C5E2D6E408C0C6E2D6E405C0C7E2D6E406
:1017300002C0CAE2D6E4CE01DF91CF91089582388B
:10174000910549F1B0F48133910509F458C048F48A
:101750008932910509F44EC08A32910509F454C0CA
:1017600008958533910509F440C08933910599F0B6
:101770000895833E910529F138F4803E910591F05A
:10178000823E9105A1F00895863E9105F9F0873ECD
:10179000910531F108952091AA0320FD3AC021FD61
:1017A00038C008958091AA0380FD35C032C0809171
:1017B000AA0382FF32C08091AA0384FD30C083EE69
:1017C00039C08091AA0382FD28C0F5CF8091AA0379
:1017D00083FF27C08091AA0384FD21C087EE2AC021
:1017E0008091AA0383FD1DC0F5CF8091AA0385FDDA
:1017F0001AC01BC08091AA0385FD17C014C0809138
:10180000AA0386FD14C015C08091AA0386FD11C0ED
:101810000EC080EE0FC089E30DC082EE0BC080E0E9
:1018200009C086EE07C089E205C085E303C08AE2ED
:1018300001C081E390E00895CF93C82F0E94C82093
:1018400090E09093AB038093AA0382FF0DC09C2F7E
:101850009871983019F4C77FC46006C09C2F9471AA
:10186000943011F4CB7FC86083FF0DC09C2F98711A
:10187000983119F4C77EC46106C09C2F94719431CD
:1018800011F4CB7EC86184FDC77E8C2FCF91089563
:1018900008950F931F93CF93FB012281211102C062
:1018A000C1E041C08C01C0915402C11125C08631F4
:1018B0009C45B1F70E94480C81E0809354020E943D
:1018C000C1219093530280935202109247021092CA
:1018D00049021092480210924B0210924A02109252
:1018E0004D0210924C0210924F0210924E02109232
:1018F00051021092500217C08091520290915302EF
:101900000E94CD21883C910558F690914702E92F1D
:10191000F0E0EE0FFF1FE85BFD4F118300839F5F38
:1019200090934702C0E08C2FCF911F910F910895A3
:101930008F929F92AF92BF92EF92FF920F931F935D
:10194000CF93DF934B015C0107E010E08CE1E82EC0
:10195000F12CD1E0D501C4010E2C04C0B695A79599
:10196000979587950A94D2F7C82FCF7069F4D11153
:1019700016C080E00E94DA090E94C61580E00E942D
:10198000DA090E94BA160BC08C2F0E94DA090E9455
:10199000C6158C2F0E94DA090E94BA16D0E00150B9
:1019A000110984E0E81AF1080F3F8FEF180729F0BA
:1019B000043011057CF6D0E0CDCFDF91CF911F919F
:1019C0000F91FF90EF90BF90AF909F908F900895F0
:1019D0000895CF92DF92EF92FF92CF93DF9300D0E2
:1019E00000D0CDB7DEB76C017B010E946A0D282FB5
:1019F000D7FE64C0F7019281992309F45FC0F60114
:101A0000EE0FFF1FEE0FFF1FEA56FB4F659175911A
:101A1000859194916B017C01F1E0EF1AF108C114FA
:101A2000D10430E1E306F10428F5222311F025303A
:101A300061F50E946D0DD701C60188279C7FAF70AC
:101A4000BB272AE0B695A795979587952A95D1F754
:101A5000BC01CD0178528F4F9F4F0E94980CD70147
:101A6000C6019370AA27BB27BC01CD0174528F4FCA
:101A70009F4F20C061157105E1E18E07910528F0A7
:101A8000222359F0253039F408C061157105F0E1C1
:101A90008F07910528F0213019F40E94E80C0EC040
:101AA00069837A838B839C830E946D0D69817A811F
:101AB0008B819C810E94980C0E94E90D81E00F901F
:101AC0000F900F900F90DF91CF91FF90EF90DF90EC
:101AD000CF900895809155020895E0910301F0910F
:101AE0000401808180935F0381FF03C081EE0E9427
:101AF000BA1680915F0385FF03C085EE0E94BA1677
:101B000080915F0380FF03C080EE0E94BA1680912F
:101B10005F0384FF03C084EE0E94BA1680915F03C6
:101B200082FF03C082EE0E94BA1680915F0386FF97
:101B300003C086EE0E94BA1680915F0383FF03C044
:101B400083EE0E94BA1680915F0387FF03C087EE81
:101B50000E94BA1680915502823001F1A8F48823C0
:101B6000C9F0813079F580EE0E94C61581EE0E94A1
:101B7000C61588E10E94C61588E10E94BA1681EE5A
:101B80000E94BA1680EE1CC0843081F08530D1F4FA
:101B900086EE01C082EE0E94C61514C082EE0E943D
:101BA000C61587E50E94C61587E50AC086EE0E9425
:101BB000C61586EE0E94BA1688E10E94C61588E115
:101BC0000E94BA168FE39CE90197F1F700C000006C
:101BD000089580915502813049F030F0823021F033
:101BE000853051F486EE06C082EE04C08CE20E947D
:101BF000C6158CE20E94BA1680915F0381FF03C074
:101C000081EE0E94C61580915F0385FF03C085EEBB
:101C10000E94C61580915F0380FF03C080EE0E9482
:101C2000C61580915F0384FF03C084EE0E94C61531
:101C300080915F0382FF03C082EE0E94C6158091EF
:101C40005F0386FF03C086EE0E94C61580915F0386
:101C500083FF03C083EE0E94C61580915F0387FF58
:101C600003C087EE0C94C6150895EF92FF920F9370
:101C70001F93CF93DF93E901662309F44BC0242F10
:101C800030E0EFEFF0E0E61BF109B901E69F9001CB
:101C9000E79F300DF69F300D1124232F8B01031B7E
:101CA00011095CE3E52EF12CB7010E94BD2DFB016B
:101CB000BC01069FC001079F900D169F900D112437
:101CC000B7010E94BD2DE230F105B1F040F430972C
:101CD00079F0319711F5832F242F461B21C0E43072
:101CE000F105A1F068F03597C1F4842F861B18C068
:101CF000832F262F230F14C0862F830FE42F03C0BA
:101D0000E42FE61B842F432F2E2F0AC0842F462F4B
:101D1000430F06C0842F242F03C080E020E040E062
:101D2000E42FF0E0EC54FA4F4491E22FF0E0EC5451
:101D3000FA4F9491E82FF0E0EC54FA4FE491498384
:101D40009883EA83DF91CF911F910F91FF90EF90DD
:101D5000089588E090E00C94F32DAB01BC0188E07D
:101D600090E00C94112EE0E6F3E083E08083109283
:101D700061038FEF828383836091600370916103BD
:101D800080916203909163030C94AD0E60916003A7
:101D900060FF06C066956F7370E080E090E0089584
:101DA00060E070E0CB0108958091600380FF06C081
:101DB0006FE070E088E693E00C940A1480E090E015
:101DC000FC01E859FC4F11821082128204968C3378
:101DD0009105B1F7EDCF20E030E0F901E859FC4F73
:101DE0008183608342832C5F3F4F2C333105A9F7F9
:101DF0000C94D40EEF92FF920F931F93CF93DF9327
:101E000000D000D0CDB7DEB7009160031091610320
:101E10002091620330916303009364031093650380
:101E200020936603309367032091600320FF21C055
:101E3000042FF62EE92E182F9E012F5F3F4F0E9490
:101E4000350E8091640310FB87F980936403169527
:101E5000809165038078182BE0FA17F910936503D9
:101E6000F0926603009367034B8169818A810E9427
:101E7000EB0E0F900F900F900F90DF91CF911F916D
:101E80000F91FF90EF9008958F929F92AF92BF9223
:101E9000CF92DF92EF92FF920F931F93CF93DF9336
:101EA000EC01062F142F8091600380FF8CC0982FC7
:101EB0009E77923021F4CE010E94FA0E5AC0E82F8C
:101EC000E695EF739EE39E0F9F73943018F4109184
:101ED00063034FC09AE39E0F9F73993070F4881F7D
:101EE0008827881F90916103292F220FC22FC82BAA
:101EF00097FB992790F9D92F3CC087E28E0F8F73FB
:101F00008A30B8F5F0E07997E0FD02C021E001C029
:101F10002FEFEE7FE656FB4F859194916FE070E0D6
:101F20000E94BD2D26036001279FD00C11244E0175
:101F300088E9881A8EEF980A88E6E82E83E0F82E62
:101F400098E6A92EBB24B394C401B5010E94BD2D0F
:101F50009701412F602F0E94350E8C0C9D1C94E040
:101F6000E90EF11C84EAE81683E0F80669F70E949E
:101F7000D40E809160039C2FC0FB87F9809360038F
:101F80009695809161038078892BD0FB87F98093A7
:101F90006103009362031093630360916003709187
:101FA00061038091620390916303DF91CF911F9150
:101FB0000F91FF90EF90DF90CF90BF90AF909F90E8
:101FC0008F900C94AD0EDF91CF911F910F91FF90E8
:101FD000EF90DF90CF90BF90AF909F908F9008953B
:101FE000E0E6F3E02081221F2227221F30916103C7
:101FF000432F440F842F822B37FB992790F90C969F
:1020000068E671E00E94D12D438162810C94440FF7
:1020100020916003221F2227221F30916103432F4A
:10202000440F842F822B37FB992790F98C30910530
:102030001CF4845A9E4F01C00C9768E671E00E9420
:10204000D12D40916303609162030C94440FE0E64C
:10205000F3E08081881F8827881F90916103292FD2
:10206000220F97FB992790F943816FEF822B0C94F5
:10207000440FE0E6F3E08081881F8827881F909155
:102080006103292F220F97FB992790F9438160E084
:10209000822B0C94440F40916303842F90E0843F83
:1020A000910514F4445F01C04FEF80916003881FD5
:1020B0008827881F90916103292F220F97FB99276A
:1020C00090F960916203822B0C94440F409163035A
:1020D000842F90E00C9714F04C5001C040E08091A8
:1020E0006003881F8827881F90916103292F220F82
:1020F00097FB992790F960916203822B0C94440F0F
:102100009091600390FF42C09178811102C092606B
:1021100007C0833210F0946403C08F73880F982B2C
:1021200090936003609160037091610380916203FA
:10213000909163030E94AD0E80916003982F9E776B
:10214000923019F410926B0210C0982F96959F73DD
:102150002EE3290F2F73273120F491E090936B0227
:1021600004C0995D9F739A3068F3881F8827881F81
:1021700090916103292F220F97FB992790F94091A5
:10218000630360916203822B0C94440F0895809145
:102190002E03816080932E0381E080936C020E9465
:1021A000B520811104C00E9494200E94B30E0E94A9
:1021B000A90E609360037093610380936203909310
:1021C00063036E7761F40E94B30E0E94A90E6093C0
:1021D000600370936103809362039093630381E0D3
:1021E00080936B028091600380FF04C086958F739B
:1021F0000C94801008958091600386958F738F5F93
:10220000833208F081E00C94801080916003982F55
:10221000909590FB80F980936003609160037091CA
:10222000610380916203909163030E94AD0E8091DF
:10223000600380FF04C086958F730C948010109209
:102240006B022FEF80E792E0215080409040E1F751
:1022500000C000000C94D40ECF93C82F8091690267
:1022600090916A020E94CD21EC2FF0E0E055FB4FE7
:10227000E491F0E08E179F0718F10E94C12190931E
:102280006A0280936902E0916802F0E0EC54FB4F2F
:10229000449180916003881F8827881F9091610373
:1022A000292F220F97FB992790F960916203822BC7
:1022B0000E94FA0E8091680290E001968093680275
:1022C000CF910895CF93C82F8091660290916702B5
:1022D0000E94CD21EC2FF0E0E355FB4FE491F0E0BC
:1022E0008E179F07E8F00E94C121909367028093A8
:1022F0006602409163036091620380916402909151
:1023000065020E94FA0E8091640290916502019626
:1023100068E671E00E94BD2D90936502809364028F
:10232000CF910895CF92DF92FF920F931F93CF9397
:10233000DF93F82E80916202909163020E94CD217A
:10234000EF2DE695F0E0E655FB4FE491F0E08E17B7
:102350009F07E8F10E94C12190936302809362027B
:1023600008E613E0C0E0D0E088E6C82EDD24D39470
:1023700080916002909161028C0F9D1FB6010E94B6
:10238000BD2D980140916303609162030E94350E58
:1023900068960C5F1F4FC83681E0D80749F70E9446
:1023A000D40E2091600230916102F0FE0AC0C90192
:1023B0000196BE010E94BD2D909361028093600240
:1023C00006C0215031093093610220936002DF91F1
:1023D000CF911F910F91FF90DF90CF900895AF9212
:1023E000BF92CF92DF92EF92FF920F931F93CF9302
:1023F000DF93C82F80FF02C01FEF01C011E0809162
:102400005E0290915F020E94CD21C695EC2FF0E014
:10241000E955FB4FE491F0E08E179F0708F466C082
:102420000E94C12190935F0280935E0228E6C22E33
:1024300023E0D22E3AE6E32E33E0F32EC0E0D0E0E4
:10244000F70131971082F6011082F701108294E0B3
:10245000A92EB12C00E080915D02800F87FD815F85
:10246000992787FD9095C817D907E9F480916303F0
:102470008A9DA0018B9D500D11245595479555952A
:10248000479580916003881F8827881F909161037A
:10249000592F550F97FB992790F996016091620388
:1024A000852B0E94350E010FF1E0AF1AB10899F6A5
:1024B000219684E0C80ED11CE4E0EE0EF11CCF3072
:1024C000D10509F0BDCF0E94D40E80915D0211307C
:1024D00031F4811102C08EE007C0815005C090E048
:1024E0000196BE010E94D12D80935D02DF91CF91B4
:1024F0001F910F91FF90EF90DF90CF90BF90AF9022
:1025000008950F931F93CF93DF93C82F80915B02A1
:1025100090915C020E94CD21EC2FF0E0EC55FB4F36
:10252000E491F0E08E179F0708F464C00E94C12177
:1025300090935C0280935B0280E090E0FC01E8599C
:10254000FC4F11821082128204968C339105B1F7F0
:10255000C0E0D0E00FE010E0CE01B8010E94D12D24
:10256000FC0180915A02992787FD9095EE0FFF1F7D
:10257000EE0FFF1FC817D907FCF0809102019927C1
:1025800087FD90958C179D07BCF09F0128593C4F03
:1025900080916003881F8827881F90916103592FBD
:1025A000550F97FB992790F940916303609162035F
:1025B000852B0E94350E05C0E859FC4F1182108210
:1025C00012822196CF30D10539F60E94D40E809127
:1025D000010190915A02980F90935A0220910201A2
:1025E000280F20930201121614F49E301CF08195DE
:1025F00080930101DF91CF911F910F910895EF9288
:10260000FF920F931F93CF93DF9380915802909185
:1026100059020E94CD21883E9340D0F10E94C121F1
:102620009093590280935802C0915602D09157025C
:102630002196C170DD27D0935702C093560288E6D9
:10264000E82E83E0F82E10E008E7812F8695FE0142
:10265000E80FF11DCF018170992797014091630325
:1026600060916203FC010E9FC0010F9F900D112429
:102670000E94350E1F5FF4E0EF0EF11C1F3029F7AA
:10268000DF91CF911F910F91FF90EF900C94D40E9A
:10269000DF91CF911F910F91FF90EF90089580915E
:1026A0006B02882391F190916003892F86958F7337
:1026B0002EE3280F2F73243018F482500C942C1121
:1026C0002AE3280F2F73233018F486500C946211DC
:1026D00027E3280F2F73263018F489500C94921199
:1026E00021E3280F2F73263018F48F500C94EF112C
:1026F0002BE2280F2F73233018F485510C9481128C
:102700009E77903311F40C94FF120895882319F0EA
:102710005198599A02C0519A59985098589A95E0F0
:102720009A95F1F70000509A589895E09A95F1F72C
:102730000000882311F0519A599885E08A95F1F7A5
:10274000000008958BB18C7F8BB95098589A51989E
:10275000599A85E08A95F1F7000008958AB18C7F37
:102760008AB985E08A95F1F70000519A599885E079
:102770008A95F1F70000509A589885E08A95F1F70C
:10278000000008955098589A85E08A95F1F7000066
:102790005198599A85E08A95F1F700000895CF93F2
:1027A000DF93D82FC8E08D2F80780E948613DD0F2D
:1027B000C150C9F780E00E94861385E08A95F1F741
:1027C000000085E08A95F1F7000080E0DF91CF916D
:1027D00008952BB1342F309523233BB1432B3FB7C2
:1027E000F894FC01680F791FE617F70789F08191CB
:1027F00098E04BB9000000C087FF2BB9880F00009C
:1028000000C000C000C02BB900C09A9591F7ECCF72
:102810003FBF0895AF92BF92CF92DF92EF92FF92A7
:102820000F931F93CF93DF938C01EB01CFB6D09022
:10283000BC00F8948091BC008B7F8093BC000E9408
:10284000A2130E94AE1384E80E94CF13CC0FDD1FA9
:10285000CC0FDD1F78015801AC0EBD1EEA14FB043D
:1028600031F0F70181917F010E94CF13F7CF0E94D1
:10287000C213CFBED092BC00579A40E8BE01C80137
:10288000DF91CF911F910F91FF90EF90DF90CF904C
:10289000BF90AF900C94E9139093720280937102F1
:1028A0000895E0917102F0917202309721F0019049
:1028B000F081E02D099480E00895E0917102F0919B
:1028C0007202309721F00280F381E02D099408957F
:1028D000E0917102F0917202309721F00480F5814D
:1028E000E02D0994089520916F02309170028217B3
:1028F000930771F09093700280936F02E0917102E0
:10290000F0917202309721F00680F781E02D099452
:10291000089520916D0230916E028217930771F035
:1029200090936E0280936D02E0917102F0917202B9
:10293000309721F00084F185E02D099408950895E1
:102940000C949F140E94B8210E94F4040E943F221C
:102950000C94C710CF92DF92EF92FF920F931F93C8
:10296000CF93DF93CDB7DEB72B970FB6F894DEBFCA
:102970000FBECDBF0E94600584E7C82E82E0D82E2E
:1029800000E010E0E02E802F0E944206F601419107
:102990006F01F42EF826B1F40F5F1F4F0E301105B2
:1029A00089F78FEF89838A831B820E94C12181600E
:1029B000782F9D838C8349815A816B818D810E9400
:1029C000891540C090912E0391FF04C08B870E940F
:1029D00048068B8520E030E04F2D50E0922FBA0161
:1029E000022E02C0759567950A94E2F760FF24C035
:1029F0002E83EF8221E030E0690102C0CC0CDD1CA7
:102A00009A95E2F790E08C219D21892B09F420E032
:102A100028870E94C1218160782F9A8789874E81FB
:102A20005F8168858A850E948915F801EC58FD4F01
:102A30008081C826C08206C02F5F3F4F26303105F7
:102A400069F6AACF0E94D223109173020E945114FA
:102A50001817A1F00E945114809373022B960FB6A1
:102A6000F894DEBF0FBECDBFDF91CF911F910F91C4
:102A7000FF90EF90DF90CF900C94EA092B960FB661
:102A8000F894DEBF0FBECDBFDF91CF911F910F91A4
:102A9000FF90EF90DF90CF900895DC0111962C917C
:102AA00011978C91682F70E041E050E001C0440F15
:102AB0008A95EAF712968C91129730E0882329F0D4
:102AC000809191028823E9F006C0F901EE57FD4F8D
:102AD00090819423B1F086E0829FF001839FF00DF6
:102AE0001124E60FF71FEE0FFF1FEB5EFE4F8081F4
:102AF00091818D939C93F901EE57FD4F8081482B76
:102B000006C0F901EE57FD4F409580814823408370
:102B10000895CF93DF93CDB7DEB72B970FB6F89418
:102B2000DEBF0FBECDBF942F4F83252F58876987F7
:102B30007A878B874A855B85452B21F02F3F09F5E6
:102B40009F3FF9F4DE01119686E0FD0111928A950E
:102B5000E9F785E0FE01379601900D928A95E1F73D
:102B600049815A816B817C818D819E810E94B11C3B
:102B70002B960FB6F894DEBF0FBECDBFDF91CF917D
:102B80000895CE0107960E944D15DCCFCF93DF93B9
:102B90001F92CDB7DEB7882309F4E8C0682F8238CA
:102BA00079F40E94511481FDE1C069E38091030131
:102BB000909104010E942D210E94D81F69E310C04A
:102BC0008338C9F40E94511480FDD0C063E5809120
:102BD0000301909104010E942D210E94D81F63E5FA
:102BE00080910301909104010E9438210F90DF91A0
:102BF000CF910C94D81F843879F40E94511482FD2F
:102C0000B5C067E480910301909104010E942D21D9
:102C10000E94D81F67E4E4CF8CEF860F813A70F4EE
:102C2000862F69830E94FB25698181119FC0809155
:102C30000301909104010E942D21D8CF80E2860FDC
:102C4000883048F4677081E001C0880F6A95EAF720
:102C50000E940E20CBCF8BE5860F833088F4653A37
:102C600029F0663A31F083E890E005C081E890E011
:102C700002C082E890E00F90DF91CF910C94731422
:102C800088E5860F853108F071C0683A61F1693ACC
:102C900069F16A3A71F16B3A79F16C3A81F16B3B07
:102CA00089F16C3B91F16D3A99F1603BA1F16E3A7B
:102CB000A9F16F3AB1F1613BB9F1623BC1F1633BFC
:102CC000C9F1643BD1F1653BD9F1663BE1F1673B6A
:102CD000E9F1683BF1F1693BF9F16A3B09F43FC066
:102CE00080E090E03EC082EE90E03BC089EE90E054
:102CF00038C08AEE90E035C085EB90E032C086EBBC
:102D000090E02FC083EB90E02CC084EB90E029C0D2
:102D100087EB90E026C08CEC90E023C08DEC90E037
:102D200020C083E891E01DC08AE891E01AC082E9E2
:102D300091E017C084E991E014C081E292E011C0F3
:102D400083E292E00EC084E292E00BC085E292E062
:102D500008C086E292E005C087E292E002C08AE203
:102D600092E00F90DF91CF910C9489140F90DF9136
:102D7000CF910895882309F45BC0682F823879F4D5
:102D80000E94511481FF54C069E380910301909126
:102D900004010E942D210E94D81F69E310C08338CE
:102DA000B1F40E94511480FF43C063E58091030198
:102DB000909104010E942D210E94D81F63E580910B
:102DC0000301909104010E9438210C94D81F84388B
:102DD00079F40E94511482FF2BC067E480910301B3
:102DE000909104010E942D210E94D81F67E4E7CF33
:102DF0008CEF860F813A18F380E2860F883048F412
:102E0000677081E001C0880F6A95EAF70E9414207C
:102E1000DCCF8BE5860F833020F480E090E00C94CB
:102E20007314685A653120F480E090E00C948914A2
:102E30000895882321F00E940E200C94D81F089535
:102E4000882321F00E9414200C94D81F08958F929B
:102E50009F92AF92BF92CF92DF92EF92FF920F9329
:102E60001F93CF93DF931F92CDB7DEB77C01C72EA0
:102E7000FC01058102950F701281112321F06983F5
:102E80000E942B20698169830E94D11F6981882358
:102E900081F0112371F080E2860F883050F082E0DB
:102EA0000E94BA1F0E94D11F91E0D82ED9266981B5
:102EB00001C0D12CAC2CA2948FE0A822B12CF5013A
:102EC000E859FF4F0C94E52D8C2D807F0C2D0F7051
:102ED000882311F00295007F1123C1F0002309F42B
:102EE000D2C180E2860F883010F0611105C0802FBA
:102EF00069830E940E2004C0802F69830E941E20D7
:102F0000698169830E94D81F6981BDC1862F698349
:102F10000E94BA166981002309F40EC280E2860F6E
:102F2000883010F0611104C0802F0E94142003C06B
:102F3000802F0E9424200E94D81FFEC19C2D907FCC
:102F40008C2D8F70903211F08295807F662319F05E
:102F50006130B1F01EC0112349F0002309F44BC1C8
:102F6000013009F048C10E943E20E6C1002319F05B
:102F7000013009F4E1C189830E944120898141C166
:102F8000112321F0023008F0D7C135C10111D4C19D
:102F900038C1112321F0002309F42DC174C100238D
:102FA00009F42FC181C18C2D86958695837090E0A0
:102FB000009719F0019761F0BFC1112321F0862F0E
:102FC0009C2D937002C080E090E00E947314C4C1F5
:102FD000112321F0862F9C2D937002C080E090E099
:102FE0000E948914B9C11123F9F0653F51F0663F81
:102FF00071F0643FA9F48091A4039091A5038160CE
:103000000BC08091A4039091A503826005C08091BC
:10301000A4039091A50384609093A5038093A403D7
:10302000862F0E94DA221EC0653F51F0663F71F084
:10303000643FA9F48091A4039091A5038E7F0BC0F7
:103040008091A4039091A5038D7F05C08091A40376
:103050009091A5038B7F9093A5038093A403862F63
:103060000E9442230E94C72377C18C2D837009F0F0
:1030700052C011116DC1862F829586958770880F79
:10308000880F962F9F70892E912CA12CB12C082E81
:1030900004C0880C991CAA1CBB1C0A94D2F764FFBC
:1030A00014C00FE010E020E030E0B901A80104C036
:1030B000440F551F661F771F8A95D2F7CB01BA01BF
:1030C000609570958095909503C060E070E0CB01AD
:1030D0002C2D26952695237030E02230310569F09D
:1030E0002330310589F0682979298A299B292130E3
:1030F000310571F00E94F41D2BC1682979298A29B4
:103100009B290E94061E24C10E94F41DC501B40122
:103110000E94E21D1DC1112319F08C2D817001C088
:103120008695882309F414C1862F82958695877029
:10313000880F880F962F9F70892E912CA12CB12C6F
:10314000082E04C0880C991CAA1CBB1C0A94D2F738
:1031500064FF14C00FE010E020E030E0B901A801E6
:1031600004C0440F551F661F771F8A95D2F7CB0105
:10317000BA01609570958095909503C060E070E00D
:10318000CB012C2D269526952370422F50E04230FE
:10319000510569F04330510589F0682979298A2958
:1031A0009B294130510571F00E94B81ED1C0682999
:1031B00079298A299B290E94CA1ECAC00E94B81E6A
:1031C000C501B4010E94A61EC3C0862F90E0FC0179
:1031D000E05EF109E531F10508F051C0E858FF4F14
:1031E0000C94E52D062F0F708C2D8F71112331F06B
:1031F0000E943F1E802F0E9419179EC00E94601ED1
:10320000802F0E94201798C0112339F0011194C01B
:103210008C2D8F710E94851E8FC0023008F08CC0EB
:10322000F7CF112339F08C2D8F710E943F1E84C07F
:103230001123C9F38C2D8F710E94601E7DC0112354
:1032400029F08C2D8F710E942A1E76C00E94251EA7
:1032500073C0112351F01C2D1F71812F0E943F1E3E
:1032600063E0812F0E94B11F67C081E00E94BA1FF6
:10327000023008F461C082E00E94BA1F5DC01123D1
:1032800031F0002381F2862F0E94C61555C000231D
:1032900089F2693349F45FEF77EE83E05150704073
:1032A0008040E1F700C00000862F0E94BA1644C09B
:1032B0004C2D4F70C7010E9406070E94551D4CC03F
:1032C000623F99F128F4603F49F0613FE1F020C08E
:1032D000643FA1F050F0653F59F01AC0112339F155
:1032E0009091910281E0892706C081E018271DC0D6
:1032F00011111DC081E08093910219C0111117C0F6
:103300001092910214C0002381F0111110C0E8CF77
:10331000002359F0862F6983112319F00E94C615E6
:1033200002C00E94BA16698102C0109391024C2D0E
:103330004F70C7010E94EC0998E0A916B10441F052
:103340005CF0FAE0AF1AB10822E0A216B10420F452
:103350000E9451140E94EA09DD20F1F00E94AD1F85
:1033600080FD1AC0F70112820E94A71F0E943F1E13
:10337000C7010E94DA190E94A71F0F90DF91CF9119
:103380001F910F91FF90EF90DF90CF90BF90AF9083
:103390009F908F900C94601E0F90DF91CF911F91A2
:1033A0000F91FF90EF90DF90CF90BF90AF909F90E4
:1033B0008F9008950F931F93CF93DF93EC01888133
:1033C00099812B813C81232BB9F09F3F11F48F3FD2
:1033D00099F0CE010E944707882371F068817981B6
:1033E0008A810E94841F8C010E94DC1E0E94DF1DC6
:1033F000B801CE010E942717DF91CF911F910F9145
:1034000008950E942B200E943B20809103019091FF
:1034100004010E9443210E94D81F0E9460240E9440
:10342000C72380E090E00E94731480E090E00C9449
:1034300089140E941B200C94011A0E94791FE92F05
:10344000E295EF70F0E03297EE30F105B0F4E3571B
:10345000FF4F0C94E52D803F91F018F4803E68F406
:103460000EC0843F51F40BC0803E48F0813F29F4E8
:1034700006C093FB882780F9089580E0089581E0D5
:103480000895CF93DF9300D000D01F92CDB7DEB761
:103490000F900F900F900F900F90DF91CF910895A4
:1034A000CF93DF9300D000D000D0CDB7DEB7269603
:1034B0000FB6F894DEBF0FBECDBFDF91CF91089558
:1034C0001F93CF93DF93C091920216E080919302F5
:1034D000C81799F0D0E01C9FF0011D9FF00D11243A
:1034E000EC56FD4F408151816281738184819581C9
:1034F0000E94501A2196C770E9CFDF91CF911F919A
:1035000008954091C4025091C5026091C602709125
:10351000C7028091C8029091C9020C94501A809100
:10352000C90282958F7009F054C08091C602882329
:1035300009F44FC080919202A09193026091C4025D
:103540007091C5024091C7025091C802B6E08A1737
:1035500009F43FC090E041155105C1F17F3F11F4DE
:103560006F3FA1F1B89FF001B99FF00D1124EC5607
:10357000FD4F218172132AC02081621327C022814E
:10358000211124C0238134812417350710F42150E0
:103590003109241B350B283C3105C0F42091C902A8
:1035A0002F7020612093C90226E0289FF001299FF7
:1035B000F00D1124E756FD4F80818F70806180836C
:1035C00084EC92E00E94DA190C94601A01968770DC
:1035D000BECF0895CF92DF92EF92FF920F931F9389
:1035E000CF93DF93CDB7DEB762970FB6F894DEBF07
:1035F0000FBECDBF8C0185E0F801DE011D96019064
:103600000D928A95E1F7D8014C9111965C91119732
:1036100012966C9112971396CD90DC90149730917E
:10362000C4027091C5028091C7029091C8020097B0
:1036300009F46BC17F3F19F43F3F09F466C1E09084
:10364000C602EE2009F4C0C02091C902C816D906EE
:1036500028F0F601E81BF90BCF0104C08095909586
:103660008C0D9D1DFF24F394883C910578F0F12C7E
:10367000207F09F0C6C07C2DD98AC88A89890E941A
:10368000411A84EC92E00E94DA19B1C0822F807F47
:1036900009F046C0751314C0341312C0611110C074
:1036A0002F7020612093C9020E94811A84EC92E05D
:1036B0000E94DA198091C902D80115968C932EC008
:1036C000CD2819F15F3F11F44F3FF9F0F62E61114B
:1036D0001CC0809192022091930236E0821709F477
:1036E0005AC090E0389FF001399FF00D1124EC563C
:1036F000FD4F7181571306C07081471303C072815B
:10370000711103C001968770E9CFF62E662309F484
:1037100018C18091C90281608093C902F12C11C146
:10372000751308C0341306C0611104C08091C9022A
:10373000D801C3C04D875E878D859E856A8B0E94A8
:103740001D1A6A898823E1F16623D1F12091C9020B
:10375000822F82958F7090E0029774F08091C4025E
:103760009091C50298878F831986DB86CA862C873D
:10377000CE0107960E94DA1986E0F801A4ECB2E0C7
:1037800001900D928A95E1F70E948F1A0E94811A8A
:10379000FF24F394D6C04D875E878D859E850E9459
:1037A000791F292F22952F7030E0223031050CF03F
:1037B000BCC09F7009F0B6C0805E883008F4C1C0FC
:1037C000C8010E94DA19E4CFC816D90608F453C01C
:1037D000F601E81BF90BCF01883C910508F450C0B5
:1037E000F12C7C2DD98AC88A89890E94411AE4EC7F
:1037F000F2E086E0DF011D928A95E9F70E94811AC6
:10380000A0C0751314C0341312C0611110C0809190
:10381000C902F8018583C8010E94DA1986E0E4EC48
:10382000F2E0DF011D928A95E9F7FE2C8AC04D87F0
:103830005E878D859E856A8B0E941D1A6A89882302
:1038400009F4BECF662309F4BBCF2091C902822FB1
:1038500082958F7090E002970CF48ECF8091C40215
:103860009091C5029A8389831B82DD82CC822E834C
:10387000CE0101967FCF809590958C0D9D1DACCF8C
:10388000F62E662309F49CCF75132EC034132CC07A
:103890002091C90220FD1FC0822F82958F70D9F020
:1038A000D80115962C9315978F3049F08F5F982F7C
:1038B0009295907F822F8F70892B15968C93C801DB
:1038C0000E94DA1986E0F801A4ECB2E001900D92B2
:1038D0008A95E1F793CF86E0F801A4ECB2E001907D
:1038E0000D928A95E1F72DC04D875E878D859E8567
:1038F0000E941D1A811140CF8091C902816080937E
:10390000C902C8010E94DA191CC0662309F458CF05
:103910004D875E878D859E850E941D1A882309F438
:103920004FCF2ACF811148CF0CC0243031050CF085
:1039300047CF9F7009F440CFF8019581907F09F03F
:103940003BCF8F2D62960FB6F894DEBF0FBECDBF72
:10395000DF91CF911F910F91FF90EF90DF90CF906B
:1039600008951F93CF93DF93CDB7DEB72C970FB693
:10397000F894DEBF0FBECDBF4F83588769877A8723
:103980008B879C87CE0107960E94EA1A882369F0EC
:103990008F8198852A853B85232BF1F19F3F09F084
:1039A00063C08F3F09F060C037C086E0FE013796E4
:1039B000DE01119601900D928A95E1F76F8178856D
:1039C000EA85FB85309741F17F3F11F46F3F21F18C
:1039D0002091930230E0C9010196877099274091A8
:1039E000920250E08417950709F447C069837A83EF
:1039F000FD83EC8396E0929FD001939FB00D11243C
:103A0000AC56BD4FFE01319601900D929A95E1F7AB
:103A1000809393020E94601A16E080919202909126
:103A200093028917C1F1189FC00111248C569D4F34
:103A30000E94EA1A882379F1E09192021E9FF00118
:103A40001124EC56FD4F4081518162817381848144
:103A500095810E94501A8091920290E001968770A1
:103A6000992780939202D9CF4F81588569857A85AD
:103A70008B859C850E94501ACFCF0E94191A1092F4
:103A8000930210929202E4ECF2E086E0DF011D92D4
:103A90008A95E9F7C1CF2C960FB6F894DEBF0FBE1A
:103AA000CDBFDF91CF911F910895EF92FF920F93B9
:103AB0001F93CF93DF938C01892B09F46CC0F12CF9
:103AC000EE24E394E8012196F8018491843740F4D0
:103AD000843008F051C0813081F0823019F15BC030
:103AE000853709F444C0A8F19CE7980F903708F097
:103AF00052C08F770E94BA1641C00E5F1F4FFE0161
:103B0000C49180E28C0F883048F4C7708E2D01C0BC
:103B1000880FCA95EAF70E942E2014C08C2F0E94AD
:103B2000C6152DC00E5F1F4FFE01C49180E28C0FA1
:103B3000883058F4C7708E2D01C0880FCA95EAF7F7
:103B40000E9434200E94D81F1AC08C2F0E94BA16DF
:103B500016C00E5F1F4FFE01C491CC2381F08FE988
:103B60009FE00197F1F700C00000C150F6CF0E5F53
:103B70001F4FFE01F49003C00E94C6158E018F2DC9
:103B8000882309F49FCFEFE9FFE03197F1F700C0F8
:103B900000008150F5CFDF91CF911F910F91FF90E1
:103BA000EF90089508950E94D21D609305037093CD
:103BB000060380930703909308030C94011A089559
:103BC0000C94D31D0F931F930091050310910603CE
:103BD0002091070330910803602B712B822B932BCC
:103BE0001F910F910C94D31D0F931F930091050308
:103BF000109106032091070330910803602371237D
:103C0000822393231F910F910C94D31D0F931F9325
:103C100000910503109106032091070330910803DA
:103C200060277127822793271F910F910C94D31D32
:103C300008950E94181E60930103709302038093FD
:103C40000303909304030C94011A60E070E0CB012D
:103C50000C94191E0F931F9341E050E060E070E058
:103C60008A019B0104C0000F111F221F331F8A9578
:103C7000D2F7C901B8011F910F910C94191E0F932F
:103C80001F9341E050E060E070E004C0440F551F16
:103C9000661F771F8A95D2F78091010390910203E6
:103CA000A0910303B09104038A019B01082B192BF7
:103CB0002A2B3B2BC901B8011F910F910C94191E9F
:103CC0000F931F9341E050E060E070E004C0440FA8
:103CD000551F661F771F8A95D2F7409550956095BE
:103CE00070958091010390910203A0910303B0911C
:103CF00004038A019B01082319232A233B23C901BA
:103D0000B8011F910F910C94191E0F931F9341E05E
:103D100050E060E070E004C0440F551F661F771F3D
:103D20008A95D2F78091010390910203A091030339
:103D3000B09104038A019B01082719272A273B27F2
:103D4000C901B8011F910F910C94191E0F931F9375
:103D500000910103109102032091030330910403A9
:103D6000602B712B822B932B1F910F910C94191E9A
:103D70000F931F93009101031091020320910303FD
:103D80003091040360237123822393231F910F91A9
:103D90000C94191E0F931F930091010310910203BD
:103DA0002091030330910403602771278227932712
:103DB0001F910F910C94191E0895292F220F920F15
:103DC000990F890FA82FA695A695A695877051E003
:103DD00001C0550F8A95EAF785E0A89FD00111240C
:103DE00020E030E070E0F901EA0FFB1FE653FD4FE1
:103DF0004081CB01022E02C0969587950A94E2F786
:103E000081709927819584278523842780832F5F5C
:103E10003F4F2530310539F70895292F220F920F92
:103E2000990F890F682F669566956695982F9770FC
:103E300085E0689FB001112440E050E080E0FA0185
:103E4000E60FF71FE653FD4F208130E0092E02C038
:103E5000369527950A94E2F721703327042E01C086
:103E6000220F0A94EAF7822B4F5F5F4F45305105CE
:103E700031F70895CF92DF92EF92FF920F931F9345
:103E8000CF93DF938C01C0900503D0900603E090A0
:103E90000703F09008038091010390910203A09121
:103EA0000303B0910403C82AD92AEA2AFB2ACFE1E6
:103EB000D0E0D701C6010C2E04C0B695A795979502
:103EC00087950A94D2F780FF06C0B8018C2F0E9414
:103ED000070A019721F4219760F780E001C08C2F39
:103EE000DF91CF911F910F91FF90EF90DF90CF90D6
:103EF0000895CF93DF93EC010E943A1FBE010E9408
:103F0000070ADF91CF9108951F93CF93DF93EB01C1
:103F100090919002992321F0CB010E94791F13C048
:103F2000882349F0CB010E943A1F182F682FCE0139
:103F30000E94DD1E04C0CB010E940D1F182FBE0180
:103F4000812F0E94070ADF91CF911F9108958091E0
:103F50000903859585958595089580910903877056
:103F6000089598E0899F90011124262B209309033E
:103F70000C943F1E209109038095822380930903AE
:103F8000982F977069F430E0482F552747FD5095DA
:103F90002417350729F08595859585950C94601E25
:103FA000089590910903977081E009F480E00895E5
:103FB000E0910301F091040180912D038083E09151
:103FC0000301F0910401908180912C03892B80835F
:103FD000E0910301F0910401908180912B03892BE2
:103FE000808380910A03882381F0E0910301F0919E
:103FF00004019081892B80838091030190910401B9
:104000000E94D120811110920A03809103019091A6
:1040100004010C945D1480912D03089590912D035B
:10402000892B80932D030895809590912D038923EA
:1040300080932D03089510922D03089590912C03E1
:10404000892B80932C030895809590912C038923CC
:1040500080932C03089510922C03089590912B03C4
:10406000892B80932B030895809590912B038923AE
:1040700080932B03089510922B03089580930A03D5
:10408000089510920A030895CF92DF92EF92FF9263
:104090006C01EE24FF24C114D104E104F10421F0E9
:1040A000C701B60120E101C020E0C72ED82EE92EBD
:1040B000FF24C114D104E104F10419F0285FC70101
:1040C000B6016B017C0154E0F694E794D794C79451
:1040D0005A95D1F7C114D104E104F10419F02C5F11
:1040E000C701B6016B017C0142E0F694E794D794D6
:1040F000C7944A95D1F7C114D104E104F10419F031
:104100002E5FC701B601DC01CB01B695A795979547
:104110008795892B8A2B8B2B09F02F5F822FFF909D
:10412000EF90DF90CF9008956DEE7EEF80E090E00D
:104130000E941D2E60E082E090E00E94FF2D60E072
:1041400083E090E00E94FF2D60E084E090E00E9418
:10415000FF2D60E085E090E00E94FF2D40E050E000
:10416000BA0188E090E00C94112E80E090E00E946B
:10417000F92D21E08D3E9E4F09F020E0822F089519
:1041800082E090E00C94EB2D83E090E00C94EB2D1A
:1041900084E090E00C94EB2D682F84E090E00C9488
:1041A000FF2DFC0131969C01205E3F4F80E09191F4
:1041B00091118F5FE217F307D1F708959C01FC017D
:1041C00032969FEF80E04191461789F09F3F19F4A6
:1041D000411101C0982F8F5F8E31A9F79F3F39F0B1
:1041E000F901E90FF11D97FDFA956283089508958D
:1041F000FC01329680962081261301C010823196F0
:10420000E817F907C1F70895262F269526952695D4
:104210002F3168F4FC01E20FF11D677021E030E0FE
:1042200001C0220F6A95EAF78181282B2183089526
:10423000262F2695269526952F3170F4FC01E20F46
:10424000F11D677021E030E001C0220F6A95EAF7A6
:104250002095818128232183089520911401222310
:1042600029F02091AA0327FD0C9404210C94DE2050
:1042700020911401222329F02091AA0327FD0C94F8
:1042800018210C94F820FC01319680961192E817C1
:10429000F907E1F708958091B003843021F110927D
:1042A0002F0320E488E190E00FB6F894A89580935E
:1042B00060000FBE2093600080E00E94EA0983B78F
:1042C000817F846083BF83B7816083BF7894889542
:1042D00083B78E7F83BF88E10FB6F8948093600028
:1042E000109260000FBE08950895CF930E941305A9
:1042F0000E9460050E947421C0E08C2F0E9442063B
:10430000811104C0CF5FCE30C1F701C081E0CF91F1
:1043100008950E94191A0E9451140C94EA091F92E0
:104320000F920FB60F9211248F939F93AF93BF9369
:1043300080912F03811113C08091A6039091A70350
:10434000A091A803B091A9034196A11DB11D80932E
:10435000A6039093A703A093A803B093A903BF91CA
:10436000AF919F918F910F900FBE0F901F90189556
:1043700082E084BD93E095BD9AEF97BD80936E0077
:1043800008952FB7F8948091A6039091A703A09168
:10439000A803B091A9032FBF0895CF92DF92EF92A7
:1043A000FF920F931F932FB7F8944091A60350915B
:1043B000A7036091A8037091A9032FBF6A017B0135
:1043C000EE24FF248C0120E030E0C016D106E20686
:1043D000F30610F4415051099A01281B390BC90109
:1043E0001F910F91FF90EF90DF90CF9008957894F8
:1043F0001F920F920FB60F9211248F939F93AF933A
:10440000BF938091A6039091A703A091A803B091B8
:10441000A9030196A11DB11D8093A6039093A70344
:10442000A093A803B093A903BF91AF919F918F91DF
:104430000F900FBE0F901F9018950E94B62AF89407
:104440002FEF87EA91E6215080409040E1F700C0CD
:10445000000087E090EBDC018093B9039093BA03EE
:10446000A093BB03B093BC039CE088E10FB6F89423
:10447000A895809360000FBE90936000FFCF0E94CC
:10448000B520811102C00E9494200E94C020809318
:104490002E030E94C82090E09093AB038093AA0360
:1044A0000E94C420682F70E080E090E00C94E01D32
:1044B0008091330380FF0BC06091080185E0689F05
:1044C000B001112475956795759567952BC081FF8F
:1044D00009C06091080185E0689FB00111247595BD
:1044E000679520C082FF07C06091080185E0689F42
:1044F000B001112417C0909134039923D1F0609139
:104500000701961788F72091080185E0289F900100
:104510001124929FA001939F500D112470E0CA01B5
:104520000E94D12D6038710540F46115710539F094
:1045300002C065E070E0862F08958FE7089581E05E
:1045400008958091330380FF08C06091060170E0F8
:10455000759567957595679521C081FF06C0609137
:10456000060170E07595679519C082FF04C06091DF
:10457000060170E010C0909134039923C1F060915E
:1045800005019617A0F780910601899FC0011124AB
:1045900070E00E94D12D6038710528F46115710515
:1045A00021F0862F08958FE7089581E0089561E056
:1045B00070E0F4CF803F21F40E945822819504C01E
:1045C000813F29F40E945822809337030895823F47
:1045D00021F40E945822819504C0833F29F40E944F
:1045E0005822809336030895893F19F40E94A1222E
:1045F00005C08A3F31F40E94A1228195809338033F
:1046000008958B3F21F40E94A122819504C08C3F24
:1046100029F40E94A122809339030895843F21F454
:1046200080913503816017C0853F21F48091350367
:10463000826011C0863F21F48091350384600BC0F5
:10464000873F21F480913503886005C0883F31F4AD
:104650008091350380618093350308958D3F21F467
:104660008091330381600BC08E3F21F4809133032E
:10467000826005C08F3F29F480913303846080936A
:1046800033030895803F39F48091370387FF6CC06E
:104690001092370369C0813F29F4809137031816BF
:1046A000BCF362C090913603823F29F497FF5CC04F
:1046B0001092360359C0833F19F41916CCF354C035
:1046C000893F41F48091380318160CF04DC01092C8
:1046D00038034AC08A3F29F48091380387FF44C0D9
:1046E000F6CF8B3F39F48091390387FF3DC010929C
:1046F00039033AC08C3F29F4809139031816BCF372
:1047000033C0843F21F4809135038E7F17C0853FED
:1047100021F4809135038D7F11C0863F21F4809173
:1047200035038B7F0BC0873F21F480913503877F52
:1047300005C0883F31F4809135038F7E8093350327
:1047400013C08D3F21F4809133038E7F0BC08E3FC9
:1047500021F4809133038D7F05C08F3F29F4809130
:1047600033038B7F809333038091360381110EC016
:104770008091370381110AC080913803811106C0EE
:1047800080913903811102C010923403089585E3AA
:1047900093E00E9468140E94C1219093310380939A
:1047A000300308951F93CF93DF938091300390914E
:1047B00031030E94CD21AC0190913403992321F063
:1047C0002091090130E006C0209132038AE0289F41
:1047D000900111244217530708F46EC080913603EC
:1047E000C0913703D091380310913903811107C06C
:1047F000C1115EC0D1115CC011115AC05DC09F3F94
:1048000019F09F5F90933403181624F40E945822E5
:10481000809336038091360387FF05C00E9458229B
:104820008195809336031C1624F40E9458228093AD
:1048300037038091370387FF05C00E945822819576
:104840008093370340913603442379F03091370346
:10485000332359F025EB4203A00111245093360372
:104860003203C0011124909337031D1624F40E94D3
:10487000A122809338038091380387FF05C00E94EE
:10488000A122819580933803111624F40E94A1225D
:10489000809339038091390387FF05C00E94A122CC
:1048A000819580933903DF91CF911F910C94C72399
:1048B0009F3F09F0A6CFAECFDF91CF911F91089512
:1048C000E5E3F3E085E0DF011D928A95E9F71092B8
:1048D0003403109233030895833081F128F481303A
:1048E00059F08230D1F00895853009F449C0B8F10B
:1048F000863009F456C0089580913203262F30E0A7
:10490000280F311D2F3F310524F4680F60933203C7
:1049100008958FEF80933203089580910901262F27
:1049200030E0280F311D2F3F310524F4680F6093CC
:10493000090108958FEF809309010895809108017E
:10494000262F30E0280F311D2F3F310524F4680F4A
:104950006093080108958FEF809308010895809176
:104960000701262F30E0280F311D2F3F310524F499
:10497000680F6093070108958FEF809307010895F2
:1049800080910601262F30E0280F311D2F3F310581
:1049900024F4680F6093060108958FEF8093060159
:1049A000089580910501262F30E0280F311D2F3FFB
:1049B000310524F4680F6093050108958FEF80930B
:1049C00005010895833011F128F4813049F08230D7
:1049D00091F00895853081F120F18630C1F108957C
:1049E00080913203681720F4861B80933203089568
:1049F00010923203089580910901681720F4861BF4
:104A00008093090108951092090108958091080189
:104A1000681720F4861B80930801089510920801FE
:104A2000089580910701681720F4861B8093070181
:104A3000089510920701089580910601681720F4E7
:104A4000861B8093060108951092060108958091B7
:104A50000501681720F4861B8093050108951092C4
:104A6000050108950F931F93873208F04DC08E31D2
:104A700008F093C0803109F47DC008F5873009F44F
:104A80006BC068F4863009F0A3C080912E03817F4B
:104A90008E7F80932E0381E080933B039AC08B30FE
:104AA00009F48FC08E3009F093C080912E0382FBF1
:104AB000222720F991E0922790FB82F964C0863189
:104AC00009F47FC088F4813109F082C00E94191A6C
:104AD0008091AA0387FB222720F991E0922790FB7F
:104AE00087F98093AA036DC0893109F46AC08B31BC
:104AF00009F06EC080912E0381FB222720F991E0FE
:104B0000922790FB81F93FC0883309F45AC050F4D2
:104B1000893209F458C0853309F455C0873209F445
:104B200052C056C0833409F44EC028F48A3308F4C6
:104B30004FC0895333C0883409F04AC00E94191A03
:104B40000FEF13ED20E3015010402040E1F700C0CB
:104B500000000E941D2235C080912E03982F909551
:104B6000917090FB80F980932E0391112AC0897F68
:104B7000877F10C080912E0383FB222720F991E0CC
:104B8000922790FB83F980932E039923D1F0809193
:104B90002E03816080932E0314C08D5141E050E0BC
:104BA00060E070E08A019B0104C0000F111F221F0A
:104BB000331F8A95D2F7C901B8010E94E01D0E94F7
:104BC000191A81E006C061E070E080E090E0F5CF66
:104BD00080E01F910F91089580E0089580E008958E
:104BE0008E518A3030F4E82FF0E0E354FE4F80819C
:104BF000089580E00895CF93C82F80913B038130C2
:104C000079F018F08230E9F185C0E0910301F0916C
:104C100004018081813169F0823209F07DC009C0D0
:104C2000E0910301F09104018081813111F0823221
:104C300061F48C2F0E94EC25811104C08C2F0E94FE
:104C400032251DC081E090E01AC08C2F0E94EE2515
:104C5000811114C0C43179F048F4CB3079F0C031FF
:104C600009F05EC082E080933B0308C0C93219F0AE
:104C7000C83321F055C010923B0352C081E08170CF
:104C800051C0C93279F108F5C43161F1A0F4C730DF
:104C900009F044C01092320384E180930901C0936B
:104CA00008018CE38093070188E08093060188E285
:104CB0008093050133C082EE8C0F863078F58C2FFF
:104CC0000E94F02580933A0329C0CE34E9F020F405
:104CD000CB3421F56AE013C0C13579F0C235F1F467
:104CE00061E00DC080913A03882319F010923A03D5
:104CF00015C081E080933B0315C061E006C0809140
:104D00003A030E946C240AC06AE080913A030E9430
:104D1000E22404C010923B0380E004C081E002C0A2
:104D200080E0ADCFCF91089580915C0308950F93FB
:104D30001F93CF93DF9300D01F92CDB7DEB78C01C6
:104D40000E940429823011F0843019F593E0998390
:104D50001B830A839093E9008FEF9091E8008150C4
:104D600095FD06C095ED9A95F1F700008111F5CFFC
:104D70008091E80085FF0DC040E050E063E070E006
:104D8000CE0101960E9421298091E8008E778093C0
:104D9000E8000F900F900F90DF91CF911F910F912E
:104DA0000895CF93DF9300D01F92CDB7DEB7209147
:104DB000B003243031F522E02983805891099B8388
:104DC0008A8383E08093E9008FEF9091E80081501F
:104DD00095FD06C095ED9A95F1F700008111F5CF8C
:104DE0008091E80085FF0DC040E050E063E070E096
:104DF000CE0101960E9421298091E8008E77809350
:104E0000E8000F900F900F90DF91CF910895CF930E
:104E1000DF93EC010E940429823011F08430F9F410
:104E200082E08093E9009FEF8091E800915085FD3A
:104E300006C085ED8A95F1F700009111F5CF8091BC
:104E4000E80085FF0CC040E050E065E070E0CE0176
:104E50000E9421298091E8008E778093E800DF91FD
:104E6000CF910895CF93DF93EC010E940429823003
:104E700019F0843009F047C0809114018823E1F0D3
:104E80008091AA0387FF18C084E08093E9008FEF28
:104E90009091E800815095FD06C095E19A95F1F753
:104EA00000008111F5CF8091E80085FF2CC040E023
:104EB00050E060E270E017C081E08093E9008FEF7E
:104EC0009091E800815095FD06C095ED9A95F1F717
:104ED00000008111F5CF8091E80085FF14C040E00B
:104EE00050E068E070E0CE010E9421298091E80046
:104EF0008E778093E80080E2FE01ACE3B3E001909E
:104F00000D928A95E1F7DF91CF9108958091AF03DB
:104F1000811109C00E94B62A0E94132B8091E200E1
:104F200084608093E20008951092AF03089508957D
:104F300008950C94892142E061EC81E00E94302ABE
:104F400042E061EC82E00E94302A42E061EC83E0C2
:104F50000E94302A42E261EC84E00C94302A809175
:104F6000B203833009F455C030F4813071F08230DF
:104F700009F48EC008958A3009F47AC08B3009F4A0
:104F800060C0893009F09CC020C08091B103813A93
:104F900009F096C08091E800877F8093E8008091B7
:104FA000B5039091B603892B21F460E28CE393E082
:104FB00003C060E080E090E070E00E946C29809186
:104FC000E8008B778093E80008958091B1038132E7
:104FD00009F076C08091B5039091B603009719F05F
:104FE000039709F06DC08091E800877F8093E80007
:104FF0008091E80082FD05C08091B0038111F8CF57
:105000005FC08091F10080935C038091E8008B7712
:1050100053C08091B103813A09F052C08091B50329
:105020009091B603892B09F04BC08091E800877FEF
:105030008093E8008091E80080FFFCCF809114010C
:1050400036C08091B1038132D9F58091B50390913A
:10505000B603892BA9F58091E800877F8093E8004B
:105060000E94652A8091B303809314010C94191A4D
:105070008091B103813221F58091E800877F809390
:10508000E8000E94652A8091B40380935D0308952F
:105090008091B103813AA1F48091E800877F8093E9
:1050A000E8008091E80080FFFCCF80915D03809351
:1050B000F1008091E8008E778093E8000C94652AD7
:1050C000089584B7877F84BF88E10FB6F8948093F2
:1050D0006000109260000FBE80E880936100109223
:1050E00061000E94A0140E94B62A0E94132B809196
:1050F000E20084608093E20078940E94A22D0E94D6
:10510000A2148AE091E00E944C148091B003853093
:1051100069F40E944B218091AE038823B1F30E9471
:105120007521882391F30E940B29EFCF0E94AA14C6
:105130000E944F13EACF292F332723303105C9F0BE
:1051400064F42130310581F02230310509F043C08B
:105150008DE690E028EE36E042C021323105F1F0D4
:105160002232310541F137C082E190E025E537E098
:1051700036C099278130910541F08230910541F088
:10518000892B49F5E4EEF6E005C0ECECF6E002C050
:10519000E4EBF6E0849190E09F0121C0643071055A
:1051A000D0F4660F771FFB01ED52FE4F2081318155
:1051B00089E090E014C06430710568F4FB01EE0FE3
:1051C000FF1FE553FE4F20813181FB01E953FE4F64
:1051D000808190E004C080E090E020E030E0FA01BF
:1051E0003183208308950895CF93C82F0E94F32818
:1051F000C0935E03CF9108958091B003843011F085
:1052000081E0089582E0089580915E03811102C0DB
:105210000C94FC28089580E189BD82E189BD09B420
:1052200000FEFDCF8091D8008F7D8093D8008091C3
:10523000E00082608093E0008091E00081FDFCCF7F
:105240000895CF92DF92EF92FF920F931F93CF9327
:10525000DF93EC018B016A010E94842A811133C023
:10526000C114D10439F0F60180819181081B190B1A
:10527000C80FD91FE12CF12C0115110519F18091EE
:10528000E80085FD16C08091E8008E778093E800E5
:10529000C114D10449F0F60180819181E80EF91E14
:1052A000F182E08285E00FC00E94842A882321F3E6
:1052B0000AC089918093F10001501109FFEFEF1AA4
:1052C000FF0ADACF80E0DF91CF911F910F91FF901D
:1052D000EF90DF90CF9008952091B7033091B803FD
:1052E0002617370748F06115710539F42091E80059
:1052F0002E772093E80001C0B90140E061157105E7
:10530000A9F12091B003222309F443C0253009F408
:1053100042C02091E80023FD40C02091E80022FD1A
:1053200032C02091E80020FFE9CF4091F3002091A6
:10533000F20030E0342BFC01CF016115710559F00A
:105340002830310540F481918093F100615071095A
:105350002F5F3F4FF1CF41E02830310509F040E0A9
:105360002091E8002E772093E800C8CF4111C9CFE3
:105370000AC08091B003882361F0853061F080918C
:10538000E80083FD0AC08091E80082FFF2CF80E050
:10539000089582E0089583E0089581E008952091C2
:1053A000B7033091B8032617370748F06115710528
:1053B00039F42091E8002E772093E80001C0B9016C
:1053C000FC0120E06115710591F18091B003882303
:1053D00009F440C0853009F43FC08091E80083FDA6
:1053E0003DC08091E80082FD2FC08091E80080FFE1
:1053F000E9CF2091F3008091F20090E0922B6115AB
:10540000710559F08830910540F424912093F10002
:105410003196615071090196F2CF21E0089709F0A9
:1054200020E08091E8008E778093E800CBCF2111B7
:10543000CCCF0AC08091B003882361F0853061F041
:105440008091E80083FD0AC08091E80082FFF2CFDE
:1054500080E0089582E0089583E0089581E0089552
:10546000982F973058F59093E900981739F070917C
:10547000EC002091ED005091F00003C0242F762F16
:1054800050E021FF19C03091EB003E7F3093EB00DC
:105490003091ED003D7F3093ED003091EB003160B5
:1054A0003093EB007093EC002093ED005093F000EC
:1054B0002091EE0027FF07C09F5FD3CF8F708093AE
:1054C000E90081E0089580E008958091B10387FFAD
:1054D00011C08091E80082FD05C08091B003811168
:1054E000F8CF11C08091E8008B770BC08091B0039A
:1054F000882349F08091E80080FFF8CF8091E80090
:105500008E778093E80008952091E4003091E500C3
:1055100095E64091EC00842F817040FF22C080917D
:10552000E80080FD1CC08091B003882391F0853095
:1055300091F08091EB0085FD10C04091E400509106
:10554000E5004217530729F39A01915011F784E0BF
:10555000089582E0089583E0089581E0089580E051
:1055600008954091E80042FFDECF08950E94242B69
:105570000E942C2BE0EEF0E0808181608083E8EDDA
:10558000F0E080818F77808319BCA7EDB0E08C912B
:105590008E7F8C9380818F7E80831092AF030895DD
:1055A0000F931F93CF93DF930E94242B0E942C2BE9
:1055B000C8EDD0E088818F77888388818068888370
:1055C00088818F7D888319BC1092B0031092AC0340
:1055D0001092AE031092AD0300EE10E0F80180814E
:1055E0008B7F808388818160888342E060E080E0F7
:1055F0000E94302AE1EEF0E080818E7F8083E2EE2F
:10560000F0E0808181608083808188608083F80100
:1056100080818E7F8083888180618883DF91CF91B4
:105620001F910F910895E8EDF0E080818F7E8083D7
:10563000E7EDF0E080818160808384E082BF81E0DB
:105640008093AF030C94D02AE8EDF0E080818E7F48
:1056500080831092E20008951092DA001092E10027
:1056600008951F920F920FB60F9211242F933F931C
:105670004F935F936F937F938F939F93AF93BF935A
:10568000EF93FF938091E10082FF0BC08091E200D5
:1056900082FF07C08091E1008B7F8093E1000E9430
:1056A000A12D8091DA0080FF1FC08091D80080FF7B
:1056B0001BC08091DA008E7F8093DA008091D90040
:1056C00080FF0DC080E189BD82E189BD09B400FE83
:1056D000FDCF81E08093B0030E94862705C019BCEE
:1056E0001092B0030E9494278091E10080FF19C0BE
:1056F0008091E20080FF15C08091E2008E7F809350
:10570000E2008091E20080618093E2008091D80005
:1057100080628093D80019BC85E08093B0030E941A
:1057200098278091E10084FF30C08091E20084FFDF
:105730002CC080E189BD82E189BD09B400FEFDCFA6
:105740008091D8008F7D8093D8008091E1008F7E7A
:105750008093E1008091E2008F7E8093E20080914F
:10576000E20081608093E2008091AC03882311F015
:1057700084E007C08091E30087FD02C081E001C0A2
:1057800083E08093B0030E9499278091E10083FF1A
:1057900029C08091E20083FF25C08091E100877FCE
:1057A0008093E10082E08093B0031092AC0380917B
:1057B000E1008E7F8093E1008091E2008E7F8093F4
:1057C000E2008091E20080618093E20042E060E0CC
:1057D00080E00E94302A8091F00088608093F00081
:1057E0000E949727FF91EF91BF91AF919F918F9169
:1057F0007F916F915F914F913F912F910F900FBECD
:105800000F901F9018951F920F920FB60F921124B0
:105810002F933F934F935F936F937F938F939F93B8
:10582000AF93BF93CF93DF93EF93FF93C091E900C2
:10583000CF708091EC00D82FD17080FDD0E810920D
:10584000E9008091F000877F8093F00078940E94B7
:10585000472C1092E9008091F00088608093F0005E
:10586000CD2BCF70C093E900FF91EF91DF91CF91E5
:10587000BF91AF919F918F917F916F915F914F9168
:105880003F912F910F900FBE0F901F9018951F936F
:10589000CF93DF93CDB7DEB7AA970FB6F894DEBFEC
:1058A0000FBECDBFE1EBF3E088E08E0F9091F100E9
:1058B00091938E13FBCF0E94AF278091E80083FF66
:1058C00028C18091B1039091B203492F50E04A3032
:1058D000510508F01EC1FA01E556FF4F0C94E52D65
:1058E000803821F0823809F014C108C08091AD03DE
:1058F0009091AE03992389F082600FC08091B50327
:105900008F70873008F005C18093E9008091EB002B
:1059100085FB882780F91092E9009091E800977F35
:105920009093E8008093F1001092F100D0C0282FEE
:105930002D7F09F0EEC0882319F0823061F0E9C0B4
:105940008091B303813009F0E4C0933009F080E026
:105950008093AE032EC08091B30381112AC0809141
:10596000B5038F702FEF280F263008F0D2C0809338
:10597000E9002091EB0020FF1CC0933021F48091BE
:10598000EB00806214C09091EB0090619093EB006B
:1059900021E030E0A90102C0440F551F8A95E2F7CB
:1059A0004093EA001092EA008091EB0088608093B7
:1059B000EB001092E9008091E800877F8093E80077
:1059C0000E94652AA6C08111A4C01091B3031F775D
:1059D0008091E3008078812B8093E3008091E80040
:1059E000877F8093E8000E94652A8091E80080FF0D
:1059F000FCCF8091E30080688093E300111102C026
:105A000082E001C083E08093B00383C0805882307D
:105A100008F07FC08091B3039091B4038C3D53E0B4
:105A2000950779F583E08A838AE289834FB7F894F2
:105A3000DE01139620E03EE051E2E32FF0E05093C8
:105A40005700E49120FF03C0E295EF703F5FEF70D5
:105A50008E2F90E0EA3010F0C79601C0C0968D936B
:105A60009D932F5F243149F74FBF8091E800877FD6
:105A70008093E8006AE270E0CE0101960E946C29F2
:105A800015C06091B5037091B603AE014F5F5F4FD3
:105A90000E949B28BC01892BE1F19091E800977F3F
:105AA0009093E80089819A810E94CF298091E80033
:105AB0008B778093E8002DC0803859F58091E800FD
:105AC000877F8093E8008091AC038093F100809100
:105AD000E8008E7773CF81111CC09091B303923090
